{
  "_format": "hh-sol-artifact-1",
  "contractName": "SMARTComplianceImplementation",
  "sourceName": "contracts/system/compliance/SMARTComplianceImplementation.sol",
  "abi": [
    {
      "inputs": [
        {
          "internalType": "address",
          "name": "trustedForwarder",
          "type": "address"
        }
      ],
      "stateMutability": "payable",
      "type": "constructor"
    },
    {
      "inputs": [],
      "name": "InvalidInitialization",
      "type": "error"
    },
    {
      "inputs": [],
      "name": "InvalidModuleImplementation",
      "type": "error"
    },
    {
      "inputs": [],
      "name": "NotInitializing",
      "type": "error"
    },
    {
      "inputs": [],
      "name": "ZeroAddressNotAllowed",
      "type": "error"
    },
    {
      "anonymous": false,
      "inputs": [
        {
          "indexed": false,
          "internalType": "uint64",
          "name": "version",
          "type": "uint64"
        }
      ],
      "name": "Initialized",
      "type": "event"
    },
    {
      "inputs": [
        {
          "components": [
            {
              "internalType": "address",
              "name": "module",
              "type": "address"
            },
            {
              "internalType": "bytes",
              "name": "params",
              "type": "bytes"
            }
          ],
          "internalType": "struct SMARTComplianceModuleParamPair[]",
          "name": "_pairs",
          "type": "tuple[]"
        }
      ],
      "name": "areValidComplianceModules",
      "outputs": [],
      "stateMutability": "view",
      "type": "function"
    },
    {
      "inputs": [
        {
          "internalType": "address",
          "name": "_token",
          "type": "address"
        },
        {
          "internalType": "address",
          "name": "_from",
          "type": "address"
        },
        {
          "internalType": "address",
          "name": "_to",
          "type": "address"
        },
        {
          "internalType": "uint256",
          "name": "_amount",
          "type": "uint256"
        }
      ],
      "name": "canTransfer",
      "outputs": [
        {
          "internalType": "bool",
          "name": "",
          "type": "bool"
        }
      ],
      "stateMutability": "view",
      "type": "function"
    },
    {
      "inputs": [
        {
          "internalType": "address",
          "name": "_token",
          "type": "address"
        },
        {
          "internalType": "address",
          "name": "_to",
          "type": "address"
        },
        {
          "internalType": "uint256",
          "name": "_amount",
          "type": "uint256"
        }
      ],
      "name": "created",
      "outputs": [],
      "stateMutability": "nonpayable",
      "type": "function"
    },
    {
      "inputs": [
        {
          "internalType": "address",
          "name": "_token",
          "type": "address"
        },
        {
          "internalType": "address",
          "name": "_from",
          "type": "address"
        },
        {
          "internalType": "uint256",
          "name": "_amount",
          "type": "uint256"
        }
      ],
      "name": "destroyed",
      "outputs": [],
      "stateMutability": "nonpayable",
      "type": "function"
    },
    {
      "inputs": [],
      "name": "initialize",
      "outputs": [],
      "stateMutability": "nonpayable",
      "type": "function"
    },
    {
      "inputs": [
        {
          "internalType": "address",
          "name": "forwarder",
          "type": "address"
        }
      ],
      "name": "isTrustedForwarder",
      "outputs": [
        {
          "internalType": "bool",
          "name": "",
          "type": "bool"
        }
      ],
      "stateMutability": "view",
      "type": "function"
    },
    {
      "inputs": [
        {
          "internalType": "address",
          "name": "_module",
          "type": "address"
        },
        {
          "internalType": "bytes",
          "name": "_params",
          "type": "bytes"
        }
      ],
      "name": "isValidComplianceModule",
      "outputs": [],
      "stateMutability": "view",
      "type": "function"
    },
    {
      "inputs": [
        {
          "internalType": "bytes4",
          "name": "interfaceId",
          "type": "bytes4"
        }
      ],
      "name": "supportsInterface",
      "outputs": [
        {
          "internalType": "bool",
          "name": "",
          "type": "bool"
        }
      ],
      "stateMutability": "view",
      "type": "function"
    },
    {
      "inputs": [
        {
          "internalType": "address",
          "name": "_token",
          "type": "address"
        },
        {
          "internalType": "address",
          "name": "_from",
          "type": "address"
        },
        {
          "internalType": "address",
          "name": "_to",
          "type": "address"
        },
        {
          "internalType": "uint256",
          "name": "_amount",
          "type": "uint256"
        }
      ],
      "name": "transferred",
      "outputs": [],
      "stateMutability": "nonpayable",
      "type": "function"
    },
    {
      "inputs": [],
      "name": "trustedForwarder",
      "outputs": [
        {
          "internalType": "address",
          "name": "",
          "type": "address"
        }
      ],
      "stateMutability": "view",
      "type": "function"
    }
  ],
  "bytecode": "0x60a0601f610db238819003918201601f19168301916001600160401b038311848410176101315780849260209460405283398101031261012c57516001600160a01b038116810361012c576080527ff0c57e16840df040f15088dc2f81fe391c3923bec73e23a9662efc9c229c6a005460ff8160401c1661011b576002600160401b03196001600160401b038216016100b2575b604051610c6a90816101488239608051818181610358015261049b0152f35b6001600160401b0319166001600160401b039081177ff0c57e16840df040f15088dc2f81fe391c3923bec73e23a9662efc9c229c6a00556040519081527fc7f505b2f371ae2175ee4913f4499e1f2633a7b5936321eed1cdaeb6115181d290602090a138610093565b63f92ee8a960e01b60005260046000fd5b600080fd5b634e487b7160e01b600052604160045260246000fdfe6080604052600436101561001257600080fd5b60003560e01c8062fdecdb146106fc57806301ffc9a7146106a6578063292d4803146105bb5780633e5af4ca146104cf578063572b6c051461047b5780636d62a4fe146103875780637da0a877146103425780638129fc1c146101f2578063e2677662146100f35763e50bcad31461008957600080fd5b346100ee5760403660031901126100ee576100a26107ca565b602435906001600160401b0382116100ee57366023830112156100ee578160040135906001600160401b0382116100ee5736602483850101116100ee5760246100ec930190610aea565b005b600080fd5b346100ee57610101366107e0565b6040516354c560bd60e11b81529192906000836004816001600160a01b0386165afa9283156101c1576000936101cd575b5082519260005b84811061014257005b6001600160a01b036101548284610a43565b5151169060206101648285610a43565b51015191803b156100ee57846000918983896101966040519889968795869463c4c104b960e01b865260048601610a7c565b03925af19182156101c1576001926101b0575b5001610139565b60006101bb916108a0565b876101a9565b6040513d6000823e3d90fd5b6101eb9193503d806000833e6101e381836108a0565b8101906108fa565b9184610132565b346100ee5760003660031901126100ee57600080516020610c158339815191525460ff8160401c1615906001600160401b0381168015908161033a575b6001149081610330575b159081610327575b506103165767ffffffffffffffff198116600117600080516020610c1583398151915255816102e9575b50600080516020610c15833981519152549060ff8260401c16156102d85761028f57005b68ff00000000000000001916600080516020610c15833981519152557fc7f505b2f371ae2175ee4913f4499e1f2633a7b5936321eed1cdaeb6115181d2602060405160018152a1005b631afcd79f60e31b60005260046000fd5b68ffffffffffffffffff19166801000000000000000117600080516020610c15833981519152558161026b565b63f92ee8a960e01b60005260046000fd5b90501583610241565b303b159150610239565b83915061022f565b346100ee5760003660031901126100ee576040517f00000000000000000000000000000000000000000000000000000000000000006001600160a01b03168152602090f35b346100ee576103953661081a565b6040516354c560bd60e11b8152909391906000816004816001600160a01b0387165afa9081156101c157600091610460575b5080519360005b8581106103e057602060405160018152f35b6001600160a01b036103f28285610a43565b5151169060206104028286610a43565b51015191803b156100ee5760405163ddfcf37760e01b815292600091849182908190610435908e8c8b8f60048701610ab0565b03915afa9182156101c15760019261044f575b50016103ce565b600061045a916108a0565b88610448565b61047591503d806000833e6101e381836108a0565b856103c7565b346100ee5760203660031901126100ee5760206104966107ca565b6040517f00000000000000000000000000000000000000000000000000000000000000006001600160a01b039081169216919091148152f35b346100ee576104dd3661081a565b6040516354c560bd60e11b8152909391906000816004816001600160a01b0387165afa9081156101c1576000916105a0575b5080519360005b85811061051f57005b6001600160a01b036105318285610a43565b5151169060206105418286610a43565b51015191803b156100ee578560009185838a6105758e98604051998a978896879563ea6b97a560e01b875260048701610ab0565b03925af19182156101c15760019261058f575b5001610516565b600061059a916108a0565b88610588565b6105b591503d806000833e6101e381836108a0565b8561050f565b346100ee576105c9366107e0565b6040516354c560bd60e11b81529192906000836004816001600160a01b0386165afa9283156101c157600093610689575b5082519260005b84811061060a57005b6001600160a01b0361061c8284610a43565b51511690602061062c8285610a43565b51015191803b156100ee578460009189838961065e604051988996879586946310efe2a560e01b865260048601610a7c565b03925af19182156101c157600192610678575b5001610601565b6000610683916108a0565b87610671565b61069f9193503d806000833e6101e381836108a0565b91846105fa565b346100ee5760203660031901126100ee5760043563ffffffff60e01b81168091036100ee57602090637d84485d60e01b81149081156106eb575b506040519015158152f35b6301ffc9a760e01b149050826106e0565b346100ee5760203660031901126100ee576004356001600160401b0381116100ee57366023820112156100ee5780600401356001600160401b0381116100ee576024820191602436918360051b0101116100ee5760005b81811061075c57005b610767818385610868565b35906001600160a01b03821682036100ee57610784818486610868565b602081013590601e19813603018212156100ee5701918235926001600160401b0384116100ee576020019280360384136100ee576001936107c492610aea565b01610753565b600435906001600160a01b03821682036100ee57565b60609060031901126100ee576004356001600160a01b03811681036100ee57906024356001600160a01b03811681036100ee579060443590565b60809060031901126100ee576004356001600160a01b03811681036100ee57906024356001600160a01b03811681036100ee57906044356001600160a01b03811681036100ee579060643590565b919081101561088a5760051b81013590603e19813603018212156100ee570190565b634e487b7160e01b600052603260045260246000fd5b90601f801991011681019081106001600160401b038211176108c157604052565b634e487b7160e01b600052604160045260246000fd5b60005b8381106108ea5750506000910152565b81810151838201526020016108da565b6020818303126100ee578051906001600160401b0382116100ee57019080601f830112156100ee578151916001600160401b0383116108c1578260051b916040519361094960208501866108a0565b8452602080850193830101918183116100ee5760208101935b83851061097157505050505090565b84516001600160401b0381116100ee5782016040818503601f1901126100ee5760405190604082018281106001600160401b038211176108c15760405260208101516001600160a01b03811681036100ee57825260408101516001600160401b0381116100ee5760209101019184601f840112156100ee578251916001600160401b0383116108c157604051610a11601f8501601f1916602001826108a0565b83815286602085870101116100ee57610a346020959486958680850191016108d7565b83820152815201940193610962565b805182101561088a5760209160051b010190565b90602091610a70815180928185528580860191016108d7565b601f01601f1916010190565b6001600160a01b039182168152911660208201526040810191909152608060608201819052610aad92910190610a57565b90565b6001600160a01b03918216815291811660208301529091166040820152606081019190915260a060808201819052610aad92910190610a57565b600092916001600160a01b03909116908115610c05576040516301ffc9a760e01b8152638c30a94360e01b6004820152602081602481865afa859181610bc4575b50610b3f5763062896cd60e01b8552600485fd5b15610bb557813b15610bb1578391839160446040518096819582946334ba7ac760e11b845260206004850152816024850152848401378181018301879052601f01601f191681010301915afa8015610ba657610b99575050565b81610ba3916108a0565b50565b6040513d84823e3d90fd5b8380fd5b63062896cd60e01b8452600484fd5b9091506020813d602011610bfd575b81610be0602093836108a0565b81010312610bf957518015158103610bf9579038610b2b565b8580fd5b3d9150610bd3565b6342bcdf7f60e11b8452600484fdfef0c57e16840df040f15088dc2f81fe391c3923bec73e23a9662efc9c229c6a00a2646970667358221220c346fd8bf89b451f54a11ccbd249c77aad2ee181cc9b2b8caab55e4e5a9ecfc864736f6c634300081c0033",
  "linkReferences": {},
  "deployedLinkReferences": {}
}