{
  "_format": "hh-sol-artifact-1",
  "contractName": "SMARTForwarder",
  "sourceName": "contracts/vendor/SMARTForwarder.sol",
  "abi": [
    {
      "inputs": [],
      "stateMutability": "nonpayable",
      "type": "constructor"
    },
    {
      "inputs": [
        {
          "internalType": "uint48",
          "name": "deadline",
          "type": "uint48"
        }
      ],
      "name": "ERC2771ForwarderExpiredRequest",
      "type": "error"
    },
    {
      "inputs": [
        {
          "internalType": "address",
          "name": "signer",
          "type": "address"
        },
        {
          "internalType": "address",
          "name": "from",
          "type": "address"
        }
      ],
      "name": "ERC2771ForwarderInvalidSigner",
      "type": "error"
    },
    {
      "inputs": [
        {
          "internalType": "uint256",
          "name": "requestedValue",
          "type": "uint256"
        },
        {
          "internalType": "uint256",
          "name": "msgValue",
          "type": "uint256"
        }
      ],
      "name": "ERC2771ForwarderMismatchedValue",
      "type": "error"
    },
    {
      "inputs": [
        {
          "internalType": "address",
          "name": "target",
          "type": "address"
        },
        {
          "internalType": "address",
          "name": "forwarder",
          "type": "address"
        }
      ],
      "name": "ERC2771UntrustfulTarget",
      "type": "error"
    },
    {
      "inputs": [],
      "name": "FailedCall",
      "type": "error"
    },
    {
      "inputs": [
        {
          "internalType": "uint256",
          "name": "balance",
          "type": "uint256"
        },
        {
          "internalType": "uint256",
          "name": "needed",
          "type": "uint256"
        }
      ],
      "name": "InsufficientBalance",
      "type": "error"
    },
    {
      "inputs": [
        {
          "internalType": "address",
          "name": "account",
          "type": "address"
        },
        {
          "internalType": "uint256",
          "name": "currentNonce",
          "type": "uint256"
        }
      ],
      "name": "InvalidAccountNonce",
      "type": "error"
    },
    {
      "inputs": [],
      "name": "InvalidShortString",
      "type": "error"
    },
    {
      "inputs": [
        {
          "internalType": "string",
          "name": "str",
          "type": "string"
        }
      ],
      "name": "StringTooLong",
      "type": "error"
    },
    {
      "anonymous": false,
      "inputs": [],
      "name": "EIP712DomainChanged",
      "type": "event"
    },
    {
      "anonymous": false,
      "inputs": [
        {
          "indexed": true,
          "internalType": "address",
          "name": "signer",
          "type": "address"
        },
        {
          "indexed": false,
          "internalType": "uint256",
          "name": "nonce",
          "type": "uint256"
        },
        {
          "indexed": false,
          "internalType": "bool",
          "name": "success",
          "type": "bool"
        }
      ],
      "name": "ExecutedForwardRequest",
      "type": "event"
    },
    {
      "inputs": [],
      "name": "eip712Domain",
      "outputs": [
        {
          "internalType": "bytes1",
          "name": "fields",
          "type": "bytes1"
        },
        {
          "internalType": "string",
          "name": "name",
          "type": "string"
        },
        {
          "internalType": "string",
          "name": "version",
          "type": "string"
        },
        {
          "internalType": "uint256",
          "name": "chainId",
          "type": "uint256"
        },
        {
          "internalType": "address",
          "name": "verifyingContract",
          "type": "address"
        },
        {
          "internalType": "bytes32",
          "name": "salt",
          "type": "bytes32"
        },
        {
          "internalType": "uint256[]",
          "name": "extensions",
          "type": "uint256[]"
        }
      ],
      "stateMutability": "view",
      "type": "function"
    },
    {
      "inputs": [
        {
          "components": [
            {
              "internalType": "address",
              "name": "from",
              "type": "address"
            },
            {
              "internalType": "address",
              "name": "to",
              "type": "address"
            },
            {
              "internalType": "uint256",
              "name": "value",
              "type": "uint256"
            },
            {
              "internalType": "uint256",
              "name": "gas",
              "type": "uint256"
            },
            {
              "internalType": "uint48",
              "name": "deadline",
              "type": "uint48"
            },
            {
              "internalType": "bytes",
              "name": "data",
              "type": "bytes"
            },
            {
              "internalType": "bytes",
              "name": "signature",
              "type": "bytes"
            }
          ],
          "internalType": "struct ERC2771Forwarder.ForwardRequestData",
          "name": "request",
          "type": "tuple"
        }
      ],
      "name": "execute",
      "outputs": [],
      "stateMutability": "payable",
      "type": "function"
    },
    {
      "inputs": [
        {
          "components": [
            {
              "internalType": "address",
              "name": "from",
              "type": "address"
            },
            {
              "internalType": "address",
              "name": "to",
              "type": "address"
            },
            {
              "internalType": "uint256",
              "name": "value",
              "type": "uint256"
            },
            {
              "internalType": "uint256",
              "name": "gas",
              "type": "uint256"
            },
            {
              "internalType": "uint48",
              "name": "deadline",
              "type": "uint48"
            },
            {
              "internalType": "bytes",
              "name": "data",
              "type": "bytes"
            },
            {
              "internalType": "bytes",
              "name": "signature",
              "type": "bytes"
            }
          ],
          "internalType": "struct ERC2771Forwarder.ForwardRequestData[]",
          "name": "requests",
          "type": "tuple[]"
        },
        {
          "internalType": "address payable",
          "name": "refundReceiver",
          "type": "address"
        }
      ],
      "name": "executeBatch",
      "outputs": [],
      "stateMutability": "payable",
      "type": "function"
    },
    {
      "inputs": [
        {
          "internalType": "address",
          "name": "owner",
          "type": "address"
        }
      ],
      "name": "nonces",
      "outputs": [
        {
          "internalType": "uint256",
          "name": "",
          "type": "uint256"
        }
      ],
      "stateMutability": "view",
      "type": "function"
    },
    {
      "inputs": [
        {
          "components": [
            {
              "internalType": "address",
              "name": "from",
              "type": "address"
            },
            {
              "internalType": "address",
              "name": "to",
              "type": "address"
            },
            {
              "internalType": "uint256",
              "name": "value",
              "type": "uint256"
            },
            {
              "internalType": "uint256",
              "name": "gas",
              "type": "uint256"
            },
            {
              "internalType": "uint48",
              "name": "deadline",
              "type": "uint48"
            },
            {
              "internalType": "bytes",
              "name": "data",
              "type": "bytes"
            },
            {
              "internalType": "bytes",
              "name": "signature",
              "type": "bytes"
            }
          ],
          "internalType": "struct ERC2771Forwarder.ForwardRequestData",
          "name": "request",
          "type": "tuple"
        }
      ],
      "name": "verify",
      "outputs": [
        {
          "internalType": "bool",
          "name": "",
          "type": "bool"
        }
      ],
      "stateMutability": "view",
      "type": "function"
    }
  ],
  "bytecode": "0x6101606040523461012e57604051610018604082610133565b600e815260208101906d29a6a0a92a2337b93bb0b93232b960911b825260405191610044604084610133565b600183526020830191603160f81b835261005d8161016c565b6101205261006a8461032e565b61014052519020918260e05251902080610100524660a0526040519060208201927f8b73c3c69bb8fe3d512ecc4cf759cc79239f7b179b0ffacaa9a75d522b39400f8452604083015260608201524660808201523060a082015260a081526100d360c082610133565b5190206080523060c052604051610e6390816104cd823960805181610cb5015260a05181610d72015260c05181610c7f015260e05181610d0401526101005181610d2a0152610120518161051e015261014051816105470152f35b600080fd5b601f909101601f19168101906001600160401b0382119082101761015657604052565b634e487b7160e01b600052604160045260246000fd5b90815160208110600014610204575090601f8151116101a8576020815191015160208210610198571790565b6000198260200360031b1b161790565b6040519063305a27a960e01b8252602060048301528181519182602483015260005b8381106101ec5750508160006044809484010152601f80199101168101030190fd5b602082820181015160448784010152859350016101ca565b6001600160401b03811161015657600054600181811c91168015610324575b602082101461030e57601f81116102d9575b50602092601f8211600114610275579281929360009261026a575b50508160011b916000199060031b1c19161760005560ff90565b015190503880610250565b601f1982169360008052806000209160005b8681106102c157508360019596106102a8575b505050811b0160005560ff90565b015160001960f88460031b161c1916905538808061029a565b91926020600181928685015181550194019201610287565b60008052601f6020600020910160051c810190601f830160051c015b8181106103025750610235565b600081556001016102f5565b634e487b7160e01b600052602260045260246000fd5b90607f1690610223565b908151602081106000146103b6575090601f81511161035a576020815191015160208210610198571790565b6040519063305a27a960e01b8252602060048301528181519182602483015260005b83811061039e5750508160006044809484010152601f80199101168101030190fd5b6020828201810151604487840101528593500161037c565b6001600160401b03811161015657600154600181811c911680156104c2575b602082101461030e57601f811161048c575b50602092601f8211600114610427579281929360009261041c575b50508160011b916000199060031b1c19161760015560ff90565b015190503880610402565b601f198216936001600052806000209160005b868110610474575083600195961061045b575b505050811b0160015560ff90565b015160001960f88460031b161c1916905538808061044d565b9192602060018192868501518155019401920161043a565b6001600052601f6020600020910160051c810190601f830160051c015b8181106104b657506103e7565b600081556001016104a9565b90607f16906103d556fe6080604052600436101561001257600080fd5b60003560e01c806319d8d38c146106495780637ecebe001461060257806384b0196e14610505578063ccf96b4a146102455763df905caf1461005357600080fd5b61005c3661068b565b60408101359081340361022c57600091610075826107ba565b92919082156101fb5781156101d35780156101a4578261019c575b5081610194575b506100b8575b505050156100a757005b63d6bda27560e01b60005260046000fd5b9091925060018060a01b03169081600052600260205260008060408120928354936001850190556060860135956100f160208201610793565b916101116101496014602061010960a08701876109bc565b949096610793565b9360405194818692848401998a378201906bffffffffffffffffffffffff199060601b16838201520301600b19810184520182610700565b519288f192603f5a9104116101925760407f842fb24a83793558587a3dab2be7674da4a51d09c5542d6dd354e5d0ea70813c9181519081528415156020820152a238808061009d565bfe5b905038610097565b915038610090565b836101ae87610793565b636422d02b60e11b60009081526001600160a01b039283166004529116602452604490fd5b65ffffffffffff6101e6608088016107a7565b634a777ac560e11b6000521660045260246000fd5b61020760208701610793565b63d2650cd160e01b60009081526001600160a01b039190911660045230602452604490fd5b506370647f7960e01b6000526004523460245260446000fd5b60403660031901126105005760043567ffffffffffffffff811161050057366023820112156105005780600401359067ffffffffffffffff8211610500576024810190602436918460051b010111610500576024356001600160a01b0381169190829003610500578115926000916000946000925b80841061035d57505050503481036103455750816102d457005b81471061032c57600080809381935af13d15610324573d906102f5826109ef565b916103036040519384610700565b82523d6000602084013e5b1561031557005b8051156100a757805190602001fd5b60609061030e565b504763cf47918160e01b60005260045260245260446000fd5b6370647f7960e01b6000526004523460245260446000fd5b9091929361037a906040610372878588610738565b013590610770565b93610386818386610738565b60009084610393826107ba565b936104c6575b826104be575b50816104b6575b506103db575b5050156103bf575b6001019291906102ba565b956103d360019160406103728a8689610738565b9690506103b4565b90915060018060a01b03168060005260026020526040600020805490600182019055600080606085013594604061041460208301610793565b61042160a08401846109bc565b61046b6014602061043488979597610793565b938551948186928484019a8b378201906bffffffffffffffffffffffff199060601b16838201520301600b19810184520182610700565b519301359088f192603f5a9104116101925760407f842fb24a83793558587a3dab2be7674da4a51d09c5542d6dd354e5d0ea70813c9181519081528415156020820152a288806103ac565b90508b6103a6565b91508c61039f565b82156104f45781156104e1578061039957836101ae86610793565b65ffffffffffff6101e6608087016107a7565b61020760208601610793565b600080fd5b34610500576000366003190112610500576105a46105427f0000000000000000000000000000000000000000000000000000000000000000610a42565b61056b7f0000000000000000000000000000000000000000000000000000000000000000610b6e565b60206105b26040519261057e8385610700565b600084526000368137604051958695600f60f81b875260e08588015260e08701906106bf565b9085820360408701526106bf565b466060850152306080850152600060a085015283810360c085015281808451928381520193019160005b8281106105eb57505050500390f35b8351855286955093810193928101926001016105dc565b34610500576020366003190112610500576004356001600160a01b0381168103610500576001600160a01b0316600090815260026020908152604090912054604051908152f35b3461050057602061066161065c3661068b565b6107ba565b509082610683575b508161067b575b506040519015158152f35b905082610670565b915083610669565b6020600319820112610500576004359067ffffffffffffffff82116105005760e09082900360031901126105005760040190565b919082519283825260005b8481106106eb575050826000602080949584010152601f8019910116010190565b806020809284010151828286010152016106ca565b90601f8019910116810190811067ffffffffffffffff82111761072257604052565b634e487b7160e01b600052604160045260246000fd5b919081101561075a5760051b8101359060de1981360301821215610500570190565b634e487b7160e01b600052603260045260246000fd5b9190820180921161077d57565b634e487b7160e01b600052601160045260246000fd5b356001600160a01b03811681036105005790565b3565ffffffffffff811681036105005790565b906107c482610793565b60208301916108e960426107d785610793565b936107ff6107e488610793565b6001600160a01b031660009081526002602052604090205490565b94608088019565ffffffffffff610815886107a7565b61082c61082560a08d018d6109bc565b3691610a0b565b60208151910120926040519460208601967f7f96328b83274ebc7c1cf4f7a3abda602b51a78b7fa1d86a2ce353d75e587cac885260018060a01b0316604087015260018060a01b0316606086015260408c0135608086015260608c013560a086015260c08501521660e083015261010082015261010081526108b061012082610700565b5190206108bb610c7c565b906040519161190160f01b835260028301526022820152206108e361082560c08801886109bc565b90610c40565b5060048194929410156109a65760006109056020921596610793565b6040518381019063572b6c0560e01b82523060248201526024815261092b604482610700565b51915afa903d600051908361099a575b508261098e575b5061094c906107a7565b9484610966575b509365ffffffffffff4291161015929190565b9093506001600160a01b039061097b90610793565b166001600160a01b038316149238610953565b1515915061094c610942565b6020111592503861093b565b634e487b7160e01b600052602160045260246000fd5b903590601e1981360301821215610500570180359067ffffffffffffffff82116105005760200191813603831361050057565b67ffffffffffffffff811161072257601f01601f191660200190565b929192610a17826109ef565b91610a256040519384610700565b829481845281830111610500578281602093846000960137010152565b60ff8114610a8c5760ff811690601f8211610a7b576040805192610a668285610700565b6020808552840191601f190136833783525290565b632cd44ac360e21b60005260046000fd5b5060405160008054908160011c91600181168015610b64575b602084108114610b50578385528492918115610b315750600114610ad3575b610ad092500382610700565b90565b50600080805290917f290decd9548b62a8d60345a988386fc84ba6bc95484008f6362f93160ef3e5635b818310610b15575050906020610ad092820101610ac4565b6020919350806001915483858801015201910190918392610afd565b60209250610ad094915060ff191682840152151560051b820101610ac4565b634e487b7160e01b83526022600452602483fd5b92607f1692610aa5565b60ff8114610b925760ff811690601f8211610a7b576040805192610a668285610700565b506040516000600154908160011c91600181168015610c36575b602084108114610b50578385528492918115610b315750600114610bd657610ad092500382610700565b506001600090815290917fb10e2d527612073b26eecdfd717e6a320cf44b4afac2b0732d9fcbe2b7fa0cf65b818310610c1a575050906020610ad092820101610ac4565b6020919350806001915483858801015201910190918392610c02565b92607f1692610bac565b8151919060418303610c7157610c6a92506020820151906060604084015193015160001a90610d98565b9192909190565b505060009160029190565b307f00000000000000000000000000000000000000000000000000000000000000006001600160a01b03161480610d6f575b15610cd7577f000000000000000000000000000000000000000000000000000000000000000090565b60405160208101907f8b73c3c69bb8fe3d512ecc4cf759cc79239f7b179b0ffacaa9a75d522b39400f82527f000000000000000000000000000000000000000000000000000000000000000060408201527f000000000000000000000000000000000000000000000000000000000000000060608201524660808201523060a082015260a08152610d6960c082610700565b51902090565b507f00000000000000000000000000000000000000000000000000000000000000004614610cae565b91907f7fffffffffffffffffffffffffffffff5d576e7357a4501ddfe92f46681b20a08411610e21579160209360809260ff60009560405194855216868401526040830152606082015282805260015afa15610e15576000516001600160a01b03811615610e095790600090600090565b50600090600190600090565b6040513d6000823e3d90fd5b5050506000916003919056fea2646970667358221220c584588d184d1db9c269b297474919ffaef97fc494cb38d234207a33805d8b4064736f6c634300081c0033",
  "linkReferences": {},
  "deployedLinkReferences": {}
}