{
  "_format": "hh-sol-artifact-1",
  "contractName": "SMARTIdentityFactoryImplementation",
  "sourceName": "contracts/system/identity-factory/SMARTIdentityFactoryImplementation.sol",
  "abi": [
    {
      "inputs": [
        {
          "internalType": "address",
          "name": "trustedForwarder",
          "type": "address"
        }
      ],
      "stateMutability": "payable",
      "type": "constructor"
    },
    {
      "inputs": [],
      "name": "AccessControlBadConfirmation",
      "type": "error"
    },
    {
      "inputs": [
        {
          "internalType": "address",
          "name": "account",
          "type": "address"
        },
        {
          "internalType": "bytes32",
          "name": "neededRole",
          "type": "bytes32"
        }
      ],
      "name": "AccessControlUnauthorizedAccount",
      "type": "error"
    },
    {
      "inputs": [],
      "name": "Create2EmptyBytecode",
      "type": "error"
    },
    {
      "inputs": [],
      "name": "DeploymentAddressMismatch",
      "type": "error"
    },
    {
      "inputs": [],
      "name": "FailedDeployment",
      "type": "error"
    },
    {
      "inputs": [
        {
          "internalType": "uint256",
          "name": "balance",
          "type": "uint256"
        },
        {
          "internalType": "uint256",
          "name": "needed",
          "type": "uint256"
        }
      ],
      "name": "InsufficientBalance",
      "type": "error"
    },
    {
      "inputs": [],
      "name": "InvalidInitialization",
      "type": "error"
    },
    {
      "inputs": [],
      "name": "InvalidSystemAddress",
      "type": "error"
    },
    {
      "inputs": [],
      "name": "NotInitializing",
      "type": "error"
    },
    {
      "inputs": [
        {
          "internalType": "string",
          "name": "salt",
          "type": "string"
        }
      ],
      "name": "SaltAlreadyTaken",
      "type": "error"
    },
    {
      "inputs": [
        {
          "internalType": "uint256",
          "name": "value",
          "type": "uint256"
        },
        {
          "internalType": "uint256",
          "name": "length",
          "type": "uint256"
        }
      ],
      "name": "StringsInsufficientHexLength",
      "type": "error"
    },
    {
      "inputs": [
        {
          "internalType": "address",
          "name": "token",
          "type": "address"
        }
      ],
      "name": "TokenAlreadyLinked",
      "type": "error"
    },
    {
      "inputs": [
        {
          "internalType": "address",
          "name": "wallet",
          "type": "address"
        }
      ],
      "name": "WalletAlreadyLinked",
      "type": "error"
    },
    {
      "inputs": [],
      "name": "WalletInManagementKeys",
      "type": "error"
    },
    {
      "inputs": [],
      "name": "ZeroAddressNotAllowed",
      "type": "error"
    },
    {
      "anonymous": false,
      "inputs": [
        {
          "indexed": true,
          "internalType": "address",
          "name": "sender",
          "type": "address"
        },
        {
          "indexed": true,
          "internalType": "address",
          "name": "identity",
          "type": "address"
        },
        {
          "indexed": true,
          "internalType": "address",
          "name": "wallet",
          "type": "address"
        }
      ],
      "name": "IdentityCreated",
      "type": "event"
    },
    {
      "anonymous": false,
      "inputs": [
        {
          "indexed": false,
          "internalType": "uint64",
          "name": "version",
          "type": "uint64"
        }
      ],
      "name": "Initialized",
      "type": "event"
    },
    {
      "anonymous": false,
      "inputs": [
        {
          "indexed": true,
          "internalType": "bytes32",
          "name": "role",
          "type": "bytes32"
        },
        {
          "indexed": true,
          "internalType": "bytes32",
          "name": "previousAdminRole",
          "type": "bytes32"
        },
        {
          "indexed": true,
          "internalType": "bytes32",
          "name": "newAdminRole",
          "type": "bytes32"
        }
      ],
      "name": "RoleAdminChanged",
      "type": "event"
    },
    {
      "anonymous": false,
      "inputs": [
        {
          "indexed": true,
          "internalType": "bytes32",
          "name": "role",
          "type": "bytes32"
        },
        {
          "indexed": true,
          "internalType": "address",
          "name": "account",
          "type": "address"
        },
        {
          "indexed": true,
          "internalType": "address",
          "name": "sender",
          "type": "address"
        }
      ],
      "name": "RoleGranted",
      "type": "event"
    },
    {
      "anonymous": false,
      "inputs": [
        {
          "indexed": true,
          "internalType": "bytes32",
          "name": "role",
          "type": "bytes32"
        },
        {
          "indexed": true,
          "internalType": "address",
          "name": "account",
          "type": "address"
        },
        {
          "indexed": true,
          "internalType": "address",
          "name": "sender",
          "type": "address"
        }
      ],
      "name": "RoleRevoked",
      "type": "event"
    },
    {
      "anonymous": false,
      "inputs": [
        {
          "indexed": true,
          "internalType": "address",
          "name": "sender",
          "type": "address"
        },
        {
          "indexed": true,
          "internalType": "address",
          "name": "identity",
          "type": "address"
        },
        {
          "indexed": true,
          "internalType": "address",
          "name": "token",
          "type": "address"
        }
      ],
      "name": "TokenIdentityCreated",
      "type": "event"
    },
    {
      "inputs": [],
      "name": "DEFAULT_ADMIN_ROLE",
      "outputs": [
        {
          "internalType": "bytes32",
          "name": "",
          "type": "bytes32"
        }
      ],
      "stateMutability": "view",
      "type": "function"
    },
    {
      "inputs": [],
      "name": "REGISTRAR_ROLE",
      "outputs": [
        {
          "internalType": "bytes32",
          "name": "",
          "type": "bytes32"
        }
      ],
      "stateMutability": "view",
      "type": "function"
    },
    {
      "inputs": [],
      "name": "TOKEN_SALT_PREFIX",
      "outputs": [
        {
          "internalType": "string",
          "name": "",
          "type": "string"
        }
      ],
      "stateMutability": "view",
      "type": "function"
    },
    {
      "inputs": [],
      "name": "WALLET_SALT_PREFIX",
      "outputs": [
        {
          "internalType": "string",
          "name": "",
          "type": "string"
        }
      ],
      "stateMutability": "view",
      "type": "function"
    },
    {
      "inputs": [
        {
          "internalType": "address",
          "name": "_tokenAddress",
          "type": "address"
        },
        {
          "internalType": "address",
          "name": "_initialManager",
          "type": "address"
        }
      ],
      "name": "calculateTokenIdentityAddress",
      "outputs": [
        {
          "internalType": "address",
          "name": "",
          "type": "address"
        }
      ],
      "stateMutability": "view",
      "type": "function"
    },
    {
      "inputs": [
        {
          "internalType": "address",
          "name": "_walletAddress",
          "type": "address"
        },
        {
          "internalType": "address",
          "name": "_initialManager",
          "type": "address"
        }
      ],
      "name": "calculateWalletIdentityAddress",
      "outputs": [
        {
          "internalType": "address",
          "name": "",
          "type": "address"
        }
      ],
      "stateMutability": "view",
      "type": "function"
    },
    {
      "inputs": [
        {
          "internalType": "address",
          "name": "_wallet",
          "type": "address"
        },
        {
          "internalType": "bytes32[]",
          "name": "_managementKeys",
          "type": "bytes32[]"
        }
      ],
      "name": "createIdentity",
      "outputs": [
        {
          "internalType": "address",
          "name": "",
          "type": "address"
        }
      ],
      "stateMutability": "nonpayable",
      "type": "function"
    },
    {
      "inputs": [
        {
          "internalType": "address",
          "name": "_token",
          "type": "address"
        },
        {
          "internalType": "address",
          "name": "_tokenOwner",
          "type": "address"
        }
      ],
      "name": "createTokenIdentity",
      "outputs": [
        {
          "internalType": "address",
          "name": "",
          "type": "address"
        }
      ],
      "stateMutability": "nonpayable",
      "type": "function"
    },
    {
      "inputs": [
        {
          "internalType": "address",
          "name": "_wallet",
          "type": "address"
        }
      ],
      "name": "getIdentity",
      "outputs": [
        {
          "internalType": "address",
          "name": "",
          "type": "address"
        }
      ],
      "stateMutability": "view",
      "type": "function"
    },
    {
      "inputs": [
        {
          "internalType": "bytes32",
          "name": "role",
          "type": "bytes32"
        }
      ],
      "name": "getRoleAdmin",
      "outputs": [
        {
          "internalType": "bytes32",
          "name": "",
          "type": "bytes32"
        }
      ],
      "stateMutability": "view",
      "type": "function"
    },
    {
      "inputs": [
        {
          "internalType": "bytes32",
          "name": "role",
          "type": "bytes32"
        },
        {
          "internalType": "uint256",
          "name": "index",
          "type": "uint256"
        }
      ],
      "name": "getRoleMember",
      "outputs": [
        {
          "internalType": "address",
          "name": "",
          "type": "address"
        }
      ],
      "stateMutability": "view",
      "type": "function"
    },
    {
      "inputs": [
        {
          "internalType": "bytes32",
          "name": "role",
          "type": "bytes32"
        }
      ],
      "name": "getRoleMemberCount",
      "outputs": [
        {
          "internalType": "uint256",
          "name": "",
          "type": "uint256"
        }
      ],
      "stateMutability": "view",
      "type": "function"
    },
    {
      "inputs": [
        {
          "internalType": "bytes32",
          "name": "role",
          "type": "bytes32"
        }
      ],
      "name": "getRoleMembers",
      "outputs": [
        {
          "internalType": "address[]",
          "name": "",
          "type": "address[]"
        }
      ],
      "stateMutability": "view",
      "type": "function"
    },
    {
      "inputs": [],
      "name": "getSystem",
      "outputs": [
        {
          "internalType": "address",
          "name": "",
          "type": "address"
        }
      ],
      "stateMutability": "view",
      "type": "function"
    },
    {
      "inputs": [
        {
          "internalType": "address",
          "name": "_token",
          "type": "address"
        }
      ],
      "name": "getTokenIdentity",
      "outputs": [
        {
          "internalType": "address",
          "name": "",
          "type": "address"
        }
      ],
      "stateMutability": "view",
      "type": "function"
    },
    {
      "inputs": [
        {
          "internalType": "bytes32",
          "name": "role",
          "type": "bytes32"
        },
        {
          "internalType": "address",
          "name": "account",
          "type": "address"
        }
      ],
      "name": "grantRole",
      "outputs": [],
      "stateMutability": "nonpayable",
      "type": "function"
    },
    {
      "inputs": [
        {
          "internalType": "bytes32",
          "name": "role",
          "type": "bytes32"
        },
        {
          "internalType": "address",
          "name": "account",
          "type": "address"
        }
      ],
      "name": "hasRole",
      "outputs": [
        {
          "internalType": "bool",
          "name": "",
          "type": "bool"
        }
      ],
      "stateMutability": "view",
      "type": "function"
    },
    {
      "inputs": [
        {
          "internalType": "address",
          "name": "systemAddress",
          "type": "address"
        },
        {
          "internalType": "address",
          "name": "initialAdmin",
          "type": "address"
        }
      ],
      "name": "initialize",
      "outputs": [],
      "stateMutability": "nonpayable",
      "type": "function"
    },
    {
      "inputs": [
        {
          "internalType": "address",
          "name": "forwarder",
          "type": "address"
        }
      ],
      "name": "isTrustedForwarder",
      "outputs": [
        {
          "internalType": "bool",
          "name": "",
          "type": "bool"
        }
      ],
      "stateMutability": "view",
      "type": "function"
    },
    {
      "inputs": [
        {
          "internalType": "bytes32",
          "name": "role",
          "type": "bytes32"
        },
        {
          "internalType": "address",
          "name": "callerConfirmation",
          "type": "address"
        }
      ],
      "name": "renounceRole",
      "outputs": [],
      "stateMutability": "nonpayable",
      "type": "function"
    },
    {
      "inputs": [
        {
          "internalType": "bytes32",
          "name": "role",
          "type": "bytes32"
        },
        {
          "internalType": "address",
          "name": "account",
          "type": "address"
        }
      ],
      "name": "revokeRole",
      "outputs": [],
      "stateMutability": "nonpayable",
      "type": "function"
    },
    {
      "inputs": [
        {
          "internalType": "bytes4",
          "name": "interfaceId",
          "type": "bytes4"
        }
      ],
      "name": "supportsInterface",
      "outputs": [
        {
          "internalType": "bool",
          "name": "",
          "type": "bool"
        }
      ],
      "stateMutability": "view",
      "type": "function"
    },
    {
      "inputs": [],
      "name": "trustedForwarder",
      "outputs": [
        {
          "internalType": "address",
          "name": "",
          "type": "address"
        }
      ],
      "stateMutability": "view",
      "type": "function"
    }
  ],
  "bytecode": "0x60a0601f61217638819003918201601f19168301916001600160401b038311848410176101385780849260209460405283398101031261013357516001600160a01b0381168103610133576080527ff0c57e16840df040f15088dc2f81fe391c3923bec73e23a9662efc9c229c6a005460ff8160401c16610122576002600160401b03196001600160401b038216016100b9575b604051612027908161014f823960805181818161073f0152818161078e01526113940152f35b6001600160401b0319166001600160401b039081177ff0c57e16840df040f15088dc2f81fe391c3923bec73e23a9662efc9c229c6a00556040519081527fc7f505b2f371ae2175ee4913f4499e1f2633a7b5936321eed1cdaeb6115181d290602090a138610093565b63f92ee8a960e01b60005260046000fd5b600080fd5b634e487b7160e01b600052604160045260246000fdfe608080604052600436101561001357600080fd5b60003560e01c90816301ffc9a714610c4957508063248a9ca314610c235780632f2ff15d14610bf25780632fea7b8114610bb057806336568abe14610b5a578063485cc9551461090357806355c759ed146107c2578063572b6c051461076e5780637da0a877146107295780638da0d79f146106f15780639010d07c1461069d57806391d1485414610643578063a217fddf14610627578063a3246ad314610565578063a4e4fa9814610549578063ad0ca90614610520578063ad70bdd7146104d6578063c6c7fb5614610494578063c9828cd514610468578063ca15c8731461042f578063d547741f146103f7578063e6aa44e21461014a5763f68e95531461011c57600080fd5b34610145576000366003190112610145576020604051600080516020611fb28339815191528152f35b600080fd5b3461014557604036600319011261014557610163610ce6565b6024359067ffffffffffffffff8211610145573660238301121561014557816004013567ffffffffffffffff8111610145576024830192602436918360051b010111610145576101b1610e0e565b6001600160a01b0382169182156103e6576000838152600260205260409020546001600160a01b03166103d1576101ef816101ea610d34565b610f7b565b81600052600160205260ff604060002054166103b05750610223816102148482611135565b61021d85611562565b916116f7565b9060005260016020526040600020600160ff1982541617905560018060a01b031691806102ae575b600084815260026020908152604090912080546001600160a01b0319168517905584846001600160a01b0361027e611391565b169181604051937f8f2e597fd6e795e9851eea530f987cceb641315e3c7c9d484b798e3159d42095600080a48152f35b6000916bffffffffffffffffffffffff199060601b16915b8181106102d3575061024b565b6102de818388610de8565b356040516020810190858252601481526102f9603482610cfc565b5190201461039f5761030c818388610de8565b6040516274e04960e61b81529035600482015260016024820181905260448201526020816064816000895af190811561039357600091610351575b50506001016102c6565b6020813d821161038b575b8161036960209383610cfc565b81010312610387575190811515820361038457508190610347565b80fd5b5080fd5b3d915061035c565b6040513d6000823e3d90fd5b63a9abb9cf60e01b60005260046000fd5b6040516304d2fa9b60e41b81529081906103cd9060048301610d78565b0390fd5b82630195dd1b60e31b60005260045260246000fd5b6342bcdf7f60e11b60005260046000fd5b346101455760403660031901126101455761042d600435610416610cd0565b9061042861042382610dc7565b610e8c565b610f37565b005b3461014557602036600319011261014557600435600052600080516020611f728339815191526020526020604060002054604051908152f35b3461014557600036600319011261014557610490610484610da4565b60405191829182610d78565b0390f35b34610145576020366003190112610145576001600160a01b036104b5610ce6565b166000526003602052602060018060a01b0360406000205416604051908152f35b3461014557604036600319011261014557602061050e6104f4610ce6565b6105086104ff610cd0565b916101ea610d34565b50611135565b6040516001600160a01b039091168152f35b34610145576000366003190112610145576000546040516001600160a01b039091168152602090f35b3461014557600036600319011261014557610490610484610d34565b3461014557602036600319011261014557600435600052600080516020611f7283398151915260205260406000206040518060208354918281520190819360005260206000209060005b81811061061157505050816105c5910382610cfc565b6040519182916020830190602084525180915260408301919060005b8181106105ef575050500390f35b82516001600160a01b03168452859450602093840193909201916001016105e1565b82548452602090930192600192830192016105af565b3461014557600036600319011261014557602060405160008152f35b346101455760403660031901126101455761065c610cd0565b600435600052600080516020611f9283398151915260205260406000209060018060a01b0316600052602052602060ff604060002054166040519015158152f35b3461014557604036600319011261014557600435600052600080516020611f7283398151915260205260206106d8602435604060002061154a565b905460405160039290921b1c6001600160a01b03168152f35b3461014557604036600319011261014557602061050e61070f610ce6565b61072361071a610cd0565b916101ea610da4565b506110d7565b34610145576000366003190112610145576040517f00000000000000000000000000000000000000000000000000000000000000006001600160a01b03168152602090f35b34610145576020366003190112610145576020610789610ce6565b6040517f00000000000000000000000000000000000000000000000000000000000000006001600160a01b039081169216919091148152f35b34610145576040366003190112610145576107db610ce6565b6107e3610cd0565b906107ec610e0e565b6001600160a01b0381169081156103e6576001600160a01b038316156103e6576000828152600360205260409020546001600160a01b03166108ee57610834906101ea610da4565b81600093929352600160205260ff604060002054166103b05750610868828461021d610862602097846110d7565b916114c6565b600092835260018085526040808520805460ff19169092179091558284526003855290922080546001600160a01b0319166001600160a01b03808516919091179091556108b3611391565b604051936001600160a01b031692918391167fbfb80e4490f93265711078bc7aa5476dc4edfd6c61b12612ea310063c20d35a8600080a48152f35b50634b8f68dd60e11b60005260045260246000fd5b346101455760403660031901126101455761091c610ce6565b610924610cd0565b600080516020611fd2833981519152549160ff8360401c16159267ffffffffffffffff811680159081610b52575b6001149081610b48575b159081610b3f575b50610b2e5767ffffffffffffffff198116600117600080516020611fd28339815191525583610b01575b506001600160a01b0316908115610af0576109a7611498565b6109af611498565b6109b881611146565b610aa1575b6109c68161120c565b610a43575b506bffffffffffffffffffffffff60a01b60005416176000556109ea57005b68ff000000000000000019600080516020611fd28339815191525416600080516020611fd2833981519152557fc7f505b2f371ae2175ee4913f4499e1f2633a7b5936321eed1cdaeb6115181d2602060405160018152a1005b600080516020611fb2833981519152600052600080516020611f72833981519152602052610a9a906001600160a01b03167f32d31393d541a265984ec379cddd8b1fcbe5f2b0eb8ad81dddfead454f135eaa6115ae565b50826109cb565b60008052600080516020611f72833981519152602052610aea6001600160a01b0382167f615f0f9e84155bea8cc509fe18befeb1baf65611e38a6ba60964480fb29dfd446115ae565b506109bd565b633f997a3760e01b60005260046000fd5b68ffffffffffffffffff19166801000000000000000117600080516020611fd2833981519152558361098e565b63f92ee8a960e01b60005260046000fd5b90501585610964565b303b15915061095c565b859150610952565b3461014557604036600319011261014557610b73610cd0565b6001600160a01b03610b83611391565b166001600160a01b03821603610b9f5761042d90600435610f37565b63334bd91960e11b60005260046000fd5b34610145576020366003190112610145576001600160a01b03610bd1610ce6565b166000526002602052602060018060a01b0360406000205416604051908152f35b346101455760403660031901126101455761042d600435610c11610cd0565b90610c1e61042382610dc7565b610eef565b34610145576020366003190112610145576020610c41600435610dc7565b604051908152f35b34610145576020366003190112610145576004359063ffffffff60e01b8216809203610145576020916307a90f7960e41b8114908115610c8b575b5015158152f35b635a05180f60e01b811491508115610ca5575b5083610c84565b637965db0b60e01b811491508115610cbf575b5083610c9e565b6301ffc9a760e01b14905083610cb8565b602435906001600160a01b038216820361014557565b600435906001600160a01b038216820361014557565b90601f8019910116810190811067ffffffffffffffff821117610d1e57604052565b634e487b7160e01b600052604160045260246000fd5b60405190610d43604083610cfc565b600382526213d25160ea1b6020830152565b60005b838110610d685750506000910152565b8181015183820152602001610d58565b60409160208252610d988151809281602086015260208686019101610d55565b601f01601f1916010190565b60405190610db3604083610cfc565b60058252642a37b5b2b760d91b6020830152565b600052600080516020611f9283398151915260205260016040600020015490565b9190811015610df85760051b0190565b634e487b7160e01b600052603260045260246000fd5b610e16611391565b6001600160a01b03811660009081527f07966f2ab141347034724e9b2a472c2f77f5cd745aeba27cacba797b8fcb7086602052604090205460ff1615610e595750565b63e2517d3f60e01b60009081526001600160a01b0391909116600452600080516020611fb2833981519152602452604490fd5b610e94611391565b81600052600080516020611f92833981519152602052604060002060018060a01b03821660005260205260ff6040600020541615610ed0575050565b63e2517d3f60e01b60005260018060a01b031660045260245260446000fd5b610ef982826112da565b9182610f0457505090565b6000918252600080516020611f728339815191526020526040909120610f33916001600160a01b0316906115ae565b5090565b610f4182826113ea565b9182610f4c57505090565b6000918252600080516020611f728339815191526020526040909120610f33916001600160a01b031690611624565b6040516001600160a01b03909216929183610f97606083610cfc565b602a825260208201946040368737825115610df85760308653825160011015610df8576078602184015360295b60018111611063575061104a57509061101861103292602060405196879261100883610ff98187019889815193849201610d55565b85019151809385840190610d55565b010103601f198101865285610cfc565b611043602060405180938282019586918951928391610d55565b81010301601f198101835282610cfc565b5190209190565b63e22e27eb60e01b600052600452601460245260446000fd5b90600f81166010811015610df857600085518410156110c357506f181899199a1a9b1b9c1cb0b131b232b360811b901a8483016020015360041c9080156110ad5760001901610fc4565b634e487b7160e01b600052601160045260246000fd5b634e487b7160e01b81526032600452602490fd5b61112960206110e8611132946114c6565b604093919351928391816111058185019788815193849201610d55565b830161111982518093858085019101610d55565b010103601f198101835282610cfc565b51902090611520565b90565b61112960206110e861113294611562565b6001600160a01b03811660009081527fb7db2dd08fcb62d0c9e08c51941cae53c267786a0b75803fb7960902fc8ef97d602052604090205460ff16611206576001600160a01b0381811660009081527fb7db2dd08fcb62d0c9e08c51941cae53c267786a0b75803fb7960902fc8ef97d60205260409020805460ff191660011790556111d0611391565b16906001600160a01b031660007f2f8788117e7eff1d82e926ec794901d17c78024a50270940304540a733656f0d8180a4600190565b50600090565b6001600160a01b03811660009081527f07966f2ab141347034724e9b2a472c2f77f5cd745aeba27cacba797b8fcb7086602052604090205460ff16611206576001600160a01b0381811660009081527f07966f2ab141347034724e9b2a472c2f77f5cd745aeba27cacba797b8fcb708660205260409020805460ff19166001179055611296611391565b16906001600160a01b0316600080516020611fb28339815191527f2f8788117e7eff1d82e926ec794901d17c78024a50270940304540a733656f0d600080a4600190565b6000818152600080516020611f92833981519152602090815260408083206001600160a01b038616845290915290205460ff1661138a576000818152600080516020611f92833981519152602090815260408083206001600160a01b0386811685529252909120805460ff19166001179055611354611391565b16916001600160a01b0316907f2f8788117e7eff1d82e926ec794901d17c78024a50270940304540a733656f0d600080a4600190565b5050600090565b337f00000000000000000000000000000000000000000000000000000000000000006001600160a01b031614806113df575b156113db5760131936013681116110ad573560601c90565b3390565b5060143610156113c3565b6000818152600080516020611f92833981519152602090815260408083206001600160a01b038616845290915290205460ff161561138a576000818152600080516020611f92833981519152602090815260408083206001600160a01b0386811685529252909120805460ff19169055611462611391565b16916001600160a01b0316907ff6391f5c32d9c69d2a47ea670b442974b53935d1edc7fd64eb21e047a839171b600080a4600190565b60ff600080516020611fd28339815191525460401c16156114b557565b631afcd79f60e31b60005260046000fd5b906103f6604051906114db6020820183610cfc565b8082526117866020830139600054604080516001600160a01b039283166020820152949091169084015261151c83606081015b03601f198101855284610cfc565b9190565b90600b9160405191604083015260208201523081520160ff8153605590206001600160a01b031690565b8054821015610df85760005260206000200190600090565b906103f6604051906115776020820183610cfc565b808252611b7c6020830139600054604080516001600160a01b039283166020820152949091169084015261151c836060810161150e565b600181019082600052816020526040600020541560001461161c57805468010000000000000000811015610d1e576116076115f082600187940185558461154a565b819391549060031b91821b91600019901b19161790565b90555491600052602052604060002055600190565b505050600090565b90600182019181600052826020526040600020548015156000146116ee5760001981018181116110ad5782546000198101919082116110ad578181036116b7575b505050805480156116a157600019019061167f828261154a565b8154906000199060031b1b191690555560005260205260006040812055600190565b634e487b7160e01b600052603160045260246000fd5b6116d76116c76115f0938661154a565b90549060031b1c9283928661154a565b905560005283602052604060002055388080611665565b50505050600090565b9291611719602091604051928391816111058185019788815193849201610d55565b8051156117745751906000f5903d1519821516610393576001600160a01b038216908115611763576001600160a01b0316036117525790565b6362ec206960e01b60005260046000fd5b63b06ebf3d60e01b60005260046000fd5b631328927760e21b60005260046000fdfe6080806040526040816103f6803803809161001a828561026c565b8339810103126101b55761003960206100328361028f565b920161028f565b6001600160a01b0390911690811580156101f0575b6101df577f4dab14fe28c3f2b5015f84ab98dd06c520603d8d9f3317f1ae7537d2c65aef3c80546001600160a01b031916831790556001600160a01b031680156101ce57602060049260405193848092631e6de76d60e11b82525afa9182156101c257600092610181575b506001600160a01b03821615610170576000918291604051602081019163189acdbd60e31b83526024820152602481526100f460448261026c565b51915af43d1561016b573d6001600160401b0381116101555760405190610125601f8201601f19166020018361026c565b8152600060203d92013e5b156101445760405161015290816102a48239f35b630337323560e31b60005260046000fd5b634e487b7160e01b600052604160045260246000fd5b610130565b632384fcc160e11b60005260046000fd5b9091506020813d6020116101ba575b8161019d6020938361026c565b810103126101b5576101ae9061028f565b90386100b9565b600080fd5b3d9150610190565b6040513d6000823e3d90fd5b6342bcdf7f60e11b60005260046000fd5b633f997a3760e01b60005260046000fd5b506040516301ffc9a760e01b815263b0d73a4160e01b6004820152602081602481865afa9081156101c25760009161022a575b501561004e565b6020813d602011610264575b816102436020938361026c565b81010312610260575190811515820361025d575038610223565b80fd5b5080fd5b3d9150610236565b601f909101601f19168101906001600160401b0382119082101761015557604052565b51906001600160a01b03821682036101b55756fe608060405236156100c3577f4dab14fe28c3f2b5015f84ab98dd06c520603d8d9f3317f1ae7537d2c65aef3c54631e6de76d60e11b608090815260209160049082906001600160a01b03165afa80156100b757600090156100fb575060203d6020116100b0575b601f19601f820116608001906080821067ffffffffffffffff83111761009a57610095916040526080016100d4565b6100fb565b634e487b7160e01b600052604160045260246000fd5b503d610066565b6040513d6000823e3d90fd5b635d82995b60e01b60005260046000fd5b602090607f1901126100f6576080516001600160a01b03811681036100f65790565b600080fd5b60008091368280378136915af43d6000803e15610117573d6000f35b3d6000fdfea26469706673582212208df4332157c1b8b2fc42828886355c86efa67c1a4eb20c6b5ad333448b28fc6864736f6c634300081c00336080806040526040816103f6803803809161001a828561026c565b8339810103126101b55761003960206100328361028f565b920161028f565b6001600160a01b0390911690811580156101f0575b6101df577f2b89e29c06a1d035f23d628a86dbe4a3084e1b6b7d11f5df8b5315b0a438ce1a80546001600160a01b031916831790556001600160a01b031680156101ce57602060049260405193848092636d7203cb60e01b82525afa9182156101c257600092610181575b506001600160a01b03821615610170576000918291604051602081019163189acdbd60e31b83526024820152602481526100f460448261026c565b51915af43d1561016b573d6001600160401b0381116101555760405190610125601f8201601f19166020018361026c565b8152600060203d92013e5b156101445760405161015290816102a48239f35b630337323560e31b60005260046000fd5b634e487b7160e01b600052604160045260246000fd5b610130565b632384fcc160e11b60005260046000fd5b9091506020813d6020116101ba575b8161019d6020938361026c565b810103126101b5576101ae9061028f565b90386100b9565b600080fd5b3d9150610190565b6040513d6000823e3d90fd5b6342bcdf7f60e11b60005260046000fd5b633f997a3760e01b60005260046000fd5b506040516301ffc9a760e01b815263b0d73a4160e01b6004820152602081602481865afa9081156101c25760009161022a575b501561004e565b6020813d602011610264575b816102436020938361026c565b81010312610260575190811515820361025d575038610223565b80fd5b5080fd5b3d9150610236565b601f909101601f19168101906001600160401b0382119082101761015557604052565b51906001600160a01b03821682036101b55756fe608060405236156100c3577f2b89e29c06a1d035f23d628a86dbe4a3084e1b6b7d11f5df8b5315b0a438ce1a54636d7203cb60e01b608090815260209160049082906001600160a01b03165afa80156100b757600090156100fb575060203d6020116100b0575b601f19601f820116608001906080821067ffffffffffffffff83111761009a57610095916040526080016100d4565b6100fb565b634e487b7160e01b600052604160045260246000fd5b503d610066565b6040513d6000823e3d90fd5b635d82995b60e01b60005260046000fd5b602090607f1901126100f6576080516001600160a01b03811681036100f65790565b600080fd5b60008091368280378136915af43d6000803e15610117573d6000f35b3d6000fdfea26469706673582212208b198ad2b430be69b66e8109b33fba596ac7d1bc8859ce756c92f846cd1fc6b964736f6c634300081c0033c1f6fe24621ce81ec5827caf0253cadb74709b061630e6b55e8237170593200002dd7bc7dec4dceedda775e58dd541e08a116c6c53815c0bd028192f7b626800edcc084d3dcd65a1f7f23c65c46722faca6953d28e43150a467cf43e5c309238f0c57e16840df040f15088dc2f81fe391c3923bec73e23a9662efc9c229c6a00a2646970667358221220017bb34de06efc4f681090d9a37642b3b7b555b7fc91ea53fe44881f7ef0444964736f6c634300081c0033",
  "linkReferences": {},
  "deployedLinkReferences": {}
}