{
  "_format": "hh-sol-artifact-1",
  "contractName": "SMARTIdentityRegistryStorageImplementation",
  "sourceName": "contracts/system/identity-registry-storage/SMARTIdentityRegistryStorageImplementation.sol",
  "abi": [
    {
      "inputs": [
        {
          "internalType": "address",
          "name": "trustedForwarder",
          "type": "address"
        }
      ],
      "stateMutability": "payable",
      "type": "constructor"
    },
    {
      "inputs": [],
      "name": "AccessControlBadConfirmation",
      "type": "error"
    },
    {
      "inputs": [
        {
          "internalType": "address",
          "name": "account",
          "type": "address"
        },
        {
          "internalType": "bytes32",
          "name": "neededRole",
          "type": "bytes32"
        }
      ],
      "name": "AccessControlUnauthorizedAccount",
      "type": "error"
    },
    {
      "inputs": [
        {
          "internalType": "address",
          "name": "userAddress",
          "type": "address"
        }
      ],
      "name": "IdentityAlreadyExists",
      "type": "error"
    },
    {
      "inputs": [
        {
          "internalType": "address",
          "name": "userAddress",
          "type": "address"
        }
      ],
      "name": "IdentityDoesNotExist",
      "type": "error"
    },
    {
      "inputs": [
        {
          "internalType": "address",
          "name": "registryAddress",
          "type": "address"
        }
      ],
      "name": "IdentityRegistryAlreadyBound",
      "type": "error"
    },
    {
      "inputs": [
        {
          "internalType": "address",
          "name": "registryAddress",
          "type": "address"
        }
      ],
      "name": "IdentityRegistryNotBound",
      "type": "error"
    },
    {
      "inputs": [],
      "name": "InvalidIdentityAddress",
      "type": "error"
    },
    {
      "inputs": [],
      "name": "InvalidIdentityRegistryAddress",
      "type": "error"
    },
    {
      "inputs": [],
      "name": "InvalidIdentityWalletAddress",
      "type": "error"
    },
    {
      "inputs": [],
      "name": "InvalidInitialization",
      "type": "error"
    },
    {
      "inputs": [],
      "name": "NotInitializing",
      "type": "error"
    },
    {
      "anonymous": false,
      "inputs": [
        {
          "indexed": true,
          "internalType": "address",
          "name": "_identityWallet",
          "type": "address"
        },
        {
          "indexed": false,
          "internalType": "uint16",
          "name": "_country",
          "type": "uint16"
        }
      ],
      "name": "CountryModified",
      "type": "event"
    },
    {
      "anonymous": false,
      "inputs": [
        {
          "indexed": true,
          "internalType": "contract IIdentity",
          "name": "_oldIdentity",
          "type": "address"
        },
        {
          "indexed": true,
          "internalType": "contract IIdentity",
          "name": "_newIdentity",
          "type": "address"
        }
      ],
      "name": "IdentityModified",
      "type": "event"
    },
    {
      "anonymous": false,
      "inputs": [
        {
          "indexed": true,
          "internalType": "address",
          "name": "_identityRegistry",
          "type": "address"
        }
      ],
      "name": "IdentityRegistryBound",
      "type": "event"
    },
    {
      "anonymous": false,
      "inputs": [
        {
          "indexed": true,
          "internalType": "address",
          "name": "_identityRegistry",
          "type": "address"
        }
      ],
      "name": "IdentityRegistryUnbound",
      "type": "event"
    },
    {
      "anonymous": false,
      "inputs": [
        {
          "indexed": true,
          "internalType": "address",
          "name": "_identityWallet",
          "type": "address"
        },
        {
          "indexed": true,
          "internalType": "contract IIdentity",
          "name": "_identity",
          "type": "address"
        }
      ],
      "name": "IdentityStored",
      "type": "event"
    },
    {
      "anonymous": false,
      "inputs": [
        {
          "indexed": true,
          "internalType": "address",
          "name": "_identityWallet",
          "type": "address"
        },
        {
          "indexed": true,
          "internalType": "contract IIdentity",
          "name": "_identity",
          "type": "address"
        }
      ],
      "name": "IdentityUnstored",
      "type": "event"
    },
    {
      "anonymous": false,
      "inputs": [
        {
          "indexed": false,
          "internalType": "uint64",
          "name": "version",
          "type": "uint64"
        }
      ],
      "name": "Initialized",
      "type": "event"
    },
    {
      "anonymous": false,
      "inputs": [
        {
          "indexed": true,
          "internalType": "bytes32",
          "name": "role",
          "type": "bytes32"
        },
        {
          "indexed": true,
          "internalType": "bytes32",
          "name": "previousAdminRole",
          "type": "bytes32"
        },
        {
          "indexed": true,
          "internalType": "bytes32",
          "name": "newAdminRole",
          "type": "bytes32"
        }
      ],
      "name": "RoleAdminChanged",
      "type": "event"
    },
    {
      "anonymous": false,
      "inputs": [
        {
          "indexed": true,
          "internalType": "bytes32",
          "name": "role",
          "type": "bytes32"
        },
        {
          "indexed": true,
          "internalType": "address",
          "name": "account",
          "type": "address"
        },
        {
          "indexed": true,
          "internalType": "address",
          "name": "sender",
          "type": "address"
        }
      ],
      "name": "RoleGranted",
      "type": "event"
    },
    {
      "anonymous": false,
      "inputs": [
        {
          "indexed": true,
          "internalType": "bytes32",
          "name": "role",
          "type": "bytes32"
        },
        {
          "indexed": true,
          "internalType": "address",
          "name": "account",
          "type": "address"
        },
        {
          "indexed": true,
          "internalType": "address",
          "name": "sender",
          "type": "address"
        }
      ],
      "name": "RoleRevoked",
      "type": "event"
    },
    {
      "inputs": [],
      "name": "DEFAULT_ADMIN_ROLE",
      "outputs": [
        {
          "internalType": "bytes32",
          "name": "",
          "type": "bytes32"
        }
      ],
      "stateMutability": "view",
      "type": "function"
    },
    {
      "inputs": [],
      "name": "MANAGE_REGISTRIES_ROLE",
      "outputs": [
        {
          "internalType": "bytes32",
          "name": "",
          "type": "bytes32"
        }
      ],
      "stateMutability": "view",
      "type": "function"
    },
    {
      "inputs": [],
      "name": "STORAGE_MODIFIER_ROLE",
      "outputs": [
        {
          "internalType": "bytes32",
          "name": "",
          "type": "bytes32"
        }
      ],
      "stateMutability": "view",
      "type": "function"
    },
    {
      "inputs": [
        {
          "internalType": "address",
          "name": "_userAddress",
          "type": "address"
        },
        {
          "internalType": "contract IIdentity",
          "name": "_identity",
          "type": "address"
        },
        {
          "internalType": "uint16",
          "name": "_country",
          "type": "uint16"
        }
      ],
      "name": "addIdentityToStorage",
      "outputs": [],
      "stateMutability": "nonpayable",
      "type": "function"
    },
    {
      "inputs": [
        {
          "internalType": "address",
          "name": "_identityRegistry",
          "type": "address"
        }
      ],
      "name": "bindIdentityRegistry",
      "outputs": [],
      "stateMutability": "nonpayable",
      "type": "function"
    },
    {
      "inputs": [],
      "name": "getIdentityWallets",
      "outputs": [
        {
          "internalType": "address[]",
          "name": "",
          "type": "address[]"
        }
      ],
      "stateMutability": "view",
      "type": "function"
    },
    {
      "inputs": [
        {
          "internalType": "bytes32",
          "name": "role",
          "type": "bytes32"
        }
      ],
      "name": "getRoleAdmin",
      "outputs": [
        {
          "internalType": "bytes32",
          "name": "",
          "type": "bytes32"
        }
      ],
      "stateMutability": "view",
      "type": "function"
    },
    {
      "inputs": [
        {
          "internalType": "bytes32",
          "name": "role",
          "type": "bytes32"
        },
        {
          "internalType": "uint256",
          "name": "index",
          "type": "uint256"
        }
      ],
      "name": "getRoleMember",
      "outputs": [
        {
          "internalType": "address",
          "name": "",
          "type": "address"
        }
      ],
      "stateMutability": "view",
      "type": "function"
    },
    {
      "inputs": [
        {
          "internalType": "bytes32",
          "name": "role",
          "type": "bytes32"
        }
      ],
      "name": "getRoleMemberCount",
      "outputs": [
        {
          "internalType": "uint256",
          "name": "",
          "type": "uint256"
        }
      ],
      "stateMutability": "view",
      "type": "function"
    },
    {
      "inputs": [
        {
          "internalType": "bytes32",
          "name": "role",
          "type": "bytes32"
        }
      ],
      "name": "getRoleMembers",
      "outputs": [
        {
          "internalType": "address[]",
          "name": "",
          "type": "address[]"
        }
      ],
      "stateMutability": "view",
      "type": "function"
    },
    {
      "inputs": [
        {
          "internalType": "bytes32",
          "name": "role",
          "type": "bytes32"
        },
        {
          "internalType": "address",
          "name": "account",
          "type": "address"
        }
      ],
      "name": "grantRole",
      "outputs": [],
      "stateMutability": "nonpayable",
      "type": "function"
    },
    {
      "inputs": [
        {
          "internalType": "bytes32",
          "name": "role",
          "type": "bytes32"
        },
        {
          "internalType": "address",
          "name": "account",
          "type": "address"
        }
      ],
      "name": "hasRole",
      "outputs": [
        {
          "internalType": "bool",
          "name": "",
          "type": "bool"
        }
      ],
      "stateMutability": "view",
      "type": "function"
    },
    {
      "inputs": [
        {
          "internalType": "address",
          "name": "system",
          "type": "address"
        },
        {
          "internalType": "address",
          "name": "initialAdmin",
          "type": "address"
        }
      ],
      "name": "initialize",
      "outputs": [],
      "stateMutability": "nonpayable",
      "type": "function"
    },
    {
      "inputs": [
        {
          "internalType": "address",
          "name": "forwarder",
          "type": "address"
        }
      ],
      "name": "isTrustedForwarder",
      "outputs": [
        {
          "internalType": "bool",
          "name": "",
          "type": "bool"
        }
      ],
      "stateMutability": "view",
      "type": "function"
    },
    {
      "inputs": [],
      "name": "linkedIdentityRegistries",
      "outputs": [
        {
          "internalType": "address[]",
          "name": "",
          "type": "address[]"
        }
      ],
      "stateMutability": "view",
      "type": "function"
    },
    {
      "inputs": [
        {
          "internalType": "address",
          "name": "_userAddress",
          "type": "address"
        },
        {
          "internalType": "contract IIdentity",
          "name": "_identity",
          "type": "address"
        }
      ],
      "name": "modifyStoredIdentity",
      "outputs": [],
      "stateMutability": "nonpayable",
      "type": "function"
    },
    {
      "inputs": [
        {
          "internalType": "address",
          "name": "_userAddress",
          "type": "address"
        },
        {
          "internalType": "uint16",
          "name": "_country",
          "type": "uint16"
        }
      ],
      "name": "modifyStoredInvestorCountry",
      "outputs": [],
      "stateMutability": "nonpayable",
      "type": "function"
    },
    {
      "inputs": [
        {
          "internalType": "address",
          "name": "_userAddress",
          "type": "address"
        }
      ],
      "name": "removeIdentityFromStorage",
      "outputs": [],
      "stateMutability": "nonpayable",
      "type": "function"
    },
    {
      "inputs": [
        {
          "internalType": "bytes32",
          "name": "role",
          "type": "bytes32"
        },
        {
          "internalType": "address",
          "name": "callerConfirmation",
          "type": "address"
        }
      ],
      "name": "renounceRole",
      "outputs": [],
      "stateMutability": "nonpayable",
      "type": "function"
    },
    {
      "inputs": [
        {
          "internalType": "bytes32",
          "name": "role",
          "type": "bytes32"
        },
        {
          "internalType": "address",
          "name": "account",
          "type": "address"
        }
      ],
      "name": "revokeRole",
      "outputs": [],
      "stateMutability": "nonpayable",
      "type": "function"
    },
    {
      "inputs": [
        {
          "internalType": "address",
          "name": "_userAddress",
          "type": "address"
        }
      ],
      "name": "storedIdentity",
      "outputs": [
        {
          "internalType": "contract IIdentity",
          "name": "",
          "type": "address"
        }
      ],
      "stateMutability": "view",
      "type": "function"
    },
    {
      "inputs": [
        {
          "internalType": "address",
          "name": "_userAddress",
          "type": "address"
        }
      ],
      "name": "storedInvestorCountry",
      "outputs": [
        {
          "internalType": "uint16",
          "name": "",
          "type": "uint16"
        }
      ],
      "stateMutability": "view",
      "type": "function"
    },
    {
      "inputs": [
        {
          "internalType": "bytes4",
          "name": "interfaceId",
          "type": "bytes4"
        }
      ],
      "name": "supportsInterface",
      "outputs": [
        {
          "internalType": "bool",
          "name": "",
          "type": "bool"
        }
      ],
      "stateMutability": "view",
      "type": "function"
    },
    {
      "inputs": [],
      "name": "trustedForwarder",
      "outputs": [
        {
          "internalType": "address",
          "name": "",
          "type": "address"
        }
      ],
      "stateMutability": "view",
      "type": "function"
    },
    {
      "inputs": [
        {
          "internalType": "address",
          "name": "_identityRegistry",
          "type": "address"
        }
      ],
      "name": "unbindIdentityRegistry",
      "outputs": [],
      "stateMutability": "nonpayable",
      "type": "function"
    }
  ],
  "bytecode": "0x60a0601f611bf338819003918201601f19168301916001600160401b038311848410176101385780849260209460405283398101031261013357516001600160a01b0381168103610133576080527ff0c57e16840df040f15088dc2f81fe391c3923bec73e23a9662efc9c229c6a005460ff8160401c16610122576002600160401b03196001600160401b038216016100b9575b604051611aa4908161014f8239608051818181610a3401528181610cf301526116860152f35b6001600160401b0319166001600160401b039081177ff0c57e16840df040f15088dc2f81fe391c3923bec73e23a9662efc9c229c6a00556040519081527fc7f505b2f371ae2175ee4913f4499e1f2633a7b5936321eed1cdaeb6115181d290602090a138610093565b63f92ee8a960e01b60005260046000fd5b600080fd5b634e487b7160e01b600052604160045260246000fdfe608080604052600436101561001357600080fd5b60003560e01c90816301ffc9a71461106057508063248a9ca31461103a5780632f2ff15d1461100957806336568abe14610fb3578063485cc95514610d27578063572b6c0514610cd35780635d93544614610c53578063690a49f914610b0c578063727e13bc14610aae5780637988d3a514610a635780637da0a87714610a1e5780639010d07c146109ca57806391d148541461097057806397a012f7146107d55780639f3418d514610713578063a217fddf146106f7578063a3246ad314610681578063a53410dd1461050c578063bf9eb9591461047c578063c65490d214610453578063ca15c8731461041a578063cf191bcd1461026d578063d547741f14610235578063e805cf86146101605763fd2726461461013257600080fd5b3461015b57600036600319011261015b576020604051600080516020611a2f8339815191528152f35b600080fd5b3461015b57604036600319011261015b576101796110fd565b6101816110e7565b9061018a61127b565b6001600160a01b039081166000818152602081905260409020549092911615610220576001600160a01b031690811561020f57600090815260208190526040812080546001600160a01b038481166001600160a01b031983161790925516907f556ce885dfcea52155c773f1ed2e58781c51945c13030ab8f793c61f51d1b8089080a3005b63a28c79a960e01b60005260046000fd5b5063572e88e360e11b60005260045260246000fd5b3461015b57604036600319011261015b5761026b6004356102546110e7565b9061026661026182611156565b6112e7565b611392565b005b3461015b57602036600319011261015b576102866110fd565b61028e61127b565b6001600160a01b03908116600081815260208190526040902054909116156104065780600052600060205260018060a01b03604060002054169080600052600260205260406000205460001981018181116103f05760015460001981019081116103f0576102fb906111ca565b905460039190911b1c6001600160a01b0316908184036103a9575b505050600154801561039357600019016103496103348260016111e5565b81549060018060a01b039060031b1b19169055565b60015580600052600260205260006040812055806000526000602052600060408120557fca6a4c3370b859312246e7f086284076e557997e10d856b716c23ab67067790b600080a3005b634e487b7160e01b600052603160045260246000fd5b816103b66103da926111ca565b81546001600160a01b0393841660039290921b91821b9390911b1916919091179055565b6000526002602052604060002055828080610316565b634e487b7160e01b600052601160045260246000fd5b63572e88e360e11b60005260045260246000fd5b3461015b57602036600319011261015b576004356000526000805160206119af8339815191526020526020604060002054604051908152f35b3461015b57600036600319011261015b5760206040516000805160206119cf8339815191528152f35b3461015b57600036600319011261015b5760405180602060045491828152019060046000527f8a35acfbc15ff81a39ae7d344fd709f28e8600b4aa8c65c6b64bfe7fe36bd19b9060005b8181106104ed576104e9856104dd81870382611177565b60405191829182611113565b0390f35b82546001600160a01b03168452602090930192600192830192016104c6565b3461015b57606036600319011261015b576105256110fd565b61052d6110e7565b6044359161ffff831680930361015b5761054561127b565b6001600160a01b038116918215610670576001600160a01b031692831561020f576000838152602081905260409020546001600160a01b031661065b576040516040810181811067ffffffffffffffff8211176106455760409081528582526020808301938452600086815290819052209051815492516001600160b01b03199093166001600160a01b03919091161760a09290921b61ffff60a01b1691909117905560015490600160401b821015610645576103b682600161060d940160015560016111e5565b6001548160005260026020526040600020557e30dea7e9c9afaa2e3c9810f2fc9b5181f1bad74ca5a8db85f746a33585e747600080a3005b634e487b7160e01b600052604160045260246000fd5b82632ec44c6b60e01b60005260045260246000fd5b63340d634b60e21b60005260046000fd5b3461015b57602036600319011261015b576004356000526000805160206119af833981519152602052604060002060405190816020825491828152019160005260206000209060005b8181106106e1576104e9856104dd81870382611177565b82548452602090930192600192830192016106ca565b3461015b57600036600319011261015b57602060405160008152f35b3461015b57604036600319011261015b5761072c6110fd565b6024359061ffff82169081830361015b5761074561127b565b6001600160a01b0390811660008181526020819052604090205490939116156107c057600083815260208181526040909120805461ffff60a01b191660a09390931b61ffff60a01b16929092179091557f20965fcdc6eed7ae398065b40ece4e732ba667992ca819fc54e80e9f2047c4cf91604051908152a2005b8263572e88e360e11b60005260045260246000fd5b3461015b57602036600319011261015b576107ee6110fd565b6107f66111fd565b6001600160a01b03811660008181526003602052604090205490919060ff161561095b57610823906116dc565b610907575b80600052600560205260406000205460001981018181116103f05760045460001981019081116103f05761085b90611199565b905460039190911b1c6001600160a01b0316908184036108e4575b505050600454801561039357600019016108946103348260046111e5565b60045580600052600560205260006040812055806000526003602052604060002060ff1981541690557f51f353eb5801583fdf2706e43c045b62fdf6b1566820b349390616363ecf72c9600080a2005b816103b66108f192611199565b6000526005602052604060002055818080610876565b600080516020611a2f8339815191526000526000805160206119af833981519152602052610955817f038dde831c307db807a13ca58e4fef5465ab69d93a64d8c891f54d1e9de848986118d1565b50610828565b50630707cbe560e01b60005260045260246000fd5b3461015b57604036600319011261015b576109896110e7565b6004356000526000805160206119ef83398151915260205260406000209060018060a01b0316600052602052602060ff604060002054166040519015158152f35b3461015b57604036600319011261015b576004356000526000805160206119af8339815191526020526020610a0560243560406000206111e5565b905460405160039290921b1c6001600160a01b03168152f35b3461015b57600036600319011261015b576040517f00000000000000000000000000000000000000000000000000000000000000006001600160a01b03168152602090f35b3461015b57602036600319011261015b576001600160a01b03610a846110fd565b166000818152602081905260409020546001600160a01b0316801561022057602090604051908152f35b3461015b57602036600319011261015b576001600160a01b03610acf6110fd565b166000818152602081905260409020546001600160a01b031615610406576000526000602052602061ffff60406000205460a01c16604051908152f35b3461015b57602036600319011261015b57610b256110fd565b610b2d6111fd565b6001600160a01b038116908115610c425781600052600360205260ff60406000205416610c2d578160005260036020526040600020600160ff1982541617905560045490600160401b82101561064557610b96816103b6846001610bad960160045560046111e5565b60045483600052600560205260406000205561148a565b610bd9575b7f500c250171aa20e861b680f93502547b9d436eda7d4c537fc360db6e0c6eedfb600080a2005b600080516020611a2f8339815191526000526000805160206119af833981519152602052610c27817f038dde831c307db807a13ca58e4fef5465ab69d93a64d8c891f54d1e9de84898611860565b50610bb2565b50634308f35160e01b60005260045260246000fd5b6328123ecf60e01b60005260046000fd5b3461015b57600036600319011261015b5760405180602060015491828152019060016000527fb10e2d527612073b26eecdfd717e6a320cf44b4afac2b0732d9fcbe2b7fa0cf69060005b818110610cb4576104e9856104dd81870382611177565b82546001600160a01b0316845260209093019260019283019201610c9d565b3461015b57602036600319011261015b576020610cee6110fd565b6040517f00000000000000000000000000000000000000000000000000000000000000006001600160a01b039081169216919091148152f35b3461015b57604036600319011261015b57610d406110fd565b610d486110e7565b90600080516020611a4f833981519152549160ff8360401c16159267ffffffffffffffff811680159081610fab575b6001149081610fa1575b159081610f98575b50610f875767ffffffffffffffff198116600117600080516020611a4f8339815191525583610f5a575b50610dbc611832565b610dc4611832565b610dcd816113d6565b610f0b575b610ddb8161148a565b610ead575b50610dea81611522565b610e4f575b50610df657005b68ff000000000000000019600080516020611a4f8339815191525416600080516020611a4f833981519152557fc7f505b2f371ae2175ee4913f4499e1f2633a7b5936321eed1cdaeb6115181d2602060405160018152a1005b6000805160206119cf8339815191526000526000805160206119af833981519152602052610ea6906001600160a01b03167fa40f45518265aaf5a9c102e4cde5ac7e817e841e63b9e016fe2ec3ce39b470c9611860565b5081610def565b600080516020611a2f8339815191526000526000805160206119af833981519152602052610f04906001600160a01b03167f038dde831c307db807a13ca58e4fef5465ab69d93a64d8c891f54d1e9de84898611860565b5082610de0565b600080526000805160206119af833981519152602052610f546001600160a01b0382167f615f0f9e84155bea8cc509fe18befeb1baf65611e38a6ba60964480fb29dfd44611860565b50610dd2565b68ffffffffffffffffff19166801000000000000000117600080516020611a4f8339815191525583610db3565b63f92ee8a960e01b60005260046000fd5b90501585610d89565b303b159150610d81565b859150610d77565b3461015b57604036600319011261015b57610fcc6110e7565b6001600160a01b03610fdc611683565b166001600160a01b03821603610ff85761026b90600435611392565b63334bd91960e11b60005260046000fd5b3461015b57604036600319011261015b5761026b6004356110286110e7565b9061103561026182611156565b61134a565b3461015b57602036600319011261015b576020611058600435611156565b604051908152f35b3461015b57602036600319011261015b576004359063ffffffff60e01b821680920361015b576020916357defe0d60e01b81149081156110a2575b5015158152f35b635a05180f60e01b8114915081156110bc575b508361109b565b637965db0b60e01b8114915081156110d6575b50836110b5565b6301ffc9a760e01b149050836110cf565b602435906001600160a01b038216820361015b57565b600435906001600160a01b038216820361015b57565b602060408183019282815284518094520192019060005b8181106111375750505090565b82516001600160a01b031684526020938401939092019160010161112a565b6000526000805160206119ef83398151915260205260016040600020015490565b90601f8019910116810190811067ffffffffffffffff82111761064557604052565b6004548110156111b457600460005260206000200190600090565b634e487b7160e01b600052603260045260246000fd5b6001548110156111b457600160005260206000200190600090565b80548210156111b45760005260206000200190600090565b611205611683565b6001600160a01b03811660009081527f3f90e2dd3d252a7c29677a1e0ae0030274210eff4f89bbec9ada3b8e9a23c547602052604090205460ff16156112485750565b63e2517d3f60e01b60009081526001600160a01b03919091166004526000805160206119cf833981519152602452604490fd5b611283611683565b6001600160a01b0381166000908152600080516020611a0f833981519152602052604090205460ff16156112b45750565b63e2517d3f60e01b60009081526001600160a01b0391909116600452600080516020611a2f833981519152602452604490fd5b6112ef611683565b816000526000805160206119ef833981519152602052604060002060018060a01b03821660005260205260ff604060002054161561132b575050565b63e2517d3f60e01b60005260018060a01b031660045260245260446000fd5b61135482826115de565b918261135f57505090565b60009182526000805160206119af833981519152602052604090912061138e916001600160a01b031690611860565b5090565b61139c8282611784565b91826113a757505090565b60009182526000805160206119af833981519152602052604090912061138e916001600160a01b0316906118d1565b6001600160a01b03811660009081527fb7db2dd08fcb62d0c9e08c51941cae53c267786a0b75803fb7960902fc8ef97d602052604090205460ff16611484576001600160a01b0381811660009081527fb7db2dd08fcb62d0c9e08c51941cae53c267786a0b75803fb7960902fc8ef97d60205260409020805460ff19166001179055611460611683565b16906001600160a01b0316600060008051602061198f8339815191528180a4600190565b50600090565b6001600160a01b0381166000908152600080516020611a0f833981519152602052604090205460ff16611484576001600160a01b038181166000908152600080516020611a0f83398151915260205260409020805460ff191660011790556114f0611683565b16906001600160a01b0316600080516020611a2f83398151915260008051602061198f833981519152600080a4600190565b6001600160a01b03811660009081527f3f90e2dd3d252a7c29677a1e0ae0030274210eff4f89bbec9ada3b8e9a23c547602052604090205460ff16611484576001600160a01b0381811660009081527f3f90e2dd3d252a7c29677a1e0ae0030274210eff4f89bbec9ada3b8e9a23c54760205260409020805460ff191660011790556115ac611683565b16906001600160a01b03166000805160206119cf83398151915260008051602061198f833981519152600080a4600190565b60008181526000805160206119ef833981519152602090815260408083206001600160a01b038616845290915290205460ff1661167c5760008181526000805160206119ef833981519152602090815260408083206001600160a01b0386811685529252909120805460ff19166001179055611658611683565b16916001600160a01b03169060008051602061198f833981519152600080a4600190565b5050600090565b337f00000000000000000000000000000000000000000000000000000000000000006001600160a01b031614806116d1575b156116cd5760131936013681116103f0573560601c90565b3390565b5060143610156116b5565b6001600160a01b0381166000908152600080516020611a0f833981519152602052604090205460ff1615611484576001600160a01b038181166000908152600080516020611a0f83398151915260205260409020805460ff19169055611740611683565b16906001600160a01b0316600080516020611a2f8339815191527ff6391f5c32d9c69d2a47ea670b442974b53935d1edc7fd64eb21e047a839171b600080a4600190565b60008181526000805160206119ef833981519152602090815260408083206001600160a01b038616845290915290205460ff161561167c5760008181526000805160206119ef833981519152602090815260408083206001600160a01b0386811685529252909120805460ff191690556117fc611683565b16916001600160a01b0316907ff6391f5c32d9c69d2a47ea670b442974b53935d1edc7fd64eb21e047a839171b600080a4600190565b60ff600080516020611a4f8339815191525460401c161561184f57565b631afcd79f60e31b60005260046000fd5b60018101908260005281602052604060002054156000146118c9578054600160401b811015610645576118b461189d8260018794018555846111e5565b819391549060031b91821b91600019901b19161790565b90555491600052602052604060002055600190565b505050600090565b90600182019181600052826020526040600020548015156000146119855760001981018181116103f05782546000198101919082116103f05781810361194e575b5050508054801561039357600019019061192c82826111e5565b8154906000199060031b1b191690555560005260205260006040812055600190565b61196e61195e61189d93866111e5565b90549060031b1c928392866111e5565b905560005283602052604060002055388080611912565b5050505060009056fe2f8788117e7eff1d82e926ec794901d17c78024a50270940304540a733656f0dc1f6fe24621ce81ec5827caf0253cadb74709b061630e6b55e823717059320003878ec43b99c41b142f55c5c47e7aa371ea82865d891af952bc6234dbce14f1802dd7bc7dec4dceedda775e58dd541e08a116c6c53815c0bd028192f7b626800f7b03a54cfc68aa23cbf24329c7578b5ceb6b46a5810c7579bd72f09cbc7660bf926905b211c4fe59c7d68bb001aa504586558fd2888c1ea46e1b382450050cff0c57e16840df040f15088dc2f81fe391c3923bec73e23a9662efc9c229c6a00a26469706673582212208b0b7ac743226b3792a1677266ee48910d1065b9fd4d2ad3a2c0e9efb0b0db5264736f6c634300081c0033",
  "linkReferences": {},
  "deployedLinkReferences": {}
}