{
  "_format": "hh-sol-artifact-1",
  "contractName": "SMARTIdentityRegistryImplementation",
  "sourceName": "contracts/system/identity-registry/SMARTIdentityRegistryImplementation.sol",
  "abi": [
    {
      "inputs": [
        {
          "internalType": "address",
          "name": "trustedForwarder",
          "type": "address"
        }
      ],
      "stateMutability": "payable",
      "type": "constructor"
    },
    {
      "inputs": [],
      "name": "AccessControlBadConfirmation",
      "type": "error"
    },
    {
      "inputs": [
        {
          "internalType": "address",
          "name": "account",
          "type": "address"
        },
        {
          "internalType": "bytes32",
          "name": "neededRole",
          "type": "bytes32"
        }
      ],
      "name": "AccessControlUnauthorizedAccount",
      "type": "error"
    },
    {
      "inputs": [],
      "name": "ArrayLengthMismatch",
      "type": "error"
    },
    {
      "inputs": [
        {
          "internalType": "address",
          "name": "userAddress",
          "type": "address"
        }
      ],
      "name": "IdentityAlreadyRegistered",
      "type": "error"
    },
    {
      "inputs": [
        {
          "internalType": "address",
          "name": "userAddress",
          "type": "address"
        }
      ],
      "name": "IdentityNotRegistered",
      "type": "error"
    },
    {
      "inputs": [],
      "name": "InvalidIdentityAddress",
      "type": "error"
    },
    {
      "inputs": [],
      "name": "InvalidInitialization",
      "type": "error"
    },
    {
      "inputs": [],
      "name": "InvalidRegistryAddress",
      "type": "error"
    },
    {
      "inputs": [],
      "name": "InvalidStorageAddress",
      "type": "error"
    },
    {
      "inputs": [],
      "name": "InvalidUserAddress",
      "type": "error"
    },
    {
      "inputs": [],
      "name": "NotInitializing",
      "type": "error"
    },
    {
      "anonymous": false,
      "inputs": [
        {
          "indexed": true,
          "internalType": "address",
          "name": "sender",
          "type": "address"
        },
        {
          "indexed": true,
          "internalType": "address",
          "name": "_investorAddress",
          "type": "address"
        },
        {
          "indexed": true,
          "internalType": "uint16",
          "name": "_country",
          "type": "uint16"
        }
      ],
      "name": "CountryUpdated",
      "type": "event"
    },
    {
      "anonymous": false,
      "inputs": [
        {
          "indexed": true,
          "internalType": "address",
          "name": "sender",
          "type": "address"
        },
        {
          "indexed": true,
          "internalType": "address",
          "name": "_investorAddress",
          "type": "address"
        },
        {
          "indexed": true,
          "internalType": "contract IIdentity",
          "name": "_identity",
          "type": "address"
        }
      ],
      "name": "IdentityRegistered",
      "type": "event"
    },
    {
      "anonymous": false,
      "inputs": [
        {
          "indexed": true,
          "internalType": "address",
          "name": "sender",
          "type": "address"
        },
        {
          "indexed": true,
          "internalType": "address",
          "name": "_investorAddress",
          "type": "address"
        },
        {
          "indexed": true,
          "internalType": "contract IIdentity",
          "name": "_identity",
          "type": "address"
        }
      ],
      "name": "IdentityRemoved",
      "type": "event"
    },
    {
      "anonymous": false,
      "inputs": [
        {
          "indexed": true,
          "internalType": "address",
          "name": "sender",
          "type": "address"
        },
        {
          "indexed": true,
          "internalType": "address",
          "name": "_identityStorage",
          "type": "address"
        }
      ],
      "name": "IdentityStorageSet",
      "type": "event"
    },
    {
      "anonymous": false,
      "inputs": [
        {
          "indexed": true,
          "internalType": "address",
          "name": "sender",
          "type": "address"
        },
        {
          "indexed": true,
          "internalType": "contract IIdentity",
          "name": "_oldIdentity",
          "type": "address"
        },
        {
          "indexed": true,
          "internalType": "contract IIdentity",
          "name": "_newIdentity",
          "type": "address"
        }
      ],
      "name": "IdentityUpdated",
      "type": "event"
    },
    {
      "anonymous": false,
      "inputs": [
        {
          "indexed": false,
          "internalType": "uint64",
          "name": "version",
          "type": "uint64"
        }
      ],
      "name": "Initialized",
      "type": "event"
    },
    {
      "anonymous": false,
      "inputs": [
        {
          "indexed": true,
          "internalType": "bytes32",
          "name": "role",
          "type": "bytes32"
        },
        {
          "indexed": true,
          "internalType": "bytes32",
          "name": "previousAdminRole",
          "type": "bytes32"
        },
        {
          "indexed": true,
          "internalType": "bytes32",
          "name": "newAdminRole",
          "type": "bytes32"
        }
      ],
      "name": "RoleAdminChanged",
      "type": "event"
    },
    {
      "anonymous": false,
      "inputs": [
        {
          "indexed": true,
          "internalType": "bytes32",
          "name": "role",
          "type": "bytes32"
        },
        {
          "indexed": true,
          "internalType": "address",
          "name": "account",
          "type": "address"
        },
        {
          "indexed": true,
          "internalType": "address",
          "name": "sender",
          "type": "address"
        }
      ],
      "name": "RoleGranted",
      "type": "event"
    },
    {
      "anonymous": false,
      "inputs": [
        {
          "indexed": true,
          "internalType": "bytes32",
          "name": "role",
          "type": "bytes32"
        },
        {
          "indexed": true,
          "internalType": "address",
          "name": "account",
          "type": "address"
        },
        {
          "indexed": true,
          "internalType": "address",
          "name": "sender",
          "type": "address"
        }
      ],
      "name": "RoleRevoked",
      "type": "event"
    },
    {
      "anonymous": false,
      "inputs": [
        {
          "indexed": true,
          "internalType": "address",
          "name": "sender",
          "type": "address"
        },
        {
          "indexed": true,
          "internalType": "address",
          "name": "_trustedIssuersRegistry",
          "type": "address"
        }
      ],
      "name": "TrustedIssuersRegistrySet",
      "type": "event"
    },
    {
      "inputs": [],
      "name": "DEFAULT_ADMIN_ROLE",
      "outputs": [
        {
          "internalType": "bytes32",
          "name": "",
          "type": "bytes32"
        }
      ],
      "stateMutability": "view",
      "type": "function"
    },
    {
      "inputs": [],
      "name": "REGISTRAR_ROLE",
      "outputs": [
        {
          "internalType": "bytes32",
          "name": "",
          "type": "bytes32"
        }
      ],
      "stateMutability": "view",
      "type": "function"
    },
    {
      "inputs": [
        {
          "internalType": "address[]",
          "name": "_userAddresses",
          "type": "address[]"
        },
        {
          "internalType": "contract IIdentity[]",
          "name": "_identities",
          "type": "address[]"
        },
        {
          "internalType": "uint16[]",
          "name": "_countries",
          "type": "uint16[]"
        }
      ],
      "name": "batchRegisterIdentity",
      "outputs": [],
      "stateMutability": "nonpayable",
      "type": "function"
    },
    {
      "inputs": [
        {
          "internalType": "address",
          "name": "_userAddress",
          "type": "address"
        }
      ],
      "name": "contains",
      "outputs": [
        {
          "internalType": "bool",
          "name": "",
          "type": "bool"
        }
      ],
      "stateMutability": "view",
      "type": "function"
    },
    {
      "inputs": [
        {
          "internalType": "address",
          "name": "_userAddress",
          "type": "address"
        }
      ],
      "name": "deleteIdentity",
      "outputs": [],
      "stateMutability": "nonpayable",
      "type": "function"
    },
    {
      "inputs": [
        {
          "internalType": "bytes32",
          "name": "role",
          "type": "bytes32"
        }
      ],
      "name": "getRoleAdmin",
      "outputs": [
        {
          "internalType": "bytes32",
          "name": "",
          "type": "bytes32"
        }
      ],
      "stateMutability": "view",
      "type": "function"
    },
    {
      "inputs": [
        {
          "internalType": "bytes32",
          "name": "role",
          "type": "bytes32"
        },
        {
          "internalType": "uint256",
          "name": "index",
          "type": "uint256"
        }
      ],
      "name": "getRoleMember",
      "outputs": [
        {
          "internalType": "address",
          "name": "",
          "type": "address"
        }
      ],
      "stateMutability": "view",
      "type": "function"
    },
    {
      "inputs": [
        {
          "internalType": "bytes32",
          "name": "role",
          "type": "bytes32"
        }
      ],
      "name": "getRoleMemberCount",
      "outputs": [
        {
          "internalType": "uint256",
          "name": "",
          "type": "uint256"
        }
      ],
      "stateMutability": "view",
      "type": "function"
    },
    {
      "inputs": [
        {
          "internalType": "bytes32",
          "name": "role",
          "type": "bytes32"
        }
      ],
      "name": "getRoleMembers",
      "outputs": [
        {
          "internalType": "address[]",
          "name": "",
          "type": "address[]"
        }
      ],
      "stateMutability": "view",
      "type": "function"
    },
    {
      "inputs": [
        {
          "internalType": "bytes32",
          "name": "role",
          "type": "bytes32"
        },
        {
          "internalType": "address",
          "name": "account",
          "type": "address"
        }
      ],
      "name": "grantRole",
      "outputs": [],
      "stateMutability": "nonpayable",
      "type": "function"
    },
    {
      "inputs": [
        {
          "internalType": "bytes32",
          "name": "role",
          "type": "bytes32"
        },
        {
          "internalType": "address",
          "name": "account",
          "type": "address"
        }
      ],
      "name": "hasRole",
      "outputs": [
        {
          "internalType": "bool",
          "name": "",
          "type": "bool"
        }
      ],
      "stateMutability": "view",
      "type": "function"
    },
    {
      "inputs": [
        {
          "internalType": "address",
          "name": "_userAddress",
          "type": "address"
        }
      ],
      "name": "identity",
      "outputs": [
        {
          "internalType": "contract IIdentity",
          "name": "",
          "type": "address"
        }
      ],
      "stateMutability": "view",
      "type": "function"
    },
    {
      "inputs": [],
      "name": "identityStorage",
      "outputs": [
        {
          "internalType": "contract IERC3643IdentityRegistryStorage",
          "name": "",
          "type": "address"
        }
      ],
      "stateMutability": "view",
      "type": "function"
    },
    {
      "inputs": [
        {
          "internalType": "address",
          "name": "initialAdmin",
          "type": "address"
        },
        {
          "internalType": "address",
          "name": "identityStorage_",
          "type": "address"
        },
        {
          "internalType": "address",
          "name": "trustedIssuersRegistry_",
          "type": "address"
        }
      ],
      "name": "initialize",
      "outputs": [],
      "stateMutability": "nonpayable",
      "type": "function"
    },
    {
      "inputs": [
        {
          "internalType": "address",
          "name": "_userAddress",
          "type": "address"
        }
      ],
      "name": "investorCountry",
      "outputs": [
        {
          "internalType": "uint16",
          "name": "",
          "type": "uint16"
        }
      ],
      "stateMutability": "view",
      "type": "function"
    },
    {
      "inputs": [
        {
          "internalType": "address",
          "name": "forwarder",
          "type": "address"
        }
      ],
      "name": "isTrustedForwarder",
      "outputs": [
        {
          "internalType": "bool",
          "name": "",
          "type": "bool"
        }
      ],
      "stateMutability": "view",
      "type": "function"
    },
    {
      "inputs": [
        {
          "internalType": "address",
          "name": "_userAddress",
          "type": "address"
        },
        {
          "internalType": "uint256[]",
          "name": "requiredClaimTopics",
          "type": "uint256[]"
        }
      ],
      "name": "isVerified",
      "outputs": [
        {
          "internalType": "bool",
          "name": "",
          "type": "bool"
        }
      ],
      "stateMutability": "view",
      "type": "function"
    },
    {
      "inputs": [],
      "name": "issuersRegistry",
      "outputs": [
        {
          "internalType": "contract IERC3643TrustedIssuersRegistry",
          "name": "",
          "type": "address"
        }
      ],
      "stateMutability": "view",
      "type": "function"
    },
    {
      "inputs": [
        {
          "internalType": "address",
          "name": "_userAddress",
          "type": "address"
        },
        {
          "internalType": "contract IIdentity",
          "name": "_identity",
          "type": "address"
        },
        {
          "internalType": "uint16",
          "name": "_country",
          "type": "uint16"
        }
      ],
      "name": "registerIdentity",
      "outputs": [],
      "stateMutability": "nonpayable",
      "type": "function"
    },
    {
      "inputs": [
        {
          "internalType": "bytes32",
          "name": "role",
          "type": "bytes32"
        },
        {
          "internalType": "address",
          "name": "callerConfirmation",
          "type": "address"
        }
      ],
      "name": "renounceRole",
      "outputs": [],
      "stateMutability": "nonpayable",
      "type": "function"
    },
    {
      "inputs": [
        {
          "internalType": "bytes32",
          "name": "role",
          "type": "bytes32"
        },
        {
          "internalType": "address",
          "name": "account",
          "type": "address"
        }
      ],
      "name": "revokeRole",
      "outputs": [],
      "stateMutability": "nonpayable",
      "type": "function"
    },
    {
      "inputs": [
        {
          "internalType": "address",
          "name": "identityStorage_",
          "type": "address"
        }
      ],
      "name": "setIdentityRegistryStorage",
      "outputs": [],
      "stateMutability": "nonpayable",
      "type": "function"
    },
    {
      "inputs": [
        {
          "internalType": "address",
          "name": "trustedIssuersRegistry_",
          "type": "address"
        }
      ],
      "name": "setTrustedIssuersRegistry",
      "outputs": [],
      "stateMutability": "nonpayable",
      "type": "function"
    },
    {
      "inputs": [
        {
          "internalType": "bytes4",
          "name": "interfaceId",
          "type": "bytes4"
        }
      ],
      "name": "supportsInterface",
      "outputs": [
        {
          "internalType": "bool",
          "name": "",
          "type": "bool"
        }
      ],
      "stateMutability": "view",
      "type": "function"
    },
    {
      "inputs": [],
      "name": "trustedForwarder",
      "outputs": [
        {
          "internalType": "address",
          "name": "",
          "type": "address"
        }
      ],
      "stateMutability": "view",
      "type": "function"
    },
    {
      "inputs": [
        {
          "internalType": "address",
          "name": "_userAddress",
          "type": "address"
        },
        {
          "internalType": "uint16",
          "name": "_country",
          "type": "uint16"
        }
      ],
      "name": "updateCountry",
      "outputs": [],
      "stateMutability": "nonpayable",
      "type": "function"
    },
    {
      "inputs": [
        {
          "internalType": "address",
          "name": "_userAddress",
          "type": "address"
        },
        {
          "internalType": "contract IIdentity",
          "name": "_identity",
          "type": "address"
        }
      ],
      "name": "updateIdentity",
      "outputs": [],
      "stateMutability": "nonpayable",
      "type": "function"
    }
  ],
  "bytecode": "0x60a0601f6121c138819003918201601f19168301916001600160401b038311848410176101385780849260209460405283398101031261013357516001600160a01b0381168103610133576080527ff0c57e16840df040f15088dc2f81fe391c3923bec73e23a9662efc9c229c6a005460ff8160401c16610122576002600160401b03196001600160401b038216016100b9575b604051612072908161014f8239608051818181610c0f01528181610dea0152611ad00152f35b6001600160401b0319166001600160401b039081177ff0c57e16840df040f15088dc2f81fe391c3923bec73e23a9662efc9c229c6a00556040519081527fc7f505b2f371ae2175ee4913f4499e1f2633a7b5936321eed1cdaeb6115181d290602090a138610093565b63f92ee8a960e01b60005260046000fd5b600080fd5b634e487b7160e01b600052604160045260246000fdfe608080604052600436101561001357600080fd5b600090813560e01c90816301ffc9a7146110c857508063248a9ca3146110a157806326d941ae146110195780632f2ff15d14610fe757806336568abe14610f925780633b239a7f14610e63578063454a03e014610e1e578063572b6c0514610dc95780635dbe47e814610da5578063653dc9f114610c8e5780637a76ac7814610c3e5780637da0a87714610bf95780637e42683b14610af95780638e098ca1146109465780639010d07c146108f357806391d148541461089a578063a217fddf1461087e578063a3246ad3146107c1578063a8d29d1d14610626578063b4f3fcb7146105fd578063c0c53b8b1461033a578063ca15c87314610303578063d547741f146102c8578063e744d7891461023e578063f0eb5e541461019c578063f11abfd8146101755763f68e95531461014a57600080fd5b346101725780600319360112610172576020604051600080516020611ffd8339815191528152f35b80fd5b5034610172578060031936011261017257546040516001600160a01b039091168152602090f35b5034610172576020366003190112610172576101b6611151565b8154604051637988d3a560e01b81526001600160a01b0392831660048201529160209183916024918391165afa9081156102335760209291610206575b506040516001600160a01b039091168152f35b6102269150823d841161022c575b61021e81836111d3565b810190611222565b386101f3565b503d610214565b6040513d84823e3d90fd5b503461017257602036600319011261017257610258611151565b6102606117b9565b6001600160a01b031680156102b957600180546001600160a01b031916821790556001600160a01b03610291611acd565b167f7ec3793f0e267d1612c4a7fb68844d126c179c3a64da837c4e2952b27bcb9d308380a380f35b637bfd2e8360e01b8252600482fd5b5034610172576040366003190112610172576102ff6004356102e861116c565b906102fa6102f5826111b2565b6118a3565b61194e565b5080f35b50346101725760203660031901126101725760406020916004358152600080516020611fbd83398151915283522054604051908152f35b503461017257606036600319011261017257610354611151565b61035c61116c565b6044356001600160a01b03811692908390036105f95760008051602061201d833981519152549160ff8360401c1615926001600160401b038116801590816105f1575b60011490816105e7575b1590816105de575b506105cf5767ffffffffffffffff19811660011760008051602061201d83398151915255836105a2575b506103e4611e4d565b6103ec611e4d565b6103f582611b3c565b61056f575b6001600160a01b03169081156105605783156105515761041981611c02565b610510575b5083546001600160a01b031916811784556001600160a01b0361043f611acd565b167f06ac29c7967f16f84307d77e8e8961d6f064f072486dc83f5b7ebd0ba878485e8580a3600180546001600160a01b031916831790556001600160a01b03610486611acd565b1691604051927f7ec3793f0e267d1612c4a7fb68844d126c179c3a64da837c4e2952b27bcb9d308580a36104b8575080f35b60207fc7f505b2f371ae2175ee4913f4499e1f2633a7b5936321eed1cdaeb6115181d29168ff00000000000000001960008051602061201d833981519152541660008051602061201d8339815191525560018152a180f35b600080516020611ffd8339815191528552600080516020611fbd8339815191526020526040852061054a916001600160a01b031690611e7b565b503861041e565b637bfd2e8360e01b8552600485fd5b63f359d7f760e01b8552600485fd5b848052600080516020611fbd8339815191526020526040852061059c906001600160a01b03841690611e7b565b506103fa565b68ffffffffffffffffff1916680100000000000000011760008051602061201d83398151915255386103db565b63f92ee8a960e01b8652600486fd5b905015386103b1565b303b1591506103a9565b85915061039f565b8380fd5b50346101725780600319360112610172576001546040516001600160a01b039091168152602090f35b503461017257602036600319011261017257610640611151565b610648611825565b604051630bb7c8fd60e31b81526001600160a01b039091166004820181905290602081602481305afa9081156107b6578391610787575b5015610775578154604051637988d3a560e01b815260048101839052919083906001600160a01b0316602084602481845afa938415610233578294610754575b50803b156107505781809160246040518094819363cf191bcd60e01b83528860048401525af1801561023357610737575b506001600160a01b039050610703611acd565b6001600160a01b0390931692167fe08c9a3c1d21f02066d00c9f7a9b2423a12b17569c3bc0cb4e84ca48d38e4a568480a480f35b81610741916111d3565b61074c5782386106f0565b8280fd5b5080fd5b61076e91945060203d60201161022c5761021e81836111d3565b92386106bf565b63fa9b64eb60e01b8252600452602490fd5b6107a9915060203d6020116107af575b6107a181836111d3565b81019061120a565b3861067f565b503d610797565b6040513d85823e3d90fd5b5034610172576020366003190112610172576004358152600080516020611fbd83398151915260205260408120604051908160208254918281520190819285526020852090855b818110610868575050508261081e9103836111d3565b604051928392602084019060208552518091526040840192915b818110610846575050500390f35b82516001600160a01b0316845285945060209384019390920191600101610838565b8254845260209093019260019283019201610808565b5034610172578060031936011261017257602090604051908152f35b50346101725760403660031901126101725760406108b661116c565b916004358152600080516020611fdd833981519152602052209060018060a01b0316600052602052602060ff604060002054166040519015158152f35b50346101725760403660031901126101725761092d6020916004358152600080516020611fbd833981519152835260406024359120611e35565b905460405160039290921b1c6001600160a01b03168152f35b503461017257604036600319011261017257610960611151565b61096861116c565b610970611825565b604051630bb7c8fd60e31b81526001600160a01b039092166004830181905291602081602481305afa908115610aee578491610acf575b5015610abb576001600160a01b0316908115610aac578254604051637988d3a560e01b8152600481018390529184916001600160a01b031690602084602481855afa9384156107b6578394610a8b575b50813b1561074c578291604483926040519485938492637402e7c360e11b845260048401528960248401525af1801561023357610a76575b506001600160a01b039050610a42611acd565b6001600160a01b0390921691167f9e8fe855fb89edef1315cb1d05f3b5e083450023e05286452fe6bee9179aca8c8480a480f35b81610a80916111d3565b61074c578238610a2f565b610aa591945060203d60201161022c5761021e81836111d3565b92386109f7565b63a28c79a960e01b8352600483fd5b63fa9b64eb60e01b83526004829052602483fd5b610ae8915060203d6020116107af576107a181836111d3565b386109a7565b6040513d86823e3d90fd5b503461017257602036600319011261017257610b13611151565b604051630bb7c8fd60e31b81526001600160a01b039091166004820181905290602081602481305afa9081156107b6578391610bda575b5015610775578154604051631c9f84ef60e21b81526004810192909252602090829060249082906001600160a01b03165afa908115610233578291610b99575b60208261ffff60405191168152f35b90506020813d602011610bd2575b81610bb4602093836111d3565b81010312610750575161ffff81168103610750576020915038610b8a565b3d9150610ba7565b610bf3915060203d6020116107af576107a181836111d3565b38610b4a565b50346101725780600319360112610172576040517f00000000000000000000000000000000000000000000000000000000000000006001600160a01b03168152602090f35b503461017257604036600319011261017257610c58611151565b90602435906001600160401b038211610172576020610c8484610c7e3660048701611182565b91611373565b6040519015158152f35b5034610172576060366003190112610172576004356001600160401b03811161075057610cbf903690600401611182565b6024356001600160401b0381116105f957610cde903690600401611182565b6044356001600160401b038111610da157610cfd903690600401611182565b919093610d08611825565b818103610d9257828203610d9257865b818110610d23578780f35b610d2e8183896112a2565b35906001600160a01b0382168203610d8e57610d4b8185886112a2565b35916001600160a01b0383168303610d8a57610d6882878a6112a2565b3561ffff81168103610d8657600193610d8092611992565b01610d18565b8a80fd5b8980fd5b8880fd5b63512509d360e11b8752600487fd5b8580fd5b5034610172576020366003190112610172576020610c84610dc4611151565b611241565b5034610172576020366003190112610172576020610de5611151565b6040517f00000000000000000000000000000000000000000000000000000000000000006001600160a01b039081169216919091148152f35b503461017257606036600319011261017257610e38611151565b610e4061116c565b6044359061ffff821682036105f957610e6092610e5b611825565b611992565b80f35b503461017257604036600319011261017257610e7d611151565b6024359061ffff821680920361074c57610e95611825565b604051630bb7c8fd60e31b81526001600160a01b039091166004820181905290602081602481305afa908115610aee578491610f73575b5015610f6157825483906001600160a01b0316803b15610750578190604460405180948193639f3418d560e01b83528760048401528860248401525af18015610aee57610f4d575b506001600160a01b03610f25611acd565b167fcac7061b6cbeaa6b9ac84616fd7af5e7d0e57e1b4b028d18261698d29a5054ba8480a480f35b83610f5a919492946111d3565b9138610f14565b63fa9b64eb60e01b8352600452602482fd5b610f8c915060203d6020116107af576107a181836111d3565b38610ecc565b503461017257604036600319011261017257610fac61116c565b6001600160a01b03610fbc611acd565b166001600160a01b03821603610fd8576102ff9060043561194e565b63334bd91960e11b8252600482fd5b5034610172576040366003190112610172576102ff60043561100761116c565b906110146102f5826111b2565b611906565b503461017257602036600319011261017257611033611151565b61103b6117b9565b6001600160a01b031680156110925781546001600160a01b031916811782556001600160a01b0361106a611acd565b167f06ac29c7967f16f84307d77e8e8961d6f064f072486dc83f5b7ebd0ba878485e8380a380f35b63f359d7f760e01b8252600482fd5b50346101725760203660031901126101725760206110c06004356111b2565b604051908152f35b9050346107505760203660031901126107505760043563ffffffff60e01b811680910361074c576020925063109a496560e01b811490811561110c575b5015158152f35b635a05180f60e01b811491508115611126575b5038611105565b637965db0b60e01b811491508115611140575b503861111f565b6301ffc9a760e01b14905038611139565b600435906001600160a01b038216820361116757565b600080fd5b602435906001600160a01b038216820361116757565b9181601f84011215611167578235916001600160401b038311611167576020808501948460051b01011161116757565b600052600080516020611fdd83398151915260205260016040600020015490565b90601f801991011681019081106001600160401b038211176111f457604052565b634e487b7160e01b600052604160045260246000fd5b90816020910312611167575180151581036111675790565b9081602091031261116757516001600160a01b03811681036111675790565b600054604051637988d3a560e01b81526001600160a01b0392831660048201529160209183916024918391165afa9081611285575b5061128057600090565b600190565b61129d9060203d60201161022c5761021e81836111d3565b611276565b91908110156112b25760051b0190565b634e487b7160e01b600052603260045260246000fd5b60005b8381106112db5750506000910152565b81810151838201526020016112cb565b909291926001600160401b0381116111f45760405191611315601f8301601f1916602001846111d3565b82948284528282011161116757602061132f9301906112c8565b565b9080601f8301121561116757815161134b926020016112eb565b90565b90602091611367815180928185528580860191016112c8565b601f01601f1916010190565b604051630bb7c8fd60e31b81526001600160a01b039091166004820181905290602081602481305afa90811561177e5760009161179a575b501561179257821561178a57600054604051637988d3a560e01b81526004810192909252602090829060249082906001600160a01b03165afa90811561177e5760009161175f575b5060015491926001600160a01b039092169160005b818110611419575050505050600190565b6114248183876112a2565b358015611755576040516352c111d160e01b81526004810182905260009182826024818a5afa9182156107b657839261168e575b50815191835b838110611484575b505050501561147a57600101935b93611408565b5050505050600090565b81518110156112b25760018060a01b0360208260051b84010151166040516020810190828252856040820152604081526114bf6060826111d3565b51902060405163c9100bcb60e01b81526004810191909152906001600160a01b038a16600083602481845afa906000918281849685936115d9575b5061150d5750505050505060010161145e565b6001600160a01b0316841461152a575b505050505060010161145e565b87830361151d57916020939161157f61156d96946040519788968795869563604b4d3760e11b87526004870152602486015260806044860152608485019061134e565b8381036003190160648501529061134e565b03915afa600091816115b9575b5061159a575060010161145e565b6115a95760013880808061151d565b5050505050600138808080611466565b6115d291925060203d81116107af576107a181836111d3565b903861158c565b96509150503d8084873e6115ed81876111d3565b85019260c0868503126101725785516040870151946001600160a01b038616860361074c5760608801516001600160401b0381116105f95781611631918a01611331565b9260808901516001600160401b0381116107505782611651918b01611331565b9860a0810151906001600160401b03821161074c57019082601f830112156101725750805161168392916020016112eb565b5093909591386114fa565b9091503d8084833e6116a081836111d3565b8101906020818303126105f9578051906001600160401b038211611751570181601f820112156105f9578051916001600160401b03831161173d578260051b91604051936116f160208501866111d3565b8452602080850193820101918211610da157602001915b818310611719575050509038611458565b82516001600160a01b038116810361173957815260209283019201611708565b8680fd5b634e487b7160e01b85526041600452602485fd5b8480fd5b5060010193611474565b611778915060203d60201161022c5761021e81836111d3565b386113f3565b6040513d6000823e3d90fd5b505050600190565b505050600090565b6117b3915060203d6020116107af576107a181836111d3565b386113ab565b6117c1611acd565b6001600160a01b03811660009081527fb7db2dd08fcb62d0c9e08c51941cae53c267786a0b75803fb7960902fc8ef97d602052604090205460ff16156118045750565b63e2517d3f60e01b60005260018060a01b0316600452600060245260446000fd5b61182d611acd565b6001600160a01b03811660009081527f07966f2ab141347034724e9b2a472c2f77f5cd745aeba27cacba797b8fcb7086602052604090205460ff16156118705750565b63e2517d3f60e01b60009081526001600160a01b0391909116600452600080516020611ffd833981519152602452604490fd5b6118ab611acd565b81600052600080516020611fdd833981519152602052604060002060018060a01b03821660005260205260ff60406000205416156118e7575050565b63e2517d3f60e01b60005260018060a01b031660045260245260446000fd5b6119108282611cd0565b918261191b57505090565b6000918252600080516020611fbd833981519152602052604090912061194a916001600160a01b031690611e7b565b5090565b6119588282611d87565b918261196357505090565b6000918252600080516020611fbd833981519152602052604090912061194a916001600160a01b031690611ee9565b6001600160a01b0316906000908215611abe576001600160a01b0316928315611aaf57604051630bb7c8fd60e31b815260048101849052602081602481305afa9081156107b6578391611a90575b50611a7d5781546001600160a01b031690813b1561074c5761ffff6064849283604051958694859363a53410dd60e01b85528a60048601528b60248601521660448401525af18015610233578290611a6d575b507f8496217326c6eb20676e25071094a44135f09bfe491de757a3332dd8a433a3e590506001600160a01b03611a67611acd565b169180a4565b611a76916111d3565b3881611a33565b506024916345052f4560e01b8252600452fd5b611aa9915060203d6020116107af576107a181836111d3565b386119e0565b63a28c79a960e01b8252600482fd5b630702b3d960e41b8252600482fd5b337f00000000000000000000000000000000000000000000000000000000000000006001600160a01b03161480611b31575b15611b2d576013193601368111611b17573560601c90565b634e487b7160e01b600052601160045260246000fd5b3390565b506014361015611aff565b6001600160a01b03811660009081527fb7db2dd08fcb62d0c9e08c51941cae53c267786a0b75803fb7960902fc8ef97d602052604090205460ff16611bfc576001600160a01b0381811660009081527fb7db2dd08fcb62d0c9e08c51941cae53c267786a0b75803fb7960902fc8ef97d60205260409020805460ff19166001179055611bc6611acd565b16906001600160a01b031660007f2f8788117e7eff1d82e926ec794901d17c78024a50270940304540a733656f0d8180a4600190565b50600090565b6001600160a01b03811660009081527f07966f2ab141347034724e9b2a472c2f77f5cd745aeba27cacba797b8fcb7086602052604090205460ff16611bfc576001600160a01b0381811660009081527f07966f2ab141347034724e9b2a472c2f77f5cd745aeba27cacba797b8fcb708660205260409020805460ff19166001179055611c8c611acd565b16906001600160a01b0316600080516020611ffd8339815191527f2f8788117e7eff1d82e926ec794901d17c78024a50270940304540a733656f0d600080a4600190565b6000818152600080516020611fdd833981519152602090815260408083206001600160a01b038616845290915290205460ff16611d80576000818152600080516020611fdd833981519152602090815260408083206001600160a01b0386811685529252909120805460ff19166001179055611d4a611acd565b16916001600160a01b0316907f2f8788117e7eff1d82e926ec794901d17c78024a50270940304540a733656f0d600080a4600190565b5050600090565b6000818152600080516020611fdd833981519152602090815260408083206001600160a01b038616845290915290205460ff1615611d80576000818152600080516020611fdd833981519152602090815260408083206001600160a01b0386811685529252909120805460ff19169055611dff611acd565b16916001600160a01b0316907ff6391f5c32d9c69d2a47ea670b442974b53935d1edc7fd64eb21e047a839171b600080a4600190565b80548210156112b25760005260206000200190600090565b60ff60008051602061201d8339815191525460401c1615611e6a57565b631afcd79f60e31b60005260046000fd5b6001810190826000528160205260406000205415600014611792578054680100000000000000008110156111f457611ed4611ebd826001879401855584611e35565b819391549060031b91821b91600019901b19161790565b90555491600052602052604060002055600190565b9060018201918160005282602052604060002054801515600014611fb3576000198101818111611b17578254600019810191908211611b1757818103611f7c575b50505080548015611f66576000190190611f448282611e35565b8154906000199060031b1b191690555560005260205260006040812055600190565b634e487b7160e01b600052603160045260246000fd5b611f9c611f8c611ebd9386611e35565b90549060031b1c92839286611e35565b905560005283602052604060002055388080611f2a565b5050505060009056fec1f6fe24621ce81ec5827caf0253cadb74709b061630e6b55e8237170593200002dd7bc7dec4dceedda775e58dd541e08a116c6c53815c0bd028192f7b626800edcc084d3dcd65a1f7f23c65c46722faca6953d28e43150a467cf43e5c309238f0c57e16840df040f15088dc2f81fe391c3923bec73e23a9662efc9c229c6a00a2646970667358221220ecdda158e8c915e9b1b2834f222c94072b02bef1b7c72911123f21b6862bf25c64736f6c634300081c0033",
  "linkReferences": {},
  "deployedLinkReferences": {}
}