{
  "_format": "hh-sol-artifact-1",
  "contractName": "SMARTIdentityImplementation",
  "sourceName": "contracts/system/identity-factory/identities/SMARTIdentityImplementation.sol",
  "abi": [
    {
      "inputs": [],
      "stateMutability": "nonpayable",
      "type": "constructor"
    },
    {
      "inputs": [],
      "name": "InvalidInitialization",
      "type": "error"
    },
    {
      "inputs": [],
      "name": "NotInitializing",
      "type": "error"
    },
    {
      "anonymous": false,
      "inputs": [
        {
          "indexed": true,
          "internalType": "uint256",
          "name": "executionId",
          "type": "uint256"
        },
        {
          "indexed": false,
          "internalType": "bool",
          "name": "approved",
          "type": "bool"
        }
      ],
      "name": "Approved",
      "type": "event"
    },
    {
      "anonymous": false,
      "inputs": [
        {
          "indexed": true,
          "internalType": "bytes32",
          "name": "claimId",
          "type": "bytes32"
        },
        {
          "indexed": true,
          "internalType": "uint256",
          "name": "topic",
          "type": "uint256"
        },
        {
          "indexed": false,
          "internalType": "uint256",
          "name": "scheme",
          "type": "uint256"
        },
        {
          "indexed": true,
          "internalType": "address",
          "name": "issuer",
          "type": "address"
        },
        {
          "indexed": false,
          "internalType": "bytes",
          "name": "signature",
          "type": "bytes"
        },
        {
          "indexed": false,
          "internalType": "bytes",
          "name": "data",
          "type": "bytes"
        },
        {
          "indexed": false,
          "internalType": "string",
          "name": "uri",
          "type": "string"
        }
      ],
      "name": "ClaimAdded",
      "type": "event"
    },
    {
      "anonymous": false,
      "inputs": [
        {
          "indexed": true,
          "internalType": "bytes32",
          "name": "claimId",
          "type": "bytes32"
        },
        {
          "indexed": true,
          "internalType": "uint256",
          "name": "topic",
          "type": "uint256"
        },
        {
          "indexed": false,
          "internalType": "uint256",
          "name": "scheme",
          "type": "uint256"
        },
        {
          "indexed": true,
          "internalType": "address",
          "name": "issuer",
          "type": "address"
        },
        {
          "indexed": false,
          "internalType": "bytes",
          "name": "signature",
          "type": "bytes"
        },
        {
          "indexed": false,
          "internalType": "bytes",
          "name": "data",
          "type": "bytes"
        },
        {
          "indexed": false,
          "internalType": "string",
          "name": "uri",
          "type": "string"
        }
      ],
      "name": "ClaimChanged",
      "type": "event"
    },
    {
      "anonymous": false,
      "inputs": [
        {
          "indexed": true,
          "internalType": "bytes32",
          "name": "claimId",
          "type": "bytes32"
        },
        {
          "indexed": true,
          "internalType": "uint256",
          "name": "topic",
          "type": "uint256"
        },
        {
          "indexed": false,
          "internalType": "uint256",
          "name": "scheme",
          "type": "uint256"
        },
        {
          "indexed": true,
          "internalType": "address",
          "name": "issuer",
          "type": "address"
        },
        {
          "indexed": false,
          "internalType": "bytes",
          "name": "signature",
          "type": "bytes"
        },
        {
          "indexed": false,
          "internalType": "bytes",
          "name": "data",
          "type": "bytes"
        },
        {
          "indexed": false,
          "internalType": "string",
          "name": "uri",
          "type": "string"
        }
      ],
      "name": "ClaimRemoved",
      "type": "event"
    },
    {
      "anonymous": false,
      "inputs": [
        {
          "indexed": true,
          "internalType": "uint256",
          "name": "executionId",
          "type": "uint256"
        },
        {
          "indexed": true,
          "internalType": "address",
          "name": "to",
          "type": "address"
        },
        {
          "indexed": true,
          "internalType": "uint256",
          "name": "value",
          "type": "uint256"
        },
        {
          "indexed": false,
          "internalType": "bytes",
          "name": "data",
          "type": "bytes"
        }
      ],
      "name": "Executed",
      "type": "event"
    },
    {
      "anonymous": false,
      "inputs": [
        {
          "indexed": true,
          "internalType": "uint256",
          "name": "executionId",
          "type": "uint256"
        },
        {
          "indexed": true,
          "internalType": "address",
          "name": "to",
          "type": "address"
        },
        {
          "indexed": true,
          "internalType": "uint256",
          "name": "value",
          "type": "uint256"
        },
        {
          "indexed": false,
          "internalType": "bytes",
          "name": "data",
          "type": "bytes"
        }
      ],
      "name": "ExecutionFailed",
      "type": "event"
    },
    {
      "anonymous": false,
      "inputs": [
        {
          "indexed": true,
          "internalType": "uint256",
          "name": "executionId",
          "type": "uint256"
        },
        {
          "indexed": true,
          "internalType": "address",
          "name": "to",
          "type": "address"
        },
        {
          "indexed": true,
          "internalType": "uint256",
          "name": "value",
          "type": "uint256"
        },
        {
          "indexed": false,
          "internalType": "bytes",
          "name": "data",
          "type": "bytes"
        }
      ],
      "name": "ExecutionRequested",
      "type": "event"
    },
    {
      "anonymous": false,
      "inputs": [
        {
          "indexed": false,
          "internalType": "uint64",
          "name": "version",
          "type": "uint64"
        }
      ],
      "name": "Initialized",
      "type": "event"
    },
    {
      "anonymous": false,
      "inputs": [
        {
          "indexed": true,
          "internalType": "bytes32",
          "name": "key",
          "type": "bytes32"
        },
        {
          "indexed": true,
          "internalType": "uint256",
          "name": "purpose",
          "type": "uint256"
        },
        {
          "indexed": true,
          "internalType": "uint256",
          "name": "keyType",
          "type": "uint256"
        }
      ],
      "name": "KeyAdded",
      "type": "event"
    },
    {
      "anonymous": false,
      "inputs": [
        {
          "indexed": true,
          "internalType": "bytes32",
          "name": "key",
          "type": "bytes32"
        },
        {
          "indexed": true,
          "internalType": "uint256",
          "name": "purpose",
          "type": "uint256"
        },
        {
          "indexed": true,
          "internalType": "uint256",
          "name": "keyType",
          "type": "uint256"
        }
      ],
      "name": "KeyRemoved",
      "type": "event"
    },
    {
      "inputs": [
        {
          "internalType": "uint256",
          "name": "_topic",
          "type": "uint256"
        },
        {
          "internalType": "uint256",
          "name": "_scheme",
          "type": "uint256"
        },
        {
          "internalType": "address",
          "name": "_issuer",
          "type": "address"
        },
        {
          "internalType": "bytes",
          "name": "_signature",
          "type": "bytes"
        },
        {
          "internalType": "bytes",
          "name": "_data",
          "type": "bytes"
        },
        {
          "internalType": "string",
          "name": "_uri",
          "type": "string"
        }
      ],
      "name": "addClaim",
      "outputs": [
        {
          "internalType": "bytes32",
          "name": "claimRequestId",
          "type": "bytes32"
        }
      ],
      "stateMutability": "nonpayable",
      "type": "function"
    },
    {
      "inputs": [
        {
          "internalType": "bytes32",
          "name": "_key",
          "type": "bytes32"
        },
        {
          "internalType": "uint256",
          "name": "_purpose",
          "type": "uint256"
        },
        {
          "internalType": "uint256",
          "name": "_type",
          "type": "uint256"
        }
      ],
      "name": "addKey",
      "outputs": [
        {
          "internalType": "bool",
          "name": "success",
          "type": "bool"
        }
      ],
      "stateMutability": "nonpayable",
      "type": "function"
    },
    {
      "inputs": [
        {
          "internalType": "uint256",
          "name": "_id",
          "type": "uint256"
        },
        {
          "internalType": "bool",
          "name": "_approve",
          "type": "bool"
        }
      ],
      "name": "approve",
      "outputs": [
        {
          "internalType": "bool",
          "name": "success",
          "type": "bool"
        }
      ],
      "stateMutability": "nonpayable",
      "type": "function"
    },
    {
      "inputs": [
        {
          "internalType": "address",
          "name": "_to",
          "type": "address"
        },
        {
          "internalType": "uint256",
          "name": "_value",
          "type": "uint256"
        },
        {
          "internalType": "bytes",
          "name": "_data",
          "type": "bytes"
        }
      ],
      "name": "execute",
      "outputs": [
        {
          "internalType": "uint256",
          "name": "executionId",
          "type": "uint256"
        }
      ],
      "stateMutability": "payable",
      "type": "function"
    },
    {
      "inputs": [
        {
          "internalType": "bytes32",
          "name": "_claimId",
          "type": "bytes32"
        }
      ],
      "name": "getClaim",
      "outputs": [
        {
          "internalType": "uint256",
          "name": "topic",
          "type": "uint256"
        },
        {
          "internalType": "uint256",
          "name": "scheme",
          "type": "uint256"
        },
        {
          "internalType": "address",
          "name": "issuer",
          "type": "address"
        },
        {
          "internalType": "bytes",
          "name": "signature",
          "type": "bytes"
        },
        {
          "internalType": "bytes",
          "name": "data",
          "type": "bytes"
        },
        {
          "internalType": "string",
          "name": "uri",
          "type": "string"
        }
      ],
      "stateMutability": "view",
      "type": "function"
    },
    {
      "inputs": [
        {
          "internalType": "uint256",
          "name": "_topic",
          "type": "uint256"
        }
      ],
      "name": "getClaimIdsByTopic",
      "outputs": [
        {
          "internalType": "bytes32[]",
          "name": "claimIds",
          "type": "bytes32[]"
        }
      ],
      "stateMutability": "view",
      "type": "function"
    },
    {
      "inputs": [
        {
          "internalType": "bytes32",
          "name": "_key",
          "type": "bytes32"
        }
      ],
      "name": "getKey",
      "outputs": [
        {
          "internalType": "uint256[]",
          "name": "purposes",
          "type": "uint256[]"
        },
        {
          "internalType": "uint256",
          "name": "keyType",
          "type": "uint256"
        },
        {
          "internalType": "bytes32",
          "name": "key",
          "type": "bytes32"
        }
      ],
      "stateMutability": "view",
      "type": "function"
    },
    {
      "inputs": [
        {
          "internalType": "bytes32",
          "name": "_key",
          "type": "bytes32"
        }
      ],
      "name": "getKeyPurposes",
      "outputs": [
        {
          "internalType": "uint256[]",
          "name": "_purposes",
          "type": "uint256[]"
        }
      ],
      "stateMutability": "view",
      "type": "function"
    },
    {
      "inputs": [
        {
          "internalType": "uint256",
          "name": "_purpose",
          "type": "uint256"
        }
      ],
      "name": "getKeysByPurpose",
      "outputs": [
        {
          "internalType": "bytes32[]",
          "name": "keys",
          "type": "bytes32[]"
        }
      ],
      "stateMutability": "view",
      "type": "function"
    },
    {
      "inputs": [
        {
          "internalType": "bytes",
          "name": "sig",
          "type": "bytes"
        },
        {
          "internalType": "bytes32",
          "name": "dataHash",
          "type": "bytes32"
        }
      ],
      "name": "getRecoveredAddress",
      "outputs": [
        {
          "internalType": "address",
          "name": "addr",
          "type": "address"
        }
      ],
      "stateMutability": "pure",
      "type": "function"
    },
    {
      "inputs": [
        {
          "internalType": "address",
          "name": "initialManagementKey",
          "type": "address"
        }
      ],
      "name": "initialize",
      "outputs": [],
      "stateMutability": "nonpayable",
      "type": "function"
    },
    {
      "inputs": [
        {
          "internalType": "contract IIdentity",
          "name": "_identity",
          "type": "address"
        },
        {
          "internalType": "uint256",
          "name": "claimTopic",
          "type": "uint256"
        },
        {
          "internalType": "bytes",
          "name": "sig",
          "type": "bytes"
        },
        {
          "internalType": "bytes",
          "name": "data",
          "type": "bytes"
        }
      ],
      "name": "isClaimValid",
      "outputs": [
        {
          "internalType": "bool",
          "name": "claimValid",
          "type": "bool"
        }
      ],
      "stateMutability": "view",
      "type": "function"
    },
    {
      "inputs": [
        {
          "internalType": "bytes32",
          "name": "_key",
          "type": "bytes32"
        },
        {
          "internalType": "uint256",
          "name": "_purpose",
          "type": "uint256"
        }
      ],
      "name": "keyHasPurpose",
      "outputs": [
        {
          "internalType": "bool",
          "name": "result",
          "type": "bool"
        }
      ],
      "stateMutability": "view",
      "type": "function"
    },
    {
      "inputs": [
        {
          "internalType": "bytes32",
          "name": "_claimId",
          "type": "bytes32"
        }
      ],
      "name": "removeClaim",
      "outputs": [
        {
          "internalType": "bool",
          "name": "success",
          "type": "bool"
        }
      ],
      "stateMutability": "nonpayable",
      "type": "function"
    },
    {
      "inputs": [
        {
          "internalType": "bytes32",
          "name": "_key",
          "type": "bytes32"
        },
        {
          "internalType": "uint256",
          "name": "_purpose",
          "type": "uint256"
        }
      ],
      "name": "removeKey",
      "outputs": [
        {
          "internalType": "bool",
          "name": "success",
          "type": "bool"
        }
      ],
      "stateMutability": "nonpayable",
      "type": "function"
    },
    {
      "inputs": [
        {
          "internalType": "bytes4",
          "name": "interfaceId",
          "type": "bytes4"
        }
      ],
      "name": "supportsInterface",
      "outputs": [
        {
          "internalType": "bool",
          "name": "",
          "type": "bool"
        }
      ],
      "stateMutability": "view",
      "type": "function"
    },
    {
      "inputs": [],
      "name": "version",
      "outputs": [
        {
          "internalType": "string",
          "name": "",
          "type": "string"
        }
      ],
      "stateMutability": "pure",
      "type": "function"
    }
  ],
  "bytecode": "0x6080604052346025576006805461ffff1916600117905560405161254b908161002b8239f35b600080fdfe6080604052600436101561001257600080fd5b60003560e01c806301ffc9a71461012757806312aaac70146101225780631d3812401461011d5780634eee424a1461011857806353d413c51461011357806354fd4d501461010e578063747442d31461010957806380e9e9e1146101045780639010f726146100ff578063b1a34e0d146100fa578063b61d27f6146100f5578063c0969a6e146100f0578063c3b129e3146100eb578063c4d66de8146100e6578063c9100bcb146100e1578063d202158d146100dc5763fb307b34146100d757600080fd5b6111ef565b6111ce565b61115d565b610f6b565b610f1a565b610eab565b610cf8565b610c45565b610af1565b610a7c565b6109f8565b6109a7565b6106cd565b610423565b61022d565b6101ce565b346101955760203660031901126101955760043563ffffffff60e01b81168091036101955763604b4d3760e11b8114908115610184575b8115610173575b506040519015158152602090f35b6301ffc9a760e01b14905038610165565b6301ffc9a760e01b8114915061015e565b600080fd5b906020808351928381520192019060005b8181106101b85750505090565b82518452602093840193909201916001016101ab565b346101955760203660031901126101955761021e6004356000908152600160208190526040909120908101546002820154916102099061122f565b9160405193849360608552606085019061019a565b91602084015260408301520390f35b34610195576060366003190112610195576004356024356044359161025e600160ff60065460081c1615151461127a565b30331480156103f3575b610271906112e2565b806002610288826000526001602052604060002090565b015403610391576102ab6102a6826000526001602052604060002090565b61122f565b9060005b825181101561032057836102c3828561140a565b51146102d1576001016102af565b60405162461bcd60e51b815260206004820152602160248201527f436f6e666c6963743a204b657920616c72656164792068617320707572706f736044820152606560f81b6064820152608490fd5b50929190506103428161033d856000526001602052604060002090565b61143b565b61035a8361033d836000526002602052604060002090565b604051927f480000bb1edad8ca1470381cc334b1917fbd51c6531f3a623ea8e0ec7e38a6e9600080a46001815280602081015b0390f35b91908260026103aa826000526001602052604060002090565b01556103d56103b96020610bc4565b8281526103d0856000526001602052604060002090565b6113bc565b8160016103ec856000526001602052604060002090565b0155610342565b5061027161041c604051602081019033825260208152610414604082610ba2565b51902061227c565b9050610268565b346101955760203660031901126101955760043561044d600160ff60065460081c1615151461127a565b303314801561069d575b61046090611474565b610474816000526004602052604060002090565b54801561064457600091610492826000526005602052604060002090565b54925b816104c06104b6836104b1876000526005602052604060002090565b611423565b90549060031b1c90565b1461062a576104ce906114db565b83811061049557916105296106199361052361050e6104b661061e985b610508610502886000526005602052604060002090565b916114ef565b90611423565b916104b1856000526005602052604060002090565b9061135d565b610545610540826000526005602052604060002090565b611514565b600161055b836000526004602052604060002090565b015490827f3cf57863a89432c61c4a27073c6ee39e8a764bff5a05aebfbcdcdc80b2e6130a6105a76002610599846000526004602052604060002090565b01546001600160a01b031690565b60036105bd846000526004602052604060002090565b019061060660046105d8866000526004602052604060002090565b0160056105ef876000526004602052604060002090565b019060405194859460018060a01b03169985611607565b0390a46000526004602052604060002090565b61169c565b60405160018152602090f35b916105296106199361052361050e6104b661061e986104eb565b60405162461bcd60e51b815260206004820152602b60248201527f4e6f6e4578697374696e673a205468657265206973206e6f20636c61696d207760448201526a1a5d1a081d1a1a5cc8125160aa1b6064820152608490fd5b506104606106c66040516020810190338252602081526106be604082610ba2565b519020612303565b9050610457565b34610195576040366003190112610195576004356024356106fa600160ff60065460081c1615151461127a565b303314801561093e575b61070d906112e2565b61072f826002610727826000526001602052604060002090565b0154146116d4565b6107466102a6836000526001602052604060002090565b9060005b81610755828561140a565b51146107cb57610764906114db565b9082518214610773579061074a565b60405162461bcd60e51b815260206004820152602a60248201527f4e6f6e4578697374696e673a204b657920646f65736e27742068617665207375604482015269636820707572706f736560b01b6064820152608490fd5b6107e96107e16107db85516114ef565b8561140a565b51918461140a565b5261080782610802856000526001602052604060002090565b61172a565b61081e610540846000526001602052604060002090565b600081815260026020526040812054905b8461084b6104b6836104b1876000526002602052604060002090565b1461092c57610859906114db565b81811061082f576105236108856104b661089a945b610508610502886000526002602052604060002090565b916104b1856000526002602052604060002090565b6108b1610540826000526002602052604060002090565b6108d360016108ca856000526001602052604060002090565b015492516114ef565b1561090b575b604051927f585a4aef50f8267a92b32412b331b20f7f8b96f2245b253b9cc50dcc621d3397600080a460018152602090f35b610927610922846000526001602052604060002090565b6117a3565b6108d9565b6105236108856104b661089a9461086e565b5061070d61095f604051602081019033825260208152610414604082610ba2565b9050610704565b919082519283825260005b848110610992575050826000602080949584010152601f8019910116010190565b80602080928401015182828601015201610971565b346101955760003660031901126101955761038d60408051906109ca8183610ba2565b6005825264322e322e3160d81b602083015251918291602083526020830190610966565b8015150361019557565b34610195576040366003190112610195576020610a38602435600435610a1d826109ee565b610a33600160ff60065460081c1615151461127a565b6119ed565b6040519015158152f35b602060408183019282815284518094520192019060005b818110610a665750505090565b8251845260209384019390920191600101610a59565b34610195576020366003190112610195576004356000526005602052604060002060405190816020825491828152019160005260206000209060005b818110610adb5761038d85610acf81870382610ba2565b60405191829182610a42565b8254845260209093019260019283019201610ab8565b34610195576020366003190112610195576004356000526002602052604060002060405190816020825491828152019160005260206000209060005b818110610b445761038d85610acf81870382610ba2565b8254845260209093019260019283019201610b2d565b6001600160a01b0381160361019557565b634e487b7160e01b600052604160045260246000fd5b6060810190811067ffffffffffffffff821117610b9d57604052565b610b6b565b90601f8019910116810190811067ffffffffffffffff821117610b9d57604052565b90610bd26040519283610ba2565b565b67ffffffffffffffff8111610b9d57601f01601f191660200190565b929192610bfc82610bd4565b91610c0a6040519384610ba2565b829481845281830111610195578281602093846000960137010152565b9080601f8301121561019557816020610c4293359101610bf0565b90565b346101955760c036600319011261019557602435604435600435610c6882610b5a565b60643567ffffffffffffffff811161019557610c88903690600401610c27565b60843567ffffffffffffffff811161019557610ca8903690600401610c27565b9060a4359367ffffffffffffffff851161019557366023860112156101955761038d95610ce2610ce8963690602481600401359101610bf0565b94611cd2565b6040519081529081906020820190565b606036600319011261019557600435610d1081610b5a565b6024359060443567ffffffffffffffff81116101955761038d927f8afcfabcb00e47a53a8fc3e9f23ff47ee1926194bb1350dd007c50b412a6cee892610d5d610e13933690600401610c27565b90610d74600160ff60065460081c1615151461127a565b6000549481610db18793610d92856000526003602052604060002090565b80546001600160a01b0319166001600160a01b03909216919091179055565b846001610dc8856000526003602052604060002090565b0155610dea846002610de4866000526003602052604060002090565b01612022565b610df56000546114db565b6000556040516001600160a01b03919091169586948291908261211e565b0390a4604080513360208201908152610e409290919061041490829081015b03601f198101835282610ba2565b15610e605750610e4f816117d7565b506040519081529081906020820190565b30141580610e7d575b15610ce857610e77816117d7565b50610ce8565b50604080513360208201908152610ea692909190610e9e9082908101610e32565b51902061237e565b610e69565b3461019557608036600319011261019557600435610ec881610b5a565b6024359060443567ffffffffffffffff811161019557610eec903690600401610c27565b906064359167ffffffffffffffff831161019557602093610f14610a38943690600401610c27565b9261212f565b346101955760403660031901126101955760043567ffffffffffffffff811161019557610f59610f506020923690600401610c27565b602435906121e6565b6040516001600160a01b039091168152f35b3461019557602036600319011261019557600435610f8881610b5a565b6001600160a01b038116156110c757600654600191829160ff161580156110be575b610fb39061248e565b610fc5600160ff196006541617600655565b610fd961010061ff00196006541617600655565b604080516001600160a01b03909216602083019081529190610ffe9082908101610e32565b519020806002611018826000526001602052604060002090565b01556110446110276020610bc4565b6001815261103f836000526001602052604060002090565b6124da565b6110638261105c836000526001602052604060002090565b0160019055565b60016000526002602052611097817fe90b7bceb6e7df5418fb78d8ee546e97c83a08bbccc01a0644d599ccd2a7c2e061143b565b7f480000bb1edad8ca1470381cc334b1917fbd51c6531f3a623ea8e0ec7e38a6e9600080a4005b50303b15610faa565b60405162461bcd60e51b815260206004820152601f60248201527f696e76616c696420617267756d656e74202d207a65726f2061646472657373006044820152606490fd5b94919361114f93610c429795611141938852602088015260018060a01b0316604087015260c0606087015260c0860190610966565b908482036080860152610966565b9160a0818403910152610966565b34610195576020366003190112610195576004803560009081526020829052604090208054600182015460028301549093919261038d926001600160a01b03909216916005820191908101906111c1906111bb908190600301612261565b92612261565b926040519687968761110c565b34610195576040366003190112610195576020610a386024356004356123f9565b3461019557602036600319011261019557600435600052600160205261038d61121b604060002061122f565b60405191829160208352602083019061019a565b906040519182815491828252602082019060005260206000209260005b818110611261575050610bd292500383610ba2565b845483526001948501948794506020909301920161124c565b1561128157565b60405162461bcd60e51b815260206004820152603360248201527f496e746572616374696e67207769746820746865206c69627261727920636f6e6044820152723a3930b1ba1034b9903337b93134b23232b71760691b6064820152608490fd5b156112e957565b60405162461bcd60e51b815260206004820152603060248201527f5065726d697373696f6e733a2053656e64657220646f6573206e6f742068617660448201526f65206d616e6167656d656e74206b657960801b6064820152608490fd5b634e487b7160e01b600052601160045260246000fd5b916113779183549060031b91821b91600019901b19161790565b9055565b818110611386575050565b6000815560010161137b565b805460018255806001106113a4575050565b610bd29160005260016020600020918201910161137b565b906113c682611392565b9060005260206000209060005b600181106113e057505050565b6001906020835193019281850155016113d3565b634e487b7160e01b600052603260045260246000fd5b805182101561141e5760209160051b010190565b6113f4565b805482101561141e5760005260206000200190600090565b805490600160401b821015610b9d578161145d91600161137794018155611423565b819391549060031b91821b91600019901b19161790565b1561147b57565b60405162461bcd60e51b815260206004820152603260248201527f5065726d697373696f6e733a2053656e64657220646f6573206e6f74206861766044820152716520636c61696d207369676e6572206b657960701b6064820152608490fd5b60001981146114ea5760010190565b611347565b6000198101919082116114ea57565b634e487b7160e01b600052603160045260246000fd5b8054801561154557600019019061154061152e8383611423565b81929154906000199060031b1b191690565b905555565b6114fe565b90600182811c9216801561157a575b602083101461156457565b634e487b7160e01b600052602260045260246000fd5b91607f1691611559565b600092918154916115948361154a565b80835292600181169081156115ea57506001146115b057505050565b60009081526020812093945091925b8383106115d0575060209250010190565b6001816020929493945483858701015201910191906115bf565b915050602093945060ff929192191683830152151560051b010190565b92611627610c429593611635938652608060208701526080860190611584565b908482036040860152611584565b916060818403910152611584565b61164d815461154a565b9081611657575050565b601f8211600114611669576000905550565b61168b610bd292826000526001601f6020600020920160051c8201910161137b565b600081815260208120918190559055565b6005906000815560006001820155600060028201556116bd60038201611643565b6116c960048201611643565b0161164d815461154a565b156116db57565b60405162461bcd60e51b815260206004820152602160248201527f4e6f6e4578697374696e673a204b65792069736e2774207265676973746572656044820152601960fa1b6064820152608490fd5b81519167ffffffffffffffff8311610b9d57600160401b8311610b9d576020908254848455808510611786575b500190600052602060002060005b8381106117725750505050565b600190602084519401938184015501611765565b61179d90846000528584600020918201910161137b565b38611757565b60026000918054838255806117be575b508260018201550155565b818452602084206117d19181019061137b565b386117b3565b6001610c4291610a338260ff60065460081c1615151461127a565b156117f957565b60405162461bcd60e51b815260206004820152602760248201527f43616e6e6f7420617070726f76652061206e6f6e2d6578697374696e6720657860448201526632b1baba34b7b760c91b6064820152608490fd5b1561185557565b60405162461bcd60e51b815260206004820152601860248201527f5265717565737420616c726561647920657865637574656400000000000000006044820152606490fd5b156118a157565b60405162461bcd60e51b815260206004820152601f60248201527f53656e64657220646f6573206e6f74206861766520616374696f6e206b6579006044820152606490fd5b156118ed57565b60405162461bcd60e51b815260206004820152602360248201527f53656e64657220646f6573206e6f742068617665206d616e6167656d656e74206044820152626b657960e81b6064820152608490fd5b6000929181549161194e8361154a565b9260018116908115611999575060011461196757505050565b909192935060005260206000206000905b8382106119855750500190565b600181602092548486015201910190611978565b60ff191683525050811515909102019150565b3d156119d7573d906119bd82610bd4565b916119cb6040519384610ba2565b82523d6000602084013e565b606090565b906020610c42928181520190611584565b906001906119fe60005484106117f2565b611a31611a2c611a286003611a1d876000526003602052604060002090565b015460081c60ff1690565b1590565b61184e565b611a55611a48846000526003602052604060002090565b546001600160a01b031690565b3090838060a01b031614600014611ca657604080513360208201908152611a8d92611a8892906104149082908101610e32565b6118e6565b604051811515815283907fb3932da477fe5d6c8ff2eafef050c0f3a1af18fc07121001482600f36f3715d890602090a2151503611c7d57611aeb6003611add836000526003602052604060002090565b01805460ff19166001179055565b600080611b05611a48846000526003602052604060002090565b611b436001611b1e866000526003602052604060002090565b01546002611b36876000526003602052604060002090565b016040519283809261193e565b03925af1611b4f6119ac565b5015611c0b57611b7e6003611b6e836000526003602052604060002090565b01805461ff001916610100179055565b611b95611a48826000526003602052604060002090565b6001611bab836000526003602052604060002090565b0154917f1f920dbda597d7bf95035464170fa58d0a4b57f13a1c315ace6793b9f63688b8611c036002611be8846000526003602052604060002090565b6040516001600160a01b0390961695928392909101826119dc565b0390a4600190565b611c22611a48826000526003602052604060002090565b6001611c38836000526003602052604060002090565b0154917fe10c49d9f7c71da23262367013434763cfdb2332267641728d25cd712c5c6a68611c756002611be8846000526003602052604060002090565b0390a4600090565b6003611c96611ca1926000526003602052604060002090565b01805460ff19169055565b600090565b604080513360208201908152611ccd92611cc89290610e9e9082908101610e32565b61189a565b611a8d565b9294909394611ced600160ff60065460081c1615151461127a565b3033148015611f20575b611d0090611474565b6001600160a01b03831694308603611ea9575b604080516001600160a01b03861660208201908152918101879052611d3b8160608101610e32565b51902096879486611d56876000526004602052604060002090565b55826001611d6e886000526004602052604060002090565b0155611d8a846003610de4896000526004602052604060002090565b611da4826004610de4896000526004602052604060002090565b611dbe856005610de4896000526004602052604060002090565b87611de7611ddb60026105998a6000526004602052604060002090565b6001600160a01b031690565b14611e765793611e7091611e647f46149b18aa084502c3f12bc75e19eda8bda8d102b82cce8474677a6d0d5f43c596611e2e8961033d8c6000526005602052604060002090565b6002611e448a6000526004602052604060002090565b0180546001600160a01b0319166001600160a01b03909216919091179055565b604051948594856120f0565b0390a490565b507f3bab293fc00db832d7619a9299914251b8747c036867ec056cbd506f60135b1393611e7091604051948594856120f0565b60405163604b4d3760e11b815260208180611eca8b878b3060048601611f5d565b03818a5afa8015611f1b57611ee791600091611eec575b50611fa1565b611d13565b611f0e915060203d602011611f14575b611f068183610ba2565b810190611f48565b38611ee1565b503d611efc565b611f95565b50611d00611f416040516020810190338252602081526106be604082610ba2565b9050611cf7565b908160209103126101955751610c42816109ee565b92610c429492611f879260018060a01b031685526020850152608060408501526080840190610966565b916060818403910152610966565b6040513d6000823e3d90fd5b15611fa857565b60405162461bcd60e51b815260206004820152600d60248201526c696e76616c696420636c61696d60981b6044820152606490fd5b9190601f8111611fec57505050565b610bd2926000526020600020906020601f840160051c83019310612018575b601f0160051c019061137b565b909150819061200b565b919091825167ffffffffffffffff8111610b9d5761204a81612044845461154a565b84611fdd565b6020601f821160011461208757819061137793949560009261207c575b50508160011b916000199060031b1c19161790565b015190503880612067565b601f1982169061209c84600052602060002090565b9160005b8181106120d8575095836001959697106120bf575b505050811b019055565b015160001960f88460031b161c191690553880806120b5565b9192602060018192868b0151815501940192016120a0565b92612110610c429593611f87938652608060208701526080860190610966565b908482036040860152610966565b906020610c42928181520190610966565b6121d8936121686121b39493610e32604051938492602084019660018060a01b0316875260408401526060808401526080830190610966565b5190206040516121aa81610e32602082019485603c917f19457468657265756d205369676e6564204d6573736167653a0a3332000000008252601c8201520190565b519020906121e6565b604080516001600160a01b039092166020830190815291906106be9082908101610e32565b6121e157600090565b600190565b600090604181510361225b5760208101519160606040830151920151901a91601b8310612245575b6040805194855260ff9093166020858101919091529284015260608301526000808052909160809060015afa15611f1b5760005190565b9091601b019060ff82116114ea5790919061220e565b50905090565b90610bd26122759260405193848092611584565b0383610ba2565b6000526001602052604060002060026040519161229883610b81565b6122a18161122f565b8352600181015460208401520154806040830152156122fd5760005b815180518210156122f5576122d48260019261140a565b511480156122f0575b6122e9576001016122bd565b5050600190565b6122dd565b505050600090565b50600090565b6000526001602052604060002060026040519161231f83610b81565b6123288161122f565b8352600181015460208401520154806040830152156122fd5760005b815180518210156122f557816123599161140a565b5160018114908115612373575b506122e957600101612344565b600391501438612366565b6000526001602052604060002060026040519161239a83610b81565b6123a38161122f565b8352600181015460208401520154806040830152156122fd5760005b815180518210156122f557816123d49161140a565b51600181149081156123ee575b506122e9576001016123bf565b6002915014386123e1565b600052600160205260406000209060026040519261241684610b81565b61241f8161122f565b8452600181015460208501520154806040840152156124875760005b8251805182101561247e57816124509161140a565b518260018214918215612474575b505061246c5760010161243b565b505050600190565b149050823861245e565b50505050600090565b5050600090565b1561249557565b60405162461bcd60e51b815260206004820152601e60248201527f496e697469616c206b65792077617320616c72656164792073657475702e00006044820152606490fd5b906124e482611392565b9060005260206000209060005b600181106124fe57505050565b600190602060ff84511693019281850155016124f156fea2646970667358221220b9d361e7f19d4f57cb1c5c77892a93d781556312408bf57ff2d6a1a0f0eb5dd064736f6c634300081c0033",
  "linkReferences": {},
  "deployedLinkReferences": {}
}