{
  "_format": "hh-sol-artifact-1",
  "contractName": "SMARTSystemFactory",
  "sourceName": "contracts/system/SMARTSystemFactory.sol",
  "abi": [
    {
      "inputs": [
        {
          "internalType": "address",
          "name": "complianceImplementation_",
          "type": "address"
        },
        {
          "internalType": "address",
          "name": "identityRegistryImplementation_",
          "type": "address"
        },
        {
          "internalType": "address",
          "name": "identityRegistryStorageImplementation_",
          "type": "address"
        },
        {
          "internalType": "address",
          "name": "trustedIssuersRegistryImplementation_",
          "type": "address"
        },
        {
          "internalType": "address",
          "name": "identityFactoryImplementation_",
          "type": "address"
        },
        {
          "internalType": "address",
          "name": "identityImplementation_",
          "type": "address"
        },
        {
          "internalType": "address",
          "name": "tokenIdentityImplementation_",
          "type": "address"
        },
        {
          "internalType": "address",
          "name": "forwarder_",
          "type": "address"
        }
      ],
      "stateMutability": "payable",
      "type": "constructor"
    },
    {
      "inputs": [],
      "name": "ComplianceImplementationNotSet",
      "type": "error"
    },
    {
      "inputs": [],
      "name": "IdentityFactoryImplementationNotSet",
      "type": "error"
    },
    {
      "inputs": [],
      "name": "IdentityImplementationNotSet",
      "type": "error"
    },
    {
      "inputs": [],
      "name": "IdentityRegistryImplementationNotSet",
      "type": "error"
    },
    {
      "inputs": [],
      "name": "IdentityRegistryStorageImplementationNotSet",
      "type": "error"
    },
    {
      "inputs": [
        {
          "internalType": "uint256",
          "name": "index",
          "type": "uint256"
        },
        {
          "internalType": "uint256",
          "name": "length",
          "type": "uint256"
        }
      ],
      "name": "IndexOutOfBounds",
      "type": "error"
    },
    {
      "inputs": [],
      "name": "TokenIdentityImplementationNotSet",
      "type": "error"
    },
    {
      "inputs": [],
      "name": "TrustedIssuersRegistryImplementationNotSet",
      "type": "error"
    },
    {
      "anonymous": false,
      "inputs": [
        {
          "indexed": true,
          "internalType": "address",
          "name": "systemAddress",
          "type": "address"
        },
        {
          "indexed": true,
          "internalType": "address",
          "name": "initialAdmin",
          "type": "address"
        }
      ],
      "name": "SMARTSystemCreated",
      "type": "event"
    },
    {
      "inputs": [],
      "name": "createSystem",
      "outputs": [
        {
          "internalType": "address",
          "name": "systemAddress",
          "type": "address"
        }
      ],
      "stateMutability": "nonpayable",
      "type": "function"
    },
    {
      "inputs": [],
      "name": "defaultComplianceImplementation",
      "outputs": [
        {
          "internalType": "address",
          "name": "",
          "type": "address"
        }
      ],
      "stateMutability": "view",
      "type": "function"
    },
    {
      "inputs": [],
      "name": "defaultIdentityFactoryImplementation",
      "outputs": [
        {
          "internalType": "address",
          "name": "",
          "type": "address"
        }
      ],
      "stateMutability": "view",
      "type": "function"
    },
    {
      "inputs": [],
      "name": "defaultIdentityImplementation",
      "outputs": [
        {
          "internalType": "address",
          "name": "",
          "type": "address"
        }
      ],
      "stateMutability": "view",
      "type": "function"
    },
    {
      "inputs": [],
      "name": "defaultIdentityRegistryImplementation",
      "outputs": [
        {
          "internalType": "address",
          "name": "",
          "type": "address"
        }
      ],
      "stateMutability": "view",
      "type": "function"
    },
    {
      "inputs": [],
      "name": "defaultIdentityRegistryStorageImplementation",
      "outputs": [
        {
          "internalType": "address",
          "name": "",
          "type": "address"
        }
      ],
      "stateMutability": "view",
      "type": "function"
    },
    {
      "inputs": [],
      "name": "defaultTokenIdentityImplementation",
      "outputs": [
        {
          "internalType": "address",
          "name": "",
          "type": "address"
        }
      ],
      "stateMutability": "view",
      "type": "function"
    },
    {
      "inputs": [],
      "name": "defaultTrustedIssuersRegistryImplementation",
      "outputs": [
        {
          "internalType": "address",
          "name": "",
          "type": "address"
        }
      ],
      "stateMutability": "view",
      "type": "function"
    },
    {
      "inputs": [],
      "name": "factoryForwarder",
      "outputs": [
        {
          "internalType": "address",
          "name": "",
          "type": "address"
        }
      ],
      "stateMutability": "view",
      "type": "function"
    },
    {
      "inputs": [
        {
          "internalType": "uint256",
          "name": "index",
          "type": "uint256"
        }
      ],
      "name": "getSystemAtIndex",
      "outputs": [
        {
          "internalType": "address",
          "name": "",
          "type": "address"
        }
      ],
      "stateMutability": "view",
      "type": "function"
    },
    {
      "inputs": [],
      "name": "getSystemCount",
      "outputs": [
        {
          "internalType": "uint256",
          "name": "",
          "type": "uint256"
        }
      ],
      "stateMutability": "view",
      "type": "function"
    },
    {
      "inputs": [
        {
          "internalType": "address",
          "name": "forwarder",
          "type": "address"
        }
      ],
      "name": "isTrustedForwarder",
      "outputs": [
        {
          "internalType": "bool",
          "name": "",
          "type": "bool"
        }
      ],
      "stateMutability": "view",
      "type": "function"
    },
    {
      "inputs": [
        {
          "internalType": "uint256",
          "name": "",
          "type": "uint256"
        }
      ],
      "name": "smartSystems",
      "outputs": [
        {
          "internalType": "address",
          "name": "",
          "type": "address"
        }
      ],
      "stateMutability": "view",
      "type": "function"
    },
    {
      "inputs": [],
      "name": "trustedForwarder",
      "outputs": [
        {
          "internalType": "address",
          "name": "",
          "type": "address"
        }
      ],
      "stateMutability": "view",
      "type": "function"
    }
  ],
  "bytecode": "0x6101a0601f613ba438819003918201601f19168301916001600160401b0383118484101761024d57808492610100946040528339810103126102485761004481610263565b9061005160208201610263565b61005d60408301610263565b61006960608401610263565b61007560808501610263565b9161008260a08601610263565b9361009b60e061009460c08901610263565b9701610263565b6080819052966001600160a01b03811615610237576001600160a01b03821615610226576001600160a01b03831615610215576001600160a01b03841615610204576001600160a01b038516156101f3576001600160a01b038616156101e2576001600160a01b038716156101d15760a05260c05260e052610100526101205261014052610160526101805260405161392c9081610278823960805181818161050e015281816105680152610696015260a0518181816101df0152610634015260c05181818161020701526104ab015260e05181818160cf015261022f0152610100518181816102570152610466015261012051818181610119015261027f01526101405181818161015e01526102a70152610160518181816102cf01526103df0152610180518181816102f701526105f20152f35b63e26a8ec760e01b60005260046000fd5b632384fcc160e11b60005260046000fd5b6305b4e73960e51b60005260046000fd5b630273e4dd60e41b60005260046000fd5b63d6cd3aeb60e01b60005260046000fd5b6397a22d9360e01b60005260046000fd5b63ee30f64f60e01b60005260046000fd5b600080fd5b634e487b7160e01b600052604160045260246000fd5b51906001600160a01b03821682036102485756fe608080604052600436101561001357600080fd5b60003560e01c9081630a94adee14610621575080630e5f342c146105dc578063490e805a1461059a578063572b6c051461053d5780637da0a877146104f85780637df56b6c146104da5780638bb25576146104955780639ca5f9c714610450578063bf17737f1461040e578063cbdd9d51146103c9578063d171da1a1461018d578063e28a140614610148578063e6fea7ac146101035763e84b3ceb146100b957600080fd5b346100fe5760003660031901126100fe576040517f00000000000000000000000000000000000000000000000000000000000000006001600160a01b03168152602090f35b600080fd5b346100fe5760003660031901126100fe576040517f00000000000000000000000000000000000000000000000000000000000000006001600160a01b03168152602090f35b346100fe5760003660031901126100fe576040517f00000000000000000000000000000000000000000000000000000000000000006001600160a01b03168152602090f35b346100fe5760003660031901126100fe576101a6610693565b6040516131f4918282019282841067ffffffffffffffff8511176103a75761012091839161070383396001600160a01b039081168086527f0000000000000000000000000000000000000000000000000000000000000000821660208701527f0000000000000000000000000000000000000000000000000000000000000000821660408701527f0000000000000000000000000000000000000000000000000000000000000000821660608701527f0000000000000000000000000000000000000000000000000000000000000000821660808701527f0000000000000000000000000000000000000000000000000000000000000000821660a08701527f0000000000000000000000000000000000000000000000000000000000000000821660c08701527f0000000000000000000000000000000000000000000000000000000000000000821660e08701527f0000000000000000000000000000000000000000000000000000000000000000909116610100860152930301906000f080156103bd5760005491906001600160a01b0316680100000000000000008310156103a75761035d83600160209501600055610663565b81546001600160a01b0360039290921b91821b19169083901b17905560405191817f783f6ad379d64d03d8d19e3064fb71578aaa78be47b860f37d0e08e82ca353d5600080a38152f35b634e487b7160e01b600052604160045260246000fd5b6040513d6000823e3d90fd5b346100fe5760003660031901126100fe576040517f00000000000000000000000000000000000000000000000000000000000000006001600160a01b03168152602090f35b346100fe5760203660031901126100fe576004356000548110156100fe57610437602091610663565b905460405160039290921b1c6001600160a01b03168152f35b346100fe5760003660031901126100fe576040517f00000000000000000000000000000000000000000000000000000000000000006001600160a01b03168152602090f35b346100fe5760003660031901126100fe576040517f00000000000000000000000000000000000000000000000000000000000000006001600160a01b03168152602090f35b346100fe5760003660031901126100fe576020600054604051908152f35b346100fe5760003660031901126100fe576040517f00000000000000000000000000000000000000000000000000000000000000006001600160a01b03168152602090f35b346100fe5760203660031901126100fe576004356001600160a01b038116908190036100fe576040517f00000000000000000000000000000000000000000000000000000000000000006001600160a01b03169091148152602090f35b346100fe5760203660031901126100fe57600435600054808210156105c457602061043783610663565b906363a056dd60e01b60005260045260245260446000fd5b346100fe5760003660031901126100fe576040517f00000000000000000000000000000000000000000000000000000000000000006001600160a01b03168152602090f35b346100fe5760003660031901126100fe577f00000000000000000000000000000000000000000000000000000000000000006001600160a01b03168152602090f35b60005481101561067d576000805260206000200190600090565b634e487b7160e01b600052603260045260246000fd5b337f00000000000000000000000000000000000000000000000000000000000000006001600160a01b031614806106f7575b156106f35760131936013681116106dd573560601c90565b634e487b7160e01b600052601160045260246000fd5b3390565b5060143610156106c556fe60a080604052610120816131f4803803809161001b8285610286565b8339810103126102815761002e816102bf565b61003a602083016102bf565b610046604084016102bf565b610052606085016102bf565b61005e608086016102bf565b9161006b60a087016102bf565b936100a161007b60c089016102bf565b9661009561010061008e60e08c016102bf565b9a016102bf565b608052600180556102d3565b506001600160a01b038116908115610270576100bc90610375565b600280546001600160a01b0319169190911790556001600160a01b03811690811561025f576100ea90610443565b600480546001600160a01b0319169190911790556001600160a01b03811690811561024e5761011890610507565b600680546001600160a01b0319169190911790556001600160a01b03811690811561023d57610146906105cb565b600880546001600160a01b0319169190911790556001600160a01b03811690811561022c576101749061068f565b600a80546001600160a01b0319169190911790556001600160a01b03811690811561021b576101a290610753565b600c80546001600160a01b0319169190911790556001600160a01b03811690811561020a576101d090610753565b600d80546001600160a01b03191691909117905560405161296b908161086982396080518181816108dc01528181610b1f01526115640152f35b63e26a8ec760e01b60005260046000fd5b632384fcc160e11b60005260046000fd5b6305b4e73960e51b60005260046000fd5b630273e4dd60e41b60005260046000fd5b63d6cd3aeb60e01b60005260046000fd5b6397a22d9360e01b60005260046000fd5b63ee30f64f60e01b60005260046000fd5b600080fd5b601f909101601f19168101906001600160401b038211908210176102a957604052565b634e487b7160e01b600052604160045260246000fd5b51906001600160a01b038216820361028157565b6001600160a01b03811660009081526000805160206131d4833981519152602052604090205460ff1661036f576001600160a01b0381811660009081526000805160206131d483398151915260205260409020805460ff19166001179055610339610817565b16906001600160a01b031660007f2f8788117e7eff1d82e926ec794901d17c78024a50270940304540a733656f0d8180a4600190565b50600090565b6001600160a01b03168015610440576040516301ffc9a760e01b8152637d84485d60e01b6004820152602081602481855afa80916000916103fe575b50906103d757506327224edf60e01b600052600452637d84485d60e01b60245260446000fd5b156103df5750565b6327224edf60e01b600052600452637d84485d60e01b60245260446000fd5b6020813d602011610438575b8161041760209383610286565b8101031261043457519081151582036104315750386103b1565b80fd5b5080fd5b3d915061040a565b50565b6001600160a01b03168015610440576040516301ffc9a760e01b815263109a496560e01b6004820152602081602481855afa80916000916104cc575b50906104a557506327224edf60e01b60005260045263109a496560e01b60245260446000fd5b156104ad5750565b6327224edf60e01b60005260045263109a496560e01b60245260446000fd5b6020813d6020116104ff575b816104e560209383610286565b81010312610434575190811515820361043157503861047f565b3d91506104d8565b6001600160a01b03168015610440576040516301ffc9a760e01b81526357defe0d60e01b6004820152602081602481855afa8091600091610590575b509061056957506327224edf60e01b6000526004526357defe0d60e01b60245260446000fd5b156105715750565b6327224edf60e01b6000526004526357defe0d60e01b60245260446000fd5b6020813d6020116105c3575b816105a960209383610286565b810103126104345751908115158203610431575038610543565b3d915061059c565b6001600160a01b03168015610440576040516301ffc9a760e01b815263161eee7760e31b6004820152602081602481855afa8091600091610654575b509061062d57506327224edf60e01b60005260045263161eee7760e31b60245260446000fd5b156106355750565b6327224edf60e01b60005260045263161eee7760e31b60245260446000fd5b6020813d602011610687575b8161066d60209383610286565b810103126104345751908115158203610431575038610607565b3d9150610660565b6001600160a01b03168015610440576040516301ffc9a760e01b81526307a90f7960e41b6004820152602081602481855afa8091600091610718575b50906106f157506327224edf60e01b6000526004526307a90f7960e41b60245260446000fd5b156106f95750565b6327224edf60e01b6000526004526307a90f7960e41b60245260446000fd5b6020813d60201161074b575b8161073160209383610286565b8101031261043457519081151582036104315750386106cb565b3d9150610724565b6001600160a01b03168015610440576040516301ffc9a760e01b815263604b4d3760e11b6004820152602081602481855afa80916000916107dc575b50906107b557506327224edf60e01b60005260045263604b4d3760e11b60245260446000fd5b156107bd5750565b6327224edf60e01b60005260045263604b4d3760e11b60245260446000fd5b6020813d60201161080f575b816107f560209383610286565b81010312610434575190811515820361043157503861078f565b3d91506107e8565b6080516001600160a01b031633148061085d575b15610859576013193601368111610843573560601c90565b634e487b7160e01b600052601160045260246000fd5b3390565b50601436101561082b56fe608080604052600436101561001357600080fd5b600090813560e01c90816301ffc9a714610dfd5750806316e2277814610d79578063248a9ca314610d435780632f2ff15d14610d0257806336568abe14610cad57806339b14cdf14610c845780633cdbceda14610c5b5780634543741c14610bd7578063457779a214610b53578063572b6c0514610afe57806363f3d32014610a7a5780636d7203cb14610a515780636dbe06f514610a2857806372b3f57e146109ff5780637362377b1461093457806378e722221461090b5780637da0a877146108c6578063917fc6291461089d57806391d148541461085557806398468e511461082c5780639f3b39b1146107a8578063a10cddc014610724578063a18dd9ea146106fb578063a217fddf146106df578063c2deb16b1461065b578063d547741f14610611578063d62def8f146105e8578063d907c456146105bf578063e32d4b67146105965763fb969b0a1461016b57600080fd5b34610593578060031936011261059357610183610edd565b6002600154146105845760026001819055546001600160a01b031615610575576004546001600160a01b031615610566576006546001600160a01b031615610557576008546001600160a01b03161561054857600a546001600160a01b031615610539576101ef611561565b906040516103ba8082019082821067ffffffffffffffff8311176105255760209183916115d1833930815203019082f08015610498576040516103e08082019082821067ffffffffffffffff831117610511578583926102679261198b85393081526001600160a01b03909116602082015260400190565b039083f080156105065760018060a01b0316906040516103e08082019082821067ffffffffffffffff8311176104f2578683926102bc92611d6b85393081526001600160a01b03909116602082015260400190565b039084f080156104e75760018060a01b03169060405161040b8082019082821067ffffffffffffffff8311176104d357608091839161214b83393081526001600160a01b0389166020820152604081018790526060810186905203019085f080156104c85760018060a01b0316916040516103e08082019082821067ffffffffffffffff8311176104b4578798839261036d9261255685393081526001600160a01b03909116602082015260400190565b039086f09182156104a95760018060a01b03166001600160601b0360a01b6003541617600355836001600160601b0360a01b60075416176007556001600160601b0360a01b6009541617600955816001600160601b0360a01b600554161760055560018060a01b03166001600160601b0360a01b600b541617600b55813b156104a557829160248392604051958693849263690a49f960e01b845260048401525af1801561049857610488575b600354600554600754600954600b54604080516001600160a01b0396871681529486166020860152928516928401929092528316606083015290911660808201527ff910276419f7c10c35da46de2b5d2780e11eaca1dbb2f5295b2ef3914e16fe359060a090a16001805580f35b61049191610ea5565b388161041a565b50604051903d90823e3d90fd5b5050fd5b6040513d87823e3d90fd5b634e487b7160e01b88526041600452602488fd5b6040513d86823e3d90fd5b634e487b7160e01b87526041600452602487fd5b6040513d85823e3d90fd5b634e487b7160e01b86526041600452602486fd5b6040513d84823e3d90fd5b634e487b7160e01b85526041600452602485fd5b634e487b7160e01b84526041600452602484fd5b6305b4e73960e51b8152600490fd5b630273e4dd60e41b8152600490fd5b63d6cd3aeb60e01b8152600490fd5b6397a22d9360e01b8152600490fd5b63ee30f64f60e01b8152600490fd5b633ee5aeb560e01b8152600490fd5b80fd5b5034610593578060031936011261059357600a546040516001600160a01b039091168152602090f35b50346105935780600319360112610593576009546040516001600160a01b039091168152602090f35b50346105935780600319360112610593576005546040516001600160a01b039091168152602090f35b503461059357604036600319011261059357610657600435610631610e8f565b9061065261064d82600052600060205260016040600020015490565b610f49565b6114d1565b5080f35b503461059357602036600319011261059357610675610e74565b61067d610edd565b6001600160a01b0381169081156106d05761069790611374565b600880546001600160a01b031916821790557fd3b9f77d76baeebaccbeab5685c257925388c89922364f5c7ef449584edfba9e8280a280f35b630273e4dd60e41b8352600483fd5b5034610593578060031936011261059357602090604051908152f35b50346105935780600319360112610593576004546040516001600160a01b039091168152602090f35b50346105935760203660031901126105935761073e610e74565b610746610edd565b6001600160a01b0381169081156107995761076090610f9d565b600d80546001600160a01b031916821790557f9ba5b54d9116e1ab2a49af13817d96dc88cb0f65500f69e9bb374fd16d21f63d8280a280f35b63e26a8ec760e01b8352600483fd5b5034610593576020366003190112610593576107c2610e74565b6107ca610edd565b6001600160a01b03811690811561081d576107e4906112b0565b600a80546001600160a01b031916821790557f7200d3f590621b60a2ce853f4135191c6f11b8c972e5e973fe93e2bc298b743d8280a280f35b6305b4e73960e51b8352600483fd5b50346105935780600319360112610593576003546040516001600160a01b039091168152602090f35b50346105935760403660031901126105935760ff6040602092610876610e8f565b60043582528185528282206001600160a01b03909116825284522054604051911615158152f35b50346105935780600319360112610593576002546040516001600160a01b039091168152602090f35b50346105935780600319360112610593576040517f00000000000000000000000000000000000000000000000000000000000000006001600160a01b03168152602090f35b5034610593578060031936011261059357600b546040516001600160a01b039091168152602090f35b503461059357806003193601126105935761094d610edd565b4780610957575080f35b81808080846001600160a01b0361096c611561565b165af13d156109fa573d67ffffffffffffffff8111610525576040519061099d601f8201601f191660200183610ea5565b81528360203d92013e5b156109eb577f06097061aeda806b5e9cb4133d9899f332ff0913956567fc0f7ea15e3d19947c60206001600160a01b036109df611561565b1692604051908152a280f35b63142e821560e01b8252600482fd5b6109a7565b50346105935780600319360112610593576007546040516001600160a01b039091168152602090f35b50346105935780600319360112610593576006546040516001600160a01b039091168152602090f35b5034610593578060031936011261059357600c546040516001600160a01b039091168152602090f35b503461059357602036600319011261059357610a94610e74565b610a9c610edd565b6001600160a01b038116908115610aef57610ab6906111ec565b600480546001600160a01b031916821790557f303b35f53212b13c3833ca687fd7cc958d6d4a12e97817b69bbf28e8a34840c88280a280f35b6397a22d9360e01b8352600483fd5b5034610593576020366003190112610593576020610b1a610e74565b6040517f00000000000000000000000000000000000000000000000000000000000000006001600160a01b039081169216919091148152f35b503461059357602036600319011261059357610b6d610e74565b610b75610edd565b6001600160a01b038116908115610bc857610b8f90611128565b600280546001600160a01b031916821790557fe0ae15718d769ee483a511477b4fb0d39866384ecdf84e8c35641c7d3d714c288280a280f35b63ee30f64f60e01b8352600483fd5b503461059357602036600319011261059357610bf1610e74565b610bf9610edd565b6001600160a01b038116908115610c4c57610c1390611064565b600680546001600160a01b031916821790557fd8fddb843a6b6b90a005013de574090ee7bfd0ded00a3a4c8cfe75b3e7d106aa8280a280f35b63d6cd3aeb60e01b8352600483fd5b5034610593578060031936011261059357600d546040516001600160a01b039091168152602090f35b50346105935780600319360112610593576008546040516001600160a01b039091168152602090f35b503461059357604036600319011261059357610cc7610e8f565b6001600160a01b03610cd7611561565b166001600160a01b03821603610cf357610657906004356114d1565b63334bd91960e11b8252600482fd5b503461059357604036600319011261059357610657600435610d22610e8f565b90610d3e61064d82600052600060205260016040600020015490565b611438565b5034610593576020366003190112610593576020610d71600435600052600060205260016040600020015490565b604051908152f35b503461059357602036600319011261059357610d93610e74565b610d9b610edd565b6001600160a01b038116908115610dee57610db590610f9d565b600c80546001600160a01b031916821790557fa45e9d07499fd0a3ec18011fe1710b8171e20fd95051e0d1dac5653caf1100c98280a280f35b632384fcc160e11b8352600483fd5b905034610e70576020366003190112610e705760043563ffffffff60e01b8116809103610e6c576020925063b0d73a4160e01b8114908115610e41575b5015158152f35b637965db0b60e01b811491508115610e5b575b5038610e3a565b6301ffc9a760e01b14905038610e54565b8280fd5b5080fd5b600435906001600160a01b0382168203610e8a57565b600080fd5b602435906001600160a01b0382168203610e8a57565b90601f8019910116810190811067ffffffffffffffff821117610ec757604052565b634e487b7160e01b600052604160045260246000fd5b610ee5611561565b6001600160a01b03811660009081527fad3228b676f7d3cd4284a5443f17f1962b36e491b30a40b2405849e597ba5fb5602052604090205460ff1615610f285750565b63e2517d3f60e01b60005260018060a01b0316600452600060245260446000fd5b610f51611561565b6000828152602081815260408083206001600160a01b038516845290915290205460ff1615610f7e575050565b63e2517d3f60e01b60005260018060a01b031660045260245260446000fd5b6001600160a01b03168015611061576040516301ffc9a760e01b815263604b4d3760e11b6004820152602081602481855afa8091600091611026575b5090610fff57506327224edf60e01b60005260045263604b4d3760e11b60245260446000fd5b156110075750565b6327224edf60e01b60005260045263604b4d3760e11b60245260446000fd5b6020813d602011611059575b8161103f60209383610ea5565b81010312610e705751908115158203610593575038610fd9565b3d9150611032565b50565b6001600160a01b03168015611061576040516301ffc9a760e01b81526357defe0d60e01b6004820152602081602481855afa80916000916110ed575b50906110c657506327224edf60e01b6000526004526357defe0d60e01b60245260446000fd5b156110ce5750565b6327224edf60e01b6000526004526357defe0d60e01b60245260446000fd5b6020813d602011611120575b8161110660209383610ea5565b81010312610e7057519081151582036105935750386110a0565b3d91506110f9565b6001600160a01b03168015611061576040516301ffc9a760e01b8152637d84485d60e01b6004820152602081602481855afa80916000916111b1575b509061118a57506327224edf60e01b600052600452637d84485d60e01b60245260446000fd5b156111925750565b6327224edf60e01b600052600452637d84485d60e01b60245260446000fd5b6020813d6020116111e4575b816111ca60209383610ea5565b81010312610e705751908115158203610593575038611164565b3d91506111bd565b6001600160a01b03168015611061576040516301ffc9a760e01b815263109a496560e01b6004820152602081602481855afa8091600091611275575b509061124e57506327224edf60e01b60005260045263109a496560e01b60245260446000fd5b156112565750565b6327224edf60e01b60005260045263109a496560e01b60245260446000fd5b6020813d6020116112a8575b8161128e60209383610ea5565b81010312610e705751908115158203610593575038611228565b3d9150611281565b6001600160a01b03168015611061576040516301ffc9a760e01b81526307a90f7960e41b6004820152602081602481855afa8091600091611339575b509061131257506327224edf60e01b6000526004526307a90f7960e41b60245260446000fd5b1561131a5750565b6327224edf60e01b6000526004526307a90f7960e41b60245260446000fd5b6020813d60201161136c575b8161135260209383610ea5565b81010312610e7057519081151582036105935750386112ec565b3d9150611345565b6001600160a01b03168015611061576040516301ffc9a760e01b815263161eee7760e31b6004820152602081602481855afa80916000916113fd575b50906113d657506327224edf60e01b60005260045263161eee7760e31b60245260446000fd5b156113de5750565b6327224edf60e01b60005260045263161eee7760e31b60245260446000fd5b6020813d602011611430575b8161141660209383610ea5565b81010312610e7057519081151582036105935750386113b0565b3d9150611409565b6000818152602081815260408083206001600160a01b038616845290915290205460ff166114ca576000818152602081815260408083206001600160a01b0386811685529252909120805460ff19166001179055611494611561565b16916001600160a01b0316907f2f8788117e7eff1d82e926ec794901d17c78024a50270940304540a733656f0d600080a4600190565b5050600090565b6000818152602081815260408083206001600160a01b038616845290915290205460ff16156114ca576000818152602081815260408083206001600160a01b0386811685529252909120805460ff1916905561152b611561565b16916001600160a01b0316907ff6391f5c32d9c69d2a47ea670b442974b53935d1edc7fd64eb21e047a839171b600080a4600190565b337f00000000000000000000000000000000000000000000000000000000000000006001600160a01b031614806115c5575b156115c15760131936013681116115ab573560601c90565b634e487b7160e01b600052601160045260246000fd5b3390565b50601436101561159356fe60808060405261002e6103ba91823803809361001b8284610220565b82396001600160a01b0392810190610243565b16801580156101a4575b610193577f3c9a03fd17b2e1a4f04e739ba7ecf5b4195f2c7c8e2206e09c6426c1b549df2b80546001600160a01b0319168217905560405163917fc62960e01b815290602090829060049082905afa90811561018757600091610158575b506001600160a01b038116156101475760008091604051602081019063204a7f0760e21b8252600481526100cb602482610220565b51915af43d15610142573d6001600160401b03811161012c57604051906100fc601f8201601f191660200183610220565b8152600060203d92013e5b1561011b5760405161015290816102688239f35b630337323560e31b60005260046000fd5b634e487b7160e01b600052604160045260246000fd5b610107565b63ee30f64f60e01b60005260046000fd5b61017a915060203d602011610180575b6101728183610220565b810190610243565b38610096565b503d610168565b6040513d6000823e3d90fd5b633f997a3760e01b60005260046000fd5b506040516301ffc9a760e01b815263b0d73a4160e01b6004820152602081602481855afa908115610187576000916101de575b5015610038565b6020813d602011610218575b816101f760209383610220565b8101031261021457519081151582036102115750386101d7565b80fd5b5080fd5b3d91506101ea565b601f909101601f19168101906001600160401b0382119082101761012c57604052565b9081602091031261026257516001600160a01b03811681036102625790565b600080fdfe608060405236156100c3577f3c9a03fd17b2e1a4f04e739ba7ecf5b4195f2c7c8e2206e09c6426c1b549df2b5463917fc62960e01b608090815260209160049082906001600160a01b03165afa80156100b757600090156100fb575060203d6020116100b0575b601f19601f820116608001906080821067ffffffffffffffff83111761009a57610095916040526080016100d4565b6100fb565b634e487b7160e01b600052604160045260246000fd5b503d610066565b6040513d6000823e3d90fd5b635d82995b60e01b60005260046000fd5b602090607f1901126100f6576080516001600160a01b03811681036100f65790565b600080fd5b60008091368280378136915af43d6000803e15610117573d6000f35b3d6000fdfea2646970667358221220c5247cff82b78658a5e0509421d48c20c9874ad1d84572ce8ccb2f55ab830b9b64736f6c634300081c00336080806040526040816103e0803803809161001a8285610256565b8339810103126101b057610039602061003283610279565b9201610279565b6001600160a01b0390911690811580156101da575b6101c9577f5ebc250a39d4036f126095bd09ef17d621714e9ea0442802bf8647e3d76bf04d80546001600160a01b03191683179055604051636dbe06f560e01b8152602081600481865afa9081156101bd5760009161017e575b506001600160a01b0381161561016d57600092839260405190602082019263485cc95560e01b8452602483015260018060a01b03166044820152604481526100f1606482610256565b51915af43d15610168573d6001600160401b0381116101525760405190610122601f8201601f191660200183610256565b8152600060203d92013e5b1561014157604051610152908161028e8239f35b630337323560e31b60005260046000fd5b634e487b7160e01b600052604160045260246000fd5b61012d565b63d6cd3aeb60e01b60005260046000fd5b90506020813d6020116101b5575b8161019960209383610256565b810103126101b0576101aa90610279565b386100a8565b600080fd5b3d915061018c565b6040513d6000823e3d90fd5b633f997a3760e01b60005260046000fd5b506040516301ffc9a760e01b815263b0d73a4160e01b6004820152602081602481865afa9081156101bd57600091610214575b501561004e565b6020813d60201161024e575b8161022d60209383610256565b8101031261024a575190811515820361024757503861020d565b80fd5b5080fd5b3d9150610220565b601f909101601f19168101906001600160401b0382119082101761015257604052565b51906001600160a01b03821682036101b05756fe608060405236156100c3577f5ebc250a39d4036f126095bd09ef17d621714e9ea0442802bf8647e3d76bf04d54636dbe06f560e01b608090815260209160049082906001600160a01b03165afa80156100b757600090156100fb575060203d6020116100b0575b601f19601f820116608001906080821067ffffffffffffffff83111761009a57610095916040526080016100d4565b6100fb565b634e487b7160e01b600052604160045260246000fd5b503d610066565b6040513d6000823e3d90fd5b635d82995b60e01b60005260046000fd5b602090607f1901126100f6576080516001600160a01b03811681036100f65790565b600080fd5b60008091368280378136915af43d6000803e15610117573d6000f35b3d6000fdfea2646970667358221220360e5c99eb76bdaebbe07fe04e5c54803ecd778a6e536730e76010433ad635d864736f6c634300081c00336080806040526040816103e0803803809161001a8285610256565b8339810103126101b057610039602061003283610279565b9201610279565b6001600160a01b0390911690811580156101da575b6101c9577f6fdd361b4a051470236ba6ce1ab028e722825f0fa1553913cf9758f4e87c015e80546001600160a01b031916831790556040516339b14cdf60e01b815291602090839060049082905afa9182156101bd5760009261017c575b506001600160a01b0382161561016b576000918291604051602081019163189acdbd60e31b835260018060a01b03166024820152602481526100ef604482610256565b51915af43d15610166573d6001600160401b0381116101505760405190610120601f8201601f191660200183610256565b8152600060203d92013e5b1561013f57604051610152908161028e8239f35b630337323560e31b60005260046000fd5b634e487b7160e01b600052604160045260246000fd5b61012b565b630273e4dd60e41b60005260046000fd5b9091506020813d6020116101b5575b8161019860209383610256565b810103126101b0576101a990610279565b90386100ac565b600080fd5b3d915061018b565b6040513d6000823e3d90fd5b633f997a3760e01b60005260046000fd5b506040516301ffc9a760e01b815263b0d73a4160e01b6004820152602081602481865afa9081156101bd57600091610214575b501561004e565b6020813d60201161024e575b8161022d60209383610256565b8101031261024a575190811515820361024757503861020d565b80fd5b5080fd5b3d9150610220565b601f909101601f19168101906001600160401b0382119082101761015057604052565b51906001600160a01b03821682036101b05756fe608060405236156100c3577f6fdd361b4a051470236ba6ce1ab028e722825f0fa1553913cf9758f4e87c015e546339b14cdf60e01b608090815260209160049082906001600160a01b03165afa80156100b757600090156100fb575060203d6020116100b0575b601f19601f820116608001906080821067ffffffffffffffff83111761009a57610095916040526080016100d4565b6100fb565b634e487b7160e01b600052604160045260246000fd5b503d610066565b6040513d6000823e3d90fd5b635d82995b60e01b60005260046000fd5b602090607f1901126100f6576080516001600160a01b03811681036100f65790565b600080fd5b60008091368280378136915af43d6000803e15610117573d6000f35b3d6000fdfea2646970667358221220fc5fed3a5034e355d3bcfab21a82dc5dcde793908e57ba8927511bb330dff44364736f6c634300081c003360808060405260808161040b803803809161001a8285610281565b8339810103126101db5761002d816102a4565b610039602083016102a4565b610051606061004a604086016102a4565b94016102a4565b916001600160a01b03169081158015610205575b6101f4577f524f57074757cf9111a710840ae36621195c9e71b86a3677158783402f22b8f880546001600160a01b031916831790556040516350c6ecf560e11b815291602090839060049082905afa9182156101e8576000926101a7575b506001600160a01b038216156101965760405163c0c53b8b60e01b602082019081526001600160a01b039283166024830152948216604482015292166064808401919091528252600092839261011a608482610281565b51915af43d15610191573d6001600160401b03811161017b576040519061014b601f8201601f191660200183610281565b8152600060203d92013e5b1561016a5760405161015290816102b98239f35b630337323560e31b60005260046000fd5b634e487b7160e01b600052604160045260246000fd5b610156565b6397a22d9360e01b60005260046000fd5b9091506020813d6020116101e0575b816101c360209383610281565b810103126101db576101d4906102a4565b90386100c3565b600080fd5b3d91506101b6565b6040513d6000823e3d90fd5b633f997a3760e01b60005260046000fd5b506040516301ffc9a760e01b815263b0d73a4160e01b6004820152602081602481865afa9081156101e85760009161023f575b5015610065565b6020813d602011610279575b8161025860209383610281565b810103126102755751908115158203610272575038610238565b80fd5b5080fd5b3d915061024b565b601f909101601f19168101906001600160401b0382119082101761017b57604052565b51906001600160a01b03821682036101db5756fe608060405236156100c3577f524f57074757cf9111a710840ae36621195c9e71b86a3677158783402f22b8f8546350c6ecf560e11b608090815260209160049082906001600160a01b03165afa80156100b757600090156100fb575060203d6020116100b0575b601f19601f820116608001906080821067ffffffffffffffff83111761009a57610095916040526080016100d4565b6100fb565b634e487b7160e01b600052604160045260246000fd5b503d610066565b6040513d6000823e3d90fd5b635d82995b60e01b60005260046000fd5b602090607f1901126100f6576080516001600160a01b03811681036100f65790565b600080fd5b60008091368280378136915af43d6000803e15610117573d6000f35b3d6000fdfea2646970667358221220a016bcd2e1d4423f926fd8f34f1a5a055129bb9c558c06b2e1dd8d6a9f396f1a64736f6c634300081c00336080806040526040816103e0803803809161001a8285610256565b8339810103126101b057610039602061003283610279565b9201610279565b6001600160a01b0390911690811580156101da575b6101c9577f1a78f18b10619605209b8a247cac60491f01062a0a3901787532e80d6c2986c080546001600160a01b0319168317905560405163e32d4b6760e01b8152602081600481865afa9081156101bd5760009161017e575b506001600160a01b0381161561016d57600092839260405190602082019263485cc95560e01b8452602483015260018060a01b03166044820152604481526100f1606482610256565b51915af43d15610168573d6001600160401b0381116101525760405190610122601f8201601f191660200183610256565b8152600060203d92013e5b1561014157604051610152908161028e8239f35b630337323560e31b60005260046000fd5b634e487b7160e01b600052604160045260246000fd5b61012d565b6305b4e73960e51b60005260046000fd5b90506020813d6020116101b5575b8161019960209383610256565b810103126101b0576101aa90610279565b386100a8565b600080fd5b3d915061018c565b6040513d6000823e3d90fd5b633f997a3760e01b60005260046000fd5b506040516301ffc9a760e01b815263b0d73a4160e01b6004820152602081602481865afa9081156101bd57600091610214575b501561004e565b6020813d60201161024e575b8161022d60209383610256565b8101031261024a575190811515820361024757503861020d565b80fd5b5080fd5b3d9150610220565b601f909101601f19168101906001600160401b0382119082101761015257604052565b51906001600160a01b03821682036101b05756fe608060405236156100c3577f1a78f18b10619605209b8a247cac60491f01062a0a3901787532e80d6c2986c05463e32d4b6760e01b608090815260209160049082906001600160a01b03165afa80156100b757600090156100fb575060203d6020116100b0575b601f19601f820116608001906080821067ffffffffffffffff83111761009a57610095916040526080016100d4565b6100fb565b634e487b7160e01b600052604160045260246000fd5b503d610066565b6040513d6000823e3d90fd5b635d82995b60e01b60005260046000fd5b602090607f1901126100f6576080516001600160a01b03811681036100f65790565b600080fd5b60008091368280378136915af43d6000803e15610117573d6000f35b3d6000fdfea2646970667358221220fd640388498a21890c03a338f3508299f24c03449e745db45275acb9e138581464736f6c634300081c0033a264697066735822122066c2fb73f1e619361290ed153c7889e51ed154460dd1ff083dff836e111826c164736f6c634300081c0033ad3228b676f7d3cd4284a5443f17f1962b36e491b30a40b2405849e597ba5fb5a26469706673582212209fbc40730e8b69375a8138f472c96f51a50cf34b77d445f09d320b1a01fcedae64736f6c634300081c0033",
  "linkReferences": {},
  "deployedLinkReferences": {}
}