{
  "_format": "hh-sol-artifact-1",
  "contractName": "SMARTTrustedIssuersRegistryImplementation",
  "sourceName": "contracts/system/trusted-issuers-registry/SMARTTrustedIssuersRegistryImplementation.sol",
  "abi": [
    {
      "inputs": [
        {
          "internalType": "address",
          "name": "trustedForwarder",
          "type": "address"
        }
      ],
      "stateMutability": "payable",
      "type": "constructor"
    },
    {
      "inputs": [],
      "name": "AccessControlBadConfirmation",
      "type": "error"
    },
    {
      "inputs": [
        {
          "internalType": "address",
          "name": "account",
          "type": "address"
        },
        {
          "internalType": "bytes32",
          "name": "neededRole",
          "type": "bytes32"
        }
      ],
      "name": "AccessControlUnauthorizedAccount",
      "type": "error"
    },
    {
      "inputs": [
        {
          "internalType": "address",
          "name": "addr",
          "type": "address"
        }
      ],
      "name": "AddressNotFoundInList",
      "type": "error"
    },
    {
      "inputs": [],
      "name": "InvalidInitialization",
      "type": "error"
    },
    {
      "inputs": [],
      "name": "InvalidIssuerAddress",
      "type": "error"
    },
    {
      "inputs": [
        {
          "internalType": "address",
          "name": "issuerAddress",
          "type": "address"
        }
      ],
      "name": "IssuerAlreadyExists",
      "type": "error"
    },
    {
      "inputs": [
        {
          "internalType": "address",
          "name": "issuerAddress",
          "type": "address"
        }
      ],
      "name": "IssuerDoesNotExist",
      "type": "error"
    },
    {
      "inputs": [
        {
          "internalType": "address",
          "name": "issuerAddress",
          "type": "address"
        },
        {
          "internalType": "uint256",
          "name": "claimTopic",
          "type": "uint256"
        }
      ],
      "name": "IssuerNotFoundInTopicList",
      "type": "error"
    },
    {
      "inputs": [],
      "name": "NoClaimTopicsProvided",
      "type": "error"
    },
    {
      "inputs": [],
      "name": "NotInitializing",
      "type": "error"
    },
    {
      "anonymous": false,
      "inputs": [
        {
          "indexed": true,
          "internalType": "address",
          "name": "sender",
          "type": "address"
        },
        {
          "indexed": true,
          "internalType": "address",
          "name": "_issuer",
          "type": "address"
        },
        {
          "indexed": false,
          "internalType": "uint256[]",
          "name": "_claimTopics",
          "type": "uint256[]"
        }
      ],
      "name": "ClaimTopicsUpdated",
      "type": "event"
    },
    {
      "anonymous": false,
      "inputs": [
        {
          "indexed": false,
          "internalType": "uint64",
          "name": "version",
          "type": "uint64"
        }
      ],
      "name": "Initialized",
      "type": "event"
    },
    {
      "anonymous": false,
      "inputs": [
        {
          "indexed": true,
          "internalType": "bytes32",
          "name": "role",
          "type": "bytes32"
        },
        {
          "indexed": true,
          "internalType": "bytes32",
          "name": "previousAdminRole",
          "type": "bytes32"
        },
        {
          "indexed": true,
          "internalType": "bytes32",
          "name": "newAdminRole",
          "type": "bytes32"
        }
      ],
      "name": "RoleAdminChanged",
      "type": "event"
    },
    {
      "anonymous": false,
      "inputs": [
        {
          "indexed": true,
          "internalType": "bytes32",
          "name": "role",
          "type": "bytes32"
        },
        {
          "indexed": true,
          "internalType": "address",
          "name": "account",
          "type": "address"
        },
        {
          "indexed": true,
          "internalType": "address",
          "name": "sender",
          "type": "address"
        }
      ],
      "name": "RoleGranted",
      "type": "event"
    },
    {
      "anonymous": false,
      "inputs": [
        {
          "indexed": true,
          "internalType": "bytes32",
          "name": "role",
          "type": "bytes32"
        },
        {
          "indexed": true,
          "internalType": "address",
          "name": "account",
          "type": "address"
        },
        {
          "indexed": true,
          "internalType": "address",
          "name": "sender",
          "type": "address"
        }
      ],
      "name": "RoleRevoked",
      "type": "event"
    },
    {
      "anonymous": false,
      "inputs": [
        {
          "indexed": true,
          "internalType": "address",
          "name": "sender",
          "type": "address"
        },
        {
          "indexed": true,
          "internalType": "address",
          "name": "_issuer",
          "type": "address"
        },
        {
          "indexed": false,
          "internalType": "uint256[]",
          "name": "_claimTopics",
          "type": "uint256[]"
        }
      ],
      "name": "TrustedIssuerAdded",
      "type": "event"
    },
    {
      "anonymous": false,
      "inputs": [
        {
          "indexed": true,
          "internalType": "address",
          "name": "sender",
          "type": "address"
        },
        {
          "indexed": true,
          "internalType": "address",
          "name": "_issuer",
          "type": "address"
        }
      ],
      "name": "TrustedIssuerRemoved",
      "type": "event"
    },
    {
      "inputs": [],
      "name": "DEFAULT_ADMIN_ROLE",
      "outputs": [
        {
          "internalType": "bytes32",
          "name": "",
          "type": "bytes32"
        }
      ],
      "stateMutability": "view",
      "type": "function"
    },
    {
      "inputs": [],
      "name": "REGISTRAR_ROLE",
      "outputs": [
        {
          "internalType": "bytes32",
          "name": "",
          "type": "bytes32"
        }
      ],
      "stateMutability": "view",
      "type": "function"
    },
    {
      "inputs": [
        {
          "internalType": "contract IClaimIssuer",
          "name": "_trustedIssuer",
          "type": "address"
        },
        {
          "internalType": "uint256[]",
          "name": "_claimTopics",
          "type": "uint256[]"
        }
      ],
      "name": "addTrustedIssuer",
      "outputs": [],
      "stateMutability": "nonpayable",
      "type": "function"
    },
    {
      "inputs": [
        {
          "internalType": "bytes32",
          "name": "role",
          "type": "bytes32"
        }
      ],
      "name": "getRoleAdmin",
      "outputs": [
        {
          "internalType": "bytes32",
          "name": "",
          "type": "bytes32"
        }
      ],
      "stateMutability": "view",
      "type": "function"
    },
    {
      "inputs": [
        {
          "internalType": "bytes32",
          "name": "role",
          "type": "bytes32"
        },
        {
          "internalType": "uint256",
          "name": "index",
          "type": "uint256"
        }
      ],
      "name": "getRoleMember",
      "outputs": [
        {
          "internalType": "address",
          "name": "",
          "type": "address"
        }
      ],
      "stateMutability": "view",
      "type": "function"
    },
    {
      "inputs": [
        {
          "internalType": "bytes32",
          "name": "role",
          "type": "bytes32"
        }
      ],
      "name": "getRoleMemberCount",
      "outputs": [
        {
          "internalType": "uint256",
          "name": "",
          "type": "uint256"
        }
      ],
      "stateMutability": "view",
      "type": "function"
    },
    {
      "inputs": [
        {
          "internalType": "bytes32",
          "name": "role",
          "type": "bytes32"
        }
      ],
      "name": "getRoleMembers",
      "outputs": [
        {
          "internalType": "address[]",
          "name": "",
          "type": "address[]"
        }
      ],
      "stateMutability": "view",
      "type": "function"
    },
    {
      "inputs": [
        {
          "internalType": "contract IClaimIssuer",
          "name": "_trustedIssuer",
          "type": "address"
        }
      ],
      "name": "getTrustedIssuerClaimTopics",
      "outputs": [
        {
          "internalType": "uint256[]",
          "name": "",
          "type": "uint256[]"
        }
      ],
      "stateMutability": "view",
      "type": "function"
    },
    {
      "inputs": [],
      "name": "getTrustedIssuers",
      "outputs": [
        {
          "internalType": "contract IClaimIssuer[]",
          "name": "",
          "type": "address[]"
        }
      ],
      "stateMutability": "view",
      "type": "function"
    },
    {
      "inputs": [
        {
          "internalType": "uint256",
          "name": "claimTopic",
          "type": "uint256"
        }
      ],
      "name": "getTrustedIssuersForClaimTopic",
      "outputs": [
        {
          "internalType": "contract IClaimIssuer[]",
          "name": "",
          "type": "address[]"
        }
      ],
      "stateMutability": "view",
      "type": "function"
    },
    {
      "inputs": [
        {
          "internalType": "bytes32",
          "name": "role",
          "type": "bytes32"
        },
        {
          "internalType": "address",
          "name": "account",
          "type": "address"
        }
      ],
      "name": "grantRole",
      "outputs": [],
      "stateMutability": "nonpayable",
      "type": "function"
    },
    {
      "inputs": [
        {
          "internalType": "address",
          "name": "_issuer",
          "type": "address"
        },
        {
          "internalType": "uint256",
          "name": "_claimTopic",
          "type": "uint256"
        }
      ],
      "name": "hasClaimTopic",
      "outputs": [
        {
          "internalType": "bool",
          "name": "",
          "type": "bool"
        }
      ],
      "stateMutability": "view",
      "type": "function"
    },
    {
      "inputs": [
        {
          "internalType": "bytes32",
          "name": "role",
          "type": "bytes32"
        },
        {
          "internalType": "address",
          "name": "account",
          "type": "address"
        }
      ],
      "name": "hasRole",
      "outputs": [
        {
          "internalType": "bool",
          "name": "",
          "type": "bool"
        }
      ],
      "stateMutability": "view",
      "type": "function"
    },
    {
      "inputs": [
        {
          "internalType": "address",
          "name": "initialAdmin",
          "type": "address"
        }
      ],
      "name": "initialize",
      "outputs": [],
      "stateMutability": "nonpayable",
      "type": "function"
    },
    {
      "inputs": [
        {
          "internalType": "address",
          "name": "forwarder",
          "type": "address"
        }
      ],
      "name": "isTrustedForwarder",
      "outputs": [
        {
          "internalType": "bool",
          "name": "",
          "type": "bool"
        }
      ],
      "stateMutability": "view",
      "type": "function"
    },
    {
      "inputs": [
        {
          "internalType": "address",
          "name": "_issuer",
          "type": "address"
        }
      ],
      "name": "isTrustedIssuer",
      "outputs": [
        {
          "internalType": "bool",
          "name": "",
          "type": "bool"
        }
      ],
      "stateMutability": "view",
      "type": "function"
    },
    {
      "inputs": [
        {
          "internalType": "contract IClaimIssuer",
          "name": "_trustedIssuer",
          "type": "address"
        }
      ],
      "name": "removeTrustedIssuer",
      "outputs": [],
      "stateMutability": "nonpayable",
      "type": "function"
    },
    {
      "inputs": [
        {
          "internalType": "bytes32",
          "name": "role",
          "type": "bytes32"
        },
        {
          "internalType": "address",
          "name": "callerConfirmation",
          "type": "address"
        }
      ],
      "name": "renounceRole",
      "outputs": [],
      "stateMutability": "nonpayable",
      "type": "function"
    },
    {
      "inputs": [
        {
          "internalType": "bytes32",
          "name": "role",
          "type": "bytes32"
        },
        {
          "internalType": "address",
          "name": "account",
          "type": "address"
        }
      ],
      "name": "revokeRole",
      "outputs": [],
      "stateMutability": "nonpayable",
      "type": "function"
    },
    {
      "inputs": [
        {
          "internalType": "bytes4",
          "name": "interfaceId",
          "type": "bytes4"
        }
      ],
      "name": "supportsInterface",
      "outputs": [
        {
          "internalType": "bool",
          "name": "",
          "type": "bool"
        }
      ],
      "stateMutability": "view",
      "type": "function"
    },
    {
      "inputs": [],
      "name": "trustedForwarder",
      "outputs": [
        {
          "internalType": "address",
          "name": "",
          "type": "address"
        }
      ],
      "stateMutability": "view",
      "type": "function"
    },
    {
      "inputs": [
        {
          "internalType": "contract IClaimIssuer",
          "name": "_trustedIssuer",
          "type": "address"
        },
        {
          "internalType": "uint256[]",
          "name": "_newClaimTopics",
          "type": "uint256[]"
        }
      ],
      "name": "updateIssuerClaimTopics",
      "outputs": [],
      "stateMutability": "nonpayable",
      "type": "function"
    }
  ],
  "bytecode": "0x60a0601f611b0738819003918201601f19168301916001600160401b038311848410176101385780849260209460405283398101031261013357516001600160a01b0381168103610133576080527ff0c57e16840df040f15088dc2f81fe391c3923bec73e23a9662efc9c229c6a005460ff8160401c16610122576002600160401b03196001600160401b038216016100b9575b6040516119b8908161014f8239608051818181610a6201528181610ab101526114570152f35b6001600160401b0319166001600160401b039081177ff0c57e16840df040f15088dc2f81fe391c3923bec73e23a9662efc9c229c6a00556040519081527fc7f505b2f371ae2175ee4913f4499e1f2633a7b5936321eed1cdaeb6115181d290602090a138610093565b63f92ee8a960e01b60005260046000fd5b600080fd5b634e487b7160e01b600052604160045260246000fdfe608080604052600436101561001357600080fd5b60003560e01c90816301ffc9a714610d935750806304bc7e8414610c4d578063248a9ca314610c275780632f2ff15d14610bf657806334a8998714610bac57806336568abe14610b5657806352c111d114610ae5578063572b6c0514610a915780637da0a87714610a4c5780639010d07c146109f857806391d148541461099e5780639f63ea981461074a578063a217fddf1461072e578063a3246ad31461066c578063b93d28eb14610557578063c28fb278146104aa578063c4d66de814610294578063ca15c8731461025b578063d547741f14610223578063d9dd24c514610181578063ef2ed1a41461013f5763f68e95531461011157600080fd5b3461013a57600036600319011261013a5760206040516000805160206119438339815191528152f35b600080fd5b3461013a57602036600319011261013a576001600160a01b03610160610e1a565b166000526000602052602060ff600260406000200154166040519015158152f35b3461013a57600036600319011261013a5760015461019e81610ff5565b6001549160005b8181106101be57604051806101ba8582610ead565b0390f35b60008482101561020f576001908190527fb10e2d527612073b26eecdfd717e6a320cf44b4afac2b0732d9fcbe2b7fa0cf68201549091906001600160a01b03166102088286611027565b52016101a5565b634e487b7160e01b81526032600452602490fd5b3461013a57604036600319011261013a57610259600435610242610e97565b9061025461024f82610f9a565b611106565b61136f565b005b3461013a57602036600319011261013a576004356000526000805160206119038339815191526020526020604060002054604051908152f35b3461013a57602036600319011261013a576102ad610e1a565b600080516020611963833981519152549060ff8260401c16159167ffffffffffffffff8116801590816104a2575b6001149081610498575b15908161048f575b5061047e5767ffffffffffffffff1981166001176000805160206119638339815191525582610451575b506103206117a6565b6103286117a6565b610331816114ad565b610402575b61033f81611573565b6103a4575b5061034b57005b68ff0000000000000000196000805160206119638339815191525416600080516020611963833981519152557fc7f505b2f371ae2175ee4913f4499e1f2633a7b5936321eed1cdaeb6115181d2602060405160018152a1005b6000805160206119438339815191526000526000805160206119038339815191526020526103fb906001600160a01b03167f32d31393d541a265984ec379cddd8b1fcbe5f2b0eb8ad81dddfead454f135eaa6117d4565b5081610344565b6000805260008051602061190383398151915260205261044b6001600160a01b0382167f615f0f9e84155bea8cc509fe18befeb1baf65611e38a6ba60964480fb29dfd446117d4565b50610336565b68ffffffffffffffffff191668010000000000000001176000805160206119638339815191525582610317565b63f92ee8a960e01b60005260046000fd5b905015846102ed565b303b1591506102e5565b8491506102db565b3461013a57602036600319011261013a576001600160a01b036104cb610e1a565b1680600052600060205260ff60026040600020015416156105435760005260006020526104fe600160406000200161103b565b60405180916020820160208352815180915260206040840192019060005b81811061052a575050500390f35b825184528594506020938401939092019160010161051c565b63502531bd60e11b60005260045260246000fd5b3461013a57602036600319011261013a57610570610e1a565b610578611088565b6001600160a01b031660008181526020819052604090206002015460ff1615610543578060005260006020526105b4600160406000200161103b565b6105bd826113b3565b80519060005b82811061064f578380600052600060205260406000206000815560018101805490600081558161062e575b60006002840155836001600160a01b03610606611454565b167ff7c835af57fa00668263633370297e8186b0e3f75d50c54cad2e941512926a90600080a3005b6000526020600020908101905b818110156105ee576000815560010161063b565b806106668561066060019486611027565b516111ac565b016105c3565b3461013a57602036600319011261013a5760043560005260008051602061190383398151915260205260406000206040518060208354918281520190819360005260206000209060005b81811061071857505050816106cc910382610fbb565b6040519182916020830190602084525180915260408301919060005b8181106106f6575050500390f35b82516001600160a01b03168452859450602093840193909201916001016106e8565b82548452602090930192600192830192016106b6565b3461013a57600036600319011261013a57602060405160008152f35b3461013a5761075836610e30565b91610761611088565b6001600160a01b031691821561098d57801561097c5782600052600060205260ff60026040600020015416610967576040516060810181811067ffffffffffffffff82111761092d576040528381526107b982610fdd565b906107c76040519283610fbb565b828252602082018360051b85019036821161013a5785905b828210610957575050506020818101928352600160408084018281526000898152938490529220925183546001600160a01b0319166001600160a01b039190911617835592518051919383019067ffffffffffffffff831161092d576020906108488484610f2e565b0190600052602060002060005b83811061094357505050506002019051151560ff80198354169116179055600154600160401b81101561092d57836108988260016108bc94016001556001610ef0565b81546001600160a01b0393841660039290921b91821b9390911b1916919091179055565b60005b81811061090f57507fe94b462a27e434fcc3a7b7078729bb68e9244d17b74b452e475bd8972cd66575906001600160a01b036108f9611454565b169261090a60405192839283610f71565b0390a3005b80610927856109216001948688610f1e565b356112c5565b016108bf565b634e487b7160e01b600052604160045260246000fd5b600190602084519401938184015501610855565b81358152602091820191016107df565b8263c9b1283560e01b60005260045260246000fd5b63427931f160e11b60005260046000fd5b63d051089760e01b60005260046000fd5b3461013a57604036600319011261013a576109b7610e97565b60043560005260008051602061192383398151915260205260406000209060018060a01b0316600052602052602060ff604060002054166040519015158152f35b3461013a57604036600319011261013a576004356000526000805160206119038339815191526020526020610a336024356040600020610ef0565b905460405160039290921b1c6001600160a01b03168152f35b3461013a57600036600319011261013a576040517f00000000000000000000000000000000000000000000000000000000000000006001600160a01b03168152602090f35b3461013a57602036600319011261013a576020610aac610e1a565b6040517f00000000000000000000000000000000000000000000000000000000000000006001600160a01b039081169216919091148152f35b3461013a57602036600319011261013a57600435600052600260205260406000208054610b1181610ff5565b9160005b828110610b2a57604051806101ba8682610ead565b80610b3760019284610ef0565b838060a01b0391549060031b1c16610b4f8287611027565b5201610b15565b3461013a57604036600319011261013a57610b6f610e97565b6001600160a01b03610b7f611454565b166001600160a01b03821603610b9b576102599060043561136f565b63334bd91960e11b60005260046000fd5b3461013a57604036600319011261013a57610bc5610e1a565b602435600052600360205260406000209060018060a01b031660005260205260206040600020541515604051908152f35b3461013a57604036600319011261013a57610259600435610c15610e97565b90610c2261024f82610f9a565b611327565b3461013a57602036600319011261013a576020610c45600435610f9a565b604051908152f35b3461013a57610c5b36610e30565b91610c64611088565b60018060a01b03169182600052600060205260ff6002604060002001541615610d7e57801561097c57826000526000602052600160406000200180549060005b828110610d5b5750505060005b818110610d435750826000526000602052600160406000200167ffffffffffffffff821161092d57610ce38282610f2e565b829060005260206000209060005b838110610d2f57507fce5a7730021226f481d123afc9df227c4b90ec04824a92926056c4ecee77d2fd9291506001600160a01b0390506108f9611454565b600190602083359301928185015501610cf1565b80610d55856109216001948688610f1e565b01610cb1565b80610d7887610d6c60019486610ef0565b90549060031b1c6111ac565b01610ca4565b8263502531bd60e11b60005260045260246000fd5b3461013a57602036600319011261013a576004359063ffffffff60e01b821680920361013a5760209163161eee7760e31b8114908115610dd5575b5015158152f35b635a05180f60e01b811491508115610def575b5083610dce565b637965db0b60e01b811491508115610e09575b5083610de8565b6301ffc9a760e01b14905083610e02565b600435906001600160a01b038216820361013a57565b604060031982011261013a576004356001600160a01b038116810361013a579160243567ffffffffffffffff811161013a578260238201121561013a5780600401359267ffffffffffffffff841161013a5760248460051b8301011161013a576024019190565b602435906001600160a01b038216820361013a57565b602060408183019282815284518094520192019060005b818110610ed15750505090565b82516001600160a01b0316845260209384019390920191600101610ec4565b8054821015610f085760005260206000200190600090565b634e487b7160e01b600052603260045260246000fd5b9190811015610f085760051b0190565b90600160401b811161092d57815491818155828210610f4c57505050565b600052602060002091820191015b818110610f65575050565b60008155600101610f5a565b602080825281018390526001600160fb1b03831161013a5760409260051b809284830137010190565b60005260008051602061192383398151915260205260016040600020015490565b90601f8019910116810190811067ffffffffffffffff82111761092d57604052565b67ffffffffffffffff811161092d5760051b60200190565b90610fff82610fdd565b61100c6040519182610fbb565b828152809261101d601f1991610fdd565b0190602036910137565b8051821015610f085760209160051b010190565b906040519182815491828252602082019060005260206000209260005b81811061106f57505061106d92500383610fbb565b565b8454835260019485019487945060209093019201611058565b611090611454565b6001600160a01b03811660009081527f07966f2ab141347034724e9b2a472c2f77f5cd745aeba27cacba797b8fcb7086602052604090205460ff16156110d35750565b63e2517d3f60e01b60009081526001600160a01b0391909116600452600080516020611943833981519152602452604490fd5b61110e611454565b81600052600080516020611923833981519152602052604060002060018060a01b03821660005260205260ff604060002054161561114a575050565b63e2517d3f60e01b60005260018060a01b031660045260245260446000fd5b805480156111965760001901906111808282610ef0565b81549060018060a01b039060031b1b1916905555565b634e487b7160e01b600052603160045260246000fd5b90816000526003602052604060002060018060a01b0382166000526020526040600020549081156112a45760001982019282841161128e57806000526002602052604060002092835494600019860195861161128e5761120f61106d9686610ef0565b90546001600160a01b0360039290921b1c8116908516819003611258575b505050600052600360205260406000209060018060a01b031660005260205260006040812055611169565b6112688161089860409489610ef0565b60009084825260036020528282209060018060a01b03168252602052205538808061122d565b634e487b7160e01b600052601160045260246000fd5b9050638195595960e01b60005260018060a01b031660045260245260446000fd5b908160005260026020526040600020918254906001820180921161128e576000526003602052604060002060018060a01b038316600052602052604060002055815491600160401b83101561092d578261089891600161106d95018155610ef0565b6113318282611641565b918261133c57505090565b6000918252600080516020611903833981519152602052604090912061136b916001600160a01b0316906117d4565b5090565b61137982826116f8565b918261138457505090565b6000918252600080516020611903833981519152602052604090912061136b916001600160a01b031690611845565b9060015460005b8181106113e0576378ca517b60e11b60009081526001600160a01b038516600452602490fd5b6113eb816001610ef0565b905460039190911b1c6001600160a01b039081169085161461140f576001016113ba565b91925060001981019190821161128e5761089861143061144a936001610ef0565b905460039190911b1c6001600160a01b0316916001610ef0565b61106d6001611169565b337f00000000000000000000000000000000000000000000000000000000000000006001600160a01b031614806114a2575b1561149e57601319360136811161128e573560601c90565b3390565b506014361015611486565b6001600160a01b03811660009081527fb7db2dd08fcb62d0c9e08c51941cae53c267786a0b75803fb7960902fc8ef97d602052604090205460ff1661156d576001600160a01b0381811660009081527fb7db2dd08fcb62d0c9e08c51941cae53c267786a0b75803fb7960902fc8ef97d60205260409020805460ff19166001179055611537611454565b16906001600160a01b031660007f2f8788117e7eff1d82e926ec794901d17c78024a50270940304540a733656f0d8180a4600190565b50600090565b6001600160a01b03811660009081527f07966f2ab141347034724e9b2a472c2f77f5cd745aeba27cacba797b8fcb7086602052604090205460ff1661156d576001600160a01b0381811660009081527f07966f2ab141347034724e9b2a472c2f77f5cd745aeba27cacba797b8fcb708660205260409020805460ff191660011790556115fd611454565b16906001600160a01b03166000805160206119438339815191527f2f8788117e7eff1d82e926ec794901d17c78024a50270940304540a733656f0d600080a4600190565b6000818152600080516020611923833981519152602090815260408083206001600160a01b038616845290915290205460ff166116f1576000818152600080516020611923833981519152602090815260408083206001600160a01b0386811685529252909120805460ff191660011790556116bb611454565b16916001600160a01b0316907f2f8788117e7eff1d82e926ec794901d17c78024a50270940304540a733656f0d600080a4600190565b5050600090565b6000818152600080516020611923833981519152602090815260408083206001600160a01b038616845290915290205460ff16156116f1576000818152600080516020611923833981519152602090815260408083206001600160a01b0386811685529252909120805460ff19169055611770611454565b16916001600160a01b0316907ff6391f5c32d9c69d2a47ea670b442974b53935d1edc7fd64eb21e047a839171b600080a4600190565b60ff6000805160206119638339815191525460401c16156117c357565b631afcd79f60e31b60005260046000fd5b600181019082600052816020526040600020541560001461183d578054600160401b81101561092d57611828611811826001879401855584610ef0565b819391549060031b91821b91600019901b19161790565b90555491600052602052604060002055600190565b505050600090565b90600182019181600052826020526040600020548015156000146118f957600019810181811161128e57825460001981019190821161128e578181036118c2575b505050805480156111965760001901906118a08282610ef0565b8154906000199060031b1b191690555560005260205260006040812055600190565b6118e26118d26118119386610ef0565b90549060031b1c92839286610ef0565b905560005283602052604060002055388080611886565b5050505060009056fec1f6fe24621ce81ec5827caf0253cadb74709b061630e6b55e8237170593200002dd7bc7dec4dceedda775e58dd541e08a116c6c53815c0bd028192f7b626800edcc084d3dcd65a1f7f23c65c46722faca6953d28e43150a467cf43e5c309238f0c57e16840df040f15088dc2f81fe391c3923bec73e23a9662efc9c229c6a00a2646970667358221220a69edd17d9f055a36836531e238c828a6d8c410028b73aba8b1c0984403b2bfc64736f6c634300081c0033",
  "linkReferences": {},
  "deployedLinkReferences": {}
}