{
  "@onchainid/contracts/Identity.sol": {
    "Identity": {
      "abi": [
        {
          "inputs": [
            {
              "internalType": "address",
              "name": "initialManagementKey",
              "type": "address"
            },
            {
              "internalType": "bool",
              "name": "_isLibrary",
              "type": "bool"
            }
          ],
          "stateMutability": "nonpayable",
          "type": "constructor"
        },
        {
          "anonymous": false,
          "inputs": [
            {
              "indexed": true,
              "internalType": "uint256",
              "name": "executionId",
              "type": "uint256"
            },
            {
              "indexed": false,
              "internalType": "bool",
              "name": "approved",
              "type": "bool"
            }
          ],
          "name": "Approved",
          "type": "event"
        },
        {
          "anonymous": false,
          "inputs": [
            {
              "indexed": true,
              "internalType": "bytes32",
              "name": "claimId",
              "type": "bytes32"
            },
            {
              "indexed": true,
              "internalType": "uint256",
              "name": "topic",
              "type": "uint256"
            },
            {
              "indexed": false,
              "internalType": "uint256",
              "name": "scheme",
              "type": "uint256"
            },
            {
              "indexed": true,
              "internalType": "address",
              "name": "issuer",
              "type": "address"
            },
            {
              "indexed": false,
              "internalType": "bytes",
              "name": "signature",
              "type": "bytes"
            },
            {
              "indexed": false,
              "internalType": "bytes",
              "name": "data",
              "type": "bytes"
            },
            {
              "indexed": false,
              "internalType": "string",
              "name": "uri",
              "type": "string"
            }
          ],
          "name": "ClaimAdded",
          "type": "event"
        },
        {
          "anonymous": false,
          "inputs": [
            {
              "indexed": true,
              "internalType": "bytes32",
              "name": "claimId",
              "type": "bytes32"
            },
            {
              "indexed": true,
              "internalType": "uint256",
              "name": "topic",
              "type": "uint256"
            },
            {
              "indexed": false,
              "internalType": "uint256",
              "name": "scheme",
              "type": "uint256"
            },
            {
              "indexed": true,
              "internalType": "address",
              "name": "issuer",
              "type": "address"
            },
            {
              "indexed": false,
              "internalType": "bytes",
              "name": "signature",
              "type": "bytes"
            },
            {
              "indexed": false,
              "internalType": "bytes",
              "name": "data",
              "type": "bytes"
            },
            {
              "indexed": false,
              "internalType": "string",
              "name": "uri",
              "type": "string"
            }
          ],
          "name": "ClaimChanged",
          "type": "event"
        },
        {
          "anonymous": false,
          "inputs": [
            {
              "indexed": true,
              "internalType": "bytes32",
              "name": "claimId",
              "type": "bytes32"
            },
            {
              "indexed": true,
              "internalType": "uint256",
              "name": "topic",
              "type": "uint256"
            },
            {
              "indexed": false,
              "internalType": "uint256",
              "name": "scheme",
              "type": "uint256"
            },
            {
              "indexed": true,
              "internalType": "address",
              "name": "issuer",
              "type": "address"
            },
            {
              "indexed": false,
              "internalType": "bytes",
              "name": "signature",
              "type": "bytes"
            },
            {
              "indexed": false,
              "internalType": "bytes",
              "name": "data",
              "type": "bytes"
            },
            {
              "indexed": false,
              "internalType": "string",
              "name": "uri",
              "type": "string"
            }
          ],
          "name": "ClaimRemoved",
          "type": "event"
        },
        {
          "anonymous": false,
          "inputs": [
            {
              "indexed": true,
              "internalType": "uint256",
              "name": "executionId",
              "type": "uint256"
            },
            {
              "indexed": true,
              "internalType": "address",
              "name": "to",
              "type": "address"
            },
            {
              "indexed": true,
              "internalType": "uint256",
              "name": "value",
              "type": "uint256"
            },
            {
              "indexed": false,
              "internalType": "bytes",
              "name": "data",
              "type": "bytes"
            }
          ],
          "name": "Executed",
          "type": "event"
        },
        {
          "anonymous": false,
          "inputs": [
            {
              "indexed": true,
              "internalType": "uint256",
              "name": "executionId",
              "type": "uint256"
            },
            {
              "indexed": true,
              "internalType": "address",
              "name": "to",
              "type": "address"
            },
            {
              "indexed": true,
              "internalType": "uint256",
              "name": "value",
              "type": "uint256"
            },
            {
              "indexed": false,
              "internalType": "bytes",
              "name": "data",
              "type": "bytes"
            }
          ],
          "name": "ExecutionFailed",
          "type": "event"
        },
        {
          "anonymous": false,
          "inputs": [
            {
              "indexed": true,
              "internalType": "uint256",
              "name": "executionId",
              "type": "uint256"
            },
            {
              "indexed": true,
              "internalType": "address",
              "name": "to",
              "type": "address"
            },
            {
              "indexed": true,
              "internalType": "uint256",
              "name": "value",
              "type": "uint256"
            },
            {
              "indexed": false,
              "internalType": "bytes",
              "name": "data",
              "type": "bytes"
            }
          ],
          "name": "ExecutionRequested",
          "type": "event"
        },
        {
          "anonymous": false,
          "inputs": [
            {
              "indexed": true,
              "internalType": "bytes32",
              "name": "key",
              "type": "bytes32"
            },
            {
              "indexed": true,
              "internalType": "uint256",
              "name": "purpose",
              "type": "uint256"
            },
            {
              "indexed": true,
              "internalType": "uint256",
              "name": "keyType",
              "type": "uint256"
            }
          ],
          "name": "KeyAdded",
          "type": "event"
        },
        {
          "anonymous": false,
          "inputs": [
            {
              "indexed": true,
              "internalType": "bytes32",
              "name": "key",
              "type": "bytes32"
            },
            {
              "indexed": true,
              "internalType": "uint256",
              "name": "purpose",
              "type": "uint256"
            },
            {
              "indexed": true,
              "internalType": "uint256",
              "name": "keyType",
              "type": "uint256"
            }
          ],
          "name": "KeyRemoved",
          "type": "event"
        },
        {
          "inputs": [
            {
              "internalType": "uint256",
              "name": "_topic",
              "type": "uint256"
            },
            {
              "internalType": "uint256",
              "name": "_scheme",
              "type": "uint256"
            },
            {
              "internalType": "address",
              "name": "_issuer",
              "type": "address"
            },
            {
              "internalType": "bytes",
              "name": "_signature",
              "type": "bytes"
            },
            {
              "internalType": "bytes",
              "name": "_data",
              "type": "bytes"
            },
            {
              "internalType": "string",
              "name": "_uri",
              "type": "string"
            }
          ],
          "name": "addClaim",
          "outputs": [
            {
              "internalType": "bytes32",
              "name": "claimRequestId",
              "type": "bytes32"
            }
          ],
          "stateMutability": "nonpayable",
          "type": "function"
        },
        {
          "inputs": [
            {
              "internalType": "bytes32",
              "name": "_key",
              "type": "bytes32"
            },
            {
              "internalType": "uint256",
              "name": "_purpose",
              "type": "uint256"
            },
            {
              "internalType": "uint256",
              "name": "_type",
              "type": "uint256"
            }
          ],
          "name": "addKey",
          "outputs": [
            {
              "internalType": "bool",
              "name": "success",
              "type": "bool"
            }
          ],
          "stateMutability": "nonpayable",
          "type": "function"
        },
        {
          "inputs": [
            {
              "internalType": "uint256",
              "name": "_id",
              "type": "uint256"
            },
            {
              "internalType": "bool",
              "name": "_approve",
              "type": "bool"
            }
          ],
          "name": "approve",
          "outputs": [
            {
              "internalType": "bool",
              "name": "success",
              "type": "bool"
            }
          ],
          "stateMutability": "nonpayable",
          "type": "function"
        },
        {
          "inputs": [
            {
              "internalType": "address",
              "name": "_to",
              "type": "address"
            },
            {
              "internalType": "uint256",
              "name": "_value",
              "type": "uint256"
            },
            {
              "internalType": "bytes",
              "name": "_data",
              "type": "bytes"
            }
          ],
          "name": "execute",
          "outputs": [
            {
              "internalType": "uint256",
              "name": "executionId",
              "type": "uint256"
            }
          ],
          "stateMutability": "payable",
          "type": "function"
        },
        {
          "inputs": [
            {
              "internalType": "bytes32",
              "name": "_claimId",
              "type": "bytes32"
            }
          ],
          "name": "getClaim",
          "outputs": [
            {
              "internalType": "uint256",
              "name": "topic",
              "type": "uint256"
            },
            {
              "internalType": "uint256",
              "name": "scheme",
              "type": "uint256"
            },
            {
              "internalType": "address",
              "name": "issuer",
              "type": "address"
            },
            {
              "internalType": "bytes",
              "name": "signature",
              "type": "bytes"
            },
            {
              "internalType": "bytes",
              "name": "data",
              "type": "bytes"
            },
            {
              "internalType": "string",
              "name": "uri",
              "type": "string"
            }
          ],
          "stateMutability": "view",
          "type": "function"
        },
        {
          "inputs": [
            {
              "internalType": "uint256",
              "name": "_topic",
              "type": "uint256"
            }
          ],
          "name": "getClaimIdsByTopic",
          "outputs": [
            {
              "internalType": "bytes32[]",
              "name": "claimIds",
              "type": "bytes32[]"
            }
          ],
          "stateMutability": "view",
          "type": "function"
        },
        {
          "inputs": [
            {
              "internalType": "bytes32",
              "name": "_key",
              "type": "bytes32"
            }
          ],
          "name": "getKey",
          "outputs": [
            {
              "internalType": "uint256[]",
              "name": "purposes",
              "type": "uint256[]"
            },
            {
              "internalType": "uint256",
              "name": "keyType",
              "type": "uint256"
            },
            {
              "internalType": "bytes32",
              "name": "key",
              "type": "bytes32"
            }
          ],
          "stateMutability": "view",
          "type": "function"
        },
        {
          "inputs": [
            {
              "internalType": "bytes32",
              "name": "_key",
              "type": "bytes32"
            }
          ],
          "name": "getKeyPurposes",
          "outputs": [
            {
              "internalType": "uint256[]",
              "name": "_purposes",
              "type": "uint256[]"
            }
          ],
          "stateMutability": "view",
          "type": "function"
        },
        {
          "inputs": [
            {
              "internalType": "uint256",
              "name": "_purpose",
              "type": "uint256"
            }
          ],
          "name": "getKeysByPurpose",
          "outputs": [
            {
              "internalType": "bytes32[]",
              "name": "keys",
              "type": "bytes32[]"
            }
          ],
          "stateMutability": "view",
          "type": "function"
        },
        {
          "inputs": [
            {
              "internalType": "bytes",
              "name": "sig",
              "type": "bytes"
            },
            {
              "internalType": "bytes32",
              "name": "dataHash",
              "type": "bytes32"
            }
          ],
          "name": "getRecoveredAddress",
          "outputs": [
            {
              "internalType": "address",
              "name": "addr",
              "type": "address"
            }
          ],
          "stateMutability": "pure",
          "type": "function"
        },
        {
          "inputs": [
            {
              "internalType": "address",
              "name": "initialManagementKey",
              "type": "address"
            }
          ],
          "name": "initialize",
          "outputs": [],
          "stateMutability": "nonpayable",
          "type": "function"
        },
        {
          "inputs": [
            {
              "internalType": "contract IIdentity",
              "name": "_identity",
              "type": "address"
            },
            {
              "internalType": "uint256",
              "name": "claimTopic",
              "type": "uint256"
            },
            {
              "internalType": "bytes",
              "name": "sig",
              "type": "bytes"
            },
            {
              "internalType": "bytes",
              "name": "data",
              "type": "bytes"
            }
          ],
          "name": "isClaimValid",
          "outputs": [
            {
              "internalType": "bool",
              "name": "claimValid",
              "type": "bool"
            }
          ],
          "stateMutability": "view",
          "type": "function"
        },
        {
          "inputs": [
            {
              "internalType": "bytes32",
              "name": "_key",
              "type": "bytes32"
            },
            {
              "internalType": "uint256",
              "name": "_purpose",
              "type": "uint256"
            }
          ],
          "name": "keyHasPurpose",
          "outputs": [
            {
              "internalType": "bool",
              "name": "result",
              "type": "bool"
            }
          ],
          "stateMutability": "view",
          "type": "function"
        },
        {
          "inputs": [
            {
              "internalType": "bytes32",
              "name": "_claimId",
              "type": "bytes32"
            }
          ],
          "name": "removeClaim",
          "outputs": [
            {
              "internalType": "bool",
              "name": "success",
              "type": "bool"
            }
          ],
          "stateMutability": "nonpayable",
          "type": "function"
        },
        {
          "inputs": [
            {
              "internalType": "bytes32",
              "name": "_key",
              "type": "bytes32"
            },
            {
              "internalType": "uint256",
              "name": "_purpose",
              "type": "uint256"
            }
          ],
          "name": "removeKey",
          "outputs": [
            {
              "internalType": "bool",
              "name": "success",
              "type": "bool"
            }
          ],
          "stateMutability": "nonpayable",
          "type": "function"
        },
        {
          "inputs": [],
          "name": "version",
          "outputs": [
            {
              "internalType": "string",
              "name": "",
              "type": "string"
            }
          ],
          "stateMutability": "pure",
          "type": "function"
        }
      ],
      "evm": {
        "bytecode": {
          "linkReferences": {},
          "object": "608080604052346102a45760408161279f803803809161001f82856102a9565b8339810103126102a45780516001600160a01b03811691908290036102a457602001518015908115036102a45761ffff19600654169081600655600014610298575080156102535760065460ff811615801561024a575b15610205576101019061ffff19161760065560405160208101918252602081526100a16040826102a9565b519020806000526001602052806002604060002001556040516020810181811060018060401b038211176101ae5760405260018152816000526001602052604060002090815460018355806001106101db575b509060005260206000209060005b600181106101c4575050508060005260016020526001806040600020015560016000526002602052604060002090815490680100000000000000008210156101ae57600182018084558210156101985780600193928493600052602060002001557f480000bb1edad8ca1470381cc334b1917fbd51c6531f3a623ea8e0ec7e38a6e9600080a45b6040516124d290816102cd8239f35b634e487b7160e01b600052603260045260246000fd5b634e487b7160e01b600052604160045260246000fd5b600190602060ff8451169301928185015501610102565b826000526001602060002091820191015b8181106101f957506100f4565b600081556001016101ec565b60405162461bcd60e51b815260206004820152601e60248201527f496e697469616c206b65792077617320616c72656164792073657475702e00006044820152606490fd5b50303b15610076565b60405162461bcd60e51b815260206004820152601f60248201527f696e76616c696420617267756d656e74202d207a65726f2061646472657373006044820152606490fd5b60011760065550610189565b600080fd5b601f909101601f19168101906001600160401b038211908210176101ae5760405256fe6080604052600436101561001257600080fd5b60003560e01c806312aaac70146101175780631d381240146101125780634eee424a1461010d57806353d413c51461010857806354fd4d5014610103578063747442d3146100fe57806380e9e9e1146100f95780639010f726146100f4578063b1a34e0d146100ef578063b61d27f6146100ea578063c0969a6e146100e5578063c3b129e3146100e0578063c4d66de8146100db578063c9100bcb146100d6578063d202158d146100d15763fb307b34146100cc57600080fd5b611176565b611155565b6110e4565b610ef2565b610ea1565b610e32565b610c7f565b610bcc565b610a78565b610a03565b61097f565b61092e565b610654565b6103aa565b6101b4565b610150565b906020808351928381520192019060005b81811061013a5750505090565b825184526020938401939092019160010161012d565b346101af5760203660031901126101af576101a060043560009081526001602081905260409091209081015460028201549161018b906111b6565b9160405193849360608552606085019061011c565b91602084015260408301520390f35b600080fd5b346101af5760603660031901126101af57600435602435604435916101e5600160ff60065460081c16151514611201565b303314801561037a575b6101f890611269565b80600261020f826000526001602052604060002090565b0154036103185761023261022d826000526001602052604060002090565b6111b6565b9060005b82518110156102a7578361024a8285611391565b511461025857600101610236565b60405162461bcd60e51b815260206004820152602160248201527f436f6e666c6963743a204b657920616c72656164792068617320707572706f736044820152606560f81b6064820152608490fd5b50929190506102c9816102c4856000526001602052604060002090565b6113c2565b6102e1836102c4836000526002602052604060002090565b604051927f480000bb1edad8ca1470381cc334b1917fbd51c6531f3a623ea8e0ec7e38a6e9600080a46001815280602081015b0390f35b9190826002610331826000526001602052604060002090565b015561035c6103406020610b4b565b828152610357856000526001602052604060002090565b611343565b816001610373856000526001602052604060002090565b01556102c9565b506101f86103a360405160208101903382526020815261039b604082610b29565b519020612203565b90506101ef565b346101af5760203660031901126101af576004356103d4600160ff60065460081c16151514611201565b3033148015610624575b6103e7906113fb565b6103fb816000526004602052604060002090565b5480156105cb57600091610419826000526005602052604060002090565b54925b8161044761043d83610438876000526005602052604060002090565b6113aa565b90549060031b1c90565b146105b15761045590611462565b83811061041c57916104b06105a0936104aa61049561043d6105a5985b61048f610489886000526005602052604060002090565b91611476565b906113aa565b91610438856000526005602052604060002090565b906112e4565b6104cc6104c7826000526005602052604060002090565b61149b565b60016104e2836000526004602052604060002090565b015490827f3cf57863a89432c61c4a27073c6ee39e8a764bff5a05aebfbcdcdc80b2e6130a61052e6002610520846000526004602052604060002090565b01546001600160a01b031690565b6003610544846000526004602052604060002090565b019061058d600461055f866000526004602052604060002090565b016005610576876000526004602052604060002090565b019060405194859460018060a01b0316998561158e565b0390a46000526004602052604060002090565b611623565b60405160018152602090f35b916104b06105a0936104aa61049561043d6105a598610472565b60405162461bcd60e51b815260206004820152602b60248201527f4e6f6e4578697374696e673a205468657265206973206e6f20636c61696d207760448201526a1a5d1a081d1a1a5cc8125160aa1b6064820152608490fd5b506103e761064d604051602081019033825260208152610645604082610b29565b51902061228a565b90506103de565b346101af5760403660031901126101af57600435602435610681600160ff60065460081c16151514611201565b30331480156108c5575b61069490611269565b6106b68260026106ae826000526001602052604060002090565b01541461165b565b6106cd61022d836000526001602052604060002090565b9060005b816106dc8285611391565b5114610752576106eb90611462565b90825182146106fa57906106d1565b60405162461bcd60e51b815260206004820152602a60248201527f4e6f6e4578697374696e673a204b657920646f65736e27742068617665207375604482015269636820707572706f736560b01b6064820152608490fd5b6107706107686107628551611476565b85611391565b519184611391565b5261078e82610789856000526001602052604060002090565b6116b1565b6107a56104c7846000526001602052604060002090565b600081815260026020526040812054905b846107d261043d83610438876000526002602052604060002090565b146108b3576107e090611462565b8181106107b6576104aa61080c61043d610821945b61048f610489886000526002602052604060002090565b91610438856000526002602052604060002090565b6108386104c7826000526002602052604060002090565b61085a6001610851856000526001602052604060002090565b01549251611476565b15610892575b604051927f585a4aef50f8267a92b32412b331b20f7f8b96f2245b253b9cc50dcc621d3397600080a460018152602090f35b6108ae6108a9846000526001602052604060002090565b61172a565b610860565b6104aa61080c61043d610821946107f5565b506106946108e660405160208101903382526020815261039b604082610b29565b905061068b565b919082519283825260005b848110610919575050826000602080949584010152601f8019910116010190565b806020809284010151828286010152016108f8565b346101af5760003660031901126101af5761031460408051906109518183610b29565b6005825264322e322e3160d81b6020830152519182916020835260208301906108ed565b801515036101af57565b346101af5760403660031901126101af5760206109bf6024356004356109a482610975565b6109ba600160ff60065460081c16151514611201565b611974565b6040519015158152f35b602060408183019282815284518094520192019060005b8181106109ed5750505090565b82518452602093840193909201916001016109e0565b346101af5760203660031901126101af576004356000526005602052604060002060405190816020825491828152019160005260206000209060005b818110610a625761031485610a5681870382610b29565b604051918291826109c9565b8254845260209093019260019283019201610a3f565b346101af5760203660031901126101af576004356000526002602052604060002060405190816020825491828152019160005260206000209060005b818110610acb5761031485610a5681870382610b29565b8254845260209093019260019283019201610ab4565b6001600160a01b038116036101af57565b634e487b7160e01b600052604160045260246000fd5b6060810190811067ffffffffffffffff821117610b2457604052565b610af2565b90601f8019910116810190811067ffffffffffffffff821117610b2457604052565b90610b596040519283610b29565b565b67ffffffffffffffff8111610b2457601f01601f191660200190565b929192610b8382610b5b565b91610b916040519384610b29565b8294818452818301116101af578281602093846000960137010152565b9080601f830112156101af57816020610bc993359101610b77565b90565b346101af5760c03660031901126101af57602435604435600435610bef82610ae1565b60643567ffffffffffffffff81116101af57610c0f903690600401610bae565b60843567ffffffffffffffff81116101af57610c2f903690600401610bae565b9060a4359367ffffffffffffffff85116101af57366023860112156101af5761031495610c69610c6f963690602481600401359101610b77565b94611c59565b6040519081529081906020820190565b60603660031901126101af57600435610c9781610ae1565b6024359060443567ffffffffffffffff81116101af57610314927f8afcfabcb00e47a53a8fc3e9f23ff47ee1926194bb1350dd007c50b412a6cee892610ce4610d9a933690600401610bae565b90610cfb600160ff60065460081c16151514611201565b6000549481610d388793610d19856000526003602052604060002090565b80546001600160a01b0319166001600160a01b03909216919091179055565b846001610d4f856000526003602052604060002090565b0155610d71846002610d6b866000526003602052604060002090565b01611fa9565b610d7c600054611462565b6000556040516001600160a01b0391909116958694829190826120a5565b0390a4604080513360208201908152610dc79290919061039b90829081015b03601f198101835282610b29565b15610de75750610dd68161175e565b506040519081529081906020820190565b30141580610e04575b15610c6f57610dfe8161175e565b50610c6f565b50604080513360208201908152610e2d92909190610e259082908101610db9565b519020612305565b610df0565b346101af5760803660031901126101af57600435610e4f81610ae1565b6024359060443567ffffffffffffffff81116101af57610e73903690600401610bae565b906064359167ffffffffffffffff83116101af57602093610e9b6109bf943690600401610bae565b926120b6565b346101af5760403660031901126101af5760043567ffffffffffffffff81116101af57610ee0610ed76020923690600401610bae565b6024359061216d565b6040516001600160a01b039091168152f35b346101af5760203660031901126101af57600435610f0f81610ae1565b6001600160a01b0381161561104e57600654600191829160ff16158015611045575b610f3a90612415565b610f4c600160ff196006541617600655565b610f6061010061ff00196006541617600655565b604080516001600160a01b03909216602083019081529190610f859082908101610db9565b519020806002610f9f826000526001602052604060002090565b0155610fcb610fae6020610b4b565b60018152610fc6836000526001602052604060002090565b612461565b610fea82610fe3836000526001602052604060002090565b0160019055565b6001600052600260205261101e817fe90b7bceb6e7df5418fb78d8ee546e97c83a08bbccc01a0644d599ccd2a7c2e06113c2565b7f480000bb1edad8ca1470381cc334b1917fbd51c6531f3a623ea8e0ec7e38a6e9600080a4005b50303b15610f31565b60405162461bcd60e51b815260206004820152601f60248201527f696e76616c696420617267756d656e74202d207a65726f2061646472657373006044820152606490fd5b9491936110d693610bc997956110c8938852602088015260018060a01b0316604087015260c0606087015260c08601906108ed565b9084820360808601526108ed565b9160a08184039101526108ed565b346101af5760203660031901126101af5760048035600090815260208290526040902080546001820154600283015490939192610314926001600160a01b0390921691600582019190810190611148906111429081906003016121e8565b926121e8565b9260405196879687611093565b346101af5760403660031901126101af5760206109bf602435600435612380565b346101af5760203660031901126101af5760043560005260016020526103146111a260406000206111b6565b60405191829160208352602083019061011c565b906040519182815491828252602082019060005260206000209260005b8181106111e8575050610b5992500383610b29565b84548352600194850194879450602090930192016111d3565b1561120857565b60405162461bcd60e51b815260206004820152603360248201527f496e746572616374696e67207769746820746865206c69627261727920636f6e6044820152723a3930b1ba1034b9903337b93134b23232b71760691b6064820152608490fd5b1561127057565b60405162461bcd60e51b815260206004820152603060248201527f5065726d697373696f6e733a2053656e64657220646f6573206e6f742068617660448201526f65206d616e6167656d656e74206b657960801b6064820152608490fd5b634e487b7160e01b600052601160045260246000fd5b916112fe9183549060031b91821b91600019901b19161790565b9055565b81811061130d575050565b60008155600101611302565b8054600182558060011061132b575050565b610b5991600052600160206000209182019101611302565b9061134d82611319565b9060005260206000209060005b6001811061136757505050565b60019060208351930192818501550161135a565b634e487b7160e01b600052603260045260246000fd5b80518210156113a55760209160051b010190565b61137b565b80548210156113a55760005260206000200190600090565b805490600160401b821015610b2457816113e49160016112fe940181556113aa565b819391549060031b91821b91600019901b19161790565b1561140257565b60405162461bcd60e51b815260206004820152603260248201527f5065726d697373696f6e733a2053656e64657220646f6573206e6f74206861766044820152716520636c61696d207369676e6572206b657960701b6064820152608490fd5b60001981146114715760010190565b6112ce565b60001981019190821161147157565b634e487b7160e01b600052603160045260246000fd5b805480156114cc5760001901906114c76114b583836113aa565b81929154906000199060031b1b191690565b905555565b611485565b90600182811c92168015611501575b60208310146114eb57565b634e487b7160e01b600052602260045260246000fd5b91607f16916114e0565b6000929181549161151b836114d1565b8083529260018116908115611571575060011461153757505050565b60009081526020812093945091925b838310611557575060209250010190565b600181602092949394548385870101520191019190611546565b915050602093945060ff929192191683830152151560051b010190565b926115ae610bc995936115bc93865260806020870152608086019061150b565b90848203604086015261150b565b91606081840391015261150b565b6115d481546114d1565b90816115de575050565b601f82116001146115f0576000905550565b611612610b5992826000526001601f6020600020920160051c82019101611302565b600081815260208120918190559055565b600590600081556000600182015560006002820155611644600382016115ca565b611650600482016115ca565b016115d481546114d1565b1561166257565b60405162461bcd60e51b815260206004820152602160248201527f4e6f6e4578697374696e673a204b65792069736e2774207265676973746572656044820152601960fa1b6064820152608490fd5b81519167ffffffffffffffff8311610b2457600160401b8311610b2457602090825484845580851061170d575b500190600052602060002060005b8381106116f95750505050565b6001906020845194019381840155016116ec565b611724908460005285846000209182019101611302565b386116de565b6002600091805483825580611745575b508260018201550155565b8184526020842061175891810190611302565b3861173a565b6001610bc9916109ba8260ff60065460081c16151514611201565b1561178057565b60405162461bcd60e51b815260206004820152602760248201527f43616e6e6f7420617070726f76652061206e6f6e2d6578697374696e6720657860448201526632b1baba34b7b760c91b6064820152608490fd5b156117dc57565b60405162461bcd60e51b815260206004820152601860248201527f5265717565737420616c726561647920657865637574656400000000000000006044820152606490fd5b1561182857565b60405162461bcd60e51b815260206004820152601f60248201527f53656e64657220646f6573206e6f74206861766520616374696f6e206b6579006044820152606490fd5b1561187457565b60405162461bcd60e51b815260206004820152602360248201527f53656e64657220646f6573206e6f742068617665206d616e6167656d656e74206044820152626b657960e81b6064820152608490fd5b600092918154916118d5836114d1565b926001811690811561192057506001146118ee57505050565b909192935060005260206000206000905b83821061190c5750500190565b6001816020925484860152019101906118ff565b60ff191683525050811515909102019150565b3d1561195e573d9061194482610b5b565b916119526040519384610b29565b82523d6000602084013e565b606090565b906020610bc992818152019061150b565b906001906119856000548410611779565b6119b86119b36119af60036119a4876000526003602052604060002090565b015460081c60ff1690565b1590565b6117d5565b6119dc6119cf846000526003602052604060002090565b546001600160a01b031690565b3090838060a01b031614600014611c2d57604080513360208201908152611a1492611a0f929061039b9082908101610db9565b61186d565b604051811515815283907fb3932da477fe5d6c8ff2eafef050c0f3a1af18fc07121001482600f36f3715d890602090a2151503611c0457611a726003611a64836000526003602052604060002090565b01805460ff19166001179055565b600080611a8c6119cf846000526003602052604060002090565b611aca6001611aa5866000526003602052604060002090565b01546002611abd876000526003602052604060002090565b01604051928380926118c5565b03925af1611ad6611933565b5015611b9257611b056003611af5836000526003602052604060002090565b01805461ff001916610100179055565b611b1c6119cf826000526003602052604060002090565b6001611b32836000526003602052604060002090565b0154917f1f920dbda597d7bf95035464170fa58d0a4b57f13a1c315ace6793b9f63688b8611b8a6002611b6f846000526003602052604060002090565b6040516001600160a01b039096169592839290910182611963565b0390a4600190565b611ba96119cf826000526003602052604060002090565b6001611bbf836000526003602052604060002090565b0154917fe10c49d9f7c71da23262367013434763cfdb2332267641728d25cd712c5c6a68611bfc6002611b6f846000526003602052604060002090565b0390a4600090565b6003611c1d611c28926000526003602052604060002090565b01805460ff19169055565b600090565b604080513360208201908152611c5492611c4f9290610e259082908101610db9565b611821565b611a14565b9294909394611c74600160ff60065460081c16151514611201565b3033148015611ea7575b611c87906113fb565b6001600160a01b03831694308603611e30575b604080516001600160a01b03861660208201908152918101879052611cc28160608101610db9565b51902096879486611cdd876000526004602052604060002090565b55826001611cf5886000526004602052604060002090565b0155611d11846003610d6b896000526004602052604060002090565b611d2b826004610d6b896000526004602052604060002090565b611d45856005610d6b896000526004602052604060002090565b87611d6e611d6260026105208a6000526004602052604060002090565b6001600160a01b031690565b14611dfd5793611df791611deb7f46149b18aa084502c3f12bc75e19eda8bda8d102b82cce8474677a6d0d5f43c596611db5896102c48c6000526005602052604060002090565b6002611dcb8a6000526004602052604060002090565b0180546001600160a01b0319166001600160a01b03909216919091179055565b60405194859485612077565b0390a490565b507f3bab293fc00db832d7619a9299914251b8747c036867ec056cbd506f60135b1393611df79160405194859485612077565b60405163604b4d3760e11b815260208180611e518b878b3060048601611ee4565b03818a5afa8015611ea257611e6e91600091611e73575b50611f28565b611c9a565b611e95915060203d602011611e9b575b611e8d8183610b29565b810190611ecf565b38611e68565b503d611e83565b611f1c565b50611c87611ec8604051602081019033825260208152610645604082610b29565b9050611c7e565b908160209103126101af5751610bc981610975565b92610bc99492611f0e9260018060a01b0316855260208501526080604085015260808401906108ed565b9160608184039101526108ed565b6040513d6000823e3d90fd5b15611f2f57565b60405162461bcd60e51b815260206004820152600d60248201526c696e76616c696420636c61696d60981b6044820152606490fd5b9190601f8111611f7357505050565b610b59926000526020600020906020601f840160051c83019310611f9f575b601f0160051c0190611302565b9091508190611f92565b919091825167ffffffffffffffff8111610b2457611fd181611fcb84546114d1565b84611f64565b6020601f821160011461200e5781906112fe939495600092612003575b50508160011b916000199060031b1c19161790565b015190503880611fee565b601f1982169061202384600052602060002090565b9160005b81811061205f57509583600195969710612046575b505050811b019055565b015160001960f88460031b161c1916905538808061203c565b9192602060018192868b015181550194019201612027565b92612097610bc99593611f0e9386526080602087015260808601906108ed565b9084820360408601526108ed565b906020610bc99281815201906108ed565b61215f936120ef61213a9493610db9604051938492602084019660018060a01b03168752604084015260608084015260808301906108ed565b51902060405161213181610db9602082019485603c917f19457468657265756d205369676e6564204d6573736167653a0a3332000000008252601c8201520190565b5190209061216d565b604080516001600160a01b039092166020830190815291906106459082908101610db9565b61216857600090565b600190565b60009060418151036121e25760208101519160606040830151920151901a91601b83106121cc575b6040805194855260ff9093166020858101919091529284015260608301526000808052909160809060015afa15611ea25760005190565b9091601b019060ff821161147157909190612195565b50905090565b90610b596121fc926040519384809261150b565b0383610b29565b6000526001602052604060002060026040519161221f83610b08565b612228816111b6565b8352600181015460208401520154806040830152156122845760005b8151805182101561227c5761225b82600192611391565b51148015612277575b61227057600101612244565b5050600190565b612264565b505050600090565b50600090565b600052600160205260406000206002604051916122a683610b08565b6122af816111b6565b8352600181015460208401520154806040830152156122845760005b8151805182101561227c57816122e091611391565b51600181149081156122fa575b50612270576001016122cb565b6003915014386122ed565b6000526001602052604060002060026040519161232183610b08565b61232a816111b6565b8352600181015460208401520154806040830152156122845760005b8151805182101561227c578161235b91611391565b5160018114908115612375575b5061227057600101612346565b600291501438612368565b600052600160205260406000209060026040519261239d84610b08565b6123a6816111b6565b84526001810154602085015201548060408401521561240e5760005b8251805182101561240557816123d791611391565b5182600182149182156123fb575b50506123f3576001016123c2565b505050600190565b14905082386123e5565b50505050600090565b5050600090565b1561241c57565b60405162461bcd60e51b815260206004820152601e60248201527f496e697469616c206b65792077617320616c72656164792073657475702e00006044820152606490fd5b9061246b82611319565b9060005260206000209060005b6001811061248557505050565b600190602060ff845116930192818501550161247856fea2646970667358221220fddfb2373bb268d85d269be1383eb0ea7cc3fc46041db9b6adb50c1616d3982e64736f6c634300081c0033",
          "opcodes": "PUSH1 0x80 DUP1 PUSH1 0x40 MSTORE CALLVALUE PUSH2 0x2A4 JUMPI PUSH1 0x40 DUP2 PUSH2 0x279F DUP1 CODESIZE SUB DUP1 SWAP2 PUSH2 0x1F DUP3 DUP6 PUSH2 0x2A9 JUMP JUMPDEST DUP4 CODECOPY DUP2 ADD SUB SLT PUSH2 0x2A4 JUMPI DUP1 MLOAD PUSH1 0x1 PUSH1 0x1 PUSH1 0xA0 SHL SUB DUP2 AND SWAP2 SWAP1 DUP3 SWAP1 SUB PUSH2 0x2A4 JUMPI PUSH1 0x20 ADD MLOAD DUP1 ISZERO SWAP1 DUP2 ISZERO SUB PUSH2 0x2A4 JUMPI PUSH2 0xFFFF NOT PUSH1 0x6 SLOAD AND SWAP1 DUP2 PUSH1 0x6 SSTORE PUSH1 0x0 EQ PUSH2 0x298 JUMPI POP DUP1 ISZERO PUSH2 0x253 JUMPI PUSH1 0x6 SLOAD PUSH1 0xFF DUP2 AND ISZERO DUP1 ISZERO PUSH2 0x24A JUMPI JUMPDEST ISZERO PUSH2 0x205 JUMPI PUSH2 0x101 SWAP1 PUSH2 0xFFFF NOT AND OR PUSH1 0x6 SSTORE PUSH1 0x40 MLOAD PUSH1 0x20 DUP2 ADD SWAP2 DUP3 MSTORE PUSH1 0x20 DUP2 MSTORE PUSH2 0xA1 PUSH1 0x40 DUP3 PUSH2 0x2A9 JUMP JUMPDEST MLOAD SWAP1 KECCAK256 DUP1 PUSH1 0x0 MSTORE PUSH1 0x1 PUSH1 0x20 MSTORE DUP1 PUSH1 0x2 PUSH1 0x40 PUSH1 0x0 KECCAK256 ADD SSTORE PUSH1 0x40 MLOAD PUSH1 0x20 DUP2 ADD DUP2 DUP2 LT PUSH1 0x1 DUP1 PUSH1 0x40 SHL SUB DUP3 GT OR PUSH2 0x1AE JUMPI PUSH1 0x40 MSTORE PUSH1 0x1 DUP2 MSTORE DUP2 PUSH1 0x0 MSTORE PUSH1 0x1 PUSH1 0x20 MSTORE PUSH1 0x40 PUSH1 0x0 KECCAK256 SWAP1 DUP2 SLOAD PUSH1 0x1 DUP4 SSTORE DUP1 PUSH1 0x1 LT PUSH2 0x1DB JUMPI JUMPDEST POP SWAP1 PUSH1 0x0 MSTORE PUSH1 0x20 PUSH1 0x0 KECCAK256 SWAP1 PUSH1 0x0 JUMPDEST PUSH1 0x1 DUP2 LT PUSH2 0x1C4 JUMPI POP POP POP DUP1 PUSH1 0x0 MSTORE PUSH1 0x1 PUSH1 0x20 MSTORE PUSH1 0x1 DUP1 PUSH1 0x40 PUSH1 0x0 KECCAK256 ADD SSTORE PUSH1 0x1 PUSH1 0x0 MSTORE PUSH1 0x2 PUSH1 0x20 MSTORE PUSH1 0x40 PUSH1 0x0 KECCAK256 SWAP1 DUP2 SLOAD SWAP1 PUSH9 0x10000000000000000 DUP3 LT ISZERO PUSH2 0x1AE JUMPI PUSH1 0x1 DUP3 ADD DUP1 DUP5 SSTORE DUP3 LT ISZERO PUSH2 0x198 JUMPI DUP1 PUSH1 0x1 SWAP4 SWAP3 DUP5 SWAP4 PUSH1 0x0 MSTORE PUSH1 0x20 PUSH1 0x0 KECCAK256 ADD SSTORE PUSH32 0x480000BB1EDAD8CA1470381CC334B1917FBD51C6531F3A623EA8E0EC7E38A6E9 PUSH1 0x0 DUP1 LOG4 JUMPDEST PUSH1 0x40 MLOAD PUSH2 0x24D2 SWAP1 DUP2 PUSH2 0x2CD DUP3 CODECOPY RETURN JUMPDEST PUSH4 0x4E487B71 PUSH1 0xE0 SHL PUSH1 0x0 MSTORE PUSH1 0x32 PUSH1 0x4 MSTORE PUSH1 0x24 PUSH1 0x0 REVERT JUMPDEST PUSH4 0x4E487B71 PUSH1 0xE0 SHL PUSH1 0x0 MSTORE PUSH1 0x41 PUSH1 0x4 MSTORE PUSH1 0x24 PUSH1 0x0 REVERT JUMPDEST PUSH1 0x1 SWAP1 PUSH1 0x20 PUSH1 0xFF DUP5 MLOAD AND SWAP4 ADD SWAP3 DUP2 DUP6 ADD SSTORE ADD PUSH2 0x102 JUMP JUMPDEST DUP3 PUSH1 0x0 MSTORE PUSH1 0x1 PUSH1 0x20 PUSH1 0x0 KECCAK256 SWAP2 DUP3 ADD SWAP2 ADD JUMPDEST DUP2 DUP2 LT PUSH2 0x1F9 JUMPI POP PUSH2 0xF4 JUMP JUMPDEST PUSH1 0x0 DUP2 SSTORE PUSH1 0x1 ADD PUSH2 0x1EC JUMP JUMPDEST PUSH1 0x40 MLOAD PUSH3 0x461BCD PUSH1 0xE5 SHL DUP2 MSTORE PUSH1 0x20 PUSH1 0x4 DUP3 ADD MSTORE PUSH1 0x1E PUSH1 0x24 DUP3 ADD MSTORE PUSH32 0x496E697469616C206B65792077617320616C72656164792073657475702E0000 PUSH1 0x44 DUP3 ADD MSTORE PUSH1 0x64 SWAP1 REVERT JUMPDEST POP ADDRESS EXTCODESIZE ISZERO PUSH2 0x76 JUMP JUMPDEST PUSH1 0x40 MLOAD PUSH3 0x461BCD PUSH1 0xE5 SHL DUP2 MSTORE PUSH1 0x20 PUSH1 0x4 DUP3 ADD MSTORE PUSH1 0x1F PUSH1 0x24 DUP3 ADD MSTORE PUSH32 0x696E76616C696420617267756D656E74202D207A65726F206164647265737300 PUSH1 0x44 DUP3 ADD MSTORE PUSH1 0x64 SWAP1 REVERT JUMPDEST PUSH1 0x1 OR PUSH1 0x6 SSTORE POP PUSH2 0x189 JUMP JUMPDEST PUSH1 0x0 DUP1 REVERT JUMPDEST PUSH1 0x1F SWAP1 SWAP2 ADD PUSH1 0x1F NOT AND DUP2 ADD SWAP1 PUSH1 0x1 PUSH1 0x1 PUSH1 0x40 SHL SUB DUP3 GT SWAP1 DUP3 LT OR PUSH2 0x1AE JUMPI PUSH1 0x40 MSTORE JUMP INVALID PUSH1 0x80 PUSH1 0x40 MSTORE PUSH1 0x4 CALLDATASIZE LT ISZERO PUSH2 0x12 JUMPI PUSH1 0x0 DUP1 REVERT JUMPDEST PUSH1 0x0 CALLDATALOAD PUSH1 0xE0 SHR DUP1 PUSH4 0x12AAAC70 EQ PUSH2 0x117 JUMPI DUP1 PUSH4 0x1D381240 EQ PUSH2 0x112 JUMPI DUP1 PUSH4 0x4EEE424A EQ PUSH2 0x10D JUMPI DUP1 PUSH4 0x53D413C5 EQ PUSH2 0x108 JUMPI DUP1 PUSH4 0x54FD4D50 EQ PUSH2 0x103 JUMPI DUP1 PUSH4 0x747442D3 EQ PUSH2 0xFE JUMPI DUP1 PUSH4 0x80E9E9E1 EQ PUSH2 0xF9 JUMPI DUP1 PUSH4 0x9010F726 EQ PUSH2 0xF4 JUMPI DUP1 PUSH4 0xB1A34E0D EQ PUSH2 0xEF JUMPI DUP1 PUSH4 0xB61D27F6 EQ PUSH2 0xEA JUMPI DUP1 PUSH4 0xC0969A6E EQ PUSH2 0xE5 JUMPI DUP1 PUSH4 0xC3B129E3 EQ PUSH2 0xE0 JUMPI DUP1 PUSH4 0xC4D66DE8 EQ PUSH2 0xDB JUMPI DUP1 PUSH4 0xC9100BCB EQ PUSH2 0xD6 JUMPI DUP1 PUSH4 0xD202158D EQ PUSH2 0xD1 JUMPI PUSH4 0xFB307B34 EQ PUSH2 0xCC JUMPI PUSH1 0x0 DUP1 REVERT JUMPDEST PUSH2 0x1176 JUMP JUMPDEST PUSH2 0x1155 JUMP JUMPDEST PUSH2 0x10E4 JUMP JUMPDEST PUSH2 0xEF2 JUMP JUMPDEST PUSH2 0xEA1 JUMP JUMPDEST PUSH2 0xE32 JUMP JUMPDEST PUSH2 0xC7F JUMP JUMPDEST PUSH2 0xBCC JUMP JUMPDEST PUSH2 0xA78 JUMP JUMPDEST PUSH2 0xA03 JUMP JUMPDEST PUSH2 0x97F JUMP JUMPDEST PUSH2 0x92E JUMP JUMPDEST PUSH2 0x654 JUMP JUMPDEST PUSH2 0x3AA JUMP JUMPDEST PUSH2 0x1B4 JUMP JUMPDEST PUSH2 0x150 JUMP JUMPDEST SWAP1 PUSH1 0x20 DUP1 DUP4 MLOAD SWAP3 DUP4 DUP2 MSTORE ADD SWAP3 ADD SWAP1 PUSH1 0x0 JUMPDEST DUP2 DUP2 LT PUSH2 0x13A JUMPI POP POP POP SWAP1 JUMP JUMPDEST DUP3 MLOAD DUP5 MSTORE PUSH1 0x20 SWAP4 DUP5 ADD SWAP4 SWAP1 SWAP3 ADD SWAP2 PUSH1 0x1 ADD PUSH2 0x12D JUMP JUMPDEST CALLVALUE PUSH2 0x1AF JUMPI PUSH1 0x20 CALLDATASIZE PUSH1 0x3 NOT ADD SLT PUSH2 0x1AF JUMPI PUSH2 0x1A0 PUSH1 0x4 CALLDATALOAD PUSH1 0x0 SWAP1 DUP2 MSTORE PUSH1 0x1 PUSH1 0x20 DUP2 SWAP1 MSTORE PUSH1 0x40 SWAP1 SWAP2 KECCAK256 SWAP1 DUP2 ADD SLOAD PUSH1 0x2 DUP3 ADD SLOAD SWAP2 PUSH2 0x18B SWAP1 PUSH2 0x11B6 JUMP JUMPDEST SWAP2 PUSH1 0x40 MLOAD SWAP4 DUP5 SWAP4 PUSH1 0x60 DUP6 MSTORE PUSH1 0x60 DUP6 ADD SWAP1 PUSH2 0x11C JUMP JUMPDEST SWAP2 PUSH1 0x20 DUP5 ADD MSTORE PUSH1 0x40 DUP4 ADD MSTORE SUB SWAP1 RETURN JUMPDEST PUSH1 0x0 DUP1 REVERT JUMPDEST CALLVALUE PUSH2 0x1AF JUMPI PUSH1 0x60 CALLDATASIZE PUSH1 0x3 NOT ADD SLT PUSH2 0x1AF JUMPI PUSH1 0x4 CALLDATALOAD PUSH1 0x24 CALLDATALOAD PUSH1 0x44 CALLDATALOAD SWAP2 PUSH2 0x1E5 PUSH1 0x1 PUSH1 0xFF PUSH1 0x6 SLOAD PUSH1 0x8 SHR AND ISZERO ISZERO EQ PUSH2 0x1201 JUMP JUMPDEST ADDRESS CALLER EQ DUP1 ISZERO PUSH2 0x37A JUMPI JUMPDEST PUSH2 0x1F8 SWAP1 PUSH2 0x1269 JUMP JUMPDEST DUP1 PUSH1 0x2 PUSH2 0x20F DUP3 PUSH1 0x0 MSTORE PUSH1 0x1 PUSH1 0x20 MSTORE PUSH1 0x40 PUSH1 0x0 KECCAK256 SWAP1 JUMP JUMPDEST ADD SLOAD SUB PUSH2 0x318 JUMPI PUSH2 0x232 PUSH2 0x22D DUP3 PUSH1 0x0 MSTORE PUSH1 0x1 PUSH1 0x20 MSTORE PUSH1 0x40 PUSH1 0x0 KECCAK256 SWAP1 JUMP JUMPDEST PUSH2 0x11B6 JUMP JUMPDEST SWAP1 PUSH1 0x0 JUMPDEST DUP3 MLOAD DUP2 LT ISZERO PUSH2 0x2A7 JUMPI DUP4 PUSH2 0x24A DUP3 DUP6 PUSH2 0x1391 JUMP JUMPDEST MLOAD EQ PUSH2 0x258 JUMPI PUSH1 0x1 ADD PUSH2 0x236 JUMP JUMPDEST PUSH1 0x40 MLOAD PUSH3 0x461BCD PUSH1 0xE5 SHL DUP2 MSTORE PUSH1 0x20 PUSH1 0x4 DUP3 ADD MSTORE PUSH1 0x21 PUSH1 0x24 DUP3 ADD MSTORE PUSH32 0x436F6E666C6963743A204B657920616C72656164792068617320707572706F73 PUSH1 0x44 DUP3 ADD MSTORE PUSH1 0x65 PUSH1 0xF8 SHL PUSH1 0x64 DUP3 ADD MSTORE PUSH1 0x84 SWAP1 REVERT JUMPDEST POP SWAP3 SWAP2 SWAP1 POP PUSH2 0x2C9 DUP2 PUSH2 0x2C4 DUP6 PUSH1 0x0 MSTORE PUSH1 0x1 PUSH1 0x20 MSTORE PUSH1 0x40 PUSH1 0x0 KECCAK256 SWAP1 JUMP JUMPDEST PUSH2 0x13C2 JUMP JUMPDEST PUSH2 0x2E1 DUP4 PUSH2 0x2C4 DUP4 PUSH1 0x0 MSTORE PUSH1 0x2 PUSH1 0x20 MSTORE PUSH1 0x40 PUSH1 0x0 KECCAK256 SWAP1 JUMP JUMPDEST PUSH1 0x40 MLOAD SWAP3 PUSH32 0x480000BB1EDAD8CA1470381CC334B1917FBD51C6531F3A623EA8E0EC7E38A6E9 PUSH1 0x0 DUP1 LOG4 PUSH1 0x1 DUP2 MSTORE DUP1 PUSH1 0x20 DUP2 ADD JUMPDEST SUB SWAP1 RETURN JUMPDEST SWAP2 SWAP1 DUP3 PUSH1 0x2 PUSH2 0x331 DUP3 PUSH1 0x0 MSTORE PUSH1 0x1 PUSH1 0x20 MSTORE PUSH1 0x40 PUSH1 0x0 KECCAK256 SWAP1 JUMP JUMPDEST ADD SSTORE PUSH2 0x35C PUSH2 0x340 PUSH1 0x20 PUSH2 0xB4B JUMP JUMPDEST DUP3 DUP2 MSTORE PUSH2 0x357 DUP6 PUSH1 0x0 MSTORE PUSH1 0x1 PUSH1 0x20 MSTORE PUSH1 0x40 PUSH1 0x0 KECCAK256 SWAP1 JUMP JUMPDEST PUSH2 0x1343 JUMP JUMPDEST DUP2 PUSH1 0x1 PUSH2 0x373 DUP6 PUSH1 0x0 MSTORE PUSH1 0x1 PUSH1 0x20 MSTORE PUSH1 0x40 PUSH1 0x0 KECCAK256 SWAP1 JUMP JUMPDEST ADD SSTORE PUSH2 0x2C9 JUMP JUMPDEST POP PUSH2 0x1F8 PUSH2 0x3A3 PUSH1 0x40 MLOAD PUSH1 0x20 DUP2 ADD SWAP1 CALLER DUP3 MSTORE PUSH1 0x20 DUP2 MSTORE PUSH2 0x39B PUSH1 0x40 DUP3 PUSH2 0xB29 JUMP JUMPDEST MLOAD SWAP1 KECCAK256 PUSH2 0x2203 JUMP JUMPDEST SWAP1 POP PUSH2 0x1EF JUMP JUMPDEST CALLVALUE PUSH2 0x1AF JUMPI PUSH1 0x20 CALLDATASIZE PUSH1 0x3 NOT ADD SLT PUSH2 0x1AF JUMPI PUSH1 0x4 CALLDATALOAD PUSH2 0x3D4 PUSH1 0x1 PUSH1 0xFF PUSH1 0x6 SLOAD PUSH1 0x8 SHR AND ISZERO ISZERO EQ PUSH2 0x1201 JUMP JUMPDEST ADDRESS CALLER EQ DUP1 ISZERO PUSH2 0x624 JUMPI JUMPDEST PUSH2 0x3E7 SWAP1 PUSH2 0x13FB JUMP JUMPDEST PUSH2 0x3FB DUP2 PUSH1 0x0 MSTORE PUSH1 0x4 PUSH1 0x20 MSTORE PUSH1 0x40 PUSH1 0x0 KECCAK256 SWAP1 JUMP JUMPDEST SLOAD DUP1 ISZERO PUSH2 0x5CB JUMPI PUSH1 0x0 SWAP2 PUSH2 0x419 DUP3 PUSH1 0x0 MSTORE PUSH1 0x5 PUSH1 0x20 MSTORE PUSH1 0x40 PUSH1 0x0 KECCAK256 SWAP1 JUMP JUMPDEST SLOAD SWAP3 JUMPDEST DUP2 PUSH2 0x447 PUSH2 0x43D DUP4 PUSH2 0x438 DUP8 PUSH1 0x0 MSTORE PUSH1 0x5 PUSH1 0x20 MSTORE PUSH1 0x40 PUSH1 0x0 KECCAK256 SWAP1 JUMP JUMPDEST PUSH2 0x13AA JUMP JUMPDEST SWAP1 SLOAD SWAP1 PUSH1 0x3 SHL SHR SWAP1 JUMP JUMPDEST EQ PUSH2 0x5B1 JUMPI PUSH2 0x455 SWAP1 PUSH2 0x1462 JUMP JUMPDEST DUP4 DUP2 LT PUSH2 0x41C JUMPI SWAP2 PUSH2 0x4B0 PUSH2 0x5A0 SWAP4 PUSH2 0x4AA PUSH2 0x495 PUSH2 0x43D PUSH2 0x5A5 SWAP9 JUMPDEST PUSH2 0x48F PUSH2 0x489 DUP9 PUSH1 0x0 MSTORE PUSH1 0x5 PUSH1 0x20 MSTORE PUSH1 0x40 PUSH1 0x0 KECCAK256 SWAP1 JUMP JUMPDEST SWAP2 PUSH2 0x1476 JUMP JUMPDEST SWAP1 PUSH2 0x13AA JUMP JUMPDEST SWAP2 PUSH2 0x438 DUP6 PUSH1 0x0 MSTORE PUSH1 0x5 PUSH1 0x20 MSTORE PUSH1 0x40 PUSH1 0x0 KECCAK256 SWAP1 JUMP JUMPDEST SWAP1 PUSH2 0x12E4 JUMP JUMPDEST PUSH2 0x4CC PUSH2 0x4C7 DUP3 PUSH1 0x0 MSTORE PUSH1 0x5 PUSH1 0x20 MSTORE PUSH1 0x40 PUSH1 0x0 KECCAK256 SWAP1 JUMP JUMPDEST PUSH2 0x149B JUMP JUMPDEST PUSH1 0x1 PUSH2 0x4E2 DUP4 PUSH1 0x0 MSTORE PUSH1 0x4 PUSH1 0x20 MSTORE PUSH1 0x40 PUSH1 0x0 KECCAK256 SWAP1 JUMP JUMPDEST ADD SLOAD SWAP1 DUP3 PUSH32 0x3CF57863A89432C61C4A27073C6EE39E8A764BFF5A05AEBFBCDCDC80B2E6130A PUSH2 0x52E PUSH1 0x2 PUSH2 0x520 DUP5 PUSH1 0x0 MSTORE PUSH1 0x4 PUSH1 0x20 MSTORE PUSH1 0x40 PUSH1 0x0 KECCAK256 SWAP1 JUMP JUMPDEST ADD SLOAD PUSH1 0x1 PUSH1 0x1 PUSH1 0xA0 SHL SUB AND SWAP1 JUMP JUMPDEST PUSH1 0x3 PUSH2 0x544 DUP5 PUSH1 0x0 MSTORE PUSH1 0x4 PUSH1 0x20 MSTORE PUSH1 0x40 PUSH1 0x0 KECCAK256 SWAP1 JUMP JUMPDEST ADD SWAP1 PUSH2 0x58D PUSH1 0x4 PUSH2 0x55F DUP7 PUSH1 0x0 MSTORE PUSH1 0x4 PUSH1 0x20 MSTORE PUSH1 0x40 PUSH1 0x0 KECCAK256 SWAP1 JUMP JUMPDEST ADD PUSH1 0x5 PUSH2 0x576 DUP8 PUSH1 0x0 MSTORE PUSH1 0x4 PUSH1 0x20 MSTORE PUSH1 0x40 PUSH1 0x0 KECCAK256 SWAP1 JUMP JUMPDEST ADD SWAP1 PUSH1 0x40 MLOAD SWAP5 DUP6 SWAP5 PUSH1 0x1 DUP1 PUSH1 0xA0 SHL SUB AND SWAP10 DUP6 PUSH2 0x158E JUMP JUMPDEST SUB SWAP1 LOG4 PUSH1 0x0 MSTORE PUSH1 0x4 PUSH1 0x20 MSTORE PUSH1 0x40 PUSH1 0x0 KECCAK256 SWAP1 JUMP JUMPDEST PUSH2 0x1623 JUMP JUMPDEST PUSH1 0x40 MLOAD PUSH1 0x1 DUP2 MSTORE PUSH1 0x20 SWAP1 RETURN JUMPDEST SWAP2 PUSH2 0x4B0 PUSH2 0x5A0 SWAP4 PUSH2 0x4AA PUSH2 0x495 PUSH2 0x43D PUSH2 0x5A5 SWAP9 PUSH2 0x472 JUMP JUMPDEST PUSH1 0x40 MLOAD PUSH3 0x461BCD PUSH1 0xE5 SHL DUP2 MSTORE PUSH1 0x20 PUSH1 0x4 DUP3 ADD MSTORE PUSH1 0x2B PUSH1 0x24 DUP3 ADD MSTORE PUSH32 0x4E6F6E4578697374696E673A205468657265206973206E6F20636C61696D2077 PUSH1 0x44 DUP3 ADD MSTORE PUSH11 0x1A5D1A081D1A1A5CC81251 PUSH1 0xAA SHL PUSH1 0x64 DUP3 ADD MSTORE PUSH1 0x84 SWAP1 REVERT JUMPDEST POP PUSH2 0x3E7 PUSH2 0x64D PUSH1 0x40 MLOAD PUSH1 0x20 DUP2 ADD SWAP1 CALLER DUP3 MSTORE PUSH1 0x20 DUP2 MSTORE PUSH2 0x645 PUSH1 0x40 DUP3 PUSH2 0xB29 JUMP JUMPDEST MLOAD SWAP1 KECCAK256 PUSH2 0x228A JUMP JUMPDEST SWAP1 POP PUSH2 0x3DE JUMP JUMPDEST CALLVALUE PUSH2 0x1AF JUMPI PUSH1 0x40 CALLDATASIZE PUSH1 0x3 NOT ADD SLT PUSH2 0x1AF JUMPI PUSH1 0x4 CALLDATALOAD PUSH1 0x24 CALLDATALOAD PUSH2 0x681 PUSH1 0x1 PUSH1 0xFF PUSH1 0x6 SLOAD PUSH1 0x8 SHR AND ISZERO ISZERO EQ PUSH2 0x1201 JUMP JUMPDEST ADDRESS CALLER EQ DUP1 ISZERO PUSH2 0x8C5 JUMPI JUMPDEST PUSH2 0x694 SWAP1 PUSH2 0x1269 JUMP JUMPDEST PUSH2 0x6B6 DUP3 PUSH1 0x2 PUSH2 0x6AE DUP3 PUSH1 0x0 MSTORE PUSH1 0x1 PUSH1 0x20 MSTORE PUSH1 0x40 PUSH1 0x0 KECCAK256 SWAP1 JUMP JUMPDEST ADD SLOAD EQ PUSH2 0x165B JUMP JUMPDEST PUSH2 0x6CD PUSH2 0x22D DUP4 PUSH1 0x0 MSTORE PUSH1 0x1 PUSH1 0x20 MSTORE PUSH1 0x40 PUSH1 0x0 KECCAK256 SWAP1 JUMP JUMPDEST SWAP1 PUSH1 0x0 JUMPDEST DUP2 PUSH2 0x6DC DUP3 DUP6 PUSH2 0x1391 JUMP JUMPDEST MLOAD EQ PUSH2 0x752 JUMPI PUSH2 0x6EB SWAP1 PUSH2 0x1462 JUMP JUMPDEST SWAP1 DUP3 MLOAD DUP3 EQ PUSH2 0x6FA JUMPI SWAP1 PUSH2 0x6D1 JUMP JUMPDEST PUSH1 0x40 MLOAD PUSH3 0x461BCD PUSH1 0xE5 SHL DUP2 MSTORE PUSH1 0x20 PUSH1 0x4 DUP3 ADD MSTORE PUSH1 0x2A PUSH1 0x24 DUP3 ADD MSTORE PUSH32 0x4E6F6E4578697374696E673A204B657920646F65736E27742068617665207375 PUSH1 0x44 DUP3 ADD MSTORE PUSH10 0x636820707572706F7365 PUSH1 0xB0 SHL PUSH1 0x64 DUP3 ADD MSTORE PUSH1 0x84 SWAP1 REVERT JUMPDEST PUSH2 0x770 PUSH2 0x768 PUSH2 0x762 DUP6 MLOAD PUSH2 0x1476 JUMP JUMPDEST DUP6 PUSH2 0x1391 JUMP JUMPDEST MLOAD SWAP2 DUP5 PUSH2 0x1391 JUMP JUMPDEST MSTORE PUSH2 0x78E DUP3 PUSH2 0x789 DUP6 PUSH1 0x0 MSTORE PUSH1 0x1 PUSH1 0x20 MSTORE PUSH1 0x40 PUSH1 0x0 KECCAK256 SWAP1 JUMP JUMPDEST PUSH2 0x16B1 JUMP JUMPDEST PUSH2 0x7A5 PUSH2 0x4C7 DUP5 PUSH1 0x0 MSTORE PUSH1 0x1 PUSH1 0x20 MSTORE PUSH1 0x40 PUSH1 0x0 KECCAK256 SWAP1 JUMP JUMPDEST PUSH1 0x0 DUP2 DUP2 MSTORE PUSH1 0x2 PUSH1 0x20 MSTORE PUSH1 0x40 DUP2 KECCAK256 SLOAD SWAP1 JUMPDEST DUP5 PUSH2 0x7D2 PUSH2 0x43D DUP4 PUSH2 0x438 DUP8 PUSH1 0x0 MSTORE PUSH1 0x2 PUSH1 0x20 MSTORE PUSH1 0x40 PUSH1 0x0 KECCAK256 SWAP1 JUMP JUMPDEST EQ PUSH2 0x8B3 JUMPI PUSH2 0x7E0 SWAP1 PUSH2 0x1462 JUMP JUMPDEST DUP2 DUP2 LT PUSH2 0x7B6 JUMPI PUSH2 0x4AA PUSH2 0x80C PUSH2 0x43D PUSH2 0x821 SWAP5 JUMPDEST PUSH2 0x48F PUSH2 0x489 DUP9 PUSH1 0x0 MSTORE PUSH1 0x2 PUSH1 0x20 MSTORE PUSH1 0x40 PUSH1 0x0 KECCAK256 SWAP1 JUMP JUMPDEST SWAP2 PUSH2 0x438 DUP6 PUSH1 0x0 MSTORE PUSH1 0x2 PUSH1 0x20 MSTORE PUSH1 0x40 PUSH1 0x0 KECCAK256 SWAP1 JUMP JUMPDEST PUSH2 0x838 PUSH2 0x4C7 DUP3 PUSH1 0x0 MSTORE PUSH1 0x2 PUSH1 0x20 MSTORE PUSH1 0x40 PUSH1 0x0 KECCAK256 SWAP1 JUMP JUMPDEST PUSH2 0x85A PUSH1 0x1 PUSH2 0x851 DUP6 PUSH1 0x0 MSTORE PUSH1 0x1 PUSH1 0x20 MSTORE PUSH1 0x40 PUSH1 0x0 KECCAK256 SWAP1 JUMP JUMPDEST ADD SLOAD SWAP3 MLOAD PUSH2 0x1476 JUMP JUMPDEST ISZERO PUSH2 0x892 JUMPI JUMPDEST PUSH1 0x40 MLOAD SWAP3 PUSH32 0x585A4AEF50F8267A92B32412B331B20F7F8B96F2245B253B9CC50DCC621D3397 PUSH1 0x0 DUP1 LOG4 PUSH1 0x1 DUP2 MSTORE PUSH1 0x20 SWAP1 RETURN JUMPDEST PUSH2 0x8AE PUSH2 0x8A9 DUP5 PUSH1 0x0 MSTORE PUSH1 0x1 PUSH1 0x20 MSTORE PUSH1 0x40 PUSH1 0x0 KECCAK256 SWAP1 JUMP JUMPDEST PUSH2 0x172A JUMP JUMPDEST PUSH2 0x860 JUMP JUMPDEST PUSH2 0x4AA PUSH2 0x80C PUSH2 0x43D PUSH2 0x821 SWAP5 PUSH2 0x7F5 JUMP JUMPDEST POP PUSH2 0x694 PUSH2 0x8E6 PUSH1 0x40 MLOAD PUSH1 0x20 DUP2 ADD SWAP1 CALLER DUP3 MSTORE PUSH1 0x20 DUP2 MSTORE PUSH2 0x39B PUSH1 0x40 DUP3 PUSH2 0xB29 JUMP JUMPDEST SWAP1 POP PUSH2 0x68B JUMP JUMPDEST SWAP2 SWAP1 DUP3 MLOAD SWAP3 DUP4 DUP3 MSTORE PUSH1 0x0 JUMPDEST DUP5 DUP2 LT PUSH2 0x919 JUMPI POP POP DUP3 PUSH1 0x0 PUSH1 0x20 DUP1 SWAP5 SWAP6 DUP5 ADD ADD MSTORE PUSH1 0x1F DUP1 NOT SWAP2 ADD AND ADD ADD SWAP1 JUMP JUMPDEST DUP1 PUSH1 0x20 DUP1 SWAP3 DUP5 ADD ADD MLOAD DUP3 DUP3 DUP7 ADD ADD MSTORE ADD PUSH2 0x8F8 JUMP JUMPDEST CALLVALUE PUSH2 0x1AF JUMPI PUSH1 0x0 CALLDATASIZE PUSH1 0x3 NOT ADD SLT PUSH2 0x1AF JUMPI PUSH2 0x314 PUSH1 0x40 DUP1 MLOAD SWAP1 PUSH2 0x951 DUP2 DUP4 PUSH2 0xB29 JUMP JUMPDEST PUSH1 0x5 DUP3 MSTORE PUSH5 0x322E322E31 PUSH1 0xD8 SHL PUSH1 0x20 DUP4 ADD MSTORE MLOAD SWAP2 DUP3 SWAP2 PUSH1 0x20 DUP4 MSTORE PUSH1 0x20 DUP4 ADD SWAP1 PUSH2 0x8ED JUMP JUMPDEST DUP1 ISZERO ISZERO SUB PUSH2 0x1AF JUMPI JUMP JUMPDEST CALLVALUE PUSH2 0x1AF JUMPI PUSH1 0x40 CALLDATASIZE PUSH1 0x3 NOT ADD SLT PUSH2 0x1AF JUMPI PUSH1 0x20 PUSH2 0x9BF PUSH1 0x24 CALLDATALOAD PUSH1 0x4 CALLDATALOAD PUSH2 0x9A4 DUP3 PUSH2 0x975 JUMP JUMPDEST PUSH2 0x9BA PUSH1 0x1 PUSH1 0xFF PUSH1 0x6 SLOAD PUSH1 0x8 SHR AND ISZERO ISZERO EQ PUSH2 0x1201 JUMP JUMPDEST PUSH2 0x1974 JUMP JUMPDEST PUSH1 0x40 MLOAD SWAP1 ISZERO ISZERO DUP2 MSTORE RETURN JUMPDEST PUSH1 0x20 PUSH1 0x40 DUP2 DUP4 ADD SWAP3 DUP3 DUP2 MSTORE DUP5 MLOAD DUP1 SWAP5 MSTORE ADD SWAP3 ADD SWAP1 PUSH1 0x0 JUMPDEST DUP2 DUP2 LT PUSH2 0x9ED JUMPI POP POP POP SWAP1 JUMP JUMPDEST DUP3 MLOAD DUP5 MSTORE PUSH1 0x20 SWAP4 DUP5 ADD SWAP4 SWAP1 SWAP3 ADD SWAP2 PUSH1 0x1 ADD PUSH2 0x9E0 JUMP JUMPDEST CALLVALUE PUSH2 0x1AF JUMPI PUSH1 0x20 CALLDATASIZE PUSH1 0x3 NOT ADD SLT PUSH2 0x1AF JUMPI PUSH1 0x4 CALLDATALOAD PUSH1 0x0 MSTORE PUSH1 0x5 PUSH1 0x20 MSTORE PUSH1 0x40 PUSH1 0x0 KECCAK256 PUSH1 0x40 MLOAD SWAP1 DUP2 PUSH1 0x20 DUP3 SLOAD SWAP2 DUP3 DUP2 MSTORE ADD SWAP2 PUSH1 0x0 MSTORE PUSH1 0x20 PUSH1 0x0 KECCAK256 SWAP1 PUSH1 0x0 JUMPDEST DUP2 DUP2 LT PUSH2 0xA62 JUMPI PUSH2 0x314 DUP6 PUSH2 0xA56 DUP2 DUP8 SUB DUP3 PUSH2 0xB29 JUMP JUMPDEST PUSH1 0x40 MLOAD SWAP2 DUP3 SWAP2 DUP3 PUSH2 0x9C9 JUMP JUMPDEST DUP3 SLOAD DUP5 MSTORE PUSH1 0x20 SWAP1 SWAP4 ADD SWAP3 PUSH1 0x1 SWAP3 DUP4 ADD SWAP3 ADD PUSH2 0xA3F JUMP JUMPDEST CALLVALUE PUSH2 0x1AF JUMPI PUSH1 0x20 CALLDATASIZE PUSH1 0x3 NOT ADD SLT PUSH2 0x1AF JUMPI PUSH1 0x4 CALLDATALOAD PUSH1 0x0 MSTORE PUSH1 0x2 PUSH1 0x20 MSTORE PUSH1 0x40 PUSH1 0x0 KECCAK256 PUSH1 0x40 MLOAD SWAP1 DUP2 PUSH1 0x20 DUP3 SLOAD SWAP2 DUP3 DUP2 MSTORE ADD SWAP2 PUSH1 0x0 MSTORE PUSH1 0x20 PUSH1 0x0 KECCAK256 SWAP1 PUSH1 0x0 JUMPDEST DUP2 DUP2 LT PUSH2 0xACB JUMPI PUSH2 0x314 DUP6 PUSH2 0xA56 DUP2 DUP8 SUB DUP3 PUSH2 0xB29 JUMP JUMPDEST DUP3 SLOAD DUP5 MSTORE PUSH1 0x20 SWAP1 SWAP4 ADD SWAP3 PUSH1 0x1 SWAP3 DUP4 ADD SWAP3 ADD PUSH2 0xAB4 JUMP JUMPDEST PUSH1 0x1 PUSH1 0x1 PUSH1 0xA0 SHL SUB DUP2 AND SUB PUSH2 0x1AF JUMPI JUMP JUMPDEST PUSH4 0x4E487B71 PUSH1 0xE0 SHL PUSH1 0x0 MSTORE PUSH1 0x41 PUSH1 0x4 MSTORE PUSH1 0x24 PUSH1 0x0 REVERT JUMPDEST PUSH1 0x60 DUP2 ADD SWAP1 DUP2 LT PUSH8 0xFFFFFFFFFFFFFFFF DUP3 GT OR PUSH2 0xB24 JUMPI PUSH1 0x40 MSTORE JUMP JUMPDEST PUSH2 0xAF2 JUMP JUMPDEST SWAP1 PUSH1 0x1F DUP1 NOT SWAP2 ADD AND DUP2 ADD SWAP1 DUP2 LT PUSH8 0xFFFFFFFFFFFFFFFF DUP3 GT OR PUSH2 0xB24 JUMPI PUSH1 0x40 MSTORE JUMP JUMPDEST SWAP1 PUSH2 0xB59 PUSH1 0x40 MLOAD SWAP3 DUP4 PUSH2 0xB29 JUMP JUMPDEST JUMP JUMPDEST PUSH8 0xFFFFFFFFFFFFFFFF DUP2 GT PUSH2 0xB24 JUMPI PUSH1 0x1F ADD PUSH1 0x1F NOT AND PUSH1 0x20 ADD SWAP1 JUMP JUMPDEST SWAP3 SWAP2 SWAP3 PUSH2 0xB83 DUP3 PUSH2 0xB5B JUMP JUMPDEST SWAP2 PUSH2 0xB91 PUSH1 0x40 MLOAD SWAP4 DUP5 PUSH2 0xB29 JUMP JUMPDEST DUP3 SWAP5 DUP2 DUP5 MSTORE DUP2 DUP4 ADD GT PUSH2 0x1AF JUMPI DUP3 DUP2 PUSH1 0x20 SWAP4 DUP5 PUSH1 0x0 SWAP7 ADD CALLDATACOPY ADD ADD MSTORE JUMP JUMPDEST SWAP1 DUP1 PUSH1 0x1F DUP4 ADD SLT ISZERO PUSH2 0x1AF JUMPI DUP2 PUSH1 0x20 PUSH2 0xBC9 SWAP4 CALLDATALOAD SWAP2 ADD PUSH2 0xB77 JUMP JUMPDEST SWAP1 JUMP JUMPDEST CALLVALUE PUSH2 0x1AF JUMPI PUSH1 0xC0 CALLDATASIZE PUSH1 0x3 NOT ADD SLT PUSH2 0x1AF JUMPI PUSH1 0x24 CALLDATALOAD PUSH1 0x44 CALLDATALOAD PUSH1 0x4 CALLDATALOAD PUSH2 0xBEF DUP3 PUSH2 0xAE1 JUMP JUMPDEST PUSH1 0x64 CALLDATALOAD PUSH8 0xFFFFFFFFFFFFFFFF DUP2 GT PUSH2 0x1AF JUMPI PUSH2 0xC0F SWAP1 CALLDATASIZE SWAP1 PUSH1 0x4 ADD PUSH2 0xBAE JUMP JUMPDEST PUSH1 0x84 CALLDATALOAD PUSH8 0xFFFFFFFFFFFFFFFF DUP2 GT PUSH2 0x1AF JUMPI PUSH2 0xC2F SWAP1 CALLDATASIZE SWAP1 PUSH1 0x4 ADD PUSH2 0xBAE JUMP JUMPDEST SWAP1 PUSH1 0xA4 CALLDATALOAD SWAP4 PUSH8 0xFFFFFFFFFFFFFFFF DUP6 GT PUSH2 0x1AF JUMPI CALLDATASIZE PUSH1 0x23 DUP7 ADD SLT ISZERO PUSH2 0x1AF JUMPI PUSH2 0x314 SWAP6 PUSH2 0xC69 PUSH2 0xC6F SWAP7 CALLDATASIZE SWAP1 PUSH1 0x24 DUP2 PUSH1 0x4 ADD CALLDATALOAD SWAP2 ADD PUSH2 0xB77 JUMP JUMPDEST SWAP5 PUSH2 0x1C59 JUMP JUMPDEST PUSH1 0x40 MLOAD SWAP1 DUP2 MSTORE SWAP1 DUP2 SWAP1 PUSH1 0x20 DUP3 ADD SWAP1 JUMP JUMPDEST PUSH1 0x60 CALLDATASIZE PUSH1 0x3 NOT ADD SLT PUSH2 0x1AF JUMPI PUSH1 0x4 CALLDATALOAD PUSH2 0xC97 DUP2 PUSH2 0xAE1 JUMP JUMPDEST PUSH1 0x24 CALLDATALOAD SWAP1 PUSH1 0x44 CALLDATALOAD PUSH8 0xFFFFFFFFFFFFFFFF DUP2 GT PUSH2 0x1AF JUMPI PUSH2 0x314 SWAP3 PUSH32 0x8AFCFABCB00E47A53A8FC3E9F23FF47EE1926194BB1350DD007C50B412A6CEE8 SWAP3 PUSH2 0xCE4 PUSH2 0xD9A SWAP4 CALLDATASIZE SWAP1 PUSH1 0x4 ADD PUSH2 0xBAE JUMP JUMPDEST SWAP1 PUSH2 0xCFB PUSH1 0x1 PUSH1 0xFF PUSH1 0x6 SLOAD PUSH1 0x8 SHR AND ISZERO ISZERO EQ PUSH2 0x1201 JUMP JUMPDEST PUSH1 0x0 SLOAD SWAP5 DUP2 PUSH2 0xD38 DUP8 SWAP4 PUSH2 0xD19 DUP6 PUSH1 0x0 MSTORE PUSH1 0x3 PUSH1 0x20 MSTORE PUSH1 0x40 PUSH1 0x0 KECCAK256 SWAP1 JUMP JUMPDEST DUP1 SLOAD PUSH1 0x1 PUSH1 0x1 PUSH1 0xA0 SHL SUB NOT AND PUSH1 0x1 PUSH1 0x1 PUSH1 0xA0 SHL SUB SWAP1 SWAP3 AND SWAP2 SWAP1 SWAP2 OR SWAP1 SSTORE JUMP JUMPDEST DUP5 PUSH1 0x1 PUSH2 0xD4F DUP6 PUSH1 0x0 MSTORE PUSH1 0x3 PUSH1 0x20 MSTORE PUSH1 0x40 PUSH1 0x0 KECCAK256 SWAP1 JUMP JUMPDEST ADD SSTORE PUSH2 0xD71 DUP5 PUSH1 0x2 PUSH2 0xD6B DUP7 PUSH1 0x0 MSTORE PUSH1 0x3 PUSH1 0x20 MSTORE PUSH1 0x40 PUSH1 0x0 KECCAK256 SWAP1 JUMP JUMPDEST ADD PUSH2 0x1FA9 JUMP JUMPDEST PUSH2 0xD7C PUSH1 0x0 SLOAD PUSH2 0x1462 JUMP JUMPDEST PUSH1 0x0 SSTORE PUSH1 0x40 MLOAD PUSH1 0x1 PUSH1 0x1 PUSH1 0xA0 SHL SUB SWAP2 SWAP1 SWAP2 AND SWAP6 DUP7 SWAP5 DUP3 SWAP2 SWAP1 DUP3 PUSH2 0x20A5 JUMP JUMPDEST SUB SWAP1 LOG4 PUSH1 0x40 DUP1 MLOAD CALLER PUSH1 0x20 DUP3 ADD SWAP1 DUP2 MSTORE PUSH2 0xDC7 SWAP3 SWAP1 SWAP2 SWAP1 PUSH2 0x39B SWAP1 DUP3 SWAP1 DUP2 ADD JUMPDEST SUB PUSH1 0x1F NOT DUP2 ADD DUP4 MSTORE DUP3 PUSH2 0xB29 JUMP JUMPDEST ISZERO PUSH2 0xDE7 JUMPI POP PUSH2 0xDD6 DUP2 PUSH2 0x175E JUMP JUMPDEST POP PUSH1 0x40 MLOAD SWAP1 DUP2 MSTORE SWAP1 DUP2 SWAP1 PUSH1 0x20 DUP3 ADD SWAP1 JUMP JUMPDEST ADDRESS EQ ISZERO DUP1 PUSH2 0xE04 JUMPI JUMPDEST ISZERO PUSH2 0xC6F JUMPI PUSH2 0xDFE DUP2 PUSH2 0x175E JUMP JUMPDEST POP PUSH2 0xC6F JUMP JUMPDEST POP PUSH1 0x40 DUP1 MLOAD CALLER PUSH1 0x20 DUP3 ADD SWAP1 DUP2 MSTORE PUSH2 0xE2D SWAP3 SWAP1 SWAP2 SWAP1 PUSH2 0xE25 SWAP1 DUP3 SWAP1 DUP2 ADD PUSH2 0xDB9 JUMP JUMPDEST MLOAD SWAP1 KECCAK256 PUSH2 0x2305 JUMP JUMPDEST PUSH2 0xDF0 JUMP JUMPDEST CALLVALUE PUSH2 0x1AF JUMPI PUSH1 0x80 CALLDATASIZE PUSH1 0x3 NOT ADD SLT PUSH2 0x1AF JUMPI PUSH1 0x4 CALLDATALOAD PUSH2 0xE4F DUP2 PUSH2 0xAE1 JUMP JUMPDEST PUSH1 0x24 CALLDATALOAD SWAP1 PUSH1 0x44 CALLDATALOAD PUSH8 0xFFFFFFFFFFFFFFFF DUP2 GT PUSH2 0x1AF JUMPI PUSH2 0xE73 SWAP1 CALLDATASIZE SWAP1 PUSH1 0x4 ADD PUSH2 0xBAE JUMP JUMPDEST SWAP1 PUSH1 0x64 CALLDATALOAD SWAP2 PUSH8 0xFFFFFFFFFFFFFFFF DUP4 GT PUSH2 0x1AF JUMPI PUSH1 0x20 SWAP4 PUSH2 0xE9B PUSH2 0x9BF SWAP5 CALLDATASIZE SWAP1 PUSH1 0x4 ADD PUSH2 0xBAE JUMP JUMPDEST SWAP3 PUSH2 0x20B6 JUMP JUMPDEST CALLVALUE PUSH2 0x1AF JUMPI PUSH1 0x40 CALLDATASIZE PUSH1 0x3 NOT ADD SLT PUSH2 0x1AF JUMPI PUSH1 0x4 CALLDATALOAD PUSH8 0xFFFFFFFFFFFFFFFF DUP2 GT PUSH2 0x1AF JUMPI PUSH2 0xEE0 PUSH2 0xED7 PUSH1 0x20 SWAP3 CALLDATASIZE SWAP1 PUSH1 0x4 ADD PUSH2 0xBAE JUMP JUMPDEST PUSH1 0x24 CALLDATALOAD SWAP1 PUSH2 0x216D JUMP JUMPDEST PUSH1 0x40 MLOAD PUSH1 0x1 PUSH1 0x1 PUSH1 0xA0 SHL SUB SWAP1 SWAP2 AND DUP2 MSTORE RETURN JUMPDEST CALLVALUE PUSH2 0x1AF JUMPI PUSH1 0x20 CALLDATASIZE PUSH1 0x3 NOT ADD SLT PUSH2 0x1AF JUMPI PUSH1 0x4 CALLDATALOAD PUSH2 0xF0F DUP2 PUSH2 0xAE1 JUMP JUMPDEST PUSH1 0x1 PUSH1 0x1 PUSH1 0xA0 SHL SUB DUP2 AND ISZERO PUSH2 0x104E JUMPI PUSH1 0x6 SLOAD PUSH1 0x1 SWAP2 DUP3 SWAP2 PUSH1 0xFF AND ISZERO DUP1 ISZERO PUSH2 0x1045 JUMPI JUMPDEST PUSH2 0xF3A SWAP1 PUSH2 0x2415 JUMP JUMPDEST PUSH2 0xF4C PUSH1 0x1 PUSH1 0xFF NOT PUSH1 0x6 SLOAD AND OR PUSH1 0x6 SSTORE JUMP JUMPDEST PUSH2 0xF60 PUSH2 0x100 PUSH2 0xFF00 NOT PUSH1 0x6 SLOAD AND OR PUSH1 0x6 SSTORE JUMP JUMPDEST PUSH1 0x40 DUP1 MLOAD PUSH1 0x1 PUSH1 0x1 PUSH1 0xA0 SHL SUB SWAP1 SWAP3 AND PUSH1 0x20 DUP4 ADD SWAP1 DUP2 MSTORE SWAP2 SWAP1 PUSH2 0xF85 SWAP1 DUP3 SWAP1 DUP2 ADD PUSH2 0xDB9 JUMP JUMPDEST MLOAD SWAP1 KECCAK256 DUP1 PUSH1 0x2 PUSH2 0xF9F DUP3 PUSH1 0x0 MSTORE PUSH1 0x1 PUSH1 0x20 MSTORE PUSH1 0x40 PUSH1 0x0 KECCAK256 SWAP1 JUMP JUMPDEST ADD SSTORE PUSH2 0xFCB PUSH2 0xFAE PUSH1 0x20 PUSH2 0xB4B JUMP JUMPDEST PUSH1 0x1 DUP2 MSTORE PUSH2 0xFC6 DUP4 PUSH1 0x0 MSTORE PUSH1 0x1 PUSH1 0x20 MSTORE PUSH1 0x40 PUSH1 0x0 KECCAK256 SWAP1 JUMP JUMPDEST PUSH2 0x2461 JUMP JUMPDEST PUSH2 0xFEA DUP3 PUSH2 0xFE3 DUP4 PUSH1 0x0 MSTORE PUSH1 0x1 PUSH1 0x20 MSTORE PUSH1 0x40 PUSH1 0x0 KECCAK256 SWAP1 JUMP JUMPDEST ADD PUSH1 0x1 SWAP1 SSTORE JUMP JUMPDEST PUSH1 0x1 PUSH1 0x0 MSTORE PUSH1 0x2 PUSH1 0x20 MSTORE PUSH2 0x101E DUP2 PUSH32 0xE90B7BCEB6E7DF5418FB78D8EE546E97C83A08BBCCC01A0644D599CCD2A7C2E0 PUSH2 0x13C2 JUMP JUMPDEST PUSH32 0x480000BB1EDAD8CA1470381CC334B1917FBD51C6531F3A623EA8E0EC7E38A6E9 PUSH1 0x0 DUP1 LOG4 STOP JUMPDEST POP ADDRESS EXTCODESIZE ISZERO PUSH2 0xF31 JUMP JUMPDEST PUSH1 0x40 MLOAD PUSH3 0x461BCD PUSH1 0xE5 SHL DUP2 MSTORE PUSH1 0x20 PUSH1 0x4 DUP3 ADD MSTORE PUSH1 0x1F PUSH1 0x24 DUP3 ADD MSTORE PUSH32 0x696E76616C696420617267756D656E74202D207A65726F206164647265737300 PUSH1 0x44 DUP3 ADD MSTORE PUSH1 0x64 SWAP1 REVERT JUMPDEST SWAP5 SWAP2 SWAP4 PUSH2 0x10D6 SWAP4 PUSH2 0xBC9 SWAP8 SWAP6 PUSH2 0x10C8 SWAP4 DUP9 MSTORE PUSH1 0x20 DUP9 ADD MSTORE PUSH1 0x1 DUP1 PUSH1 0xA0 SHL SUB AND PUSH1 0x40 DUP8 ADD MSTORE PUSH1 0xC0 PUSH1 0x60 DUP8 ADD MSTORE PUSH1 0xC0 DUP7 ADD SWAP1 PUSH2 0x8ED JUMP JUMPDEST SWAP1 DUP5 DUP3 SUB PUSH1 0x80 DUP7 ADD MSTORE PUSH2 0x8ED JUMP JUMPDEST SWAP2 PUSH1 0xA0 DUP2 DUP5 SUB SWAP2 ADD MSTORE PUSH2 0x8ED JUMP JUMPDEST CALLVALUE PUSH2 0x1AF JUMPI PUSH1 0x20 CALLDATASIZE PUSH1 0x3 NOT ADD SLT PUSH2 0x1AF JUMPI PUSH1 0x4 DUP1 CALLDATALOAD PUSH1 0x0 SWAP1 DUP2 MSTORE PUSH1 0x20 DUP3 SWAP1 MSTORE PUSH1 0x40 SWAP1 KECCAK256 DUP1 SLOAD PUSH1 0x1 DUP3 ADD SLOAD PUSH1 0x2 DUP4 ADD SLOAD SWAP1 SWAP4 SWAP2 SWAP3 PUSH2 0x314 SWAP3 PUSH1 0x1 PUSH1 0x1 PUSH1 0xA0 SHL SUB SWAP1 SWAP3 AND SWAP2 PUSH1 0x5 DUP3 ADD SWAP2 SWAP1 DUP2 ADD SWAP1 PUSH2 0x1148 SWAP1 PUSH2 0x1142 SWAP1 DUP2 SWAP1 PUSH1 0x3 ADD PUSH2 0x21E8 JUMP JUMPDEST SWAP3 PUSH2 0x21E8 JUMP JUMPDEST SWAP3 PUSH1 0x40 MLOAD SWAP7 DUP8 SWAP7 DUP8 PUSH2 0x1093 JUMP JUMPDEST CALLVALUE PUSH2 0x1AF JUMPI PUSH1 0x40 CALLDATASIZE PUSH1 0x3 NOT ADD SLT PUSH2 0x1AF JUMPI PUSH1 0x20 PUSH2 0x9BF PUSH1 0x24 CALLDATALOAD PUSH1 0x4 CALLDATALOAD PUSH2 0x2380 JUMP JUMPDEST CALLVALUE PUSH2 0x1AF JUMPI PUSH1 0x20 CALLDATASIZE PUSH1 0x3 NOT ADD SLT PUSH2 0x1AF JUMPI PUSH1 0x4 CALLDATALOAD PUSH1 0x0 MSTORE PUSH1 0x1 PUSH1 0x20 MSTORE PUSH2 0x314 PUSH2 0x11A2 PUSH1 0x40 PUSH1 0x0 KECCAK256 PUSH2 0x11B6 JUMP JUMPDEST PUSH1 0x40 MLOAD SWAP2 DUP3 SWAP2 PUSH1 0x20 DUP4 MSTORE PUSH1 0x20 DUP4 ADD SWAP1 PUSH2 0x11C JUMP JUMPDEST SWAP1 PUSH1 0x40 MLOAD SWAP2 DUP3 DUP2 SLOAD SWAP2 DUP3 DUP3 MSTORE PUSH1 0x20 DUP3 ADD SWAP1 PUSH1 0x0 MSTORE PUSH1 0x20 PUSH1 0x0 KECCAK256 SWAP3 PUSH1 0x0 JUMPDEST DUP2 DUP2 LT PUSH2 0x11E8 JUMPI POP POP PUSH2 0xB59 SWAP3 POP SUB DUP4 PUSH2 0xB29 JUMP JUMPDEST DUP5 SLOAD DUP4 MSTORE PUSH1 0x1 SWAP5 DUP6 ADD SWAP5 DUP8 SWAP5 POP PUSH1 0x20 SWAP1 SWAP4 ADD SWAP3 ADD PUSH2 0x11D3 JUMP JUMPDEST ISZERO PUSH2 0x1208 JUMPI JUMP JUMPDEST PUSH1 0x40 MLOAD PUSH3 0x461BCD PUSH1 0xE5 SHL DUP2 MSTORE PUSH1 0x20 PUSH1 0x4 DUP3 ADD MSTORE PUSH1 0x33 PUSH1 0x24 DUP3 ADD MSTORE PUSH32 0x496E746572616374696E67207769746820746865206C69627261727920636F6E PUSH1 0x44 DUP3 ADD MSTORE PUSH19 0x3A3930B1BA1034B9903337B93134B23232B717 PUSH1 0x69 SHL PUSH1 0x64 DUP3 ADD MSTORE PUSH1 0x84 SWAP1 REVERT JUMPDEST ISZERO PUSH2 0x1270 JUMPI JUMP JUMPDEST PUSH1 0x40 MLOAD PUSH3 0x461BCD PUSH1 0xE5 SHL DUP2 MSTORE PUSH1 0x20 PUSH1 0x4 DUP3 ADD MSTORE PUSH1 0x30 PUSH1 0x24 DUP3 ADD MSTORE PUSH32 0x5065726D697373696F6E733A2053656E64657220646F6573206E6F7420686176 PUSH1 0x44 DUP3 ADD MSTORE PUSH16 0x65206D616E6167656D656E74206B6579 PUSH1 0x80 SHL PUSH1 0x64 DUP3 ADD MSTORE PUSH1 0x84 SWAP1 REVERT JUMPDEST PUSH4 0x4E487B71 PUSH1 0xE0 SHL PUSH1 0x0 MSTORE PUSH1 0x11 PUSH1 0x4 MSTORE PUSH1 0x24 PUSH1 0x0 REVERT JUMPDEST SWAP2 PUSH2 0x12FE SWAP2 DUP4 SLOAD SWAP1 PUSH1 0x3 SHL SWAP2 DUP3 SHL SWAP2 PUSH1 0x0 NOT SWAP1 SHL NOT AND OR SWAP1 JUMP JUMPDEST SWAP1 SSTORE JUMP JUMPDEST DUP2 DUP2 LT PUSH2 0x130D JUMPI POP POP JUMP JUMPDEST PUSH1 0x0 DUP2 SSTORE PUSH1 0x1 ADD PUSH2 0x1302 JUMP JUMPDEST DUP1 SLOAD PUSH1 0x1 DUP3 SSTORE DUP1 PUSH1 0x1 LT PUSH2 0x132B JUMPI POP POP JUMP JUMPDEST PUSH2 0xB59 SWAP2 PUSH1 0x0 MSTORE PUSH1 0x1 PUSH1 0x20 PUSH1 0x0 KECCAK256 SWAP2 DUP3 ADD SWAP2 ADD PUSH2 0x1302 JUMP JUMPDEST SWAP1 PUSH2 0x134D DUP3 PUSH2 0x1319 JUMP JUMPDEST SWAP1 PUSH1 0x0 MSTORE PUSH1 0x20 PUSH1 0x0 KECCAK256 SWAP1 PUSH1 0x0 JUMPDEST PUSH1 0x1 DUP2 LT PUSH2 0x1367 JUMPI POP POP POP JUMP JUMPDEST PUSH1 0x1 SWAP1 PUSH1 0x20 DUP4 MLOAD SWAP4 ADD SWAP3 DUP2 DUP6 ADD SSTORE ADD PUSH2 0x135A JUMP JUMPDEST PUSH4 0x4E487B71 PUSH1 0xE0 SHL PUSH1 0x0 MSTORE PUSH1 0x32 PUSH1 0x4 MSTORE PUSH1 0x24 PUSH1 0x0 REVERT JUMPDEST DUP1 MLOAD DUP3 LT ISZERO PUSH2 0x13A5 JUMPI PUSH1 0x20 SWAP2 PUSH1 0x5 SHL ADD ADD SWAP1 JUMP JUMPDEST PUSH2 0x137B JUMP JUMPDEST DUP1 SLOAD DUP3 LT ISZERO PUSH2 0x13A5 JUMPI PUSH1 0x0 MSTORE PUSH1 0x20 PUSH1 0x0 KECCAK256 ADD SWAP1 PUSH1 0x0 SWAP1 JUMP JUMPDEST DUP1 SLOAD SWAP1 PUSH1 0x1 PUSH1 0x40 SHL DUP3 LT ISZERO PUSH2 0xB24 JUMPI DUP2 PUSH2 0x13E4 SWAP2 PUSH1 0x1 PUSH2 0x12FE SWAP5 ADD DUP2 SSTORE PUSH2 0x13AA JUMP JUMPDEST DUP2 SWAP4 SWAP2 SLOAD SWAP1 PUSH1 0x3 SHL SWAP2 DUP3 SHL SWAP2 PUSH1 0x0 NOT SWAP1 SHL NOT AND OR SWAP1 JUMP JUMPDEST ISZERO PUSH2 0x1402 JUMPI JUMP JUMPDEST PUSH1 0x40 MLOAD PUSH3 0x461BCD PUSH1 0xE5 SHL DUP2 MSTORE PUSH1 0x20 PUSH1 0x4 DUP3 ADD MSTORE PUSH1 0x32 PUSH1 0x24 DUP3 ADD MSTORE PUSH32 0x5065726D697373696F6E733A2053656E64657220646F6573206E6F7420686176 PUSH1 0x44 DUP3 ADD MSTORE PUSH18 0x6520636C61696D207369676E6572206B6579 PUSH1 0x70 SHL PUSH1 0x64 DUP3 ADD MSTORE PUSH1 0x84 SWAP1 REVERT JUMPDEST PUSH1 0x0 NOT DUP2 EQ PUSH2 0x1471 JUMPI PUSH1 0x1 ADD SWAP1 JUMP JUMPDEST PUSH2 0x12CE JUMP JUMPDEST PUSH1 0x0 NOT DUP2 ADD SWAP2 SWAP1 DUP3 GT PUSH2 0x1471 JUMPI JUMP JUMPDEST PUSH4 0x4E487B71 PUSH1 0xE0 SHL PUSH1 0x0 MSTORE PUSH1 0x31 PUSH1 0x4 MSTORE PUSH1 0x24 PUSH1 0x0 REVERT JUMPDEST DUP1 SLOAD DUP1 ISZERO PUSH2 0x14CC JUMPI PUSH1 0x0 NOT ADD SWAP1 PUSH2 0x14C7 PUSH2 0x14B5 DUP4 DUP4 PUSH2 0x13AA JUMP JUMPDEST DUP2 SWAP3 SWAP2 SLOAD SWAP1 PUSH1 0x0 NOT SWAP1 PUSH1 0x3 SHL SHL NOT AND SWAP1 JUMP JUMPDEST SWAP1 SSTORE SSTORE JUMP JUMPDEST PUSH2 0x1485 JUMP JUMPDEST SWAP1 PUSH1 0x1 DUP3 DUP2 SHR SWAP3 AND DUP1 ISZERO PUSH2 0x1501 JUMPI JUMPDEST PUSH1 0x20 DUP4 LT EQ PUSH2 0x14EB JUMPI JUMP JUMPDEST PUSH4 0x4E487B71 PUSH1 0xE0 SHL PUSH1 0x0 MSTORE PUSH1 0x22 PUSH1 0x4 MSTORE PUSH1 0x24 PUSH1 0x0 REVERT JUMPDEST SWAP2 PUSH1 0x7F AND SWAP2 PUSH2 0x14E0 JUMP JUMPDEST PUSH1 0x0 SWAP3 SWAP2 DUP2 SLOAD SWAP2 PUSH2 0x151B DUP4 PUSH2 0x14D1 JUMP JUMPDEST DUP1 DUP4 MSTORE SWAP3 PUSH1 0x1 DUP2 AND SWAP1 DUP2 ISZERO PUSH2 0x1571 JUMPI POP PUSH1 0x1 EQ PUSH2 0x1537 JUMPI POP POP POP JUMP JUMPDEST PUSH1 0x0 SWAP1 DUP2 MSTORE PUSH1 0x20 DUP2 KECCAK256 SWAP4 SWAP5 POP SWAP2 SWAP3 JUMPDEST DUP4 DUP4 LT PUSH2 0x1557 JUMPI POP PUSH1 0x20 SWAP3 POP ADD ADD SWAP1 JUMP JUMPDEST PUSH1 0x1 DUP2 PUSH1 0x20 SWAP3 SWAP5 SWAP4 SWAP5 SLOAD DUP4 DUP6 DUP8 ADD ADD MSTORE ADD SWAP2 ADD SWAP2 SWAP1 PUSH2 0x1546 JUMP JUMPDEST SWAP2 POP POP PUSH1 0x20 SWAP4 SWAP5 POP PUSH1 0xFF SWAP3 SWAP2 SWAP3 NOT AND DUP4 DUP4 ADD MSTORE ISZERO ISZERO PUSH1 0x5 SHL ADD ADD SWAP1 JUMP JUMPDEST SWAP3 PUSH2 0x15AE PUSH2 0xBC9 SWAP6 SWAP4 PUSH2 0x15BC SWAP4 DUP7 MSTORE PUSH1 0x80 PUSH1 0x20 DUP8 ADD MSTORE PUSH1 0x80 DUP7 ADD SWAP1 PUSH2 0x150B JUMP JUMPDEST SWAP1 DUP5 DUP3 SUB PUSH1 0x40 DUP7 ADD MSTORE PUSH2 0x150B JUMP JUMPDEST SWAP2 PUSH1 0x60 DUP2 DUP5 SUB SWAP2 ADD MSTORE PUSH2 0x150B JUMP JUMPDEST PUSH2 0x15D4 DUP2 SLOAD PUSH2 0x14D1 JUMP JUMPDEST SWAP1 DUP2 PUSH2 0x15DE JUMPI POP POP JUMP JUMPDEST PUSH1 0x1F DUP3 GT PUSH1 0x1 EQ PUSH2 0x15F0 JUMPI PUSH1 0x0 SWAP1 SSTORE POP JUMP JUMPDEST PUSH2 0x1612 PUSH2 0xB59 SWAP3 DUP3 PUSH1 0x0 MSTORE PUSH1 0x1 PUSH1 0x1F PUSH1 0x20 PUSH1 0x0 KECCAK256 SWAP3 ADD PUSH1 0x5 SHR DUP3 ADD SWAP2 ADD PUSH2 0x1302 JUMP JUMPDEST PUSH1 0x0 DUP2 DUP2 MSTORE PUSH1 0x20 DUP2 KECCAK256 SWAP2 DUP2 SWAP1 SSTORE SWAP1 SSTORE JUMP JUMPDEST PUSH1 0x5 SWAP1 PUSH1 0x0 DUP2 SSTORE PUSH1 0x0 PUSH1 0x1 DUP3 ADD SSTORE PUSH1 0x0 PUSH1 0x2 DUP3 ADD SSTORE PUSH2 0x1644 PUSH1 0x3 DUP3 ADD PUSH2 0x15CA JUMP JUMPDEST PUSH2 0x1650 PUSH1 0x4 DUP3 ADD PUSH2 0x15CA JUMP JUMPDEST ADD PUSH2 0x15D4 DUP2 SLOAD PUSH2 0x14D1 JUMP JUMPDEST ISZERO PUSH2 0x1662 JUMPI JUMP JUMPDEST PUSH1 0x40 MLOAD PUSH3 0x461BCD PUSH1 0xE5 SHL DUP2 MSTORE PUSH1 0x20 PUSH1 0x4 DUP3 ADD MSTORE PUSH1 0x21 PUSH1 0x24 DUP3 ADD MSTORE PUSH32 0x4E6F6E4578697374696E673A204B65792069736E277420726567697374657265 PUSH1 0x44 DUP3 ADD MSTORE PUSH1 0x19 PUSH1 0xFA SHL PUSH1 0x64 DUP3 ADD MSTORE PUSH1 0x84 SWAP1 REVERT JUMPDEST DUP2 MLOAD SWAP2 PUSH8 0xFFFFFFFFFFFFFFFF DUP4 GT PUSH2 0xB24 JUMPI PUSH1 0x1 PUSH1 0x40 SHL DUP4 GT PUSH2 0xB24 JUMPI PUSH1 0x20 SWAP1 DUP3 SLOAD DUP5 DUP5 SSTORE DUP1 DUP6 LT PUSH2 0x170D JUMPI JUMPDEST POP ADD SWAP1 PUSH1 0x0 MSTORE PUSH1 0x20 PUSH1 0x0 KECCAK256 PUSH1 0x0 JUMPDEST DUP4 DUP2 LT PUSH2 0x16F9 JUMPI POP POP POP POP JUMP JUMPDEST PUSH1 0x1 SWAP1 PUSH1 0x20 DUP5 MLOAD SWAP5 ADD SWAP4 DUP2 DUP5 ADD SSTORE ADD PUSH2 0x16EC JUMP JUMPDEST PUSH2 0x1724 SWAP1 DUP5 PUSH1 0x0 MSTORE DUP6 DUP5 PUSH1 0x0 KECCAK256 SWAP2 DUP3 ADD SWAP2 ADD PUSH2 0x1302 JUMP JUMPDEST CODESIZE PUSH2 0x16DE JUMP JUMPDEST PUSH1 0x2 PUSH1 0x0 SWAP2 DUP1 SLOAD DUP4 DUP3 SSTORE DUP1 PUSH2 0x1745 JUMPI JUMPDEST POP DUP3 PUSH1 0x1 DUP3 ADD SSTORE ADD SSTORE JUMP JUMPDEST DUP2 DUP5 MSTORE PUSH1 0x20 DUP5 KECCAK256 PUSH2 0x1758 SWAP2 DUP2 ADD SWAP1 PUSH2 0x1302 JUMP JUMPDEST CODESIZE PUSH2 0x173A JUMP JUMPDEST PUSH1 0x1 PUSH2 0xBC9 SWAP2 PUSH2 0x9BA DUP3 PUSH1 0xFF PUSH1 0x6 SLOAD PUSH1 0x8 SHR AND ISZERO ISZERO EQ PUSH2 0x1201 JUMP JUMPDEST ISZERO PUSH2 0x1780 JUMPI JUMP JUMPDEST PUSH1 0x40 MLOAD PUSH3 0x461BCD PUSH1 0xE5 SHL DUP2 MSTORE PUSH1 0x20 PUSH1 0x4 DUP3 ADD MSTORE PUSH1 0x27 PUSH1 0x24 DUP3 ADD MSTORE PUSH32 0x43616E6E6F7420617070726F76652061206E6F6E2D6578697374696E67206578 PUSH1 0x44 DUP3 ADD MSTORE PUSH7 0x32B1BABA34B7B7 PUSH1 0xC9 SHL PUSH1 0x64 DUP3 ADD MSTORE PUSH1 0x84 SWAP1 REVERT JUMPDEST ISZERO PUSH2 0x17DC JUMPI JUMP JUMPDEST PUSH1 0x40 MLOAD PUSH3 0x461BCD PUSH1 0xE5 SHL DUP2 MSTORE PUSH1 0x20 PUSH1 0x4 DUP3 ADD MSTORE PUSH1 0x18 PUSH1 0x24 DUP3 ADD MSTORE PUSH32 0x5265717565737420616C72656164792065786563757465640000000000000000 PUSH1 0x44 DUP3 ADD MSTORE PUSH1 0x64 SWAP1 REVERT JUMPDEST ISZERO PUSH2 0x1828 JUMPI JUMP JUMPDEST PUSH1 0x40 MLOAD PUSH3 0x461BCD PUSH1 0xE5 SHL DUP2 MSTORE PUSH1 0x20 PUSH1 0x4 DUP3 ADD MSTORE PUSH1 0x1F PUSH1 0x24 DUP3 ADD MSTORE PUSH32 0x53656E64657220646F6573206E6F74206861766520616374696F6E206B657900 PUSH1 0x44 DUP3 ADD MSTORE PUSH1 0x64 SWAP1 REVERT JUMPDEST ISZERO PUSH2 0x1874 JUMPI JUMP JUMPDEST PUSH1 0x40 MLOAD PUSH3 0x461BCD PUSH1 0xE5 SHL DUP2 MSTORE PUSH1 0x20 PUSH1 0x4 DUP3 ADD MSTORE PUSH1 0x23 PUSH1 0x24 DUP3 ADD MSTORE PUSH32 0x53656E64657220646F6573206E6F742068617665206D616E6167656D656E7420 PUSH1 0x44 DUP3 ADD MSTORE PUSH3 0x6B6579 PUSH1 0xE8 SHL PUSH1 0x64 DUP3 ADD MSTORE PUSH1 0x84 SWAP1 REVERT JUMPDEST PUSH1 0x0 SWAP3 SWAP2 DUP2 SLOAD SWAP2 PUSH2 0x18D5 DUP4 PUSH2 0x14D1 JUMP JUMPDEST SWAP3 PUSH1 0x1 DUP2 AND SWAP1 DUP2 ISZERO PUSH2 0x1920 JUMPI POP PUSH1 0x1 EQ PUSH2 0x18EE JUMPI POP POP POP JUMP JUMPDEST SWAP1 SWAP2 SWAP3 SWAP4 POP PUSH1 0x0 MSTORE PUSH1 0x20 PUSH1 0x0 KECCAK256 PUSH1 0x0 SWAP1 JUMPDEST DUP4 DUP3 LT PUSH2 0x190C JUMPI POP POP ADD SWAP1 JUMP JUMPDEST PUSH1 0x1 DUP2 PUSH1 0x20 SWAP3 SLOAD DUP5 DUP7 ADD MSTORE ADD SWAP2 ADD SWAP1 PUSH2 0x18FF JUMP JUMPDEST PUSH1 0xFF NOT AND DUP4 MSTORE POP POP DUP2 ISZERO ISZERO SWAP1 SWAP2 MUL ADD SWAP2 POP JUMP JUMPDEST RETURNDATASIZE ISZERO PUSH2 0x195E JUMPI RETURNDATASIZE SWAP1 PUSH2 0x1944 DUP3 PUSH2 0xB5B JUMP JUMPDEST SWAP2 PUSH2 0x1952 PUSH1 0x40 MLOAD SWAP4 DUP5 PUSH2 0xB29 JUMP JUMPDEST DUP3 MSTORE RETURNDATASIZE PUSH1 0x0 PUSH1 0x20 DUP5 ADD RETURNDATACOPY JUMP JUMPDEST PUSH1 0x60 SWAP1 JUMP JUMPDEST SWAP1 PUSH1 0x20 PUSH2 0xBC9 SWAP3 DUP2 DUP2 MSTORE ADD SWAP1 PUSH2 0x150B JUMP JUMPDEST SWAP1 PUSH1 0x1 SWAP1 PUSH2 0x1985 PUSH1 0x0 SLOAD DUP5 LT PUSH2 0x1779 JUMP JUMPDEST PUSH2 0x19B8 PUSH2 0x19B3 PUSH2 0x19AF PUSH1 0x3 PUSH2 0x19A4 DUP8 PUSH1 0x0 MSTORE PUSH1 0x3 PUSH1 0x20 MSTORE PUSH1 0x40 PUSH1 0x0 KECCAK256 SWAP1 JUMP JUMPDEST ADD SLOAD PUSH1 0x8 SHR PUSH1 0xFF AND SWAP1 JUMP JUMPDEST ISZERO SWAP1 JUMP JUMPDEST PUSH2 0x17D5 JUMP JUMPDEST PUSH2 0x19DC PUSH2 0x19CF DUP5 PUSH1 0x0 MSTORE PUSH1 0x3 PUSH1 0x20 MSTORE PUSH1 0x40 PUSH1 0x0 KECCAK256 SWAP1 JUMP JUMPDEST SLOAD PUSH1 0x1 PUSH1 0x1 PUSH1 0xA0 SHL SUB AND SWAP1 JUMP JUMPDEST ADDRESS SWAP1 DUP4 DUP1 PUSH1 0xA0 SHL SUB AND EQ PUSH1 0x0 EQ PUSH2 0x1C2D JUMPI PUSH1 0x40 DUP1 MLOAD CALLER PUSH1 0x20 DUP3 ADD SWAP1 DUP2 MSTORE PUSH2 0x1A14 SWAP3 PUSH2 0x1A0F SWAP3 SWAP1 PUSH2 0x39B SWAP1 DUP3 SWAP1 DUP2 ADD PUSH2 0xDB9 JUMP JUMPDEST PUSH2 0x186D JUMP JUMPDEST PUSH1 0x40 MLOAD DUP2 ISZERO ISZERO DUP2 MSTORE DUP4 SWAP1 PUSH32 0xB3932DA477FE5D6C8FF2EAFEF050C0F3A1AF18FC07121001482600F36F3715D8 SWAP1 PUSH1 0x20 SWAP1 LOG2 ISZERO ISZERO SUB PUSH2 0x1C04 JUMPI PUSH2 0x1A72 PUSH1 0x3 PUSH2 0x1A64 DUP4 PUSH1 0x0 MSTORE PUSH1 0x3 PUSH1 0x20 MSTORE PUSH1 0x40 PUSH1 0x0 KECCAK256 SWAP1 JUMP JUMPDEST ADD DUP1 SLOAD PUSH1 0xFF NOT AND PUSH1 0x1 OR SWAP1 SSTORE JUMP JUMPDEST PUSH1 0x0 DUP1 PUSH2 0x1A8C PUSH2 0x19CF DUP5 PUSH1 0x0 MSTORE PUSH1 0x3 PUSH1 0x20 MSTORE PUSH1 0x40 PUSH1 0x0 KECCAK256 SWAP1 JUMP JUMPDEST PUSH2 0x1ACA PUSH1 0x1 PUSH2 0x1AA5 DUP7 PUSH1 0x0 MSTORE PUSH1 0x3 PUSH1 0x20 MSTORE PUSH1 0x40 PUSH1 0x0 KECCAK256 SWAP1 JUMP JUMPDEST ADD SLOAD PUSH1 0x2 PUSH2 0x1ABD DUP8 PUSH1 0x0 MSTORE PUSH1 0x3 PUSH1 0x20 MSTORE PUSH1 0x40 PUSH1 0x0 KECCAK256 SWAP1 JUMP JUMPDEST ADD PUSH1 0x40 MLOAD SWAP3 DUP4 DUP1 SWAP3 PUSH2 0x18C5 JUMP JUMPDEST SUB SWAP3 GAS CALL PUSH2 0x1AD6 PUSH2 0x1933 JUMP JUMPDEST POP ISZERO PUSH2 0x1B92 JUMPI PUSH2 0x1B05 PUSH1 0x3 PUSH2 0x1AF5 DUP4 PUSH1 0x0 MSTORE PUSH1 0x3 PUSH1 0x20 MSTORE PUSH1 0x40 PUSH1 0x0 KECCAK256 SWAP1 JUMP JUMPDEST ADD DUP1 SLOAD PUSH2 0xFF00 NOT AND PUSH2 0x100 OR SWAP1 SSTORE JUMP JUMPDEST PUSH2 0x1B1C PUSH2 0x19CF DUP3 PUSH1 0x0 MSTORE PUSH1 0x3 PUSH1 0x20 MSTORE PUSH1 0x40 PUSH1 0x0 KECCAK256 SWAP1 JUMP JUMPDEST PUSH1 0x1 PUSH2 0x1B32 DUP4 PUSH1 0x0 MSTORE PUSH1 0x3 PUSH1 0x20 MSTORE PUSH1 0x40 PUSH1 0x0 KECCAK256 SWAP1 JUMP JUMPDEST ADD SLOAD SWAP2 PUSH32 0x1F920DBDA597D7BF95035464170FA58D0A4B57F13A1C315ACE6793B9F63688B8 PUSH2 0x1B8A PUSH1 0x2 PUSH2 0x1B6F DUP5 PUSH1 0x0 MSTORE PUSH1 0x3 PUSH1 0x20 MSTORE PUSH1 0x40 PUSH1 0x0 KECCAK256 SWAP1 JUMP JUMPDEST PUSH1 0x40 MLOAD PUSH1 0x1 PUSH1 0x1 PUSH1 0xA0 SHL SUB SWAP1 SWAP7 AND SWAP6 SWAP3 DUP4 SWAP3 SWAP1 SWAP2 ADD DUP3 PUSH2 0x1963 JUMP JUMPDEST SUB SWAP1 LOG4 PUSH1 0x1 SWAP1 JUMP JUMPDEST PUSH2 0x1BA9 PUSH2 0x19CF DUP3 PUSH1 0x0 MSTORE PUSH1 0x3 PUSH1 0x20 MSTORE PUSH1 0x40 PUSH1 0x0 KECCAK256 SWAP1 JUMP JUMPDEST PUSH1 0x1 PUSH2 0x1BBF DUP4 PUSH1 0x0 MSTORE PUSH1 0x3 PUSH1 0x20 MSTORE PUSH1 0x40 PUSH1 0x0 KECCAK256 SWAP1 JUMP JUMPDEST ADD SLOAD SWAP2 PUSH32 0xE10C49D9F7C71DA23262367013434763CFDB2332267641728D25CD712C5C6A68 PUSH2 0x1BFC PUSH1 0x2 PUSH2 0x1B6F DUP5 PUSH1 0x0 MSTORE PUSH1 0x3 PUSH1 0x20 MSTORE PUSH1 0x40 PUSH1 0x0 KECCAK256 SWAP1 JUMP JUMPDEST SUB SWAP1 LOG4 PUSH1 0x0 SWAP1 JUMP JUMPDEST PUSH1 0x3 PUSH2 0x1C1D PUSH2 0x1C28 SWAP3 PUSH1 0x0 MSTORE PUSH1 0x3 PUSH1 0x20 MSTORE PUSH1 0x40 PUSH1 0x0 KECCAK256 SWAP1 JUMP JUMPDEST ADD DUP1 SLOAD PUSH1 0xFF NOT AND SWAP1 SSTORE JUMP JUMPDEST PUSH1 0x0 SWAP1 JUMP JUMPDEST PUSH1 0x40 DUP1 MLOAD CALLER PUSH1 0x20 DUP3 ADD SWAP1 DUP2 MSTORE PUSH2 0x1C54 SWAP3 PUSH2 0x1C4F SWAP3 SWAP1 PUSH2 0xE25 SWAP1 DUP3 SWAP1 DUP2 ADD PUSH2 0xDB9 JUMP JUMPDEST PUSH2 0x1821 JUMP JUMPDEST PUSH2 0x1A14 JUMP JUMPDEST SWAP3 SWAP5 SWAP1 SWAP4 SWAP5 PUSH2 0x1C74 PUSH1 0x1 PUSH1 0xFF PUSH1 0x6 SLOAD PUSH1 0x8 SHR AND ISZERO ISZERO EQ PUSH2 0x1201 JUMP JUMPDEST ADDRESS CALLER EQ DUP1 ISZERO PUSH2 0x1EA7 JUMPI JUMPDEST PUSH2 0x1C87 SWAP1 PUSH2 0x13FB JUMP JUMPDEST PUSH1 0x1 PUSH1 0x1 PUSH1 0xA0 SHL SUB DUP4 AND SWAP5 ADDRESS DUP7 SUB PUSH2 0x1E30 JUMPI JUMPDEST PUSH1 0x40 DUP1 MLOAD PUSH1 0x1 PUSH1 0x1 PUSH1 0xA0 SHL SUB DUP7 AND PUSH1 0x20 DUP3 ADD SWAP1 DUP2 MSTORE SWAP2 DUP2 ADD DUP8 SWAP1 MSTORE PUSH2 0x1CC2 DUP2 PUSH1 0x60 DUP2 ADD PUSH2 0xDB9 JUMP JUMPDEST MLOAD SWAP1 KECCAK256 SWAP7 DUP8 SWAP5 DUP7 PUSH2 0x1CDD DUP8 PUSH1 0x0 MSTORE PUSH1 0x4 PUSH1 0x20 MSTORE PUSH1 0x40 PUSH1 0x0 KECCAK256 SWAP1 JUMP JUMPDEST SSTORE DUP3 PUSH1 0x1 PUSH2 0x1CF5 DUP9 PUSH1 0x0 MSTORE PUSH1 0x4 PUSH1 0x20 MSTORE PUSH1 0x40 PUSH1 0x0 KECCAK256 SWAP1 JUMP JUMPDEST ADD SSTORE PUSH2 0x1D11 DUP5 PUSH1 0x3 PUSH2 0xD6B DUP10 PUSH1 0x0 MSTORE PUSH1 0x4 PUSH1 0x20 MSTORE PUSH1 0x40 PUSH1 0x0 KECCAK256 SWAP1 JUMP JUMPDEST PUSH2 0x1D2B DUP3 PUSH1 0x4 PUSH2 0xD6B DUP10 PUSH1 0x0 MSTORE PUSH1 0x4 PUSH1 0x20 MSTORE PUSH1 0x40 PUSH1 0x0 KECCAK256 SWAP1 JUMP JUMPDEST PUSH2 0x1D45 DUP6 PUSH1 0x5 PUSH2 0xD6B DUP10 PUSH1 0x0 MSTORE PUSH1 0x4 PUSH1 0x20 MSTORE PUSH1 0x40 PUSH1 0x0 KECCAK256 SWAP1 JUMP JUMPDEST DUP8 PUSH2 0x1D6E PUSH2 0x1D62 PUSH1 0x2 PUSH2 0x520 DUP11 PUSH1 0x0 MSTORE PUSH1 0x4 PUSH1 0x20 MSTORE PUSH1 0x40 PUSH1 0x0 KECCAK256 SWAP1 JUMP JUMPDEST PUSH1 0x1 PUSH1 0x1 PUSH1 0xA0 SHL SUB AND SWAP1 JUMP JUMPDEST EQ PUSH2 0x1DFD JUMPI SWAP4 PUSH2 0x1DF7 SWAP2 PUSH2 0x1DEB PUSH32 0x46149B18AA084502C3F12BC75E19EDA8BDA8D102B82CCE8474677A6D0D5F43C5 SWAP7 PUSH2 0x1DB5 DUP10 PUSH2 0x2C4 DUP13 PUSH1 0x0 MSTORE PUSH1 0x5 PUSH1 0x20 MSTORE PUSH1 0x40 PUSH1 0x0 KECCAK256 SWAP1 JUMP JUMPDEST PUSH1 0x2 PUSH2 0x1DCB DUP11 PUSH1 0x0 MSTORE PUSH1 0x4 PUSH1 0x20 MSTORE PUSH1 0x40 PUSH1 0x0 KECCAK256 SWAP1 JUMP JUMPDEST ADD DUP1 SLOAD PUSH1 0x1 PUSH1 0x1 PUSH1 0xA0 SHL SUB NOT AND PUSH1 0x1 PUSH1 0x1 PUSH1 0xA0 SHL SUB SWAP1 SWAP3 AND SWAP2 SWAP1 SWAP2 OR SWAP1 SSTORE JUMP JUMPDEST PUSH1 0x40 MLOAD SWAP5 DUP6 SWAP5 DUP6 PUSH2 0x2077 JUMP JUMPDEST SUB SWAP1 LOG4 SWAP1 JUMP JUMPDEST POP PUSH32 0x3BAB293FC00DB832D7619A9299914251B8747C036867EC056CBD506F60135B13 SWAP4 PUSH2 0x1DF7 SWAP2 PUSH1 0x40 MLOAD SWAP5 DUP6 SWAP5 DUP6 PUSH2 0x2077 JUMP JUMPDEST PUSH1 0x40 MLOAD PUSH4 0x604B4D37 PUSH1 0xE1 SHL DUP2 MSTORE PUSH1 0x20 DUP2 DUP1 PUSH2 0x1E51 DUP12 DUP8 DUP12 ADDRESS PUSH1 0x4 DUP7 ADD PUSH2 0x1EE4 JUMP JUMPDEST SUB DUP2 DUP11 GAS STATICCALL DUP1 ISZERO PUSH2 0x1EA2 JUMPI PUSH2 0x1E6E SWAP2 PUSH1 0x0 SWAP2 PUSH2 0x1E73 JUMPI JUMPDEST POP PUSH2 0x1F28 JUMP JUMPDEST PUSH2 0x1C9A JUMP JUMPDEST PUSH2 0x1E95 SWAP2 POP PUSH1 0x20 RETURNDATASIZE PUSH1 0x20 GT PUSH2 0x1E9B JUMPI JUMPDEST PUSH2 0x1E8D DUP2 DUP4 PUSH2 0xB29 JUMP JUMPDEST DUP2 ADD SWAP1 PUSH2 0x1ECF JUMP JUMPDEST CODESIZE PUSH2 0x1E68 JUMP JUMPDEST POP RETURNDATASIZE PUSH2 0x1E83 JUMP JUMPDEST PUSH2 0x1F1C JUMP JUMPDEST POP PUSH2 0x1C87 PUSH2 0x1EC8 PUSH1 0x40 MLOAD PUSH1 0x20 DUP2 ADD SWAP1 CALLER DUP3 MSTORE PUSH1 0x20 DUP2 MSTORE PUSH2 0x645 PUSH1 0x40 DUP3 PUSH2 0xB29 JUMP JUMPDEST SWAP1 POP PUSH2 0x1C7E JUMP JUMPDEST SWAP1 DUP2 PUSH1 0x20 SWAP2 SUB SLT PUSH2 0x1AF JUMPI MLOAD PUSH2 0xBC9 DUP2 PUSH2 0x975 JUMP JUMPDEST SWAP3 PUSH2 0xBC9 SWAP5 SWAP3 PUSH2 0x1F0E SWAP3 PUSH1 0x1 DUP1 PUSH1 0xA0 SHL SUB AND DUP6 MSTORE PUSH1 0x20 DUP6 ADD MSTORE PUSH1 0x80 PUSH1 0x40 DUP6 ADD MSTORE PUSH1 0x80 DUP5 ADD SWAP1 PUSH2 0x8ED JUMP JUMPDEST SWAP2 PUSH1 0x60 DUP2 DUP5 SUB SWAP2 ADD MSTORE PUSH2 0x8ED JUMP JUMPDEST PUSH1 0x40 MLOAD RETURNDATASIZE PUSH1 0x0 DUP3 RETURNDATACOPY RETURNDATASIZE SWAP1 REVERT JUMPDEST ISZERO PUSH2 0x1F2F JUMPI JUMP JUMPDEST PUSH1 0x40 MLOAD PUSH3 0x461BCD PUSH1 0xE5 SHL DUP2 MSTORE PUSH1 0x20 PUSH1 0x4 DUP3 ADD MSTORE PUSH1 0xD PUSH1 0x24 DUP3 ADD MSTORE PUSH13 0x696E76616C696420636C61696D PUSH1 0x98 SHL PUSH1 0x44 DUP3 ADD MSTORE PUSH1 0x64 SWAP1 REVERT JUMPDEST SWAP2 SWAP1 PUSH1 0x1F DUP2 GT PUSH2 0x1F73 JUMPI POP POP POP JUMP JUMPDEST PUSH2 0xB59 SWAP3 PUSH1 0x0 MSTORE PUSH1 0x20 PUSH1 0x0 KECCAK256 SWAP1 PUSH1 0x20 PUSH1 0x1F DUP5 ADD PUSH1 0x5 SHR DUP4 ADD SWAP4 LT PUSH2 0x1F9F JUMPI JUMPDEST PUSH1 0x1F ADD PUSH1 0x5 SHR ADD SWAP1 PUSH2 0x1302 JUMP JUMPDEST SWAP1 SWAP2 POP DUP2 SWAP1 PUSH2 0x1F92 JUMP JUMPDEST SWAP2 SWAP1 SWAP2 DUP3 MLOAD PUSH8 0xFFFFFFFFFFFFFFFF DUP2 GT PUSH2 0xB24 JUMPI PUSH2 0x1FD1 DUP2 PUSH2 0x1FCB DUP5 SLOAD PUSH2 0x14D1 JUMP JUMPDEST DUP5 PUSH2 0x1F64 JUMP JUMPDEST PUSH1 0x20 PUSH1 0x1F DUP3 GT PUSH1 0x1 EQ PUSH2 0x200E JUMPI DUP2 SWAP1 PUSH2 0x12FE SWAP4 SWAP5 SWAP6 PUSH1 0x0 SWAP3 PUSH2 0x2003 JUMPI JUMPDEST POP POP DUP2 PUSH1 0x1 SHL SWAP2 PUSH1 0x0 NOT SWAP1 PUSH1 0x3 SHL SHR NOT AND OR SWAP1 JUMP JUMPDEST ADD MLOAD SWAP1 POP CODESIZE DUP1 PUSH2 0x1FEE JUMP JUMPDEST PUSH1 0x1F NOT DUP3 AND SWAP1 PUSH2 0x2023 DUP5 PUSH1 0x0 MSTORE PUSH1 0x20 PUSH1 0x0 KECCAK256 SWAP1 JUMP JUMPDEST SWAP2 PUSH1 0x0 JUMPDEST DUP2 DUP2 LT PUSH2 0x205F JUMPI POP SWAP6 DUP4 PUSH1 0x1 SWAP6 SWAP7 SWAP8 LT PUSH2 0x2046 JUMPI JUMPDEST POP POP POP DUP2 SHL ADD SWAP1 SSTORE JUMP JUMPDEST ADD MLOAD PUSH1 0x0 NOT PUSH1 0xF8 DUP5 PUSH1 0x3 SHL AND SHR NOT AND SWAP1 SSTORE CODESIZE DUP1 DUP1 PUSH2 0x203C JUMP JUMPDEST SWAP2 SWAP3 PUSH1 0x20 PUSH1 0x1 DUP2 SWAP3 DUP7 DUP12 ADD MLOAD DUP2 SSTORE ADD SWAP5 ADD SWAP3 ADD PUSH2 0x2027 JUMP JUMPDEST SWAP3 PUSH2 0x2097 PUSH2 0xBC9 SWAP6 SWAP4 PUSH2 0x1F0E SWAP4 DUP7 MSTORE PUSH1 0x80 PUSH1 0x20 DUP8 ADD MSTORE PUSH1 0x80 DUP7 ADD SWAP1 PUSH2 0x8ED JUMP JUMPDEST SWAP1 DUP5 DUP3 SUB PUSH1 0x40 DUP7 ADD MSTORE PUSH2 0x8ED JUMP JUMPDEST SWAP1 PUSH1 0x20 PUSH2 0xBC9 SWAP3 DUP2 DUP2 MSTORE ADD SWAP1 PUSH2 0x8ED JUMP JUMPDEST PUSH2 0x215F SWAP4 PUSH2 0x20EF PUSH2 0x213A SWAP5 SWAP4 PUSH2 0xDB9 PUSH1 0x40 MLOAD SWAP4 DUP5 SWAP3 PUSH1 0x20 DUP5 ADD SWAP7 PUSH1 0x1 DUP1 PUSH1 0xA0 SHL SUB AND DUP8 MSTORE PUSH1 0x40 DUP5 ADD MSTORE PUSH1 0x60 DUP1 DUP5 ADD MSTORE PUSH1 0x80 DUP4 ADD SWAP1 PUSH2 0x8ED JUMP JUMPDEST MLOAD SWAP1 KECCAK256 PUSH1 0x40 MLOAD PUSH2 0x2131 DUP2 PUSH2 0xDB9 PUSH1 0x20 DUP3 ADD SWAP5 DUP6 PUSH1 0x3C SWAP2 PUSH32 0x19457468657265756D205369676E6564204D6573736167653A0A333200000000 DUP3 MSTORE PUSH1 0x1C DUP3 ADD MSTORE ADD SWAP1 JUMP JUMPDEST MLOAD SWAP1 KECCAK256 SWAP1 PUSH2 0x216D JUMP JUMPDEST PUSH1 0x40 DUP1 MLOAD PUSH1 0x1 PUSH1 0x1 PUSH1 0xA0 SHL SUB SWAP1 SWAP3 AND PUSH1 0x20 DUP4 ADD SWAP1 DUP2 MSTORE SWAP2 SWAP1 PUSH2 0x645 SWAP1 DUP3 SWAP1 DUP2 ADD PUSH2 0xDB9 JUMP JUMPDEST PUSH2 0x2168 JUMPI PUSH1 0x0 SWAP1 JUMP JUMPDEST PUSH1 0x1 SWAP1 JUMP JUMPDEST PUSH1 0x0 SWAP1 PUSH1 0x41 DUP2 MLOAD SUB PUSH2 0x21E2 JUMPI PUSH1 0x20 DUP2 ADD MLOAD SWAP2 PUSH1 0x60 PUSH1 0x40 DUP4 ADD MLOAD SWAP3 ADD MLOAD SWAP1 BYTE SWAP2 PUSH1 0x1B DUP4 LT PUSH2 0x21CC JUMPI JUMPDEST PUSH1 0x40 DUP1 MLOAD SWAP5 DUP6 MSTORE PUSH1 0xFF SWAP1 SWAP4 AND PUSH1 0x20 DUP6 DUP2 ADD SWAP2 SWAP1 SWAP2 MSTORE SWAP3 DUP5 ADD MSTORE PUSH1 0x60 DUP4 ADD MSTORE PUSH1 0x0 DUP1 DUP1 MSTORE SWAP1 SWAP2 PUSH1 0x80 SWAP1 PUSH1 0x1 GAS STATICCALL ISZERO PUSH2 0x1EA2 JUMPI PUSH1 0x0 MLOAD SWAP1 JUMP JUMPDEST SWAP1 SWAP2 PUSH1 0x1B ADD SWAP1 PUSH1 0xFF DUP3 GT PUSH2 0x1471 JUMPI SWAP1 SWAP2 SWAP1 PUSH2 0x2195 JUMP JUMPDEST POP SWAP1 POP SWAP1 JUMP JUMPDEST SWAP1 PUSH2 0xB59 PUSH2 0x21FC SWAP3 PUSH1 0x40 MLOAD SWAP4 DUP5 DUP1 SWAP3 PUSH2 0x150B JUMP JUMPDEST SUB DUP4 PUSH2 0xB29 JUMP JUMPDEST PUSH1 0x0 MSTORE PUSH1 0x1 PUSH1 0x20 MSTORE PUSH1 0x40 PUSH1 0x0 KECCAK256 PUSH1 0x2 PUSH1 0x40 MLOAD SWAP2 PUSH2 0x221F DUP4 PUSH2 0xB08 JUMP JUMPDEST PUSH2 0x2228 DUP2 PUSH2 0x11B6 JUMP JUMPDEST DUP4 MSTORE PUSH1 0x1 DUP2 ADD SLOAD PUSH1 0x20 DUP5 ADD MSTORE ADD SLOAD DUP1 PUSH1 0x40 DUP4 ADD MSTORE ISZERO PUSH2 0x2284 JUMPI PUSH1 0x0 JUMPDEST DUP2 MLOAD DUP1 MLOAD DUP3 LT ISZERO PUSH2 0x227C JUMPI PUSH2 0x225B DUP3 PUSH1 0x1 SWAP3 PUSH2 0x1391 JUMP JUMPDEST MLOAD EQ DUP1 ISZERO PUSH2 0x2277 JUMPI JUMPDEST PUSH2 0x2270 JUMPI PUSH1 0x1 ADD PUSH2 0x2244 JUMP JUMPDEST POP POP PUSH1 0x1 SWAP1 JUMP JUMPDEST PUSH2 0x2264 JUMP JUMPDEST POP POP POP PUSH1 0x0 SWAP1 JUMP JUMPDEST POP PUSH1 0x0 SWAP1 JUMP JUMPDEST PUSH1 0x0 MSTORE PUSH1 0x1 PUSH1 0x20 MSTORE PUSH1 0x40 PUSH1 0x0 KECCAK256 PUSH1 0x2 PUSH1 0x40 MLOAD SWAP2 PUSH2 0x22A6 DUP4 PUSH2 0xB08 JUMP JUMPDEST PUSH2 0x22AF DUP2 PUSH2 0x11B6 JUMP JUMPDEST DUP4 MSTORE PUSH1 0x1 DUP2 ADD SLOAD PUSH1 0x20 DUP5 ADD MSTORE ADD SLOAD DUP1 PUSH1 0x40 DUP4 ADD MSTORE ISZERO PUSH2 0x2284 JUMPI PUSH1 0x0 JUMPDEST DUP2 MLOAD DUP1 MLOAD DUP3 LT ISZERO PUSH2 0x227C JUMPI DUP2 PUSH2 0x22E0 SWAP2 PUSH2 0x1391 JUMP JUMPDEST MLOAD PUSH1 0x1 DUP2 EQ SWAP1 DUP2 ISZERO PUSH2 0x22FA JUMPI JUMPDEST POP PUSH2 0x2270 JUMPI PUSH1 0x1 ADD PUSH2 0x22CB JUMP JUMPDEST PUSH1 0x3 SWAP2 POP EQ CODESIZE PUSH2 0x22ED JUMP JUMPDEST PUSH1 0x0 MSTORE PUSH1 0x1 PUSH1 0x20 MSTORE PUSH1 0x40 PUSH1 0x0 KECCAK256 PUSH1 0x2 PUSH1 0x40 MLOAD SWAP2 PUSH2 0x2321 DUP4 PUSH2 0xB08 JUMP JUMPDEST PUSH2 0x232A DUP2 PUSH2 0x11B6 JUMP JUMPDEST DUP4 MSTORE PUSH1 0x1 DUP2 ADD SLOAD PUSH1 0x20 DUP5 ADD MSTORE ADD SLOAD DUP1 PUSH1 0x40 DUP4 ADD MSTORE ISZERO PUSH2 0x2284 JUMPI PUSH1 0x0 JUMPDEST DUP2 MLOAD DUP1 MLOAD DUP3 LT ISZERO PUSH2 0x227C JUMPI DUP2 PUSH2 0x235B SWAP2 PUSH2 0x1391 JUMP JUMPDEST MLOAD PUSH1 0x1 DUP2 EQ SWAP1 DUP2 ISZERO PUSH2 0x2375 JUMPI JUMPDEST POP PUSH2 0x2270 JUMPI PUSH1 0x1 ADD PUSH2 0x2346 JUMP JUMPDEST PUSH1 0x2 SWAP2 POP EQ CODESIZE PUSH2 0x2368 JUMP JUMPDEST PUSH1 0x0 MSTORE PUSH1 0x1 PUSH1 0x20 MSTORE PUSH1 0x40 PUSH1 0x0 KECCAK256 SWAP1 PUSH1 0x2 PUSH1 0x40 MLOAD SWAP3 PUSH2 0x239D DUP5 PUSH2 0xB08 JUMP JUMPDEST PUSH2 0x23A6 DUP2 PUSH2 0x11B6 JUMP JUMPDEST DUP5 MSTORE PUSH1 0x1 DUP2 ADD SLOAD PUSH1 0x20 DUP6 ADD MSTORE ADD SLOAD DUP1 PUSH1 0x40 DUP5 ADD MSTORE ISZERO PUSH2 0x240E JUMPI PUSH1 0x0 JUMPDEST DUP3 MLOAD DUP1 MLOAD DUP3 LT ISZERO PUSH2 0x2405 JUMPI DUP2 PUSH2 0x23D7 SWAP2 PUSH2 0x1391 JUMP JUMPDEST MLOAD DUP3 PUSH1 0x1 DUP3 EQ SWAP2 DUP3 ISZERO PUSH2 0x23FB JUMPI JUMPDEST POP POP PUSH2 0x23F3 JUMPI PUSH1 0x1 ADD PUSH2 0x23C2 JUMP JUMPDEST POP POP POP PUSH1 0x1 SWAP1 JUMP JUMPDEST EQ SWAP1 POP DUP3 CODESIZE PUSH2 0x23E5 JUMP JUMPDEST POP POP POP POP PUSH1 0x0 SWAP1 JUMP JUMPDEST POP POP PUSH1 0x0 SWAP1 JUMP JUMPDEST ISZERO PUSH2 0x241C JUMPI JUMP JUMPDEST PUSH1 0x40 MLOAD PUSH3 0x461BCD PUSH1 0xE5 SHL DUP2 MSTORE PUSH1 0x20 PUSH1 0x4 DUP3 ADD MSTORE PUSH1 0x1E PUSH1 0x24 DUP3 ADD MSTORE PUSH32 0x496E697469616C206B65792077617320616C72656164792073657475702E0000 PUSH1 0x44 DUP3 ADD MSTORE PUSH1 0x64 SWAP1 REVERT JUMPDEST SWAP1 PUSH2 0x246B DUP3 PUSH2 0x1319 JUMP JUMPDEST SWAP1 PUSH1 0x0 MSTORE PUSH1 0x20 PUSH1 0x0 KECCAK256 SWAP1 PUSH1 0x0 JUMPDEST PUSH1 0x1 DUP2 LT PUSH2 0x2485 JUMPI POP POP POP JUMP JUMPDEST PUSH1 0x1 SWAP1 PUSH1 0x20 PUSH1 0xFF DUP5 MLOAD AND SWAP4 ADD SWAP3 DUP2 DUP6 ADD SSTORE ADD PUSH2 0x2478 JUMP INVALID LOG2 PUSH5 0x6970667358 0x22 SLT KECCAK256 REVERT 0xDF 0xB2 CALLDATACOPY EXTCODESIZE 0xB2 PUSH9 0xD85D269BE1383EB0EA PUSH29 0xC3FC46041DB9B6ADB50C1616D3982E64736F6C634300081C0033000000 "
        },
        "methodIdentifiers": {
          "addClaim(uint256,uint256,address,bytes,bytes,string)": "b1a34e0d",
          "addKey(bytes32,uint256,uint256)": "1d381240",
          "approve(uint256,bool)": "747442d3",
          "execute(address,uint256,bytes)": "b61d27f6",
          "getClaim(bytes32)": "c9100bcb",
          "getClaimIdsByTopic(uint256)": "80e9e9e1",
          "getKey(bytes32)": "12aaac70",
          "getKeyPurposes(bytes32)": "fb307b34",
          "getKeysByPurpose(uint256)": "9010f726",
          "getRecoveredAddress(bytes,bytes32)": "c3b129e3",
          "initialize(address)": "c4d66de8",
          "isClaimValid(address,uint256,bytes,bytes)": "c0969a6e",
          "keyHasPurpose(bytes32,uint256)": "d202158d",
          "removeClaim(bytes32)": "4eee424a",
          "removeKey(bytes32,uint256)": "53d413c5",
          "version()": "54fd4d50"
        }
      }
    }
  }
}