{
  "contracts/system/identity-factory/identities/SMARTTokenIdentityImplementation.sol": {
    "SMARTTokenIdentityImplementation": {
      "abi": [
        {
          "inputs": [],
          "stateMutability": "nonpayable",
          "type": "constructor"
        },
        {
          "inputs": [],
          "name": "InvalidInitialization",
          "type": "error"
        },
        {
          "inputs": [],
          "name": "NotInitializing",
          "type": "error"
        },
        {
          "anonymous": false,
          "inputs": [
            {
              "indexed": true,
              "internalType": "uint256",
              "name": "executionId",
              "type": "uint256"
            },
            {
              "indexed": false,
              "internalType": "bool",
              "name": "approved",
              "type": "bool"
            }
          ],
          "name": "Approved",
          "type": "event"
        },
        {
          "anonymous": false,
          "inputs": [
            {
              "indexed": true,
              "internalType": "bytes32",
              "name": "claimId",
              "type": "bytes32"
            },
            {
              "indexed": true,
              "internalType": "uint256",
              "name": "topic",
              "type": "uint256"
            },
            {
              "indexed": false,
              "internalType": "uint256",
              "name": "scheme",
              "type": "uint256"
            },
            {
              "indexed": true,
              "internalType": "address",
              "name": "issuer",
              "type": "address"
            },
            {
              "indexed": false,
              "internalType": "bytes",
              "name": "signature",
              "type": "bytes"
            },
            {
              "indexed": false,
              "internalType": "bytes",
              "name": "data",
              "type": "bytes"
            },
            {
              "indexed": false,
              "internalType": "string",
              "name": "uri",
              "type": "string"
            }
          ],
          "name": "ClaimAdded",
          "type": "event"
        },
        {
          "anonymous": false,
          "inputs": [
            {
              "indexed": true,
              "internalType": "bytes32",
              "name": "claimId",
              "type": "bytes32"
            },
            {
              "indexed": true,
              "internalType": "uint256",
              "name": "topic",
              "type": "uint256"
            },
            {
              "indexed": false,
              "internalType": "uint256",
              "name": "scheme",
              "type": "uint256"
            },
            {
              "indexed": true,
              "internalType": "address",
              "name": "issuer",
              "type": "address"
            },
            {
              "indexed": false,
              "internalType": "bytes",
              "name": "signature",
              "type": "bytes"
            },
            {
              "indexed": false,
              "internalType": "bytes",
              "name": "data",
              "type": "bytes"
            },
            {
              "indexed": false,
              "internalType": "string",
              "name": "uri",
              "type": "string"
            }
          ],
          "name": "ClaimChanged",
          "type": "event"
        },
        {
          "anonymous": false,
          "inputs": [
            {
              "indexed": true,
              "internalType": "bytes32",
              "name": "claimId",
              "type": "bytes32"
            },
            {
              "indexed": true,
              "internalType": "uint256",
              "name": "topic",
              "type": "uint256"
            },
            {
              "indexed": false,
              "internalType": "uint256",
              "name": "scheme",
              "type": "uint256"
            },
            {
              "indexed": true,
              "internalType": "address",
              "name": "issuer",
              "type": "address"
            },
            {
              "indexed": false,
              "internalType": "bytes",
              "name": "signature",
              "type": "bytes"
            },
            {
              "indexed": false,
              "internalType": "bytes",
              "name": "data",
              "type": "bytes"
            },
            {
              "indexed": false,
              "internalType": "string",
              "name": "uri",
              "type": "string"
            }
          ],
          "name": "ClaimRemoved",
          "type": "event"
        },
        {
          "anonymous": false,
          "inputs": [
            {
              "indexed": true,
              "internalType": "uint256",
              "name": "executionId",
              "type": "uint256"
            },
            {
              "indexed": true,
              "internalType": "address",
              "name": "to",
              "type": "address"
            },
            {
              "indexed": true,
              "internalType": "uint256",
              "name": "value",
              "type": "uint256"
            },
            {
              "indexed": false,
              "internalType": "bytes",
              "name": "data",
              "type": "bytes"
            }
          ],
          "name": "Executed",
          "type": "event"
        },
        {
          "anonymous": false,
          "inputs": [
            {
              "indexed": true,
              "internalType": "uint256",
              "name": "executionId",
              "type": "uint256"
            },
            {
              "indexed": true,
              "internalType": "address",
              "name": "to",
              "type": "address"
            },
            {
              "indexed": true,
              "internalType": "uint256",
              "name": "value",
              "type": "uint256"
            },
            {
              "indexed": false,
              "internalType": "bytes",
              "name": "data",
              "type": "bytes"
            }
          ],
          "name": "ExecutionFailed",
          "type": "event"
        },
        {
          "anonymous": false,
          "inputs": [
            {
              "indexed": true,
              "internalType": "uint256",
              "name": "executionId",
              "type": "uint256"
            },
            {
              "indexed": true,
              "internalType": "address",
              "name": "to",
              "type": "address"
            },
            {
              "indexed": true,
              "internalType": "uint256",
              "name": "value",
              "type": "uint256"
            },
            {
              "indexed": false,
              "internalType": "bytes",
              "name": "data",
              "type": "bytes"
            }
          ],
          "name": "ExecutionRequested",
          "type": "event"
        },
        {
          "anonymous": false,
          "inputs": [
            {
              "indexed": false,
              "internalType": "uint64",
              "name": "version",
              "type": "uint64"
            }
          ],
          "name": "Initialized",
          "type": "event"
        },
        {
          "anonymous": false,
          "inputs": [
            {
              "indexed": true,
              "internalType": "bytes32",
              "name": "key",
              "type": "bytes32"
            },
            {
              "indexed": true,
              "internalType": "uint256",
              "name": "purpose",
              "type": "uint256"
            },
            {
              "indexed": true,
              "internalType": "uint256",
              "name": "keyType",
              "type": "uint256"
            }
          ],
          "name": "KeyAdded",
          "type": "event"
        },
        {
          "anonymous": false,
          "inputs": [
            {
              "indexed": true,
              "internalType": "bytes32",
              "name": "key",
              "type": "bytes32"
            },
            {
              "indexed": true,
              "internalType": "uint256",
              "name": "purpose",
              "type": "uint256"
            },
            {
              "indexed": true,
              "internalType": "uint256",
              "name": "keyType",
              "type": "uint256"
            }
          ],
          "name": "KeyRemoved",
          "type": "event"
        },
        {
          "inputs": [
            {
              "internalType": "uint256",
              "name": "_topic",
              "type": "uint256"
            },
            {
              "internalType": "uint256",
              "name": "_scheme",
              "type": "uint256"
            },
            {
              "internalType": "address",
              "name": "_issuer",
              "type": "address"
            },
            {
              "internalType": "bytes",
              "name": "_signature",
              "type": "bytes"
            },
            {
              "internalType": "bytes",
              "name": "_data",
              "type": "bytes"
            },
            {
              "internalType": "string",
              "name": "_uri",
              "type": "string"
            }
          ],
          "name": "addClaim",
          "outputs": [
            {
              "internalType": "bytes32",
              "name": "claimRequestId",
              "type": "bytes32"
            }
          ],
          "stateMutability": "nonpayable",
          "type": "function"
        },
        {
          "inputs": [
            {
              "internalType": "bytes32",
              "name": "_key",
              "type": "bytes32"
            },
            {
              "internalType": "uint256",
              "name": "_purpose",
              "type": "uint256"
            },
            {
              "internalType": "uint256",
              "name": "_type",
              "type": "uint256"
            }
          ],
          "name": "addKey",
          "outputs": [
            {
              "internalType": "bool",
              "name": "success",
              "type": "bool"
            }
          ],
          "stateMutability": "nonpayable",
          "type": "function"
        },
        {
          "inputs": [
            {
              "internalType": "uint256",
              "name": "_id",
              "type": "uint256"
            },
            {
              "internalType": "bool",
              "name": "_approve",
              "type": "bool"
            }
          ],
          "name": "approve",
          "outputs": [
            {
              "internalType": "bool",
              "name": "success",
              "type": "bool"
            }
          ],
          "stateMutability": "nonpayable",
          "type": "function"
        },
        {
          "inputs": [
            {
              "internalType": "address",
              "name": "_to",
              "type": "address"
            },
            {
              "internalType": "uint256",
              "name": "_value",
              "type": "uint256"
            },
            {
              "internalType": "bytes",
              "name": "_data",
              "type": "bytes"
            }
          ],
          "name": "execute",
          "outputs": [
            {
              "internalType": "uint256",
              "name": "executionId",
              "type": "uint256"
            }
          ],
          "stateMutability": "payable",
          "type": "function"
        },
        {
          "inputs": [
            {
              "internalType": "bytes32",
              "name": "_claimId",
              "type": "bytes32"
            }
          ],
          "name": "getClaim",
          "outputs": [
            {
              "internalType": "uint256",
              "name": "topic",
              "type": "uint256"
            },
            {
              "internalType": "uint256",
              "name": "scheme",
              "type": "uint256"
            },
            {
              "internalType": "address",
              "name": "issuer",
              "type": "address"
            },
            {
              "internalType": "bytes",
              "name": "signature",
              "type": "bytes"
            },
            {
              "internalType": "bytes",
              "name": "data",
              "type": "bytes"
            },
            {
              "internalType": "string",
              "name": "uri",
              "type": "string"
            }
          ],
          "stateMutability": "view",
          "type": "function"
        },
        {
          "inputs": [
            {
              "internalType": "uint256",
              "name": "_topic",
              "type": "uint256"
            }
          ],
          "name": "getClaimIdsByTopic",
          "outputs": [
            {
              "internalType": "bytes32[]",
              "name": "claimIds",
              "type": "bytes32[]"
            }
          ],
          "stateMutability": "view",
          "type": "function"
        },
        {
          "inputs": [
            {
              "internalType": "bytes32",
              "name": "_key",
              "type": "bytes32"
            }
          ],
          "name": "getKey",
          "outputs": [
            {
              "internalType": "uint256[]",
              "name": "purposes",
              "type": "uint256[]"
            },
            {
              "internalType": "uint256",
              "name": "keyType",
              "type": "uint256"
            },
            {
              "internalType": "bytes32",
              "name": "key",
              "type": "bytes32"
            }
          ],
          "stateMutability": "view",
          "type": "function"
        },
        {
          "inputs": [
            {
              "internalType": "bytes32",
              "name": "_key",
              "type": "bytes32"
            }
          ],
          "name": "getKeyPurposes",
          "outputs": [
            {
              "internalType": "uint256[]",
              "name": "_purposes",
              "type": "uint256[]"
            }
          ],
          "stateMutability": "view",
          "type": "function"
        },
        {
          "inputs": [
            {
              "internalType": "uint256",
              "name": "_purpose",
              "type": "uint256"
            }
          ],
          "name": "getKeysByPurpose",
          "outputs": [
            {
              "internalType": "bytes32[]",
              "name": "keys",
              "type": "bytes32[]"
            }
          ],
          "stateMutability": "view",
          "type": "function"
        },
        {
          "inputs": [
            {
              "internalType": "bytes",
              "name": "sig",
              "type": "bytes"
            },
            {
              "internalType": "bytes32",
              "name": "dataHash",
              "type": "bytes32"
            }
          ],
          "name": "getRecoveredAddress",
          "outputs": [
            {
              "internalType": "address",
              "name": "addr",
              "type": "address"
            }
          ],
          "stateMutability": "pure",
          "type": "function"
        },
        {
          "inputs": [
            {
              "internalType": "address",
              "name": "initialManagementKey",
              "type": "address"
            }
          ],
          "name": "initialize",
          "outputs": [],
          "stateMutability": "nonpayable",
          "type": "function"
        },
        {
          "inputs": [
            {
              "internalType": "contract IIdentity",
              "name": "_identity",
              "type": "address"
            },
            {
              "internalType": "uint256",
              "name": "claimTopic",
              "type": "uint256"
            },
            {
              "internalType": "bytes",
              "name": "sig",
              "type": "bytes"
            },
            {
              "internalType": "bytes",
              "name": "data",
              "type": "bytes"
            }
          ],
          "name": "isClaimValid",
          "outputs": [
            {
              "internalType": "bool",
              "name": "claimValid",
              "type": "bool"
            }
          ],
          "stateMutability": "view",
          "type": "function"
        },
        {
          "inputs": [
            {
              "internalType": "bytes32",
              "name": "_key",
              "type": "bytes32"
            },
            {
              "internalType": "uint256",
              "name": "_purpose",
              "type": "uint256"
            }
          ],
          "name": "keyHasPurpose",
          "outputs": [
            {
              "internalType": "bool",
              "name": "result",
              "type": "bool"
            }
          ],
          "stateMutability": "view",
          "type": "function"
        },
        {
          "inputs": [
            {
              "internalType": "bytes32",
              "name": "_claimId",
              "type": "bytes32"
            }
          ],
          "name": "removeClaim",
          "outputs": [
            {
              "internalType": "bool",
              "name": "success",
              "type": "bool"
            }
          ],
          "stateMutability": "nonpayable",
          "type": "function"
        },
        {
          "inputs": [
            {
              "internalType": "bytes32",
              "name": "_key",
              "type": "bytes32"
            },
            {
              "internalType": "uint256",
              "name": "_purpose",
              "type": "uint256"
            }
          ],
          "name": "removeKey",
          "outputs": [
            {
              "internalType": "bool",
              "name": "success",
              "type": "bool"
            }
          ],
          "stateMutability": "nonpayable",
          "type": "function"
        },
        {
          "inputs": [
            {
              "internalType": "bytes4",
              "name": "interfaceId",
              "type": "bytes4"
            }
          ],
          "name": "supportsInterface",
          "outputs": [
            {
              "internalType": "bool",
              "name": "",
              "type": "bool"
            }
          ],
          "stateMutability": "view",
          "type": "function"
        },
        {
          "inputs": [],
          "name": "version",
          "outputs": [
            {
              "internalType": "string",
              "name": "",
              "type": "string"
            }
          ],
          "stateMutability": "pure",
          "type": "function"
        }
      ],
      "evm": {
        "bytecode": {
          "linkReferences": {},
          "object": "6080604052346025576006805461ffff1916600117905560405161254b908161002b8239f35b600080fdfe6080604052600436101561001257600080fd5b60003560e01c806301ffc9a71461012757806312aaac70146101225780631d3812401461011d5780634eee424a1461011857806353d413c51461011357806354fd4d501461010e578063747442d31461010957806380e9e9e1146101045780639010f726146100ff578063b1a34e0d146100fa578063b61d27f6146100f5578063c0969a6e146100f0578063c3b129e3146100eb578063c4d66de8146100e6578063c9100bcb146100e1578063d202158d146100dc5763fb307b34146100d757600080fd5b6111ef565b6111ce565b61115d565b610f6b565b610f1a565b610eab565b610cf8565b610c45565b610af1565b610a7c565b6109f8565b6109a7565b6106cd565b610423565b61022d565b6101ce565b346101955760203660031901126101955760043563ffffffff60e01b81168091036101955763604b4d3760e11b8114908115610184575b8115610173575b506040519015158152602090f35b6301ffc9a760e01b14905038610165565b6301ffc9a760e01b8114915061015e565b600080fd5b906020808351928381520192019060005b8181106101b85750505090565b82518452602093840193909201916001016101ab565b346101955760203660031901126101955761021e6004356000908152600160208190526040909120908101546002820154916102099061122f565b9160405193849360608552606085019061019a565b91602084015260408301520390f35b34610195576060366003190112610195576004356024356044359161025e600160ff60065460081c1615151461127a565b30331480156103f3575b610271906112e2565b806002610288826000526001602052604060002090565b015403610391576102ab6102a6826000526001602052604060002090565b61122f565b9060005b825181101561032057836102c3828561140a565b51146102d1576001016102af565b60405162461bcd60e51b815260206004820152602160248201527f436f6e666c6963743a204b657920616c72656164792068617320707572706f736044820152606560f81b6064820152608490fd5b50929190506103428161033d856000526001602052604060002090565b61143b565b61035a8361033d836000526002602052604060002090565b604051927f480000bb1edad8ca1470381cc334b1917fbd51c6531f3a623ea8e0ec7e38a6e9600080a46001815280602081015b0390f35b91908260026103aa826000526001602052604060002090565b01556103d56103b96020610bc4565b8281526103d0856000526001602052604060002090565b6113bc565b8160016103ec856000526001602052604060002090565b0155610342565b5061027161041c604051602081019033825260208152610414604082610ba2565b51902061227c565b9050610268565b346101955760203660031901126101955760043561044d600160ff60065460081c1615151461127a565b303314801561069d575b61046090611474565b610474816000526004602052604060002090565b54801561064457600091610492826000526005602052604060002090565b54925b816104c06104b6836104b1876000526005602052604060002090565b611423565b90549060031b1c90565b1461062a576104ce906114db565b83811061049557916105296106199361052361050e6104b661061e985b610508610502886000526005602052604060002090565b916114ef565b90611423565b916104b1856000526005602052604060002090565b9061135d565b610545610540826000526005602052604060002090565b611514565b600161055b836000526004602052604060002090565b015490827f3cf57863a89432c61c4a27073c6ee39e8a764bff5a05aebfbcdcdc80b2e6130a6105a76002610599846000526004602052604060002090565b01546001600160a01b031690565b60036105bd846000526004602052604060002090565b019061060660046105d8866000526004602052604060002090565b0160056105ef876000526004602052604060002090565b019060405194859460018060a01b03169985611607565b0390a46000526004602052604060002090565b61169c565b60405160018152602090f35b916105296106199361052361050e6104b661061e986104eb565b60405162461bcd60e51b815260206004820152602b60248201527f4e6f6e4578697374696e673a205468657265206973206e6f20636c61696d207760448201526a1a5d1a081d1a1a5cc8125160aa1b6064820152608490fd5b506104606106c66040516020810190338252602081526106be604082610ba2565b519020612303565b9050610457565b34610195576040366003190112610195576004356024356106fa600160ff60065460081c1615151461127a565b303314801561093e575b61070d906112e2565b61072f826002610727826000526001602052604060002090565b0154146116d4565b6107466102a6836000526001602052604060002090565b9060005b81610755828561140a565b51146107cb57610764906114db565b9082518214610773579061074a565b60405162461bcd60e51b815260206004820152602a60248201527f4e6f6e4578697374696e673a204b657920646f65736e27742068617665207375604482015269636820707572706f736560b01b6064820152608490fd5b6107e96107e16107db85516114ef565b8561140a565b51918461140a565b5261080782610802856000526001602052604060002090565b61172a565b61081e610540846000526001602052604060002090565b600081815260026020526040812054905b8461084b6104b6836104b1876000526002602052604060002090565b1461092c57610859906114db565b81811061082f576105236108856104b661089a945b610508610502886000526002602052604060002090565b916104b1856000526002602052604060002090565b6108b1610540826000526002602052604060002090565b6108d360016108ca856000526001602052604060002090565b015492516114ef565b1561090b575b604051927f585a4aef50f8267a92b32412b331b20f7f8b96f2245b253b9cc50dcc621d3397600080a460018152602090f35b610927610922846000526001602052604060002090565b6117a3565b6108d9565b6105236108856104b661089a9461086e565b5061070d61095f604051602081019033825260208152610414604082610ba2565b9050610704565b919082519283825260005b848110610992575050826000602080949584010152601f8019910116010190565b80602080928401015182828601015201610971565b346101955760003660031901126101955761038d60408051906109ca8183610ba2565b6005825264322e322e3160d81b602083015251918291602083526020830190610966565b8015150361019557565b34610195576040366003190112610195576020610a38602435600435610a1d826109ee565b610a33600160ff60065460081c1615151461127a565b6119ed565b6040519015158152f35b602060408183019282815284518094520192019060005b818110610a665750505090565b8251845260209384019390920191600101610a59565b34610195576020366003190112610195576004356000526005602052604060002060405190816020825491828152019160005260206000209060005b818110610adb5761038d85610acf81870382610ba2565b60405191829182610a42565b8254845260209093019260019283019201610ab8565b34610195576020366003190112610195576004356000526002602052604060002060405190816020825491828152019160005260206000209060005b818110610b445761038d85610acf81870382610ba2565b8254845260209093019260019283019201610b2d565b6001600160a01b0381160361019557565b634e487b7160e01b600052604160045260246000fd5b6060810190811067ffffffffffffffff821117610b9d57604052565b610b6b565b90601f8019910116810190811067ffffffffffffffff821117610b9d57604052565b90610bd26040519283610ba2565b565b67ffffffffffffffff8111610b9d57601f01601f191660200190565b929192610bfc82610bd4565b91610c0a6040519384610ba2565b829481845281830111610195578281602093846000960137010152565b9080601f8301121561019557816020610c4293359101610bf0565b90565b346101955760c036600319011261019557602435604435600435610c6882610b5a565b60643567ffffffffffffffff811161019557610c88903690600401610c27565b60843567ffffffffffffffff811161019557610ca8903690600401610c27565b9060a4359367ffffffffffffffff851161019557366023860112156101955761038d95610ce2610ce8963690602481600401359101610bf0565b94611cd2565b6040519081529081906020820190565b606036600319011261019557600435610d1081610b5a565b6024359060443567ffffffffffffffff81116101955761038d927f8afcfabcb00e47a53a8fc3e9f23ff47ee1926194bb1350dd007c50b412a6cee892610d5d610e13933690600401610c27565b90610d74600160ff60065460081c1615151461127a565b6000549481610db18793610d92856000526003602052604060002090565b80546001600160a01b0319166001600160a01b03909216919091179055565b846001610dc8856000526003602052604060002090565b0155610dea846002610de4866000526003602052604060002090565b01612022565b610df56000546114db565b6000556040516001600160a01b03919091169586948291908261211e565b0390a4604080513360208201908152610e409290919061041490829081015b03601f198101835282610ba2565b15610e605750610e4f816117d7565b506040519081529081906020820190565b30141580610e7d575b15610ce857610e77816117d7565b50610ce8565b50604080513360208201908152610ea692909190610e9e9082908101610e32565b51902061237e565b610e69565b3461019557608036600319011261019557600435610ec881610b5a565b6024359060443567ffffffffffffffff811161019557610eec903690600401610c27565b906064359167ffffffffffffffff831161019557602093610f14610a38943690600401610c27565b9261212f565b346101955760403660031901126101955760043567ffffffffffffffff811161019557610f59610f506020923690600401610c27565b602435906121e6565b6040516001600160a01b039091168152f35b3461019557602036600319011261019557600435610f8881610b5a565b6001600160a01b038116156110c757600654600191829160ff161580156110be575b610fb39061248e565b610fc5600160ff196006541617600655565b610fd961010061ff00196006541617600655565b604080516001600160a01b03909216602083019081529190610ffe9082908101610e32565b519020806002611018826000526001602052604060002090565b01556110446110276020610bc4565b6001815261103f836000526001602052604060002090565b6124da565b6110638261105c836000526001602052604060002090565b0160019055565b60016000526002602052611097817fe90b7bceb6e7df5418fb78d8ee546e97c83a08bbccc01a0644d599ccd2a7c2e061143b565b7f480000bb1edad8ca1470381cc334b1917fbd51c6531f3a623ea8e0ec7e38a6e9600080a4005b50303b15610faa565b60405162461bcd60e51b815260206004820152601f60248201527f696e76616c696420617267756d656e74202d207a65726f2061646472657373006044820152606490fd5b94919361114f93610c429795611141938852602088015260018060a01b0316604087015260c0606087015260c0860190610966565b908482036080860152610966565b9160a0818403910152610966565b34610195576020366003190112610195576004803560009081526020829052604090208054600182015460028301549093919261038d926001600160a01b03909216916005820191908101906111c1906111bb908190600301612261565b92612261565b926040519687968761110c565b34610195576040366003190112610195576020610a386024356004356123f9565b3461019557602036600319011261019557600435600052600160205261038d61121b604060002061122f565b60405191829160208352602083019061019a565b906040519182815491828252602082019060005260206000209260005b818110611261575050610bd292500383610ba2565b845483526001948501948794506020909301920161124c565b1561128157565b60405162461bcd60e51b815260206004820152603360248201527f496e746572616374696e67207769746820746865206c69627261727920636f6e6044820152723a3930b1ba1034b9903337b93134b23232b71760691b6064820152608490fd5b156112e957565b60405162461bcd60e51b815260206004820152603060248201527f5065726d697373696f6e733a2053656e64657220646f6573206e6f742068617660448201526f65206d616e6167656d656e74206b657960801b6064820152608490fd5b634e487b7160e01b600052601160045260246000fd5b916113779183549060031b91821b91600019901b19161790565b9055565b818110611386575050565b6000815560010161137b565b805460018255806001106113a4575050565b610bd29160005260016020600020918201910161137b565b906113c682611392565b9060005260206000209060005b600181106113e057505050565b6001906020835193019281850155016113d3565b634e487b7160e01b600052603260045260246000fd5b805182101561141e5760209160051b010190565b6113f4565b805482101561141e5760005260206000200190600090565b805490600160401b821015610b9d578161145d91600161137794018155611423565b819391549060031b91821b91600019901b19161790565b1561147b57565b60405162461bcd60e51b815260206004820152603260248201527f5065726d697373696f6e733a2053656e64657220646f6573206e6f74206861766044820152716520636c61696d207369676e6572206b657960701b6064820152608490fd5b60001981146114ea5760010190565b611347565b6000198101919082116114ea57565b634e487b7160e01b600052603160045260246000fd5b8054801561154557600019019061154061152e8383611423565b81929154906000199060031b1b191690565b905555565b6114fe565b90600182811c9216801561157a575b602083101461156457565b634e487b7160e01b600052602260045260246000fd5b91607f1691611559565b600092918154916115948361154a565b80835292600181169081156115ea57506001146115b057505050565b60009081526020812093945091925b8383106115d0575060209250010190565b6001816020929493945483858701015201910191906115bf565b915050602093945060ff929192191683830152151560051b010190565b92611627610c429593611635938652608060208701526080860190611584565b908482036040860152611584565b916060818403910152611584565b61164d815461154a565b9081611657575050565b601f8211600114611669576000905550565b61168b610bd292826000526001601f6020600020920160051c8201910161137b565b600081815260208120918190559055565b6005906000815560006001820155600060028201556116bd60038201611643565b6116c960048201611643565b0161164d815461154a565b156116db57565b60405162461bcd60e51b815260206004820152602160248201527f4e6f6e4578697374696e673a204b65792069736e2774207265676973746572656044820152601960fa1b6064820152608490fd5b81519167ffffffffffffffff8311610b9d57600160401b8311610b9d576020908254848455808510611786575b500190600052602060002060005b8381106117725750505050565b600190602084519401938184015501611765565b61179d90846000528584600020918201910161137b565b38611757565b60026000918054838255806117be575b508260018201550155565b818452602084206117d19181019061137b565b386117b3565b6001610c4291610a338260ff60065460081c1615151461127a565b156117f957565b60405162461bcd60e51b815260206004820152602760248201527f43616e6e6f7420617070726f76652061206e6f6e2d6578697374696e6720657860448201526632b1baba34b7b760c91b6064820152608490fd5b1561185557565b60405162461bcd60e51b815260206004820152601860248201527f5265717565737420616c726561647920657865637574656400000000000000006044820152606490fd5b156118a157565b60405162461bcd60e51b815260206004820152601f60248201527f53656e64657220646f6573206e6f74206861766520616374696f6e206b6579006044820152606490fd5b156118ed57565b60405162461bcd60e51b815260206004820152602360248201527f53656e64657220646f6573206e6f742068617665206d616e6167656d656e74206044820152626b657960e81b6064820152608490fd5b6000929181549161194e8361154a565b9260018116908115611999575060011461196757505050565b909192935060005260206000206000905b8382106119855750500190565b600181602092548486015201910190611978565b60ff191683525050811515909102019150565b3d156119d7573d906119bd82610bd4565b916119cb6040519384610ba2565b82523d6000602084013e565b606090565b906020610c42928181520190611584565b906001906119fe60005484106117f2565b611a31611a2c611a286003611a1d876000526003602052604060002090565b015460081c60ff1690565b1590565b61184e565b611a55611a48846000526003602052604060002090565b546001600160a01b031690565b3090838060a01b031614600014611ca657604080513360208201908152611a8d92611a8892906104149082908101610e32565b6118e6565b604051811515815283907fb3932da477fe5d6c8ff2eafef050c0f3a1af18fc07121001482600f36f3715d890602090a2151503611c7d57611aeb6003611add836000526003602052604060002090565b01805460ff19166001179055565b600080611b05611a48846000526003602052604060002090565b611b436001611b1e866000526003602052604060002090565b01546002611b36876000526003602052604060002090565b016040519283809261193e565b03925af1611b4f6119ac565b5015611c0b57611b7e6003611b6e836000526003602052604060002090565b01805461ff001916610100179055565b611b95611a48826000526003602052604060002090565b6001611bab836000526003602052604060002090565b0154917f1f920dbda597d7bf95035464170fa58d0a4b57f13a1c315ace6793b9f63688b8611c036002611be8846000526003602052604060002090565b6040516001600160a01b0390961695928392909101826119dc565b0390a4600190565b611c22611a48826000526003602052604060002090565b6001611c38836000526003602052604060002090565b0154917fe10c49d9f7c71da23262367013434763cfdb2332267641728d25cd712c5c6a68611c756002611be8846000526003602052604060002090565b0390a4600090565b6003611c96611ca1926000526003602052604060002090565b01805460ff19169055565b600090565b604080513360208201908152611ccd92611cc89290610e9e9082908101610e32565b61189a565b611a8d565b9294909394611ced600160ff60065460081c1615151461127a565b3033148015611f20575b611d0090611474565b6001600160a01b03831694308603611ea9575b604080516001600160a01b03861660208201908152918101879052611d3b8160608101610e32565b51902096879486611d56876000526004602052604060002090565b55826001611d6e886000526004602052604060002090565b0155611d8a846003610de4896000526004602052604060002090565b611da4826004610de4896000526004602052604060002090565b611dbe856005610de4896000526004602052604060002090565b87611de7611ddb60026105998a6000526004602052604060002090565b6001600160a01b031690565b14611e765793611e7091611e647f46149b18aa084502c3f12bc75e19eda8bda8d102b82cce8474677a6d0d5f43c596611e2e8961033d8c6000526005602052604060002090565b6002611e448a6000526004602052604060002090565b0180546001600160a01b0319166001600160a01b03909216919091179055565b604051948594856120f0565b0390a490565b507f3bab293fc00db832d7619a9299914251b8747c036867ec056cbd506f60135b1393611e7091604051948594856120f0565b60405163604b4d3760e11b815260208180611eca8b878b3060048601611f5d565b03818a5afa8015611f1b57611ee791600091611eec575b50611fa1565b611d13565b611f0e915060203d602011611f14575b611f068183610ba2565b810190611f48565b38611ee1565b503d611efc565b611f95565b50611d00611f416040516020810190338252602081526106be604082610ba2565b9050611cf7565b908160209103126101955751610c42816109ee565b92610c429492611f879260018060a01b031685526020850152608060408501526080840190610966565b916060818403910152610966565b6040513d6000823e3d90fd5b15611fa857565b60405162461bcd60e51b815260206004820152600d60248201526c696e76616c696420636c61696d60981b6044820152606490fd5b9190601f8111611fec57505050565b610bd2926000526020600020906020601f840160051c83019310612018575b601f0160051c019061137b565b909150819061200b565b919091825167ffffffffffffffff8111610b9d5761204a81612044845461154a565b84611fdd565b6020601f821160011461208757819061137793949560009261207c575b50508160011b916000199060031b1c19161790565b015190503880612067565b601f1982169061209c84600052602060002090565b9160005b8181106120d8575095836001959697106120bf575b505050811b019055565b015160001960f88460031b161c191690553880806120b5565b9192602060018192868b0151815501940192016120a0565b92612110610c429593611f87938652608060208701526080860190610966565b908482036040860152610966565b906020610c42928181520190610966565b6121d8936121686121b39493610e32604051938492602084019660018060a01b0316875260408401526060808401526080830190610966565b5190206040516121aa81610e32602082019485603c917f19457468657265756d205369676e6564204d6573736167653a0a3332000000008252601c8201520190565b519020906121e6565b604080516001600160a01b039092166020830190815291906106be9082908101610e32565b6121e157600090565b600190565b600090604181510361225b5760208101519160606040830151920151901a91601b8310612245575b6040805194855260ff9093166020858101919091529284015260608301526000808052909160809060015afa15611f1b5760005190565b9091601b019060ff82116114ea5790919061220e565b50905090565b90610bd26122759260405193848092611584565b0383610ba2565b6000526001602052604060002060026040519161229883610b81565b6122a18161122f565b8352600181015460208401520154806040830152156122fd5760005b815180518210156122f5576122d48260019261140a565b511480156122f0575b6122e9576001016122bd565b5050600190565b6122dd565b505050600090565b50600090565b6000526001602052604060002060026040519161231f83610b81565b6123288161122f565b8352600181015460208401520154806040830152156122fd5760005b815180518210156122f557816123599161140a565b5160018114908115612373575b506122e957600101612344565b600391501438612366565b6000526001602052604060002060026040519161239a83610b81565b6123a38161122f565b8352600181015460208401520154806040830152156122fd5760005b815180518210156122f557816123d49161140a565b51600181149081156123ee575b506122e9576001016123bf565b6002915014386123e1565b600052600160205260406000209060026040519261241684610b81565b61241f8161122f565b8452600181015460208501520154806040840152156124875760005b8251805182101561247e57816124509161140a565b518260018214918215612474575b505061246c5760010161243b565b505050600190565b149050823861245e565b50505050600090565b5050600090565b1561249557565b60405162461bcd60e51b815260206004820152601e60248201527f496e697469616c206b65792077617320616c72656164792073657475702e00006044820152606490fd5b906124e482611392565b9060005260206000209060005b600181106124fe57505050565b600190602060ff84511693019281850155016124f156fea264697066735822122089799b66a8cf80b1eac9926cb59fadd7e2ed54c7d2ff0faf5e844083a2440d5464736f6c634300081c0033",
          "opcodes": "PUSH1 0x80 PUSH1 0x40 MSTORE CALLVALUE PUSH1 0x25 JUMPI PUSH1 0x6 DUP1 SLOAD PUSH2 0xFFFF NOT AND PUSH1 0x1 OR SWAP1 SSTORE PUSH1 0x40 MLOAD PUSH2 0x254B SWAP1 DUP2 PUSH2 0x2B DUP3 CODECOPY RETURN JUMPDEST PUSH1 0x0 DUP1 REVERT INVALID PUSH1 0x80 PUSH1 0x40 MSTORE PUSH1 0x4 CALLDATASIZE LT ISZERO PUSH2 0x12 JUMPI PUSH1 0x0 DUP1 REVERT JUMPDEST PUSH1 0x0 CALLDATALOAD PUSH1 0xE0 SHR DUP1 PUSH4 0x1FFC9A7 EQ PUSH2 0x127 JUMPI DUP1 PUSH4 0x12AAAC70 EQ PUSH2 0x122 JUMPI DUP1 PUSH4 0x1D381240 EQ PUSH2 0x11D JUMPI DUP1 PUSH4 0x4EEE424A EQ PUSH2 0x118 JUMPI DUP1 PUSH4 0x53D413C5 EQ PUSH2 0x113 JUMPI DUP1 PUSH4 0x54FD4D50 EQ PUSH2 0x10E JUMPI DUP1 PUSH4 0x747442D3 EQ PUSH2 0x109 JUMPI DUP1 PUSH4 0x80E9E9E1 EQ PUSH2 0x104 JUMPI DUP1 PUSH4 0x9010F726 EQ PUSH2 0xFF JUMPI DUP1 PUSH4 0xB1A34E0D EQ PUSH2 0xFA JUMPI DUP1 PUSH4 0xB61D27F6 EQ PUSH2 0xF5 JUMPI DUP1 PUSH4 0xC0969A6E EQ PUSH2 0xF0 JUMPI DUP1 PUSH4 0xC3B129E3 EQ PUSH2 0xEB JUMPI DUP1 PUSH4 0xC4D66DE8 EQ PUSH2 0xE6 JUMPI DUP1 PUSH4 0xC9100BCB EQ PUSH2 0xE1 JUMPI DUP1 PUSH4 0xD202158D EQ PUSH2 0xDC JUMPI PUSH4 0xFB307B34 EQ PUSH2 0xD7 JUMPI PUSH1 0x0 DUP1 REVERT JUMPDEST PUSH2 0x11EF JUMP JUMPDEST PUSH2 0x11CE JUMP JUMPDEST PUSH2 0x115D JUMP JUMPDEST PUSH2 0xF6B JUMP JUMPDEST PUSH2 0xF1A JUMP JUMPDEST PUSH2 0xEAB JUMP JUMPDEST PUSH2 0xCF8 JUMP JUMPDEST PUSH2 0xC45 JUMP JUMPDEST PUSH2 0xAF1 JUMP JUMPDEST PUSH2 0xA7C JUMP JUMPDEST PUSH2 0x9F8 JUMP JUMPDEST PUSH2 0x9A7 JUMP JUMPDEST PUSH2 0x6CD JUMP JUMPDEST PUSH2 0x423 JUMP JUMPDEST PUSH2 0x22D JUMP JUMPDEST PUSH2 0x1CE JUMP JUMPDEST CALLVALUE PUSH2 0x195 JUMPI PUSH1 0x20 CALLDATASIZE PUSH1 0x3 NOT ADD SLT PUSH2 0x195 JUMPI PUSH1 0x4 CALLDATALOAD PUSH4 0xFFFFFFFF PUSH1 0xE0 SHL DUP2 AND DUP1 SWAP2 SUB PUSH2 0x195 JUMPI PUSH4 0x604B4D37 PUSH1 0xE1 SHL DUP2 EQ SWAP1 DUP2 ISZERO PUSH2 0x184 JUMPI JUMPDEST DUP2 ISZERO PUSH2 0x173 JUMPI JUMPDEST POP PUSH1 0x40 MLOAD SWAP1 ISZERO ISZERO DUP2 MSTORE PUSH1 0x20 SWAP1 RETURN JUMPDEST PUSH4 0x1FFC9A7 PUSH1 0xE0 SHL EQ SWAP1 POP CODESIZE PUSH2 0x165 JUMP JUMPDEST PUSH4 0x1FFC9A7 PUSH1 0xE0 SHL DUP2 EQ SWAP2 POP PUSH2 0x15E JUMP JUMPDEST PUSH1 0x0 DUP1 REVERT JUMPDEST SWAP1 PUSH1 0x20 DUP1 DUP4 MLOAD SWAP3 DUP4 DUP2 MSTORE ADD SWAP3 ADD SWAP1 PUSH1 0x0 JUMPDEST DUP2 DUP2 LT PUSH2 0x1B8 JUMPI POP POP POP SWAP1 JUMP JUMPDEST DUP3 MLOAD DUP5 MSTORE PUSH1 0x20 SWAP4 DUP5 ADD SWAP4 SWAP1 SWAP3 ADD SWAP2 PUSH1 0x1 ADD PUSH2 0x1AB JUMP JUMPDEST CALLVALUE PUSH2 0x195 JUMPI PUSH1 0x20 CALLDATASIZE PUSH1 0x3 NOT ADD SLT PUSH2 0x195 JUMPI PUSH2 0x21E PUSH1 0x4 CALLDATALOAD PUSH1 0x0 SWAP1 DUP2 MSTORE PUSH1 0x1 PUSH1 0x20 DUP2 SWAP1 MSTORE PUSH1 0x40 SWAP1 SWAP2 KECCAK256 SWAP1 DUP2 ADD SLOAD PUSH1 0x2 DUP3 ADD SLOAD SWAP2 PUSH2 0x209 SWAP1 PUSH2 0x122F JUMP JUMPDEST SWAP2 PUSH1 0x40 MLOAD SWAP4 DUP5 SWAP4 PUSH1 0x60 DUP6 MSTORE PUSH1 0x60 DUP6 ADD SWAP1 PUSH2 0x19A JUMP JUMPDEST SWAP2 PUSH1 0x20 DUP5 ADD MSTORE PUSH1 0x40 DUP4 ADD MSTORE SUB SWAP1 RETURN JUMPDEST CALLVALUE PUSH2 0x195 JUMPI PUSH1 0x60 CALLDATASIZE PUSH1 0x3 NOT ADD SLT PUSH2 0x195 JUMPI PUSH1 0x4 CALLDATALOAD PUSH1 0x24 CALLDATALOAD PUSH1 0x44 CALLDATALOAD SWAP2 PUSH2 0x25E PUSH1 0x1 PUSH1 0xFF PUSH1 0x6 SLOAD PUSH1 0x8 SHR AND ISZERO ISZERO EQ PUSH2 0x127A JUMP JUMPDEST ADDRESS CALLER EQ DUP1 ISZERO PUSH2 0x3F3 JUMPI JUMPDEST PUSH2 0x271 SWAP1 PUSH2 0x12E2 JUMP JUMPDEST DUP1 PUSH1 0x2 PUSH2 0x288 DUP3 PUSH1 0x0 MSTORE PUSH1 0x1 PUSH1 0x20 MSTORE PUSH1 0x40 PUSH1 0x0 KECCAK256 SWAP1 JUMP JUMPDEST ADD SLOAD SUB PUSH2 0x391 JUMPI PUSH2 0x2AB PUSH2 0x2A6 DUP3 PUSH1 0x0 MSTORE PUSH1 0x1 PUSH1 0x20 MSTORE PUSH1 0x40 PUSH1 0x0 KECCAK256 SWAP1 JUMP JUMPDEST PUSH2 0x122F JUMP JUMPDEST SWAP1 PUSH1 0x0 JUMPDEST DUP3 MLOAD DUP2 LT ISZERO PUSH2 0x320 JUMPI DUP4 PUSH2 0x2C3 DUP3 DUP6 PUSH2 0x140A JUMP JUMPDEST MLOAD EQ PUSH2 0x2D1 JUMPI PUSH1 0x1 ADD PUSH2 0x2AF JUMP JUMPDEST PUSH1 0x40 MLOAD PUSH3 0x461BCD PUSH1 0xE5 SHL DUP2 MSTORE PUSH1 0x20 PUSH1 0x4 DUP3 ADD MSTORE PUSH1 0x21 PUSH1 0x24 DUP3 ADD MSTORE PUSH32 0x436F6E666C6963743A204B657920616C72656164792068617320707572706F73 PUSH1 0x44 DUP3 ADD MSTORE PUSH1 0x65 PUSH1 0xF8 SHL PUSH1 0x64 DUP3 ADD MSTORE PUSH1 0x84 SWAP1 REVERT JUMPDEST POP SWAP3 SWAP2 SWAP1 POP PUSH2 0x342 DUP2 PUSH2 0x33D DUP6 PUSH1 0x0 MSTORE PUSH1 0x1 PUSH1 0x20 MSTORE PUSH1 0x40 PUSH1 0x0 KECCAK256 SWAP1 JUMP JUMPDEST PUSH2 0x143B JUMP JUMPDEST PUSH2 0x35A DUP4 PUSH2 0x33D DUP4 PUSH1 0x0 MSTORE PUSH1 0x2 PUSH1 0x20 MSTORE PUSH1 0x40 PUSH1 0x0 KECCAK256 SWAP1 JUMP JUMPDEST PUSH1 0x40 MLOAD SWAP3 PUSH32 0x480000BB1EDAD8CA1470381CC334B1917FBD51C6531F3A623EA8E0EC7E38A6E9 PUSH1 0x0 DUP1 LOG4 PUSH1 0x1 DUP2 MSTORE DUP1 PUSH1 0x20 DUP2 ADD JUMPDEST SUB SWAP1 RETURN JUMPDEST SWAP2 SWAP1 DUP3 PUSH1 0x2 PUSH2 0x3AA DUP3 PUSH1 0x0 MSTORE PUSH1 0x1 PUSH1 0x20 MSTORE PUSH1 0x40 PUSH1 0x0 KECCAK256 SWAP1 JUMP JUMPDEST ADD SSTORE PUSH2 0x3D5 PUSH2 0x3B9 PUSH1 0x20 PUSH2 0xBC4 JUMP JUMPDEST DUP3 DUP2 MSTORE PUSH2 0x3D0 DUP6 PUSH1 0x0 MSTORE PUSH1 0x1 PUSH1 0x20 MSTORE PUSH1 0x40 PUSH1 0x0 KECCAK256 SWAP1 JUMP JUMPDEST PUSH2 0x13BC JUMP JUMPDEST DUP2 PUSH1 0x1 PUSH2 0x3EC DUP6 PUSH1 0x0 MSTORE PUSH1 0x1 PUSH1 0x20 MSTORE PUSH1 0x40 PUSH1 0x0 KECCAK256 SWAP1 JUMP JUMPDEST ADD SSTORE PUSH2 0x342 JUMP JUMPDEST POP PUSH2 0x271 PUSH2 0x41C PUSH1 0x40 MLOAD PUSH1 0x20 DUP2 ADD SWAP1 CALLER DUP3 MSTORE PUSH1 0x20 DUP2 MSTORE PUSH2 0x414 PUSH1 0x40 DUP3 PUSH2 0xBA2 JUMP JUMPDEST MLOAD SWAP1 KECCAK256 PUSH2 0x227C JUMP JUMPDEST SWAP1 POP PUSH2 0x268 JUMP JUMPDEST CALLVALUE PUSH2 0x195 JUMPI PUSH1 0x20 CALLDATASIZE PUSH1 0x3 NOT ADD SLT PUSH2 0x195 JUMPI PUSH1 0x4 CALLDATALOAD PUSH2 0x44D PUSH1 0x1 PUSH1 0xFF PUSH1 0x6 SLOAD PUSH1 0x8 SHR AND ISZERO ISZERO EQ PUSH2 0x127A JUMP JUMPDEST ADDRESS CALLER EQ DUP1 ISZERO PUSH2 0x69D JUMPI JUMPDEST PUSH2 0x460 SWAP1 PUSH2 0x1474 JUMP JUMPDEST PUSH2 0x474 DUP2 PUSH1 0x0 MSTORE PUSH1 0x4 PUSH1 0x20 MSTORE PUSH1 0x40 PUSH1 0x0 KECCAK256 SWAP1 JUMP JUMPDEST SLOAD DUP1 ISZERO PUSH2 0x644 JUMPI PUSH1 0x0 SWAP2 PUSH2 0x492 DUP3 PUSH1 0x0 MSTORE PUSH1 0x5 PUSH1 0x20 MSTORE PUSH1 0x40 PUSH1 0x0 KECCAK256 SWAP1 JUMP JUMPDEST SLOAD SWAP3 JUMPDEST DUP2 PUSH2 0x4C0 PUSH2 0x4B6 DUP4 PUSH2 0x4B1 DUP8 PUSH1 0x0 MSTORE PUSH1 0x5 PUSH1 0x20 MSTORE PUSH1 0x40 PUSH1 0x0 KECCAK256 SWAP1 JUMP JUMPDEST PUSH2 0x1423 JUMP JUMPDEST SWAP1 SLOAD SWAP1 PUSH1 0x3 SHL SHR SWAP1 JUMP JUMPDEST EQ PUSH2 0x62A JUMPI PUSH2 0x4CE SWAP1 PUSH2 0x14DB JUMP JUMPDEST DUP4 DUP2 LT PUSH2 0x495 JUMPI SWAP2 PUSH2 0x529 PUSH2 0x619 SWAP4 PUSH2 0x523 PUSH2 0x50E PUSH2 0x4B6 PUSH2 0x61E SWAP9 JUMPDEST PUSH2 0x508 PUSH2 0x502 DUP9 PUSH1 0x0 MSTORE PUSH1 0x5 PUSH1 0x20 MSTORE PUSH1 0x40 PUSH1 0x0 KECCAK256 SWAP1 JUMP JUMPDEST SWAP2 PUSH2 0x14EF JUMP JUMPDEST SWAP1 PUSH2 0x1423 JUMP JUMPDEST SWAP2 PUSH2 0x4B1 DUP6 PUSH1 0x0 MSTORE PUSH1 0x5 PUSH1 0x20 MSTORE PUSH1 0x40 PUSH1 0x0 KECCAK256 SWAP1 JUMP JUMPDEST SWAP1 PUSH2 0x135D JUMP JUMPDEST PUSH2 0x545 PUSH2 0x540 DUP3 PUSH1 0x0 MSTORE PUSH1 0x5 PUSH1 0x20 MSTORE PUSH1 0x40 PUSH1 0x0 KECCAK256 SWAP1 JUMP JUMPDEST PUSH2 0x1514 JUMP JUMPDEST PUSH1 0x1 PUSH2 0x55B DUP4 PUSH1 0x0 MSTORE PUSH1 0x4 PUSH1 0x20 MSTORE PUSH1 0x40 PUSH1 0x0 KECCAK256 SWAP1 JUMP JUMPDEST ADD SLOAD SWAP1 DUP3 PUSH32 0x3CF57863A89432C61C4A27073C6EE39E8A764BFF5A05AEBFBCDCDC80B2E6130A PUSH2 0x5A7 PUSH1 0x2 PUSH2 0x599 DUP5 PUSH1 0x0 MSTORE PUSH1 0x4 PUSH1 0x20 MSTORE PUSH1 0x40 PUSH1 0x0 KECCAK256 SWAP1 JUMP JUMPDEST ADD SLOAD PUSH1 0x1 PUSH1 0x1 PUSH1 0xA0 SHL SUB AND SWAP1 JUMP JUMPDEST PUSH1 0x3 PUSH2 0x5BD DUP5 PUSH1 0x0 MSTORE PUSH1 0x4 PUSH1 0x20 MSTORE PUSH1 0x40 PUSH1 0x0 KECCAK256 SWAP1 JUMP JUMPDEST ADD SWAP1 PUSH2 0x606 PUSH1 0x4 PUSH2 0x5D8 DUP7 PUSH1 0x0 MSTORE PUSH1 0x4 PUSH1 0x20 MSTORE PUSH1 0x40 PUSH1 0x0 KECCAK256 SWAP1 JUMP JUMPDEST ADD PUSH1 0x5 PUSH2 0x5EF DUP8 PUSH1 0x0 MSTORE PUSH1 0x4 PUSH1 0x20 MSTORE PUSH1 0x40 PUSH1 0x0 KECCAK256 SWAP1 JUMP JUMPDEST ADD SWAP1 PUSH1 0x40 MLOAD SWAP5 DUP6 SWAP5 PUSH1 0x1 DUP1 PUSH1 0xA0 SHL SUB AND SWAP10 DUP6 PUSH2 0x1607 JUMP JUMPDEST SUB SWAP1 LOG4 PUSH1 0x0 MSTORE PUSH1 0x4 PUSH1 0x20 MSTORE PUSH1 0x40 PUSH1 0x0 KECCAK256 SWAP1 JUMP JUMPDEST PUSH2 0x169C JUMP JUMPDEST PUSH1 0x40 MLOAD PUSH1 0x1 DUP2 MSTORE PUSH1 0x20 SWAP1 RETURN JUMPDEST SWAP2 PUSH2 0x529 PUSH2 0x619 SWAP4 PUSH2 0x523 PUSH2 0x50E PUSH2 0x4B6 PUSH2 0x61E SWAP9 PUSH2 0x4EB JUMP JUMPDEST PUSH1 0x40 MLOAD PUSH3 0x461BCD PUSH1 0xE5 SHL DUP2 MSTORE PUSH1 0x20 PUSH1 0x4 DUP3 ADD MSTORE PUSH1 0x2B PUSH1 0x24 DUP3 ADD MSTORE PUSH32 0x4E6F6E4578697374696E673A205468657265206973206E6F20636C61696D2077 PUSH1 0x44 DUP3 ADD MSTORE PUSH11 0x1A5D1A081D1A1A5CC81251 PUSH1 0xAA SHL PUSH1 0x64 DUP3 ADD MSTORE PUSH1 0x84 SWAP1 REVERT JUMPDEST POP PUSH2 0x460 PUSH2 0x6C6 PUSH1 0x40 MLOAD PUSH1 0x20 DUP2 ADD SWAP1 CALLER DUP3 MSTORE PUSH1 0x20 DUP2 MSTORE PUSH2 0x6BE PUSH1 0x40 DUP3 PUSH2 0xBA2 JUMP JUMPDEST MLOAD SWAP1 KECCAK256 PUSH2 0x2303 JUMP JUMPDEST SWAP1 POP PUSH2 0x457 JUMP JUMPDEST CALLVALUE PUSH2 0x195 JUMPI PUSH1 0x40 CALLDATASIZE PUSH1 0x3 NOT ADD SLT PUSH2 0x195 JUMPI PUSH1 0x4 CALLDATALOAD PUSH1 0x24 CALLDATALOAD PUSH2 0x6FA PUSH1 0x1 PUSH1 0xFF PUSH1 0x6 SLOAD PUSH1 0x8 SHR AND ISZERO ISZERO EQ PUSH2 0x127A JUMP JUMPDEST ADDRESS CALLER EQ DUP1 ISZERO PUSH2 0x93E JUMPI JUMPDEST PUSH2 0x70D SWAP1 PUSH2 0x12E2 JUMP JUMPDEST PUSH2 0x72F DUP3 PUSH1 0x2 PUSH2 0x727 DUP3 PUSH1 0x0 MSTORE PUSH1 0x1 PUSH1 0x20 MSTORE PUSH1 0x40 PUSH1 0x0 KECCAK256 SWAP1 JUMP JUMPDEST ADD SLOAD EQ PUSH2 0x16D4 JUMP JUMPDEST PUSH2 0x746 PUSH2 0x2A6 DUP4 PUSH1 0x0 MSTORE PUSH1 0x1 PUSH1 0x20 MSTORE PUSH1 0x40 PUSH1 0x0 KECCAK256 SWAP1 JUMP JUMPDEST SWAP1 PUSH1 0x0 JUMPDEST DUP2 PUSH2 0x755 DUP3 DUP6 PUSH2 0x140A JUMP JUMPDEST MLOAD EQ PUSH2 0x7CB JUMPI PUSH2 0x764 SWAP1 PUSH2 0x14DB JUMP JUMPDEST SWAP1 DUP3 MLOAD DUP3 EQ PUSH2 0x773 JUMPI SWAP1 PUSH2 0x74A JUMP JUMPDEST PUSH1 0x40 MLOAD PUSH3 0x461BCD PUSH1 0xE5 SHL DUP2 MSTORE PUSH1 0x20 PUSH1 0x4 DUP3 ADD MSTORE PUSH1 0x2A PUSH1 0x24 DUP3 ADD MSTORE PUSH32 0x4E6F6E4578697374696E673A204B657920646F65736E27742068617665207375 PUSH1 0x44 DUP3 ADD MSTORE PUSH10 0x636820707572706F7365 PUSH1 0xB0 SHL PUSH1 0x64 DUP3 ADD MSTORE PUSH1 0x84 SWAP1 REVERT JUMPDEST PUSH2 0x7E9 PUSH2 0x7E1 PUSH2 0x7DB DUP6 MLOAD PUSH2 0x14EF JUMP JUMPDEST DUP6 PUSH2 0x140A JUMP JUMPDEST MLOAD SWAP2 DUP5 PUSH2 0x140A JUMP JUMPDEST MSTORE PUSH2 0x807 DUP3 PUSH2 0x802 DUP6 PUSH1 0x0 MSTORE PUSH1 0x1 PUSH1 0x20 MSTORE PUSH1 0x40 PUSH1 0x0 KECCAK256 SWAP1 JUMP JUMPDEST PUSH2 0x172A JUMP JUMPDEST PUSH2 0x81E PUSH2 0x540 DUP5 PUSH1 0x0 MSTORE PUSH1 0x1 PUSH1 0x20 MSTORE PUSH1 0x40 PUSH1 0x0 KECCAK256 SWAP1 JUMP JUMPDEST PUSH1 0x0 DUP2 DUP2 MSTORE PUSH1 0x2 PUSH1 0x20 MSTORE PUSH1 0x40 DUP2 KECCAK256 SLOAD SWAP1 JUMPDEST DUP5 PUSH2 0x84B PUSH2 0x4B6 DUP4 PUSH2 0x4B1 DUP8 PUSH1 0x0 MSTORE PUSH1 0x2 PUSH1 0x20 MSTORE PUSH1 0x40 PUSH1 0x0 KECCAK256 SWAP1 JUMP JUMPDEST EQ PUSH2 0x92C JUMPI PUSH2 0x859 SWAP1 PUSH2 0x14DB JUMP JUMPDEST DUP2 DUP2 LT PUSH2 0x82F JUMPI PUSH2 0x523 PUSH2 0x885 PUSH2 0x4B6 PUSH2 0x89A SWAP5 JUMPDEST PUSH2 0x508 PUSH2 0x502 DUP9 PUSH1 0x0 MSTORE PUSH1 0x2 PUSH1 0x20 MSTORE PUSH1 0x40 PUSH1 0x0 KECCAK256 SWAP1 JUMP JUMPDEST SWAP2 PUSH2 0x4B1 DUP6 PUSH1 0x0 MSTORE PUSH1 0x2 PUSH1 0x20 MSTORE PUSH1 0x40 PUSH1 0x0 KECCAK256 SWAP1 JUMP JUMPDEST PUSH2 0x8B1 PUSH2 0x540 DUP3 PUSH1 0x0 MSTORE PUSH1 0x2 PUSH1 0x20 MSTORE PUSH1 0x40 PUSH1 0x0 KECCAK256 SWAP1 JUMP JUMPDEST PUSH2 0x8D3 PUSH1 0x1 PUSH2 0x8CA DUP6 PUSH1 0x0 MSTORE PUSH1 0x1 PUSH1 0x20 MSTORE PUSH1 0x40 PUSH1 0x0 KECCAK256 SWAP1 JUMP JUMPDEST ADD SLOAD SWAP3 MLOAD PUSH2 0x14EF JUMP JUMPDEST ISZERO PUSH2 0x90B JUMPI JUMPDEST PUSH1 0x40 MLOAD SWAP3 PUSH32 0x585A4AEF50F8267A92B32412B331B20F7F8B96F2245B253B9CC50DCC621D3397 PUSH1 0x0 DUP1 LOG4 PUSH1 0x1 DUP2 MSTORE PUSH1 0x20 SWAP1 RETURN JUMPDEST PUSH2 0x927 PUSH2 0x922 DUP5 PUSH1 0x0 MSTORE PUSH1 0x1 PUSH1 0x20 MSTORE PUSH1 0x40 PUSH1 0x0 KECCAK256 SWAP1 JUMP JUMPDEST PUSH2 0x17A3 JUMP JUMPDEST PUSH2 0x8D9 JUMP JUMPDEST PUSH2 0x523 PUSH2 0x885 PUSH2 0x4B6 PUSH2 0x89A SWAP5 PUSH2 0x86E JUMP JUMPDEST POP PUSH2 0x70D PUSH2 0x95F PUSH1 0x40 MLOAD PUSH1 0x20 DUP2 ADD SWAP1 CALLER DUP3 MSTORE PUSH1 0x20 DUP2 MSTORE PUSH2 0x414 PUSH1 0x40 DUP3 PUSH2 0xBA2 JUMP JUMPDEST SWAP1 POP PUSH2 0x704 JUMP JUMPDEST SWAP2 SWAP1 DUP3 MLOAD SWAP3 DUP4 DUP3 MSTORE PUSH1 0x0 JUMPDEST DUP5 DUP2 LT PUSH2 0x992 JUMPI POP POP DUP3 PUSH1 0x0 PUSH1 0x20 DUP1 SWAP5 SWAP6 DUP5 ADD ADD MSTORE PUSH1 0x1F DUP1 NOT SWAP2 ADD AND ADD ADD SWAP1 JUMP JUMPDEST DUP1 PUSH1 0x20 DUP1 SWAP3 DUP5 ADD ADD MLOAD DUP3 DUP3 DUP7 ADD ADD MSTORE ADD PUSH2 0x971 JUMP JUMPDEST CALLVALUE PUSH2 0x195 JUMPI PUSH1 0x0 CALLDATASIZE PUSH1 0x3 NOT ADD SLT PUSH2 0x195 JUMPI PUSH2 0x38D PUSH1 0x40 DUP1 MLOAD SWAP1 PUSH2 0x9CA DUP2 DUP4 PUSH2 0xBA2 JUMP JUMPDEST PUSH1 0x5 DUP3 MSTORE PUSH5 0x322E322E31 PUSH1 0xD8 SHL PUSH1 0x20 DUP4 ADD MSTORE MLOAD SWAP2 DUP3 SWAP2 PUSH1 0x20 DUP4 MSTORE PUSH1 0x20 DUP4 ADD SWAP1 PUSH2 0x966 JUMP JUMPDEST DUP1 ISZERO ISZERO SUB PUSH2 0x195 JUMPI JUMP JUMPDEST CALLVALUE PUSH2 0x195 JUMPI PUSH1 0x40 CALLDATASIZE PUSH1 0x3 NOT ADD SLT PUSH2 0x195 JUMPI PUSH1 0x20 PUSH2 0xA38 PUSH1 0x24 CALLDATALOAD PUSH1 0x4 CALLDATALOAD PUSH2 0xA1D DUP3 PUSH2 0x9EE JUMP JUMPDEST PUSH2 0xA33 PUSH1 0x1 PUSH1 0xFF PUSH1 0x6 SLOAD PUSH1 0x8 SHR AND ISZERO ISZERO EQ PUSH2 0x127A JUMP JUMPDEST PUSH2 0x19ED JUMP JUMPDEST PUSH1 0x40 MLOAD SWAP1 ISZERO ISZERO DUP2 MSTORE RETURN JUMPDEST PUSH1 0x20 PUSH1 0x40 DUP2 DUP4 ADD SWAP3 DUP3 DUP2 MSTORE DUP5 MLOAD DUP1 SWAP5 MSTORE ADD SWAP3 ADD SWAP1 PUSH1 0x0 JUMPDEST DUP2 DUP2 LT PUSH2 0xA66 JUMPI POP POP POP SWAP1 JUMP JUMPDEST DUP3 MLOAD DUP5 MSTORE PUSH1 0x20 SWAP4 DUP5 ADD SWAP4 SWAP1 SWAP3 ADD SWAP2 PUSH1 0x1 ADD PUSH2 0xA59 JUMP JUMPDEST CALLVALUE PUSH2 0x195 JUMPI PUSH1 0x20 CALLDATASIZE PUSH1 0x3 NOT ADD SLT PUSH2 0x195 JUMPI PUSH1 0x4 CALLDATALOAD PUSH1 0x0 MSTORE PUSH1 0x5 PUSH1 0x20 MSTORE PUSH1 0x40 PUSH1 0x0 KECCAK256 PUSH1 0x40 MLOAD SWAP1 DUP2 PUSH1 0x20 DUP3 SLOAD SWAP2 DUP3 DUP2 MSTORE ADD SWAP2 PUSH1 0x0 MSTORE PUSH1 0x20 PUSH1 0x0 KECCAK256 SWAP1 PUSH1 0x0 JUMPDEST DUP2 DUP2 LT PUSH2 0xADB JUMPI PUSH2 0x38D DUP6 PUSH2 0xACF DUP2 DUP8 SUB DUP3 PUSH2 0xBA2 JUMP JUMPDEST PUSH1 0x40 MLOAD SWAP2 DUP3 SWAP2 DUP3 PUSH2 0xA42 JUMP JUMPDEST DUP3 SLOAD DUP5 MSTORE PUSH1 0x20 SWAP1 SWAP4 ADD SWAP3 PUSH1 0x1 SWAP3 DUP4 ADD SWAP3 ADD PUSH2 0xAB8 JUMP JUMPDEST CALLVALUE PUSH2 0x195 JUMPI PUSH1 0x20 CALLDATASIZE PUSH1 0x3 NOT ADD SLT PUSH2 0x195 JUMPI PUSH1 0x4 CALLDATALOAD PUSH1 0x0 MSTORE PUSH1 0x2 PUSH1 0x20 MSTORE PUSH1 0x40 PUSH1 0x0 KECCAK256 PUSH1 0x40 MLOAD SWAP1 DUP2 PUSH1 0x20 DUP3 SLOAD SWAP2 DUP3 DUP2 MSTORE ADD SWAP2 PUSH1 0x0 MSTORE PUSH1 0x20 PUSH1 0x0 KECCAK256 SWAP1 PUSH1 0x0 JUMPDEST DUP2 DUP2 LT PUSH2 0xB44 JUMPI PUSH2 0x38D DUP6 PUSH2 0xACF DUP2 DUP8 SUB DUP3 PUSH2 0xBA2 JUMP JUMPDEST DUP3 SLOAD DUP5 MSTORE PUSH1 0x20 SWAP1 SWAP4 ADD SWAP3 PUSH1 0x1 SWAP3 DUP4 ADD SWAP3 ADD PUSH2 0xB2D JUMP JUMPDEST PUSH1 0x1 PUSH1 0x1 PUSH1 0xA0 SHL SUB DUP2 AND SUB PUSH2 0x195 JUMPI JUMP JUMPDEST PUSH4 0x4E487B71 PUSH1 0xE0 SHL PUSH1 0x0 MSTORE PUSH1 0x41 PUSH1 0x4 MSTORE PUSH1 0x24 PUSH1 0x0 REVERT JUMPDEST PUSH1 0x60 DUP2 ADD SWAP1 DUP2 LT PUSH8 0xFFFFFFFFFFFFFFFF DUP3 GT OR PUSH2 0xB9D JUMPI PUSH1 0x40 MSTORE JUMP JUMPDEST PUSH2 0xB6B JUMP JUMPDEST SWAP1 PUSH1 0x1F DUP1 NOT SWAP2 ADD AND DUP2 ADD SWAP1 DUP2 LT PUSH8 0xFFFFFFFFFFFFFFFF DUP3 GT OR PUSH2 0xB9D JUMPI PUSH1 0x40 MSTORE JUMP JUMPDEST SWAP1 PUSH2 0xBD2 PUSH1 0x40 MLOAD SWAP3 DUP4 PUSH2 0xBA2 JUMP JUMPDEST JUMP JUMPDEST PUSH8 0xFFFFFFFFFFFFFFFF DUP2 GT PUSH2 0xB9D JUMPI PUSH1 0x1F ADD PUSH1 0x1F NOT AND PUSH1 0x20 ADD SWAP1 JUMP JUMPDEST SWAP3 SWAP2 SWAP3 PUSH2 0xBFC DUP3 PUSH2 0xBD4 JUMP JUMPDEST SWAP2 PUSH2 0xC0A PUSH1 0x40 MLOAD SWAP4 DUP5 PUSH2 0xBA2 JUMP JUMPDEST DUP3 SWAP5 DUP2 DUP5 MSTORE DUP2 DUP4 ADD GT PUSH2 0x195 JUMPI DUP3 DUP2 PUSH1 0x20 SWAP4 DUP5 PUSH1 0x0 SWAP7 ADD CALLDATACOPY ADD ADD MSTORE JUMP JUMPDEST SWAP1 DUP1 PUSH1 0x1F DUP4 ADD SLT ISZERO PUSH2 0x195 JUMPI DUP2 PUSH1 0x20 PUSH2 0xC42 SWAP4 CALLDATALOAD SWAP2 ADD PUSH2 0xBF0 JUMP JUMPDEST SWAP1 JUMP JUMPDEST CALLVALUE PUSH2 0x195 JUMPI PUSH1 0xC0 CALLDATASIZE PUSH1 0x3 NOT ADD SLT PUSH2 0x195 JUMPI PUSH1 0x24 CALLDATALOAD PUSH1 0x44 CALLDATALOAD PUSH1 0x4 CALLDATALOAD PUSH2 0xC68 DUP3 PUSH2 0xB5A JUMP JUMPDEST PUSH1 0x64 CALLDATALOAD PUSH8 0xFFFFFFFFFFFFFFFF DUP2 GT PUSH2 0x195 JUMPI PUSH2 0xC88 SWAP1 CALLDATASIZE SWAP1 PUSH1 0x4 ADD PUSH2 0xC27 JUMP JUMPDEST PUSH1 0x84 CALLDATALOAD PUSH8 0xFFFFFFFFFFFFFFFF DUP2 GT PUSH2 0x195 JUMPI PUSH2 0xCA8 SWAP1 CALLDATASIZE SWAP1 PUSH1 0x4 ADD PUSH2 0xC27 JUMP JUMPDEST SWAP1 PUSH1 0xA4 CALLDATALOAD SWAP4 PUSH8 0xFFFFFFFFFFFFFFFF DUP6 GT PUSH2 0x195 JUMPI CALLDATASIZE PUSH1 0x23 DUP7 ADD SLT ISZERO PUSH2 0x195 JUMPI PUSH2 0x38D SWAP6 PUSH2 0xCE2 PUSH2 0xCE8 SWAP7 CALLDATASIZE SWAP1 PUSH1 0x24 DUP2 PUSH1 0x4 ADD CALLDATALOAD SWAP2 ADD PUSH2 0xBF0 JUMP JUMPDEST SWAP5 PUSH2 0x1CD2 JUMP JUMPDEST PUSH1 0x40 MLOAD SWAP1 DUP2 MSTORE SWAP1 DUP2 SWAP1 PUSH1 0x20 DUP3 ADD SWAP1 JUMP JUMPDEST PUSH1 0x60 CALLDATASIZE PUSH1 0x3 NOT ADD SLT PUSH2 0x195 JUMPI PUSH1 0x4 CALLDATALOAD PUSH2 0xD10 DUP2 PUSH2 0xB5A JUMP JUMPDEST PUSH1 0x24 CALLDATALOAD SWAP1 PUSH1 0x44 CALLDATALOAD PUSH8 0xFFFFFFFFFFFFFFFF DUP2 GT PUSH2 0x195 JUMPI PUSH2 0x38D SWAP3 PUSH32 0x8AFCFABCB00E47A53A8FC3E9F23FF47EE1926194BB1350DD007C50B412A6CEE8 SWAP3 PUSH2 0xD5D PUSH2 0xE13 SWAP4 CALLDATASIZE SWAP1 PUSH1 0x4 ADD PUSH2 0xC27 JUMP JUMPDEST SWAP1 PUSH2 0xD74 PUSH1 0x1 PUSH1 0xFF PUSH1 0x6 SLOAD PUSH1 0x8 SHR AND ISZERO ISZERO EQ PUSH2 0x127A JUMP JUMPDEST PUSH1 0x0 SLOAD SWAP5 DUP2 PUSH2 0xDB1 DUP8 SWAP4 PUSH2 0xD92 DUP6 PUSH1 0x0 MSTORE PUSH1 0x3 PUSH1 0x20 MSTORE PUSH1 0x40 PUSH1 0x0 KECCAK256 SWAP1 JUMP JUMPDEST DUP1 SLOAD PUSH1 0x1 PUSH1 0x1 PUSH1 0xA0 SHL SUB NOT AND PUSH1 0x1 PUSH1 0x1 PUSH1 0xA0 SHL SUB SWAP1 SWAP3 AND SWAP2 SWAP1 SWAP2 OR SWAP1 SSTORE JUMP JUMPDEST DUP5 PUSH1 0x1 PUSH2 0xDC8 DUP6 PUSH1 0x0 MSTORE PUSH1 0x3 PUSH1 0x20 MSTORE PUSH1 0x40 PUSH1 0x0 KECCAK256 SWAP1 JUMP JUMPDEST ADD SSTORE PUSH2 0xDEA DUP5 PUSH1 0x2 PUSH2 0xDE4 DUP7 PUSH1 0x0 MSTORE PUSH1 0x3 PUSH1 0x20 MSTORE PUSH1 0x40 PUSH1 0x0 KECCAK256 SWAP1 JUMP JUMPDEST ADD PUSH2 0x2022 JUMP JUMPDEST PUSH2 0xDF5 PUSH1 0x0 SLOAD PUSH2 0x14DB JUMP JUMPDEST PUSH1 0x0 SSTORE PUSH1 0x40 MLOAD PUSH1 0x1 PUSH1 0x1 PUSH1 0xA0 SHL SUB SWAP2 SWAP1 SWAP2 AND SWAP6 DUP7 SWAP5 DUP3 SWAP2 SWAP1 DUP3 PUSH2 0x211E JUMP JUMPDEST SUB SWAP1 LOG4 PUSH1 0x40 DUP1 MLOAD CALLER PUSH1 0x20 DUP3 ADD SWAP1 DUP2 MSTORE PUSH2 0xE40 SWAP3 SWAP1 SWAP2 SWAP1 PUSH2 0x414 SWAP1 DUP3 SWAP1 DUP2 ADD JUMPDEST SUB PUSH1 0x1F NOT DUP2 ADD DUP4 MSTORE DUP3 PUSH2 0xBA2 JUMP JUMPDEST ISZERO PUSH2 0xE60 JUMPI POP PUSH2 0xE4F DUP2 PUSH2 0x17D7 JUMP JUMPDEST POP PUSH1 0x40 MLOAD SWAP1 DUP2 MSTORE SWAP1 DUP2 SWAP1 PUSH1 0x20 DUP3 ADD SWAP1 JUMP JUMPDEST ADDRESS EQ ISZERO DUP1 PUSH2 0xE7D JUMPI JUMPDEST ISZERO PUSH2 0xCE8 JUMPI PUSH2 0xE77 DUP2 PUSH2 0x17D7 JUMP JUMPDEST POP PUSH2 0xCE8 JUMP JUMPDEST POP PUSH1 0x40 DUP1 MLOAD CALLER PUSH1 0x20 DUP3 ADD SWAP1 DUP2 MSTORE PUSH2 0xEA6 SWAP3 SWAP1 SWAP2 SWAP1 PUSH2 0xE9E SWAP1 DUP3 SWAP1 DUP2 ADD PUSH2 0xE32 JUMP JUMPDEST MLOAD SWAP1 KECCAK256 PUSH2 0x237E JUMP JUMPDEST PUSH2 0xE69 JUMP JUMPDEST CALLVALUE PUSH2 0x195 JUMPI PUSH1 0x80 CALLDATASIZE PUSH1 0x3 NOT ADD SLT PUSH2 0x195 JUMPI PUSH1 0x4 CALLDATALOAD PUSH2 0xEC8 DUP2 PUSH2 0xB5A JUMP JUMPDEST PUSH1 0x24 CALLDATALOAD SWAP1 PUSH1 0x44 CALLDATALOAD PUSH8 0xFFFFFFFFFFFFFFFF DUP2 GT PUSH2 0x195 JUMPI PUSH2 0xEEC SWAP1 CALLDATASIZE SWAP1 PUSH1 0x4 ADD PUSH2 0xC27 JUMP JUMPDEST SWAP1 PUSH1 0x64 CALLDATALOAD SWAP2 PUSH8 0xFFFFFFFFFFFFFFFF DUP4 GT PUSH2 0x195 JUMPI PUSH1 0x20 SWAP4 PUSH2 0xF14 PUSH2 0xA38 SWAP5 CALLDATASIZE SWAP1 PUSH1 0x4 ADD PUSH2 0xC27 JUMP JUMPDEST SWAP3 PUSH2 0x212F JUMP JUMPDEST CALLVALUE PUSH2 0x195 JUMPI PUSH1 0x40 CALLDATASIZE PUSH1 0x3 NOT ADD SLT PUSH2 0x195 JUMPI PUSH1 0x4 CALLDATALOAD PUSH8 0xFFFFFFFFFFFFFFFF DUP2 GT PUSH2 0x195 JUMPI PUSH2 0xF59 PUSH2 0xF50 PUSH1 0x20 SWAP3 CALLDATASIZE SWAP1 PUSH1 0x4 ADD PUSH2 0xC27 JUMP JUMPDEST PUSH1 0x24 CALLDATALOAD SWAP1 PUSH2 0x21E6 JUMP JUMPDEST PUSH1 0x40 MLOAD PUSH1 0x1 PUSH1 0x1 PUSH1 0xA0 SHL SUB SWAP1 SWAP2 AND DUP2 MSTORE RETURN JUMPDEST CALLVALUE PUSH2 0x195 JUMPI PUSH1 0x20 CALLDATASIZE PUSH1 0x3 NOT ADD SLT PUSH2 0x195 JUMPI PUSH1 0x4 CALLDATALOAD PUSH2 0xF88 DUP2 PUSH2 0xB5A JUMP JUMPDEST PUSH1 0x1 PUSH1 0x1 PUSH1 0xA0 SHL SUB DUP2 AND ISZERO PUSH2 0x10C7 JUMPI PUSH1 0x6 SLOAD PUSH1 0x1 SWAP2 DUP3 SWAP2 PUSH1 0xFF AND ISZERO DUP1 ISZERO PUSH2 0x10BE JUMPI JUMPDEST PUSH2 0xFB3 SWAP1 PUSH2 0x248E JUMP JUMPDEST PUSH2 0xFC5 PUSH1 0x1 PUSH1 0xFF NOT PUSH1 0x6 SLOAD AND OR PUSH1 0x6 SSTORE JUMP JUMPDEST PUSH2 0xFD9 PUSH2 0x100 PUSH2 0xFF00 NOT PUSH1 0x6 SLOAD AND OR PUSH1 0x6 SSTORE JUMP JUMPDEST PUSH1 0x40 DUP1 MLOAD PUSH1 0x1 PUSH1 0x1 PUSH1 0xA0 SHL SUB SWAP1 SWAP3 AND PUSH1 0x20 DUP4 ADD SWAP1 DUP2 MSTORE SWAP2 SWAP1 PUSH2 0xFFE SWAP1 DUP3 SWAP1 DUP2 ADD PUSH2 0xE32 JUMP JUMPDEST MLOAD SWAP1 KECCAK256 DUP1 PUSH1 0x2 PUSH2 0x1018 DUP3 PUSH1 0x0 MSTORE PUSH1 0x1 PUSH1 0x20 MSTORE PUSH1 0x40 PUSH1 0x0 KECCAK256 SWAP1 JUMP JUMPDEST ADD SSTORE PUSH2 0x1044 PUSH2 0x1027 PUSH1 0x20 PUSH2 0xBC4 JUMP JUMPDEST PUSH1 0x1 DUP2 MSTORE PUSH2 0x103F DUP4 PUSH1 0x0 MSTORE PUSH1 0x1 PUSH1 0x20 MSTORE PUSH1 0x40 PUSH1 0x0 KECCAK256 SWAP1 JUMP JUMPDEST PUSH2 0x24DA JUMP JUMPDEST PUSH2 0x1063 DUP3 PUSH2 0x105C DUP4 PUSH1 0x0 MSTORE PUSH1 0x1 PUSH1 0x20 MSTORE PUSH1 0x40 PUSH1 0x0 KECCAK256 SWAP1 JUMP JUMPDEST ADD PUSH1 0x1 SWAP1 SSTORE JUMP JUMPDEST PUSH1 0x1 PUSH1 0x0 MSTORE PUSH1 0x2 PUSH1 0x20 MSTORE PUSH2 0x1097 DUP2 PUSH32 0xE90B7BCEB6E7DF5418FB78D8EE546E97C83A08BBCCC01A0644D599CCD2A7C2E0 PUSH2 0x143B JUMP JUMPDEST PUSH32 0x480000BB1EDAD8CA1470381CC334B1917FBD51C6531F3A623EA8E0EC7E38A6E9 PUSH1 0x0 DUP1 LOG4 STOP JUMPDEST POP ADDRESS EXTCODESIZE ISZERO PUSH2 0xFAA JUMP JUMPDEST PUSH1 0x40 MLOAD PUSH3 0x461BCD PUSH1 0xE5 SHL DUP2 MSTORE PUSH1 0x20 PUSH1 0x4 DUP3 ADD MSTORE PUSH1 0x1F PUSH1 0x24 DUP3 ADD MSTORE PUSH32 0x696E76616C696420617267756D656E74202D207A65726F206164647265737300 PUSH1 0x44 DUP3 ADD MSTORE PUSH1 0x64 SWAP1 REVERT JUMPDEST SWAP5 SWAP2 SWAP4 PUSH2 0x114F SWAP4 PUSH2 0xC42 SWAP8 SWAP6 PUSH2 0x1141 SWAP4 DUP9 MSTORE PUSH1 0x20 DUP9 ADD MSTORE PUSH1 0x1 DUP1 PUSH1 0xA0 SHL SUB AND PUSH1 0x40 DUP8 ADD MSTORE PUSH1 0xC0 PUSH1 0x60 DUP8 ADD MSTORE PUSH1 0xC0 DUP7 ADD SWAP1 PUSH2 0x966 JUMP JUMPDEST SWAP1 DUP5 DUP3 SUB PUSH1 0x80 DUP7 ADD MSTORE PUSH2 0x966 JUMP JUMPDEST SWAP2 PUSH1 0xA0 DUP2 DUP5 SUB SWAP2 ADD MSTORE PUSH2 0x966 JUMP JUMPDEST CALLVALUE PUSH2 0x195 JUMPI PUSH1 0x20 CALLDATASIZE PUSH1 0x3 NOT ADD SLT PUSH2 0x195 JUMPI PUSH1 0x4 DUP1 CALLDATALOAD PUSH1 0x0 SWAP1 DUP2 MSTORE PUSH1 0x20 DUP3 SWAP1 MSTORE PUSH1 0x40 SWAP1 KECCAK256 DUP1 SLOAD PUSH1 0x1 DUP3 ADD SLOAD PUSH1 0x2 DUP4 ADD SLOAD SWAP1 SWAP4 SWAP2 SWAP3 PUSH2 0x38D SWAP3 PUSH1 0x1 PUSH1 0x1 PUSH1 0xA0 SHL SUB SWAP1 SWAP3 AND SWAP2 PUSH1 0x5 DUP3 ADD SWAP2 SWAP1 DUP2 ADD SWAP1 PUSH2 0x11C1 SWAP1 PUSH2 0x11BB SWAP1 DUP2 SWAP1 PUSH1 0x3 ADD PUSH2 0x2261 JUMP JUMPDEST SWAP3 PUSH2 0x2261 JUMP JUMPDEST SWAP3 PUSH1 0x40 MLOAD SWAP7 DUP8 SWAP7 DUP8 PUSH2 0x110C JUMP JUMPDEST CALLVALUE PUSH2 0x195 JUMPI PUSH1 0x40 CALLDATASIZE PUSH1 0x3 NOT ADD SLT PUSH2 0x195 JUMPI PUSH1 0x20 PUSH2 0xA38 PUSH1 0x24 CALLDATALOAD PUSH1 0x4 CALLDATALOAD PUSH2 0x23F9 JUMP JUMPDEST CALLVALUE PUSH2 0x195 JUMPI PUSH1 0x20 CALLDATASIZE PUSH1 0x3 NOT ADD SLT PUSH2 0x195 JUMPI PUSH1 0x4 CALLDATALOAD PUSH1 0x0 MSTORE PUSH1 0x1 PUSH1 0x20 MSTORE PUSH2 0x38D PUSH2 0x121B PUSH1 0x40 PUSH1 0x0 KECCAK256 PUSH2 0x122F JUMP JUMPDEST PUSH1 0x40 MLOAD SWAP2 DUP3 SWAP2 PUSH1 0x20 DUP4 MSTORE PUSH1 0x20 DUP4 ADD SWAP1 PUSH2 0x19A JUMP JUMPDEST SWAP1 PUSH1 0x40 MLOAD SWAP2 DUP3 DUP2 SLOAD SWAP2 DUP3 DUP3 MSTORE PUSH1 0x20 DUP3 ADD SWAP1 PUSH1 0x0 MSTORE PUSH1 0x20 PUSH1 0x0 KECCAK256 SWAP3 PUSH1 0x0 JUMPDEST DUP2 DUP2 LT PUSH2 0x1261 JUMPI POP POP PUSH2 0xBD2 SWAP3 POP SUB DUP4 PUSH2 0xBA2 JUMP JUMPDEST DUP5 SLOAD DUP4 MSTORE PUSH1 0x1 SWAP5 DUP6 ADD SWAP5 DUP8 SWAP5 POP PUSH1 0x20 SWAP1 SWAP4 ADD SWAP3 ADD PUSH2 0x124C JUMP JUMPDEST ISZERO PUSH2 0x1281 JUMPI JUMP JUMPDEST PUSH1 0x40 MLOAD PUSH3 0x461BCD PUSH1 0xE5 SHL DUP2 MSTORE PUSH1 0x20 PUSH1 0x4 DUP3 ADD MSTORE PUSH1 0x33 PUSH1 0x24 DUP3 ADD MSTORE PUSH32 0x496E746572616374696E67207769746820746865206C69627261727920636F6E PUSH1 0x44 DUP3 ADD MSTORE PUSH19 0x3A3930B1BA1034B9903337B93134B23232B717 PUSH1 0x69 SHL PUSH1 0x64 DUP3 ADD MSTORE PUSH1 0x84 SWAP1 REVERT JUMPDEST ISZERO PUSH2 0x12E9 JUMPI JUMP JUMPDEST PUSH1 0x40 MLOAD PUSH3 0x461BCD PUSH1 0xE5 SHL DUP2 MSTORE PUSH1 0x20 PUSH1 0x4 DUP3 ADD MSTORE PUSH1 0x30 PUSH1 0x24 DUP3 ADD MSTORE PUSH32 0x5065726D697373696F6E733A2053656E64657220646F6573206E6F7420686176 PUSH1 0x44 DUP3 ADD MSTORE PUSH16 0x65206D616E6167656D656E74206B6579 PUSH1 0x80 SHL PUSH1 0x64 DUP3 ADD MSTORE PUSH1 0x84 SWAP1 REVERT JUMPDEST PUSH4 0x4E487B71 PUSH1 0xE0 SHL PUSH1 0x0 MSTORE PUSH1 0x11 PUSH1 0x4 MSTORE PUSH1 0x24 PUSH1 0x0 REVERT JUMPDEST SWAP2 PUSH2 0x1377 SWAP2 DUP4 SLOAD SWAP1 PUSH1 0x3 SHL SWAP2 DUP3 SHL SWAP2 PUSH1 0x0 NOT SWAP1 SHL NOT AND OR SWAP1 JUMP JUMPDEST SWAP1 SSTORE JUMP JUMPDEST DUP2 DUP2 LT PUSH2 0x1386 JUMPI POP POP JUMP JUMPDEST PUSH1 0x0 DUP2 SSTORE PUSH1 0x1 ADD PUSH2 0x137B JUMP JUMPDEST DUP1 SLOAD PUSH1 0x1 DUP3 SSTORE DUP1 PUSH1 0x1 LT PUSH2 0x13A4 JUMPI POP POP JUMP JUMPDEST PUSH2 0xBD2 SWAP2 PUSH1 0x0 MSTORE PUSH1 0x1 PUSH1 0x20 PUSH1 0x0 KECCAK256 SWAP2 DUP3 ADD SWAP2 ADD PUSH2 0x137B JUMP JUMPDEST SWAP1 PUSH2 0x13C6 DUP3 PUSH2 0x1392 JUMP JUMPDEST SWAP1 PUSH1 0x0 MSTORE PUSH1 0x20 PUSH1 0x0 KECCAK256 SWAP1 PUSH1 0x0 JUMPDEST PUSH1 0x1 DUP2 LT PUSH2 0x13E0 JUMPI POP POP POP JUMP JUMPDEST PUSH1 0x1 SWAP1 PUSH1 0x20 DUP4 MLOAD SWAP4 ADD SWAP3 DUP2 DUP6 ADD SSTORE ADD PUSH2 0x13D3 JUMP JUMPDEST PUSH4 0x4E487B71 PUSH1 0xE0 SHL PUSH1 0x0 MSTORE PUSH1 0x32 PUSH1 0x4 MSTORE PUSH1 0x24 PUSH1 0x0 REVERT JUMPDEST DUP1 MLOAD DUP3 LT ISZERO PUSH2 0x141E JUMPI PUSH1 0x20 SWAP2 PUSH1 0x5 SHL ADD ADD SWAP1 JUMP JUMPDEST PUSH2 0x13F4 JUMP JUMPDEST DUP1 SLOAD DUP3 LT ISZERO PUSH2 0x141E JUMPI PUSH1 0x0 MSTORE PUSH1 0x20 PUSH1 0x0 KECCAK256 ADD SWAP1 PUSH1 0x0 SWAP1 JUMP JUMPDEST DUP1 SLOAD SWAP1 PUSH1 0x1 PUSH1 0x40 SHL DUP3 LT ISZERO PUSH2 0xB9D JUMPI DUP2 PUSH2 0x145D SWAP2 PUSH1 0x1 PUSH2 0x1377 SWAP5 ADD DUP2 SSTORE PUSH2 0x1423 JUMP JUMPDEST DUP2 SWAP4 SWAP2 SLOAD SWAP1 PUSH1 0x3 SHL SWAP2 DUP3 SHL SWAP2 PUSH1 0x0 NOT SWAP1 SHL NOT AND OR SWAP1 JUMP JUMPDEST ISZERO PUSH2 0x147B JUMPI JUMP JUMPDEST PUSH1 0x40 MLOAD PUSH3 0x461BCD PUSH1 0xE5 SHL DUP2 MSTORE PUSH1 0x20 PUSH1 0x4 DUP3 ADD MSTORE PUSH1 0x32 PUSH1 0x24 DUP3 ADD MSTORE PUSH32 0x5065726D697373696F6E733A2053656E64657220646F6573206E6F7420686176 PUSH1 0x44 DUP3 ADD MSTORE PUSH18 0x6520636C61696D207369676E6572206B6579 PUSH1 0x70 SHL PUSH1 0x64 DUP3 ADD MSTORE PUSH1 0x84 SWAP1 REVERT JUMPDEST PUSH1 0x0 NOT DUP2 EQ PUSH2 0x14EA JUMPI PUSH1 0x1 ADD SWAP1 JUMP JUMPDEST PUSH2 0x1347 JUMP JUMPDEST PUSH1 0x0 NOT DUP2 ADD SWAP2 SWAP1 DUP3 GT PUSH2 0x14EA JUMPI JUMP JUMPDEST PUSH4 0x4E487B71 PUSH1 0xE0 SHL PUSH1 0x0 MSTORE PUSH1 0x31 PUSH1 0x4 MSTORE PUSH1 0x24 PUSH1 0x0 REVERT JUMPDEST DUP1 SLOAD DUP1 ISZERO PUSH2 0x1545 JUMPI PUSH1 0x0 NOT ADD SWAP1 PUSH2 0x1540 PUSH2 0x152E DUP4 DUP4 PUSH2 0x1423 JUMP JUMPDEST DUP2 SWAP3 SWAP2 SLOAD SWAP1 PUSH1 0x0 NOT SWAP1 PUSH1 0x3 SHL SHL NOT AND SWAP1 JUMP JUMPDEST SWAP1 SSTORE SSTORE JUMP JUMPDEST PUSH2 0x14FE JUMP JUMPDEST SWAP1 PUSH1 0x1 DUP3 DUP2 SHR SWAP3 AND DUP1 ISZERO PUSH2 0x157A JUMPI JUMPDEST PUSH1 0x20 DUP4 LT EQ PUSH2 0x1564 JUMPI JUMP JUMPDEST PUSH4 0x4E487B71 PUSH1 0xE0 SHL PUSH1 0x0 MSTORE PUSH1 0x22 PUSH1 0x4 MSTORE PUSH1 0x24 PUSH1 0x0 REVERT JUMPDEST SWAP2 PUSH1 0x7F AND SWAP2 PUSH2 0x1559 JUMP JUMPDEST PUSH1 0x0 SWAP3 SWAP2 DUP2 SLOAD SWAP2 PUSH2 0x1594 DUP4 PUSH2 0x154A JUMP JUMPDEST DUP1 DUP4 MSTORE SWAP3 PUSH1 0x1 DUP2 AND SWAP1 DUP2 ISZERO PUSH2 0x15EA JUMPI POP PUSH1 0x1 EQ PUSH2 0x15B0 JUMPI POP POP POP JUMP JUMPDEST PUSH1 0x0 SWAP1 DUP2 MSTORE PUSH1 0x20 DUP2 KECCAK256 SWAP4 SWAP5 POP SWAP2 SWAP3 JUMPDEST DUP4 DUP4 LT PUSH2 0x15D0 JUMPI POP PUSH1 0x20 SWAP3 POP ADD ADD SWAP1 JUMP JUMPDEST PUSH1 0x1 DUP2 PUSH1 0x20 SWAP3 SWAP5 SWAP4 SWAP5 SLOAD DUP4 DUP6 DUP8 ADD ADD MSTORE ADD SWAP2 ADD SWAP2 SWAP1 PUSH2 0x15BF JUMP JUMPDEST SWAP2 POP POP PUSH1 0x20 SWAP4 SWAP5 POP PUSH1 0xFF SWAP3 SWAP2 SWAP3 NOT AND DUP4 DUP4 ADD MSTORE ISZERO ISZERO PUSH1 0x5 SHL ADD ADD SWAP1 JUMP JUMPDEST SWAP3 PUSH2 0x1627 PUSH2 0xC42 SWAP6 SWAP4 PUSH2 0x1635 SWAP4 DUP7 MSTORE PUSH1 0x80 PUSH1 0x20 DUP8 ADD MSTORE PUSH1 0x80 DUP7 ADD SWAP1 PUSH2 0x1584 JUMP JUMPDEST SWAP1 DUP5 DUP3 SUB PUSH1 0x40 DUP7 ADD MSTORE PUSH2 0x1584 JUMP JUMPDEST SWAP2 PUSH1 0x60 DUP2 DUP5 SUB SWAP2 ADD MSTORE PUSH2 0x1584 JUMP JUMPDEST PUSH2 0x164D DUP2 SLOAD PUSH2 0x154A JUMP JUMPDEST SWAP1 DUP2 PUSH2 0x1657 JUMPI POP POP JUMP JUMPDEST PUSH1 0x1F DUP3 GT PUSH1 0x1 EQ PUSH2 0x1669 JUMPI PUSH1 0x0 SWAP1 SSTORE POP JUMP JUMPDEST PUSH2 0x168B PUSH2 0xBD2 SWAP3 DUP3 PUSH1 0x0 MSTORE PUSH1 0x1 PUSH1 0x1F PUSH1 0x20 PUSH1 0x0 KECCAK256 SWAP3 ADD PUSH1 0x5 SHR DUP3 ADD SWAP2 ADD PUSH2 0x137B JUMP JUMPDEST PUSH1 0x0 DUP2 DUP2 MSTORE PUSH1 0x20 DUP2 KECCAK256 SWAP2 DUP2 SWAP1 SSTORE SWAP1 SSTORE JUMP JUMPDEST PUSH1 0x5 SWAP1 PUSH1 0x0 DUP2 SSTORE PUSH1 0x0 PUSH1 0x1 DUP3 ADD SSTORE PUSH1 0x0 PUSH1 0x2 DUP3 ADD SSTORE PUSH2 0x16BD PUSH1 0x3 DUP3 ADD PUSH2 0x1643 JUMP JUMPDEST PUSH2 0x16C9 PUSH1 0x4 DUP3 ADD PUSH2 0x1643 JUMP JUMPDEST ADD PUSH2 0x164D DUP2 SLOAD PUSH2 0x154A JUMP JUMPDEST ISZERO PUSH2 0x16DB JUMPI JUMP JUMPDEST PUSH1 0x40 MLOAD PUSH3 0x461BCD PUSH1 0xE5 SHL DUP2 MSTORE PUSH1 0x20 PUSH1 0x4 DUP3 ADD MSTORE PUSH1 0x21 PUSH1 0x24 DUP3 ADD MSTORE PUSH32 0x4E6F6E4578697374696E673A204B65792069736E277420726567697374657265 PUSH1 0x44 DUP3 ADD MSTORE PUSH1 0x19 PUSH1 0xFA SHL PUSH1 0x64 DUP3 ADD MSTORE PUSH1 0x84 SWAP1 REVERT JUMPDEST DUP2 MLOAD SWAP2 PUSH8 0xFFFFFFFFFFFFFFFF DUP4 GT PUSH2 0xB9D JUMPI PUSH1 0x1 PUSH1 0x40 SHL DUP4 GT PUSH2 0xB9D JUMPI PUSH1 0x20 SWAP1 DUP3 SLOAD DUP5 DUP5 SSTORE DUP1 DUP6 LT PUSH2 0x1786 JUMPI JUMPDEST POP ADD SWAP1 PUSH1 0x0 MSTORE PUSH1 0x20 PUSH1 0x0 KECCAK256 PUSH1 0x0 JUMPDEST DUP4 DUP2 LT PUSH2 0x1772 JUMPI POP POP POP POP JUMP JUMPDEST PUSH1 0x1 SWAP1 PUSH1 0x20 DUP5 MLOAD SWAP5 ADD SWAP4 DUP2 DUP5 ADD SSTORE ADD PUSH2 0x1765 JUMP JUMPDEST PUSH2 0x179D SWAP1 DUP5 PUSH1 0x0 MSTORE DUP6 DUP5 PUSH1 0x0 KECCAK256 SWAP2 DUP3 ADD SWAP2 ADD PUSH2 0x137B JUMP JUMPDEST CODESIZE PUSH2 0x1757 JUMP JUMPDEST PUSH1 0x2 PUSH1 0x0 SWAP2 DUP1 SLOAD DUP4 DUP3 SSTORE DUP1 PUSH2 0x17BE JUMPI JUMPDEST POP DUP3 PUSH1 0x1 DUP3 ADD SSTORE ADD SSTORE JUMP JUMPDEST DUP2 DUP5 MSTORE PUSH1 0x20 DUP5 KECCAK256 PUSH2 0x17D1 SWAP2 DUP2 ADD SWAP1 PUSH2 0x137B JUMP JUMPDEST CODESIZE PUSH2 0x17B3 JUMP JUMPDEST PUSH1 0x1 PUSH2 0xC42 SWAP2 PUSH2 0xA33 DUP3 PUSH1 0xFF PUSH1 0x6 SLOAD PUSH1 0x8 SHR AND ISZERO ISZERO EQ PUSH2 0x127A JUMP JUMPDEST ISZERO PUSH2 0x17F9 JUMPI JUMP JUMPDEST PUSH1 0x40 MLOAD PUSH3 0x461BCD PUSH1 0xE5 SHL DUP2 MSTORE PUSH1 0x20 PUSH1 0x4 DUP3 ADD MSTORE PUSH1 0x27 PUSH1 0x24 DUP3 ADD MSTORE PUSH32 0x43616E6E6F7420617070726F76652061206E6F6E2D6578697374696E67206578 PUSH1 0x44 DUP3 ADD MSTORE PUSH7 0x32B1BABA34B7B7 PUSH1 0xC9 SHL PUSH1 0x64 DUP3 ADD MSTORE PUSH1 0x84 SWAP1 REVERT JUMPDEST ISZERO PUSH2 0x1855 JUMPI JUMP JUMPDEST PUSH1 0x40 MLOAD PUSH3 0x461BCD PUSH1 0xE5 SHL DUP2 MSTORE PUSH1 0x20 PUSH1 0x4 DUP3 ADD MSTORE PUSH1 0x18 PUSH1 0x24 DUP3 ADD MSTORE PUSH32 0x5265717565737420616C72656164792065786563757465640000000000000000 PUSH1 0x44 DUP3 ADD MSTORE PUSH1 0x64 SWAP1 REVERT JUMPDEST ISZERO PUSH2 0x18A1 JUMPI JUMP JUMPDEST PUSH1 0x40 MLOAD PUSH3 0x461BCD PUSH1 0xE5 SHL DUP2 MSTORE PUSH1 0x20 PUSH1 0x4 DUP3 ADD MSTORE PUSH1 0x1F PUSH1 0x24 DUP3 ADD MSTORE PUSH32 0x53656E64657220646F6573206E6F74206861766520616374696F6E206B657900 PUSH1 0x44 DUP3 ADD MSTORE PUSH1 0x64 SWAP1 REVERT JUMPDEST ISZERO PUSH2 0x18ED JUMPI JUMP JUMPDEST PUSH1 0x40 MLOAD PUSH3 0x461BCD PUSH1 0xE5 SHL DUP2 MSTORE PUSH1 0x20 PUSH1 0x4 DUP3 ADD MSTORE PUSH1 0x23 PUSH1 0x24 DUP3 ADD MSTORE PUSH32 0x53656E64657220646F6573206E6F742068617665206D616E6167656D656E7420 PUSH1 0x44 DUP3 ADD MSTORE PUSH3 0x6B6579 PUSH1 0xE8 SHL PUSH1 0x64 DUP3 ADD MSTORE PUSH1 0x84 SWAP1 REVERT JUMPDEST PUSH1 0x0 SWAP3 SWAP2 DUP2 SLOAD SWAP2 PUSH2 0x194E DUP4 PUSH2 0x154A JUMP JUMPDEST SWAP3 PUSH1 0x1 DUP2 AND SWAP1 DUP2 ISZERO PUSH2 0x1999 JUMPI POP PUSH1 0x1 EQ PUSH2 0x1967 JUMPI POP POP POP JUMP JUMPDEST SWAP1 SWAP2 SWAP3 SWAP4 POP PUSH1 0x0 MSTORE PUSH1 0x20 PUSH1 0x0 KECCAK256 PUSH1 0x0 SWAP1 JUMPDEST DUP4 DUP3 LT PUSH2 0x1985 JUMPI POP POP ADD SWAP1 JUMP JUMPDEST PUSH1 0x1 DUP2 PUSH1 0x20 SWAP3 SLOAD DUP5 DUP7 ADD MSTORE ADD SWAP2 ADD SWAP1 PUSH2 0x1978 JUMP JUMPDEST PUSH1 0xFF NOT AND DUP4 MSTORE POP POP DUP2 ISZERO ISZERO SWAP1 SWAP2 MUL ADD SWAP2 POP JUMP JUMPDEST RETURNDATASIZE ISZERO PUSH2 0x19D7 JUMPI RETURNDATASIZE SWAP1 PUSH2 0x19BD DUP3 PUSH2 0xBD4 JUMP JUMPDEST SWAP2 PUSH2 0x19CB PUSH1 0x40 MLOAD SWAP4 DUP5 PUSH2 0xBA2 JUMP JUMPDEST DUP3 MSTORE RETURNDATASIZE PUSH1 0x0 PUSH1 0x20 DUP5 ADD RETURNDATACOPY JUMP JUMPDEST PUSH1 0x60 SWAP1 JUMP JUMPDEST SWAP1 PUSH1 0x20 PUSH2 0xC42 SWAP3 DUP2 DUP2 MSTORE ADD SWAP1 PUSH2 0x1584 JUMP JUMPDEST SWAP1 PUSH1 0x1 SWAP1 PUSH2 0x19FE PUSH1 0x0 SLOAD DUP5 LT PUSH2 0x17F2 JUMP JUMPDEST PUSH2 0x1A31 PUSH2 0x1A2C PUSH2 0x1A28 PUSH1 0x3 PUSH2 0x1A1D DUP8 PUSH1 0x0 MSTORE PUSH1 0x3 PUSH1 0x20 MSTORE PUSH1 0x40 PUSH1 0x0 KECCAK256 SWAP1 JUMP JUMPDEST ADD SLOAD PUSH1 0x8 SHR PUSH1 0xFF AND SWAP1 JUMP JUMPDEST ISZERO SWAP1 JUMP JUMPDEST PUSH2 0x184E JUMP JUMPDEST PUSH2 0x1A55 PUSH2 0x1A48 DUP5 PUSH1 0x0 MSTORE PUSH1 0x3 PUSH1 0x20 MSTORE PUSH1 0x40 PUSH1 0x0 KECCAK256 SWAP1 JUMP JUMPDEST SLOAD PUSH1 0x1 PUSH1 0x1 PUSH1 0xA0 SHL SUB AND SWAP1 JUMP JUMPDEST ADDRESS SWAP1 DUP4 DUP1 PUSH1 0xA0 SHL SUB AND EQ PUSH1 0x0 EQ PUSH2 0x1CA6 JUMPI PUSH1 0x40 DUP1 MLOAD CALLER PUSH1 0x20 DUP3 ADD SWAP1 DUP2 MSTORE PUSH2 0x1A8D SWAP3 PUSH2 0x1A88 SWAP3 SWAP1 PUSH2 0x414 SWAP1 DUP3 SWAP1 DUP2 ADD PUSH2 0xE32 JUMP JUMPDEST PUSH2 0x18E6 JUMP JUMPDEST PUSH1 0x40 MLOAD DUP2 ISZERO ISZERO DUP2 MSTORE DUP4 SWAP1 PUSH32 0xB3932DA477FE5D6C8FF2EAFEF050C0F3A1AF18FC07121001482600F36F3715D8 SWAP1 PUSH1 0x20 SWAP1 LOG2 ISZERO ISZERO SUB PUSH2 0x1C7D JUMPI PUSH2 0x1AEB PUSH1 0x3 PUSH2 0x1ADD DUP4 PUSH1 0x0 MSTORE PUSH1 0x3 PUSH1 0x20 MSTORE PUSH1 0x40 PUSH1 0x0 KECCAK256 SWAP1 JUMP JUMPDEST ADD DUP1 SLOAD PUSH1 0xFF NOT AND PUSH1 0x1 OR SWAP1 SSTORE JUMP JUMPDEST PUSH1 0x0 DUP1 PUSH2 0x1B05 PUSH2 0x1A48 DUP5 PUSH1 0x0 MSTORE PUSH1 0x3 PUSH1 0x20 MSTORE PUSH1 0x40 PUSH1 0x0 KECCAK256 SWAP1 JUMP JUMPDEST PUSH2 0x1B43 PUSH1 0x1 PUSH2 0x1B1E DUP7 PUSH1 0x0 MSTORE PUSH1 0x3 PUSH1 0x20 MSTORE PUSH1 0x40 PUSH1 0x0 KECCAK256 SWAP1 JUMP JUMPDEST ADD SLOAD PUSH1 0x2 PUSH2 0x1B36 DUP8 PUSH1 0x0 MSTORE PUSH1 0x3 PUSH1 0x20 MSTORE PUSH1 0x40 PUSH1 0x0 KECCAK256 SWAP1 JUMP JUMPDEST ADD PUSH1 0x40 MLOAD SWAP3 DUP4 DUP1 SWAP3 PUSH2 0x193E JUMP JUMPDEST SUB SWAP3 GAS CALL PUSH2 0x1B4F PUSH2 0x19AC JUMP JUMPDEST POP ISZERO PUSH2 0x1C0B JUMPI PUSH2 0x1B7E PUSH1 0x3 PUSH2 0x1B6E DUP4 PUSH1 0x0 MSTORE PUSH1 0x3 PUSH1 0x20 MSTORE PUSH1 0x40 PUSH1 0x0 KECCAK256 SWAP1 JUMP JUMPDEST ADD DUP1 SLOAD PUSH2 0xFF00 NOT AND PUSH2 0x100 OR SWAP1 SSTORE JUMP JUMPDEST PUSH2 0x1B95 PUSH2 0x1A48 DUP3 PUSH1 0x0 MSTORE PUSH1 0x3 PUSH1 0x20 MSTORE PUSH1 0x40 PUSH1 0x0 KECCAK256 SWAP1 JUMP JUMPDEST PUSH1 0x1 PUSH2 0x1BAB DUP4 PUSH1 0x0 MSTORE PUSH1 0x3 PUSH1 0x20 MSTORE PUSH1 0x40 PUSH1 0x0 KECCAK256 SWAP1 JUMP JUMPDEST ADD SLOAD SWAP2 PUSH32 0x1F920DBDA597D7BF95035464170FA58D0A4B57F13A1C315ACE6793B9F63688B8 PUSH2 0x1C03 PUSH1 0x2 PUSH2 0x1BE8 DUP5 PUSH1 0x0 MSTORE PUSH1 0x3 PUSH1 0x20 MSTORE PUSH1 0x40 PUSH1 0x0 KECCAK256 SWAP1 JUMP JUMPDEST PUSH1 0x40 MLOAD PUSH1 0x1 PUSH1 0x1 PUSH1 0xA0 SHL SUB SWAP1 SWAP7 AND SWAP6 SWAP3 DUP4 SWAP3 SWAP1 SWAP2 ADD DUP3 PUSH2 0x19DC JUMP JUMPDEST SUB SWAP1 LOG4 PUSH1 0x1 SWAP1 JUMP JUMPDEST PUSH2 0x1C22 PUSH2 0x1A48 DUP3 PUSH1 0x0 MSTORE PUSH1 0x3 PUSH1 0x20 MSTORE PUSH1 0x40 PUSH1 0x0 KECCAK256 SWAP1 JUMP JUMPDEST PUSH1 0x1 PUSH2 0x1C38 DUP4 PUSH1 0x0 MSTORE PUSH1 0x3 PUSH1 0x20 MSTORE PUSH1 0x40 PUSH1 0x0 KECCAK256 SWAP1 JUMP JUMPDEST ADD SLOAD SWAP2 PUSH32 0xE10C49D9F7C71DA23262367013434763CFDB2332267641728D25CD712C5C6A68 PUSH2 0x1C75 PUSH1 0x2 PUSH2 0x1BE8 DUP5 PUSH1 0x0 MSTORE PUSH1 0x3 PUSH1 0x20 MSTORE PUSH1 0x40 PUSH1 0x0 KECCAK256 SWAP1 JUMP JUMPDEST SUB SWAP1 LOG4 PUSH1 0x0 SWAP1 JUMP JUMPDEST PUSH1 0x3 PUSH2 0x1C96 PUSH2 0x1CA1 SWAP3 PUSH1 0x0 MSTORE PUSH1 0x3 PUSH1 0x20 MSTORE PUSH1 0x40 PUSH1 0x0 KECCAK256 SWAP1 JUMP JUMPDEST ADD DUP1 SLOAD PUSH1 0xFF NOT AND SWAP1 SSTORE JUMP JUMPDEST PUSH1 0x0 SWAP1 JUMP JUMPDEST PUSH1 0x40 DUP1 MLOAD CALLER PUSH1 0x20 DUP3 ADD SWAP1 DUP2 MSTORE PUSH2 0x1CCD SWAP3 PUSH2 0x1CC8 SWAP3 SWAP1 PUSH2 0xE9E SWAP1 DUP3 SWAP1 DUP2 ADD PUSH2 0xE32 JUMP JUMPDEST PUSH2 0x189A JUMP JUMPDEST PUSH2 0x1A8D JUMP JUMPDEST SWAP3 SWAP5 SWAP1 SWAP4 SWAP5 PUSH2 0x1CED PUSH1 0x1 PUSH1 0xFF PUSH1 0x6 SLOAD PUSH1 0x8 SHR AND ISZERO ISZERO EQ PUSH2 0x127A JUMP JUMPDEST ADDRESS CALLER EQ DUP1 ISZERO PUSH2 0x1F20 JUMPI JUMPDEST PUSH2 0x1D00 SWAP1 PUSH2 0x1474 JUMP JUMPDEST PUSH1 0x1 PUSH1 0x1 PUSH1 0xA0 SHL SUB DUP4 AND SWAP5 ADDRESS DUP7 SUB PUSH2 0x1EA9 JUMPI JUMPDEST PUSH1 0x40 DUP1 MLOAD PUSH1 0x1 PUSH1 0x1 PUSH1 0xA0 SHL SUB DUP7 AND PUSH1 0x20 DUP3 ADD SWAP1 DUP2 MSTORE SWAP2 DUP2 ADD DUP8 SWAP1 MSTORE PUSH2 0x1D3B DUP2 PUSH1 0x60 DUP2 ADD PUSH2 0xE32 JUMP JUMPDEST MLOAD SWAP1 KECCAK256 SWAP7 DUP8 SWAP5 DUP7 PUSH2 0x1D56 DUP8 PUSH1 0x0 MSTORE PUSH1 0x4 PUSH1 0x20 MSTORE PUSH1 0x40 PUSH1 0x0 KECCAK256 SWAP1 JUMP JUMPDEST SSTORE DUP3 PUSH1 0x1 PUSH2 0x1D6E DUP9 PUSH1 0x0 MSTORE PUSH1 0x4 PUSH1 0x20 MSTORE PUSH1 0x40 PUSH1 0x0 KECCAK256 SWAP1 JUMP JUMPDEST ADD SSTORE PUSH2 0x1D8A DUP5 PUSH1 0x3 PUSH2 0xDE4 DUP10 PUSH1 0x0 MSTORE PUSH1 0x4 PUSH1 0x20 MSTORE PUSH1 0x40 PUSH1 0x0 KECCAK256 SWAP1 JUMP JUMPDEST PUSH2 0x1DA4 DUP3 PUSH1 0x4 PUSH2 0xDE4 DUP10 PUSH1 0x0 MSTORE PUSH1 0x4 PUSH1 0x20 MSTORE PUSH1 0x40 PUSH1 0x0 KECCAK256 SWAP1 JUMP JUMPDEST PUSH2 0x1DBE DUP6 PUSH1 0x5 PUSH2 0xDE4 DUP10 PUSH1 0x0 MSTORE PUSH1 0x4 PUSH1 0x20 MSTORE PUSH1 0x40 PUSH1 0x0 KECCAK256 SWAP1 JUMP JUMPDEST DUP8 PUSH2 0x1DE7 PUSH2 0x1DDB PUSH1 0x2 PUSH2 0x599 DUP11 PUSH1 0x0 MSTORE PUSH1 0x4 PUSH1 0x20 MSTORE PUSH1 0x40 PUSH1 0x0 KECCAK256 SWAP1 JUMP JUMPDEST PUSH1 0x1 PUSH1 0x1 PUSH1 0xA0 SHL SUB AND SWAP1 JUMP JUMPDEST EQ PUSH2 0x1E76 JUMPI SWAP4 PUSH2 0x1E70 SWAP2 PUSH2 0x1E64 PUSH32 0x46149B18AA084502C3F12BC75E19EDA8BDA8D102B82CCE8474677A6D0D5F43C5 SWAP7 PUSH2 0x1E2E DUP10 PUSH2 0x33D DUP13 PUSH1 0x0 MSTORE PUSH1 0x5 PUSH1 0x20 MSTORE PUSH1 0x40 PUSH1 0x0 KECCAK256 SWAP1 JUMP JUMPDEST PUSH1 0x2 PUSH2 0x1E44 DUP11 PUSH1 0x0 MSTORE PUSH1 0x4 PUSH1 0x20 MSTORE PUSH1 0x40 PUSH1 0x0 KECCAK256 SWAP1 JUMP JUMPDEST ADD DUP1 SLOAD PUSH1 0x1 PUSH1 0x1 PUSH1 0xA0 SHL SUB NOT AND PUSH1 0x1 PUSH1 0x1 PUSH1 0xA0 SHL SUB SWAP1 SWAP3 AND SWAP2 SWAP1 SWAP2 OR SWAP1 SSTORE JUMP JUMPDEST PUSH1 0x40 MLOAD SWAP5 DUP6 SWAP5 DUP6 PUSH2 0x20F0 JUMP JUMPDEST SUB SWAP1 LOG4 SWAP1 JUMP JUMPDEST POP PUSH32 0x3BAB293FC00DB832D7619A9299914251B8747C036867EC056CBD506F60135B13 SWAP4 PUSH2 0x1E70 SWAP2 PUSH1 0x40 MLOAD SWAP5 DUP6 SWAP5 DUP6 PUSH2 0x20F0 JUMP JUMPDEST PUSH1 0x40 MLOAD PUSH4 0x604B4D37 PUSH1 0xE1 SHL DUP2 MSTORE PUSH1 0x20 DUP2 DUP1 PUSH2 0x1ECA DUP12 DUP8 DUP12 ADDRESS PUSH1 0x4 DUP7 ADD PUSH2 0x1F5D JUMP JUMPDEST SUB DUP2 DUP11 GAS STATICCALL DUP1 ISZERO PUSH2 0x1F1B JUMPI PUSH2 0x1EE7 SWAP2 PUSH1 0x0 SWAP2 PUSH2 0x1EEC JUMPI JUMPDEST POP PUSH2 0x1FA1 JUMP JUMPDEST PUSH2 0x1D13 JUMP JUMPDEST PUSH2 0x1F0E SWAP2 POP PUSH1 0x20 RETURNDATASIZE PUSH1 0x20 GT PUSH2 0x1F14 JUMPI JUMPDEST PUSH2 0x1F06 DUP2 DUP4 PUSH2 0xBA2 JUMP JUMPDEST DUP2 ADD SWAP1 PUSH2 0x1F48 JUMP JUMPDEST CODESIZE PUSH2 0x1EE1 JUMP JUMPDEST POP RETURNDATASIZE PUSH2 0x1EFC JUMP JUMPDEST PUSH2 0x1F95 JUMP JUMPDEST POP PUSH2 0x1D00 PUSH2 0x1F41 PUSH1 0x40 MLOAD PUSH1 0x20 DUP2 ADD SWAP1 CALLER DUP3 MSTORE PUSH1 0x20 DUP2 MSTORE PUSH2 0x6BE PUSH1 0x40 DUP3 PUSH2 0xBA2 JUMP JUMPDEST SWAP1 POP PUSH2 0x1CF7 JUMP JUMPDEST SWAP1 DUP2 PUSH1 0x20 SWAP2 SUB SLT PUSH2 0x195 JUMPI MLOAD PUSH2 0xC42 DUP2 PUSH2 0x9EE JUMP JUMPDEST SWAP3 PUSH2 0xC42 SWAP5 SWAP3 PUSH2 0x1F87 SWAP3 PUSH1 0x1 DUP1 PUSH1 0xA0 SHL SUB AND DUP6 MSTORE PUSH1 0x20 DUP6 ADD MSTORE PUSH1 0x80 PUSH1 0x40 DUP6 ADD MSTORE PUSH1 0x80 DUP5 ADD SWAP1 PUSH2 0x966 JUMP JUMPDEST SWAP2 PUSH1 0x60 DUP2 DUP5 SUB SWAP2 ADD MSTORE PUSH2 0x966 JUMP JUMPDEST PUSH1 0x40 MLOAD RETURNDATASIZE PUSH1 0x0 DUP3 RETURNDATACOPY RETURNDATASIZE SWAP1 REVERT JUMPDEST ISZERO PUSH2 0x1FA8 JUMPI JUMP JUMPDEST PUSH1 0x40 MLOAD PUSH3 0x461BCD PUSH1 0xE5 SHL DUP2 MSTORE PUSH1 0x20 PUSH1 0x4 DUP3 ADD MSTORE PUSH1 0xD PUSH1 0x24 DUP3 ADD MSTORE PUSH13 0x696E76616C696420636C61696D PUSH1 0x98 SHL PUSH1 0x44 DUP3 ADD MSTORE PUSH1 0x64 SWAP1 REVERT JUMPDEST SWAP2 SWAP1 PUSH1 0x1F DUP2 GT PUSH2 0x1FEC JUMPI POP POP POP JUMP JUMPDEST PUSH2 0xBD2 SWAP3 PUSH1 0x0 MSTORE PUSH1 0x20 PUSH1 0x0 KECCAK256 SWAP1 PUSH1 0x20 PUSH1 0x1F DUP5 ADD PUSH1 0x5 SHR DUP4 ADD SWAP4 LT PUSH2 0x2018 JUMPI JUMPDEST PUSH1 0x1F ADD PUSH1 0x5 SHR ADD SWAP1 PUSH2 0x137B JUMP JUMPDEST SWAP1 SWAP2 POP DUP2 SWAP1 PUSH2 0x200B JUMP JUMPDEST SWAP2 SWAP1 SWAP2 DUP3 MLOAD PUSH8 0xFFFFFFFFFFFFFFFF DUP2 GT PUSH2 0xB9D JUMPI PUSH2 0x204A DUP2 PUSH2 0x2044 DUP5 SLOAD PUSH2 0x154A JUMP JUMPDEST DUP5 PUSH2 0x1FDD JUMP JUMPDEST PUSH1 0x20 PUSH1 0x1F DUP3 GT PUSH1 0x1 EQ PUSH2 0x2087 JUMPI DUP2 SWAP1 PUSH2 0x1377 SWAP4 SWAP5 SWAP6 PUSH1 0x0 SWAP3 PUSH2 0x207C JUMPI JUMPDEST POP POP DUP2 PUSH1 0x1 SHL SWAP2 PUSH1 0x0 NOT SWAP1 PUSH1 0x3 SHL SHR NOT AND OR SWAP1 JUMP JUMPDEST ADD MLOAD SWAP1 POP CODESIZE DUP1 PUSH2 0x2067 JUMP JUMPDEST PUSH1 0x1F NOT DUP3 AND SWAP1 PUSH2 0x209C DUP5 PUSH1 0x0 MSTORE PUSH1 0x20 PUSH1 0x0 KECCAK256 SWAP1 JUMP JUMPDEST SWAP2 PUSH1 0x0 JUMPDEST DUP2 DUP2 LT PUSH2 0x20D8 JUMPI POP SWAP6 DUP4 PUSH1 0x1 SWAP6 SWAP7 SWAP8 LT PUSH2 0x20BF JUMPI JUMPDEST POP POP POP DUP2 SHL ADD SWAP1 SSTORE JUMP JUMPDEST ADD MLOAD PUSH1 0x0 NOT PUSH1 0xF8 DUP5 PUSH1 0x3 SHL AND SHR NOT AND SWAP1 SSTORE CODESIZE DUP1 DUP1 PUSH2 0x20B5 JUMP JUMPDEST SWAP2 SWAP3 PUSH1 0x20 PUSH1 0x1 DUP2 SWAP3 DUP7 DUP12 ADD MLOAD DUP2 SSTORE ADD SWAP5 ADD SWAP3 ADD PUSH2 0x20A0 JUMP JUMPDEST SWAP3 PUSH2 0x2110 PUSH2 0xC42 SWAP6 SWAP4 PUSH2 0x1F87 SWAP4 DUP7 MSTORE PUSH1 0x80 PUSH1 0x20 DUP8 ADD MSTORE PUSH1 0x80 DUP7 ADD SWAP1 PUSH2 0x966 JUMP JUMPDEST SWAP1 DUP5 DUP3 SUB PUSH1 0x40 DUP7 ADD MSTORE PUSH2 0x966 JUMP JUMPDEST SWAP1 PUSH1 0x20 PUSH2 0xC42 SWAP3 DUP2 DUP2 MSTORE ADD SWAP1 PUSH2 0x966 JUMP JUMPDEST PUSH2 0x21D8 SWAP4 PUSH2 0x2168 PUSH2 0x21B3 SWAP5 SWAP4 PUSH2 0xE32 PUSH1 0x40 MLOAD SWAP4 DUP5 SWAP3 PUSH1 0x20 DUP5 ADD SWAP7 PUSH1 0x1 DUP1 PUSH1 0xA0 SHL SUB AND DUP8 MSTORE PUSH1 0x40 DUP5 ADD MSTORE PUSH1 0x60 DUP1 DUP5 ADD MSTORE PUSH1 0x80 DUP4 ADD SWAP1 PUSH2 0x966 JUMP JUMPDEST MLOAD SWAP1 KECCAK256 PUSH1 0x40 MLOAD PUSH2 0x21AA DUP2 PUSH2 0xE32 PUSH1 0x20 DUP3 ADD SWAP5 DUP6 PUSH1 0x3C SWAP2 PUSH32 0x19457468657265756D205369676E6564204D6573736167653A0A333200000000 DUP3 MSTORE PUSH1 0x1C DUP3 ADD MSTORE ADD SWAP1 JUMP JUMPDEST MLOAD SWAP1 KECCAK256 SWAP1 PUSH2 0x21E6 JUMP JUMPDEST PUSH1 0x40 DUP1 MLOAD PUSH1 0x1 PUSH1 0x1 PUSH1 0xA0 SHL SUB SWAP1 SWAP3 AND PUSH1 0x20 DUP4 ADD SWAP1 DUP2 MSTORE SWAP2 SWAP1 PUSH2 0x6BE SWAP1 DUP3 SWAP1 DUP2 ADD PUSH2 0xE32 JUMP JUMPDEST PUSH2 0x21E1 JUMPI PUSH1 0x0 SWAP1 JUMP JUMPDEST PUSH1 0x1 SWAP1 JUMP JUMPDEST PUSH1 0x0 SWAP1 PUSH1 0x41 DUP2 MLOAD SUB PUSH2 0x225B JUMPI PUSH1 0x20 DUP2 ADD MLOAD SWAP2 PUSH1 0x60 PUSH1 0x40 DUP4 ADD MLOAD SWAP3 ADD MLOAD SWAP1 BYTE SWAP2 PUSH1 0x1B DUP4 LT PUSH2 0x2245 JUMPI JUMPDEST PUSH1 0x40 DUP1 MLOAD SWAP5 DUP6 MSTORE PUSH1 0xFF SWAP1 SWAP4 AND PUSH1 0x20 DUP6 DUP2 ADD SWAP2 SWAP1 SWAP2 MSTORE SWAP3 DUP5 ADD MSTORE PUSH1 0x60 DUP4 ADD MSTORE PUSH1 0x0 DUP1 DUP1 MSTORE SWAP1 SWAP2 PUSH1 0x80 SWAP1 PUSH1 0x1 GAS STATICCALL ISZERO PUSH2 0x1F1B JUMPI PUSH1 0x0 MLOAD SWAP1 JUMP JUMPDEST SWAP1 SWAP2 PUSH1 0x1B ADD SWAP1 PUSH1 0xFF DUP3 GT PUSH2 0x14EA JUMPI SWAP1 SWAP2 SWAP1 PUSH2 0x220E JUMP JUMPDEST POP SWAP1 POP SWAP1 JUMP JUMPDEST SWAP1 PUSH2 0xBD2 PUSH2 0x2275 SWAP3 PUSH1 0x40 MLOAD SWAP4 DUP5 DUP1 SWAP3 PUSH2 0x1584 JUMP JUMPDEST SUB DUP4 PUSH2 0xBA2 JUMP JUMPDEST PUSH1 0x0 MSTORE PUSH1 0x1 PUSH1 0x20 MSTORE PUSH1 0x40 PUSH1 0x0 KECCAK256 PUSH1 0x2 PUSH1 0x40 MLOAD SWAP2 PUSH2 0x2298 DUP4 PUSH2 0xB81 JUMP JUMPDEST PUSH2 0x22A1 DUP2 PUSH2 0x122F JUMP JUMPDEST DUP4 MSTORE PUSH1 0x1 DUP2 ADD SLOAD PUSH1 0x20 DUP5 ADD MSTORE ADD SLOAD DUP1 PUSH1 0x40 DUP4 ADD MSTORE ISZERO PUSH2 0x22FD JUMPI PUSH1 0x0 JUMPDEST DUP2 MLOAD DUP1 MLOAD DUP3 LT ISZERO PUSH2 0x22F5 JUMPI PUSH2 0x22D4 DUP3 PUSH1 0x1 SWAP3 PUSH2 0x140A JUMP JUMPDEST MLOAD EQ DUP1 ISZERO PUSH2 0x22F0 JUMPI JUMPDEST PUSH2 0x22E9 JUMPI PUSH1 0x1 ADD PUSH2 0x22BD JUMP JUMPDEST POP POP PUSH1 0x1 SWAP1 JUMP JUMPDEST PUSH2 0x22DD JUMP JUMPDEST POP POP POP PUSH1 0x0 SWAP1 JUMP JUMPDEST POP PUSH1 0x0 SWAP1 JUMP JUMPDEST PUSH1 0x0 MSTORE PUSH1 0x1 PUSH1 0x20 MSTORE PUSH1 0x40 PUSH1 0x0 KECCAK256 PUSH1 0x2 PUSH1 0x40 MLOAD SWAP2 PUSH2 0x231F DUP4 PUSH2 0xB81 JUMP JUMPDEST PUSH2 0x2328 DUP2 PUSH2 0x122F JUMP JUMPDEST DUP4 MSTORE PUSH1 0x1 DUP2 ADD SLOAD PUSH1 0x20 DUP5 ADD MSTORE ADD SLOAD DUP1 PUSH1 0x40 DUP4 ADD MSTORE ISZERO PUSH2 0x22FD JUMPI PUSH1 0x0 JUMPDEST DUP2 MLOAD DUP1 MLOAD DUP3 LT ISZERO PUSH2 0x22F5 JUMPI DUP2 PUSH2 0x2359 SWAP2 PUSH2 0x140A JUMP JUMPDEST MLOAD PUSH1 0x1 DUP2 EQ SWAP1 DUP2 ISZERO PUSH2 0x2373 JUMPI JUMPDEST POP PUSH2 0x22E9 JUMPI PUSH1 0x1 ADD PUSH2 0x2344 JUMP JUMPDEST PUSH1 0x3 SWAP2 POP EQ CODESIZE PUSH2 0x2366 JUMP JUMPDEST PUSH1 0x0 MSTORE PUSH1 0x1 PUSH1 0x20 MSTORE PUSH1 0x40 PUSH1 0x0 KECCAK256 PUSH1 0x2 PUSH1 0x40 MLOAD SWAP2 PUSH2 0x239A DUP4 PUSH2 0xB81 JUMP JUMPDEST PUSH2 0x23A3 DUP2 PUSH2 0x122F JUMP JUMPDEST DUP4 MSTORE PUSH1 0x1 DUP2 ADD SLOAD PUSH1 0x20 DUP5 ADD MSTORE ADD SLOAD DUP1 PUSH1 0x40 DUP4 ADD MSTORE ISZERO PUSH2 0x22FD JUMPI PUSH1 0x0 JUMPDEST DUP2 MLOAD DUP1 MLOAD DUP3 LT ISZERO PUSH2 0x22F5 JUMPI DUP2 PUSH2 0x23D4 SWAP2 PUSH2 0x140A JUMP JUMPDEST MLOAD PUSH1 0x1 DUP2 EQ SWAP1 DUP2 ISZERO PUSH2 0x23EE JUMPI JUMPDEST POP PUSH2 0x22E9 JUMPI PUSH1 0x1 ADD PUSH2 0x23BF JUMP JUMPDEST PUSH1 0x2 SWAP2 POP EQ CODESIZE PUSH2 0x23E1 JUMP JUMPDEST PUSH1 0x0 MSTORE PUSH1 0x1 PUSH1 0x20 MSTORE PUSH1 0x40 PUSH1 0x0 KECCAK256 SWAP1 PUSH1 0x2 PUSH1 0x40 MLOAD SWAP3 PUSH2 0x2416 DUP5 PUSH2 0xB81 JUMP JUMPDEST PUSH2 0x241F DUP2 PUSH2 0x122F JUMP JUMPDEST DUP5 MSTORE PUSH1 0x1 DUP2 ADD SLOAD PUSH1 0x20 DUP6 ADD MSTORE ADD SLOAD DUP1 PUSH1 0x40 DUP5 ADD MSTORE ISZERO PUSH2 0x2487 JUMPI PUSH1 0x0 JUMPDEST DUP3 MLOAD DUP1 MLOAD DUP3 LT ISZERO PUSH2 0x247E JUMPI DUP2 PUSH2 0x2450 SWAP2 PUSH2 0x140A JUMP JUMPDEST MLOAD DUP3 PUSH1 0x1 DUP3 EQ SWAP2 DUP3 ISZERO PUSH2 0x2474 JUMPI JUMPDEST POP POP PUSH2 0x246C JUMPI PUSH1 0x1 ADD PUSH2 0x243B JUMP JUMPDEST POP POP POP PUSH1 0x1 SWAP1 JUMP JUMPDEST EQ SWAP1 POP DUP3 CODESIZE PUSH2 0x245E JUMP JUMPDEST POP POP POP POP PUSH1 0x0 SWAP1 JUMP JUMPDEST POP POP PUSH1 0x0 SWAP1 JUMP JUMPDEST ISZERO PUSH2 0x2495 JUMPI JUMP JUMPDEST PUSH1 0x40 MLOAD PUSH3 0x461BCD PUSH1 0xE5 SHL DUP2 MSTORE PUSH1 0x20 PUSH1 0x4 DUP3 ADD MSTORE PUSH1 0x1E PUSH1 0x24 DUP3 ADD MSTORE PUSH32 0x496E697469616C206B65792077617320616C72656164792073657475702E0000 PUSH1 0x44 DUP3 ADD MSTORE PUSH1 0x64 SWAP1 REVERT JUMPDEST SWAP1 PUSH2 0x24E4 DUP3 PUSH2 0x1392 JUMP JUMPDEST SWAP1 PUSH1 0x0 MSTORE PUSH1 0x20 PUSH1 0x0 KECCAK256 SWAP1 PUSH1 0x0 JUMPDEST PUSH1 0x1 DUP2 LT PUSH2 0x24FE JUMPI POP POP POP JUMP JUMPDEST PUSH1 0x1 SWAP1 PUSH1 0x20 PUSH1 0xFF DUP5 MLOAD AND SWAP4 ADD SWAP3 DUP2 DUP6 ADD SSTORE ADD PUSH2 0x24F1 JUMP INVALID LOG2 PUSH5 0x6970667358 0x22 SLT KECCAK256 DUP10 PUSH26 0x9B66A8CF80B1EAC9926CB59FADD7E2ED54C7D2FF0FAF5E844083 LOG2 PREVRANDAO 0xD SLOAD PUSH5 0x736F6C6343 STOP ADDMOD SHR STOP CALLER "
        },
        "methodIdentifiers": {
          "addClaim(uint256,uint256,address,bytes,bytes,string)": "b1a34e0d",
          "addKey(bytes32,uint256,uint256)": "1d381240",
          "approve(uint256,bool)": "747442d3",
          "execute(address,uint256,bytes)": "b61d27f6",
          "getClaim(bytes32)": "c9100bcb",
          "getClaimIdsByTopic(uint256)": "80e9e9e1",
          "getKey(bytes32)": "12aaac70",
          "getKeyPurposes(bytes32)": "fb307b34",
          "getKeysByPurpose(uint256)": "9010f726",
          "getRecoveredAddress(bytes,bytes32)": "c3b129e3",
          "initialize(address)": "c4d66de8",
          "isClaimValid(address,uint256,bytes,bytes)": "c0969a6e",
          "keyHasPurpose(bytes32,uint256)": "d202158d",
          "removeClaim(bytes32)": "4eee424a",
          "removeKey(bytes32,uint256)": "53d413c5",
          "supportsInterface(bytes4)": "01ffc9a7",
          "version()": "54fd4d50"
        }
      }
    }
  }
}